:04000000803119280A
:100008007E14803120007F08F20000000000853156
:100018005825803100008431862480318731A62715
:1000280072082000FF007E10090080311B28F801AB
:10003800F901523084000030850014308731CA2716
:100048008031203084000130850044308731CA2750
:100058008031A03084000130850043308731CA27C1
:1000680080311C30840087308500203086000030C5
:1000780087001A308731D0278031ED3084008530F1
:100088008500A03086000030870020308731D027D7
:100098007E1020008531812D20006508153E8600E0
:1000A8008701011C08006508153E86008701811438
:1000B8006508153E86008701011D9C283E080F39FA
:1000C800C0006508113E86008701400881003F088E
:1000D800C1003E08C0000430C200410DC10CC00C74
:1000E800C20B712840080F39C3006508123E86000C
:1000F8008701430881003F080F39C0006508133E97
:1001080086008701400881003F08C1003E08C00002
:100118000C30C200410DC10CC00CC20B8E28400827
:100128000F39C3006508143E860087014308492932
:100138006508153E86008701811D4A293F08803AD7
:10014800C000A7304002031DAB2810303E02031C3C
:10015800C3282000C4010430440203184A2910307F
:10016800C0004408113E6507C100410886008701A8
:10017800400881000130C0004008C407AF28E830BB
:10018800F3000330F40020003F08F601F6073E08AC
:10019800F501F5078331A023803173082000C000E2
:1001A8006508143E8600870140088100E830F300A6
:1001B8000330F4003F08F601F6073E08F501F5079D
:1001C80084313E24803174082000BF01BF077308C2
:1001D800BE01BE076430F3000030F4003F08F601AA
:1001E800F6073E08F501F5078331A023803173082F
:1001F8002000C0006508133E860087014008810082
:100208006430F3000030F4003F08F601F6073E08BA
:10021800F501F50784313E24803174082000BF01C0
:10022800BF077308BE01BE070A30F3000030F400B0
:100238003F08F601F6073E08F501F5078331A023CC
:10024800803173082000C0006508123E86008701CF
:10025800400881000A30F3000030F4003F08F6013E
:10026800F6073E08F501F50784313E24803174080D
:100278002000BF01BF077308BE01BE073E08C000CB
:100288006508113E86008701400881006508143E14
:10029800860087010108003A03195B290330C00072
:1002A8006508173E86008701400881000800650838
:1002B800133E860087010108003A03196C290230B1
:1002C800C0006508173E86008701400881000800C5
:1002D8006508123E860087010108003A03197B2948
:1002E8006508173E860087018101810A08006508B4
:1002F800173E86008701810108003F302000C100B9
:100308004108C70020003E08C2003D08C100BD0AE0
:100318000319BE0A41088400420885000008C3008A
:100328004308CD00CD08031908004D08253A0319E4
:10033800A2294D088731C227813186292000C501AD
:100348003E08C2003D08C100BD0A0319BE0A4108A3
:100358008400420885000008CD00003A0319232ACA
:10036800783A0319B8298629470886008701403F4B
:10037800C800413FC9000230C1004108C707CD018C
:10038800CD0A4D08043A0319E8294D08C100C201F5
:10039800C135C20D0030410784008730423D8500D9
:1003A800003FC300013FC40044084902031DDE2981
:1003B80043084802031CE8290130C1004108CD0761
:1003C8004D08043A031DC9294D08C1004108CC0055
:1003D800FF302000C1004108CC074C08FF3A031940
:1003E80086294C08C100C201C135C20D0030410741
:1003F80084008730423D8500003FF300013FF40050
:100408004908F601F6074808F501F5078431C124C3
:10041800813173080F392000C3004308C60046081D
:10042800083E840087300318013E85000008C1009B
:100438004108CD004D088731C2278131EC290800D9
:100448007A08860087010118472A7A0A86008701F8
:100458000130810741310318810A7A0A8600870131
:10046800403FDC3A031D3A2A413F053A031D080084
:100478007A0A860087010030C03FC13F7A088600AB
:100488008701011408007A08053E860087010130BB
:10049800810741310318810A7A08053E86008701E1
:1004A800403FE83A031D5A2A413F033A031D9D2A5B
:1004B8007A08053E860087010030C03FC13F0430FE
:1004C80020008C067A080C3E860087010108003A55
:1004D80003199D2A7908403E8600013087000108EB
:1004E8007907C50045088600013087000108C60065
:1004F800C7014608BE004708BF008031502082313E
:1005080001302000C5007908403E86000130870090
:10051800450881077908403E8600013087000108B8
:10052800203A031D9D2A7908403E86000130870045
:1005380081017A08073E8600870101308107413131
:100548000318810A7A08073E86008701403FD03A9F
:10055800031DB02A413F073A031D08007A08073EE9
:10056800860087010030C03FC13F080020006508B1
:10057800153E86008701811C08000130F3006508DC
:10058800193E86008701730881076508193E8600B1
:1005980087010108053A031D08006508193E860011
:1005A800870181010F30F30073088C056508163E3A
:1005B800860087018108031DE32A0C16FF2A6508B7
:1005C800163E860087010108013A031DED2A8C16A4
:1005D800FF2A6508163E860087010108023A031DB6
:1005E800F72A0C17FF2A6508163E860087010108BE
:1005F800033A03198C176508163E8600870101081F
:10060800113E6507F3007308860087010108650736
:10061800F40074088600870101088D006508163EFD
:10062800860087016508173E8400850100080102DD
:100638000318272B0130F3006508163E8600870152
:100648007308810708006508163E86008701810146
:1006580008007908423E860001308700011E6C2B95
:100668007908423E86000130870001128331F42365
:1006780083317A080C3E860087018101810A0230A5
:1006880020008C06F601203076020318652B7608C8
:100698007907BA003A088600013087000108BB00D4
:1006A80076087807BC003C088600013087003B08C4
:1006B80081000130BA003A08F60720307602031CA0
:1006C8004B2B7808433E8600013087000114080050
:1006D80020000E1C832B7908423E860001308700DB
:1006E800811A08007908423E860001308700811689
:1006F8007908423E86000130870001160800790813
:10070800423E860001308700811E902B7908423EC8
:1007180086000130870081127908423E8600013048
:100728008700811D08007908423E86000130870055
:1007380081118431F82408002000BB01F41FAB2B81
:10074800F309F409F30A0319F40ABB01BB0AF61FFB
:10075800B62BF509F609F50A0319F60A0130F70070
:100768007708BB06BC01BD01740873040319E52BA7
:10077800BA01BA0AF41BCA2B0130F335F40D890B00
:10078800C12B0130F7007708BA07BE2B0130BC3502
:10079800BD0D890BCB2B74087602031DD52B73086E
:1007A8007502031CDC2B7308F5027408F63B3C1435
:1007B8000130F436F30C890BDD2B0130BA02031D2E
:1007C800CA2B3B080319ED2BBC09BD09BC0A031948
:1007D800BD0A3D08F401F4073C08F301F3070800DB
:1007E80024001618F42B16141618F82B1130910043
:1007F8001418FC2B161BFE2BF5012030750203186C
:10080800252C1618052C9619072C961596190A2CBE
:100818001108F30075087907F400740886000130A0
:10082800870073088100161A1B2C1616172C161A27
:100838001B2C0130F3007308F50720307502031CE8
:10084800052C9619252C9615961D2C2C282C161639
:10085800161E2B2C161A2E2C9619302C9615961916
:10086800332C161C392C352C1615161D382C161D34
:1008780008003B2C2000BB01F61F492CF509F6099E
:10088800F50A0319F60ABB01BB0AF41F502CF30939
:10089800F409F30A0319F40A740873040319772C8A
:1008A800BA01BA0AF41B622C0130F335F40D890B36
:1008B800592C0130F7007708BA07562C74087602CD
:1008C800031D682C73087502031C6E2C7308F5024F
:1008D8007408F63B0130F436F30C890B6F2C0130A9
:1008E800BA02031D622C3B0803197F2CF509F6098F
:1008F800F50A0319F60A7608F401F4077508F301F6
:10090800F30708002100911E08002000911E08002E
:1009180023001F1F8C2C1908F0007808423E86001F
:10092800013087000108203E7807F1007108860031
:1009380001308700700881000130F0007808423EDD
:10094800860001308700700881077808423E8600DB
:10095800013087000108203A031D08007808423E4C
:1009680086000130870081017808433E8600013007
:10097800870081142100911208002000BB01BC01EE
:10098800740873040319F12CBA01BA0AF41BD62CA3
:100998000130F335F40D890BCD2C0130F7007708C1
:1009A800BA07CA2C0130BB35BC0D890BD72C74088B
:1009B8007602031DE12C73087502031CE82C7308EA
:1009C800F5027408F63B3B140130F436F30C890B3E
:1009D800E92C0130BA02031DD62C3C08F401F407B7
:1009E8003B08F301F307080024001618F82C161426
:1009F8001618FC2C103091001418002D161B022D0F
:100A0800F401203074020318212D1618092D7408DA
:100A1800203E7907F300730886000130870001083B
:100A280091001418152D161B172D0130F3007308AB
:100A3800F40720307402031C092D161C252D212DC6
:100A48001615161D242D161D0800272D7A080C3E94
:100A5800860087018101810AF60120307602031899
:100A6800512D7608203E7807F30073088600013080
:100A780087000108F4007608203E7907F50075081C
:100A8800860001308700740881000130F300730884
:100A9800F60720307602031C352D7908423E860081
:100AA80001308700811508002100111C0800200072
:100AB800111C0800FD309700443096001110520AAE
:100AC800860087010130810741310318810A520AE3
:100AD80086008701403F143A031D742D413F003AB8
:100AE800031D0800520A860087010030C03FC13F3D
:100AF8007A08860087010115080087319727853114
:100B080087316427853187317727853100007A0856
:100B180086008701011D8B2D7A0886008701011147
:100B28008231242285317A0886008701011C8B2DA9
:100B380083312D2385318531CB2585318231BA2208
:100B480085318B2D2000D101203051020318080077
:100B580023009E1CAC2D19302000BD008730BE003C
:100B680051087807CE004E0886000130870001083A
:100B7800CF00D0014F08BF005008C000813181214B
:100B8800853101302000CE004E08D107A82D780805
:100B9800433E860001308700811CDD2D7808433EE6
:100BA800860001308700811085312A2521009116A1
:100BB80008007808433E860001308700011C0800C1
:100BC8007808433E86000130870001108531A6254C
:100BD8000800633402340034003400340034003434
:100BE80000340034003400340034FF34FF34FF3460
:100BF800003400340034003400340034003400344D
:100C0800003400340034003400340034003400343C
:020C18000034A6
:100E00000134003410340034003401340034103420
:100E10003034313432343334343435343634373496
:100E2000383439346134623463346434653466345C
:100E30000034253478340034C034F934A434B03468
:100E4000993492348234D834803490348834833462
:100E5000A734A13486348E34BF34003400340034D7
:100E60000034003400340034003400342030F30007
:100E70007308F80021008E170E17333023009B00F3
:100E80009C019F1190309D0024309E001E131D1365
:100E90002100111291160B178B1708000930210041
:100EA0008C008D0119308E0022008C018D018E0185
:100EB000013023008C008D018E01093020008C0050
:100EC0008D0119308E00080078302100990087319B
:100ED0004E278731000087318727873100000000C7
:100EE00000008731B5278731873136270800203049
:100EF000F30073082000E5006508153E86008701B1
:100F000001146508153E86008701811508006230CE
:100F1000F30073082000D20041309800FD309700A4
:100F200044309600210011140B178B170800533022
:100F3000F3007308FA007A080D3E86008701011459
:100F4000A030F30073082000E60008002100911D86
:100F500008002000911D0800210091117908423EEF
:100F600086000130870001140800A030F3007308E8
:100F7000F900093024009200803094009601283056
:100F800095000800F3002000111EC32F73082300F2
:100F90009A000800640080010131890BCB2F0034D6
:0C0FA000FE0012001E00FE0BD12F0034DA
:020000040001F9
:04000E00E4FFFEFF0E
:00000001FF
