:040000008A11112828
:10000800FE00030EF8000408F9000A08FA0083123B
:1000180003137F08FB008A15682F8A11E02F8A15C1
:1000280061278A113C308316031390002F30850016
:1000380001308600870107308316031785000130D9
:100048008600AF30831203138500013086008701D4
:100058000000443083120313D0005008A50041303B
:100068009000FD308F00DA308E00831603130C14D5
:100078000B178B1700007030831603139F000000C6
:10008800403083120313D0005008A20022088400D5
:100098008313001450288616861E532854284F2888
:1000A800572857280616061E5A285B2856285E2801
:1000B8005E288615861D612862285D2863283B30E6
:1000C800D0005008A00020088400831300142F30AB
:1000D800D0005008A100210884000014A030D000EE
:1000E8005008A4002408840000142408203E84003A
:1000F80000151930D00024082C3E840050088000D8
:100108000230D0002408233E8400500880002408D0
:10011800263E840064308000840A003080009528E0
:100128000616061E98289928942886123530D0007D
:100138005008A3002308840083130014A328570839
:100148008400001DA828A928A328570884000011A6
:100158008A1171278A1183120313220884008313DA
:10016800801CB728B828D0280130D0002208013ECA
:100178008400500880072208013E84000008963A4F
:10018800031DC728C828D0282208013E8400800102
:1001980020308606D028D02822088400001DD528C3
:1001A800D628EE280130D0002208023E84005008EC
:1001B80080072208023E84000008963A031DE528BD
:1001C800E628EE282208023E8400800110308606C8
:1001D800EE28EE2822088400801DF328F4280C2934
:1001E8000130D0002208033E84005008800722080E
:1001F800033E84000008963A031D032904290C29AC
:100208002208033E84008001083086060C290C2948
:1002180020088400001C1129122994292008840030
:1002280080181729182934292008023E84008008DC
:1002380003191F29202994292008023E8400000858
:10024800D0002008013E8400500880002008023EAB
:10025800840080012008840080148614942994293D
:100268000130D0002008043E840050088007200890
:10027800043E84000008503A031D432944297C2980
:100288002008043E8400800186184B294C294E29F9
:1002980086147C2986102008013E84000230000262
:1002A800031C572958295E292008013E8400013083
:1002B80080027C292008033E84008008031D6529EC
:1002C80066296A292008840080107C292008033EBA
:1002D80084000008D0002008013E840050088007F0
:1002E8002008033E840080017C297C297C297C2904
:1002F8002008023E84008008031983298429942950
:100308002008023E84000008D0002008033E840034
:10031800500880002008023E840080019429942916
:1003280021088400001C99299A292C2A0130D00020
:100338002108013E8400500880072108013E8400FE
:100348000008643A031DA929AA292C2A2108013E7C
:10035800840080012108053E840000147030831653
:1003680003139F003130831203139F009F14BC298D
:100378009F18BF29C029BC29C1291E08D0002108FF
:10038800043E840050088313800009309F009F14A6
:10039800CD299F18D029D129CD29D2291E08D000CE
:1003A8002108033E84005008831380002108053E7D
:1003B8008400001021088400801421088400801C17
:1003C800E629E7292C2A2108840080102108023E0A
:1003D80084000018F029F129072A2108033E840027
:1003E8000008D0002108043E84000008D10050080D
:1003F8005102031C002A012A2C2A2108023E8400EB
:1004080000142C2A2C2A2108033E840000089C3E54
:10041800D000FF3003180030D1002108043E8400CA
:100428005108803AD20080305202031D1D2A00086C
:100438005002031C202A212A2C2A83120313210884
:10044800023E8400831300102C2A2C2A2C2A2C2AE2
:1004580083120313240884008313001C342A352ACA
:10046800412E0130D0002408043E84005008800743
:100478002408043E84000008643A031D442A452ADF
:10048800412E2408043E840080012408840080143E
:100498007030831603139F000530831203139F00E7
:1004A8009F14562A9F18592A5A2A562A5B2A3330EB
:1004B800C7000030C8001E08D000D1015008C9008C
:1004C8005108CA008A11FB268A11831203134708B0
:1004D800D2002408013E84005208831380000D30A6
:1004E8009F009F14772A9F187A2A7B2A772A7C2ACA
:1004F8001E08D0002408033E84005008831380009F
:100508002408840080102408203E84000014240855
:10051800013E84008008031D922A932A9C2A2408FD
:10052800263E840064308000840A00308000E82A77
:100538002408013E84000008013A031DA42AA52AC4
:10054800AE2A2408263E8400B8308000840A0B3086
:100558008000E82A2408013E84000008023A031DAE
:10056800B62AB72AC02A2408263E840070308000A4
:10057800840A17308000E82A2408013E8400000815
:10058800033A031DC82AC92AD22A2408263E840011
:1005980028308000840A23308000E82A2408013E9D
:1005A800840004300002031CDA2ADB2AE82A240823
:1005B800263E8400E0308000840A2E308000E82A3D
:1005C800E82AE82AE82AE82A2408033E84000008E2
:1005D800D0002408053E84000008083E2407D10006
:1005E8005108840050088000D6010A305602031CC6
:1005F800FE2AFF2A012B232B232B5608083E24070B
:10060800D000500884000008D100D2012408123E0E
:10061800840051088007840F00080318000AFF00AF
:1006280052087F07800084030130D0005008D607A5
:100638000A305602031C212B222B012B232B0A30B4
:10064800C7000030C8002408123E84000008C90012
:10065800840A0008CA008A15B0278A118312031376
:100668004708D0002408063E840083130008143E7F
:100678002407D10051088400500880002408123E45
:10068800840000308000840A00308000D6010A30DF
:100698005602031C502B512B532B752B752B5608C8
:1006A800143E2407D000500884000008D100D2016D
:1006B80024081E3E840051088007840F0008031890
:1006C800000AFF0052087F07800084030130D00031
:1006D8005008D6070A305602031C732B742B532B71
:1006E800752B0A30C7000030C80024081E3E84005D
:1006F8000008C900840A0008CA008A15B0278A11B0
:10070800831203134708D0002408073E84005008CA
:100718008313800024081E3E840000308000840A71
:10072800003080002408053E84000A3000020318C7
:100738009E2B9F2BA72B0130D0002408053E840058
:1007480050088007C12B2408053E84008001240836
:10075800063E84000A3000020318B32BB42BBC2BCE
:100768000130D0002408063E840050088007C12BC1
:100778002408063E84008001C12B2408203E840002
:100788000019C72BC82BDC2B2108023E8400001C53
:10079800CE2BCF2B072C2408203E840000151930BF
:1007A800D00024082C3E840050088000072C072C19
:1007B8002108023E84000018E22BE32B072C2408B2
:1007C800203E840000112408203E8400801CED2B6C
:1007D800EE2B072CF12BF12B8616861EF42BF52B0E
:1007E800F02BF82BF82B0616061EFB2BFC2BF72BF1
:1007F800FD2B2008023E8400831380010314800D22
:10080800072C072C072C2408203E8400801C0D2C64
:100818000E2C0F2E2408203E8400001C142C152CAE
:10082800412E2408203E840000102408203E840025
:10083800001D1F2C202C412E2408293E84006430E2
:1008480000020318282C292C312C0130D000240850
:10085800293E840050088007C42C2408293E8400BF
:10086800800124082B3E84005A300002031C3D2CD2
:100878003E2C6E2C24082B3E8400800124082A3E3E
:100888008400800124082D3E8400800124082C3E29
:1008980084000008193A031D522C532C5B2C23307A
:1008A800D00024082C3E840050088000C42C240862
:1008B8002C3E84000008233A031D632C642CC42CAE
:1008C8002D30D00024082C3E840050088000C42C11
:1008D800C42CC42C24082B3E84000008D000240813
:1008E8002D3E84005008800724082B3E8400800198
:1008F80024082A3E8400063000020318842C852C24
:100908008D2C0130D00024082A3E8400500880072E
:10091800C42C24082A3E8400800124082D3E84002B
:100928000B3000020318992C9A2CC42C24082C3E56
:10093800840000082D3A031DA22CA32CAB2C2330D5
:10094800D00024082C3E840050088000BC2C2408C9
:100958002C3E84000008233A031DB32CB42CBC2C75
:100968001930D00024082C3E840050088000BC2C8C
:1009780024082D3E84008001C42CC42CC42CC42C13
:1009880024082E3E84000008D00024082C3E840051
:1009980000085007D100D201D20DD109D209D10ADD
:1009A8000319D20A2408073E840000085107D3001F
:1009B80052080318520AD4002408033E840054083D
:1009C800803A803C031DEA2C53080002031CED2CDE
:1009D800EE2C652D8312031324082E3E8400831306
:1009E8000008D00024082C3E840000085007D100DD
:1009F800D201D20D2408073E840000085107D30015
:100A08000030031801305207D4002408033E840044
:100A18005408803AD50080305502031D152D000872
:100A28005302031C182D192D652D83120313240856
:100A3800213E8400003083138000840A0030800047
:100A4800262D8616861E292D2A2D252D2D2D2D2D58
:100A58000616061E302D312D2C2D322D2408243E4D
:100A68008400013083138007840A0318800A24084D
:100A7800263E84000008D000840A0008D10024081B
:100A8800243E84000008D200840A0008D3005108DC
:100A98005306031D512D50085206031D542D552D84
:100AA800412E2408243E840000308000840A00304F
:100AB80080002008023E840080010314800D412E2E
:100AC800412E013083120313D00024082B3E8400EA
:100AD8005008831380072408213E840001308007D2
:100AE800840A0318800A2408213E84000008D000E4
:100AF800840A0008D1002408233E84000008D2009C
:100B0800D30151085306031D8B2D50085206031DAF
:100B18008E2D8F2DB12D2408213E840000308000B9
:100B2800840A003080002408243E840000308000BD
:100B3800840A003080002008023E840080010314EB
:100B4800800D24082E3E840080010230D000240845
:100B5800233E840050088000B12D24082C3E8400D8
:100B68000008D000D101D009D109D00A0319D10A4F
:100B78002408073E840000085007D20051080318D3
:100B8800510AD3002408033E84005308803A803C6D
:100B9800031DD02D520800020318D32DD42DDF2DAC
:100BA800D72DD72D061683120313061EDC2DDD2D37
:100BB800D62D8612412E8312031324082C3E84005E
:100BC80083130008D0002408073E8400000850075B
:100BD800D100D201D20D2408033E84005208803A85
:100BE800D30080305302031DFB2D00085102031867
:100BF800FE2DFF2D412E022E022E86168312031380
:100C0800861E072E082E012E0612412E412E412E39
:100C1800412E412E412E2408213E840001308313A9
:100C28008007840A0318800A2408213E84000008EB
:100C3800D000840A0008D10001305106031D262E79
:100C48002C305006031D292E2A2E412E2408213E21
:100C5800840000308000840A003080002408203E90
:100C680084008014382E8616861E3B2E3C2E372E86
:100C7800412E412E412E412E412E8312031323086B
:100C8800043E84008313800803194B2E4C2EB12E8A
:100C98002308043E84000008153A031D542E552EDF
:100CA8007C2E2308840000195A2E5B2EAC2E2308B4
:100CB80084000015051A612E622E752E2308840003
:100CC80080145A30D0002308023E84005008800067
:100CD8004630D0002308033E8400500880000615E3
:100CE800AC2E2308840080100611AC2EAC2EAC2E3E
:100CF8002308043E84000008143A031D842E852E20
:100D0800AC2E23088400001D8A2E8B2EAC2E2308BF
:100D180084000011051E912E922EA52E2308840012
:100D280080142830D0002308023E84005008800038
:100D38001430D0002308033E8400500880000615B4
:100D4800AC2E2308840080100611AC2EAC2EAC2EDD
:100D58002308043E84008001B12E000000008312A5
:100D68000313230884008313801CBB2EBC2EA328E6
:100D78000130D0002308013E840050088007230872
:100D8800033E84000008D0002308013E84000008C8
:100D98005006031DD02ED12EDC2E23088400001D02
:100DA800D62ED72ED92E0516DC2E0512DC2EDC2EDB
:100DB8002308023E84000008D0002308013E840076
:100DC8000008D10050085102031CEB2EEC2EA3287A
:100DD8002308013E84008001230884008010061146
:100DE800A328A328A328A328A3288A11112883129B
:100DF8000313CD01C81F012F022F0B2FC709C809E4
:100E0800C70A0319C80ACD010314CD0D0B2FCA1F39
:100E18000E2F0F2F192FC909CA09C90A0319CA0A9F
:100E28000130CB004B08CD06192FCE01CF01480861
:100E380047040319202F212F5F2FCC010314CC0D59
:100E4800312F01300310C70DC80DFF3E031D262F9B
:100E58000130CB004B08CC07312FC81F342F352F5A
:100E6800252F372F372F01300310CE0DCF0DFF3E22
:100E7800031D382F48084A02031D442F470849021A
:100E8800031C472F482F502F4708C9024808031C46
:100E9800CA03CA024E14502F01300310C80CC70CE5
:100EA800FF3E031D512F0130CC02031D5C2F5D2F27
:100EB800372F5F2F5F2F4D08031D632F692FCE0932
:100EC800CF09CE0A0319CF0A692F4F08C801C807EE
:100ED8004E08C701C707702F08008312031357086D
:100EE800013E8400013083138007840A0318800AB6
:100EF8005708033E840001308007840A0318800ADB
:100F0800570884000018892F8A2FA92F5708013EF7
:100F180084000008C700840A0008C8000330480697
:100F2800031D982FE8304706031D9B2F9C2FC42FC5
:100F38005708013E840000308000840A0030800099
:100F4800570884000014C42FC42F5708013E84009A
:100F58000008C700840A0008C80003304806031DBB
:100F6800B72FE8304706031DBA2FBB2FC42F5708E9
:100F7800013E840000308000840A00308000C42FC5
:100F88005708033E84000008C700840A0008C80008
:100F980003304806031DD22FE8304706031DD52F1E
:100FA800D62FDF2F5708033E840000308000840AC4
:100FB80000308000DF2F08007030840076308A11FE
:100FC800F6278A1183132030840047308A11F627C8
:100FD8008A11A0308400CF308A11F6278A11830144
:100FE8008A11132864008001840A04060319003456
:040FF8000406F72FC5
:101EC200263083120313C7004708D700080000001A
:101ED200831603130C1C6E2F6F2FA22F8312031372
:101EE2000C1C742F752FA22FFD308F00DA308E005C
:101EF2000C100000831203132508013E84000130F8
:101F020083138007840A0318800A2508013E84008F
:101F12000008F600840A0008F700143076067704F9
:101F2200031D942F952FA22F2508013E8400003017
:101F32008000840A00308000570884000015A22F18
:101F4200A22F00007B0883120313FF007A088A0085
:101F520079088400780E8300FE0E7E0E090083123B
:101F62000313CD01CE01480847040319B92FBA2F34
:101F7200F82FCC010314CC0DCA2F01300310C70D6A
:101F8200C80DFF3E031DBF2F0130CB004B08CC070D
:101F9200CA2FC81FCD2FCE2FBE2FD02FD02F01304A
:101FA2000310CD0DCE0DFF3E031DD12F48084A026E
:101FB200031DDD2F47084902031CE02FE12FE92F03
:101FC2004708C9024808031CCA03CA024D14E92F74
:101FD20001300310C80CC70CFF3E031DEA2F01306D
:101FE200CC02031DF52FF62FD02FF82FF82F4E0815
:0E1FF200C801C8074D08C701C707FF2F080028
:04400E00F4FFFFFFBD
:00000001FF
