:04000000803116280D
:100008007E14803120007F08F7009831E620803187
:10001800803159208031A4319B2477082000FF00CB
:100028007E10090080311828F001F801F901FA0161
:10003800FB01FC01FD01EC01ED01EE01A0308400A3
:10004800003085004830A331CF2380312030840030
:10005800013085004E30A331CF238031C030840079
:10006800013085001030A331CF2380312030840047
:10007800023085002530A331CF238031A0308400A1
:10008800023085004730A331CF238031BE30840051
:10009800A7308500A0308600013087002030A331CA
:1000A800C9237E1020009231E72A8B1E08000B1D01
:1000B8000800A630200095000B1179088600013051
:1000C8008700011CB1280130F3007908033E86003F
:1000D800013087007308810721003908023E860035
:1000E80087010108F300F401F309F409F30A03197D
:1000F800F40A7908043E8600013087000108730776
:10010800F50074080318740AF6007908033E86009F
:10011800013087007608803A803C031D95287508D1
:100128000102031CEB297908033E86000130870091
:100138008101790886000130870001107908073E9F
:100148008600013087000114790886000130870095
:10015800011FEB2920008C17EB297908073E860040
:1001680001308700011CB6297908073E8600013056
:10017800870001107908860001308700811CB629A4
:100188000130F300790A860001308700730881077F
:10019800790A8600013087007908023E8400013020
:1001A800850000080102031CB629790A860001307F
:1001B800870081017908860001308700811D1A298E
:1001C8007908860001308700011A01297908043E60
:1001D80086000130870044300102031CFB2879089F
:1001E800043E86000130870001308102B629790873
:1001F8008600013087000116B6297908043E86007A
:100208000130870078300102031814290130F30007
:100218007908043E86000130870073088107B629F3
:1002280079088600013087000112B629790886000E
:1002380001308700011D61297908053E86000130DB
:1002480087007908043E8400013085000008010217
:10025800031836297908043E8600013087000130EA
:1002680081024D297908043E86000130870079080B
:10027800053E8400013085000008010203184D295D
:100288000130F3007908043E8600013087007308C6
:1002980081077908053E8600013087007908043E09
:1002A80084000130850000080106031DB62979087D
:1002B80086000130870001117C2979088600013009
:1002C8008700811E82297908043E86000130870054
:1002D800013081027908053E8600013087007908DF
:1002E800043E84000130850000080102031CB62981
:1002F80079088600013087008110B6290130F300A3
:100308007908043E86000130870073088107790860
:10031800043E8600013087007908063E84000130DB
:10032800850000080102031CB629790886000130FF
:100338008700811079088600013087000113790849
:100348000C3E860001308700011421003908860020
:100358008701011420008C11F101F10A01309A3152
:100368008822803120008C1FEB290130F3007908A6
:10037800083E860001308700730881077908043E2B
:100388008600013087000108F300F401F309F4093D
:10039800F30A0319F40A7308783EF5000030743D37
:1003A800F6007908083E8600013087007608803A12
:1003B800803C031DE12975080102031CEB2979081B
:1003C800083E860001308700810120008C137A08DE
:1003D800860001308700011C3B2A0130F3007A08AF
:1003E800033E860001308700730881072100390821
:1003F800023E860087010108F300F401F309F409BD
:10040800F30A0319F40A7A08043E860001308700CB
:1004180001087307F50074080318740AF6007A08CF
:10042800033E8600013087007608803A803C031D31
:100438001F2A75080102031C752B7A08033E8600E3
:100448000130870081017A08860001308700011099
:100458007A08073E86000130870001147A08860072
:1004680001308700011F752B20000D16752B7A08A7
:10047800073E860001308700011C402B7A08073EA2
:1004880086000130870001107A0886000130870055
:10049800811C402B0130F3007A0A86000130870066
:1004A800730881077A0A8600013087007A08023EBD
:1004B80084000130850000080102031C402B7A0AE1
:1004C80086000130870081017A08860001308700A4
:1004D800811DA42A7A08860001308700011A8B2A18
:1004E8007A08043E86000130870044300102031C6C
:1004F800852A7A08043E860001308700013081028F
:10050800402B7A088600013087000116402B7A08B4
:10051800043E8600013087007830010203189E2AC5
:100528000130F3007A08043E860001308700730822
:100538008107402B7A088600013087000112402B82
:100548007A08860001308700011DEB2A7A08053EEB
:100558008600013087007A08043E84000130850057
:10056800000801020318C02A7A08043E86000130F8
:10057800870001308102D72A7A08043E86000130BC
:1005880087007A08053E84000130850000080102D2
:100598000318D72A0130F3007A08043E8600013098
:1005A8008700730881077A08053E860001308700B6
:1005B8007A08043E84000130850000080106031D06
:1005C800402B7A088600013087000111062B7A0833
:1005D800860001308700811E0C2B7A08043E8600B5
:1005E80001308700013081027A08053E860001301B
:1005F80087007A08043E8400013085000008010263
:10060800031C402B7A088600013087008110402B9C
:100618000130F3007A08043E860001308700730831
:1006280081077A08043E8600013087007A08063E72
:1006380084000130850000080102031C402B7A0861
:1006480086000130870081107A0886000130870013
:1006580001137A080C3E860001308700011421003E
:10066800390886008701011420008E13F101F10A70
:1006780002309A318822803120000D1E752B0130FE
:10068800F3007A08083E8600013087007308810766
:100698007A08043E8600013087000108F300F4015F
:1006A800F309F409F30A0319F40A7308783EF5000C
:1006B8000030743DF6007A08083E86000130870055
:1006C8007608803A803C031D6B2B75080102031CD9
:1006D800752B7A08083E86000130870081012000CA
:1006E8000D1221006A0A8600870101308107413115
:1006F8000318810A6A0A86008701403FC83A031D29
:10070800872B413F003A031D942B6A0A8600870114
:100718000030C03FC13F690886000130870081145E
:100728007808860001308700811C0800780A860056
:10073800013087000130810741310318810A080020
:1007480020006E08860002308700811ED12B6E08BB
:10075800033E8600023087000130810741310318CB
:10076800810A6E08033E860002308700403FAD00D4
:10077800413FAE0003302E02E83003192D02031C5E
:1007880008006E08033E8600023087000030C03F34
:10079800C13F00309C31F624080020006E08860016
:1007A80002308700011ED72D6E0A860002308700AE
:1007B8000130810741310318810A6E0A8600023030
:1007C8008700403FAD00413FAE0000302E020530AB
:1007D80003192D02031C08006E0A860002308700E8
:1007E8000030C03FC13F6E0886000230870001120A
:1007F8006E08453E8600023087006E08443E84003D
:10080800023085000008AD006E08433E84000230C7
:10081800850000082D070107AE006E083E3E8600E1
:10082800023087002E088100B101B10A043031027C
:1008380003184C2C3135083E6E07AD002D08860094
:10084800023087006E082E3E840002308500403F4B
:1008580080070131413F803D3F3131351A3E6E07F7
:10086800AD002D088600023087006E08303E8400F7
:1008780002308500403F80070131413F803D3F31D4
:100888000130AD002D08B10704303102031C1E2CC5
:100898000330A0000030A1006E082E3E8600023012
:1008A8008700403FA200413FA3009B318223833150
:1008B80020006E082E3E8600023087002008C03FC8
:1008C8002108C13F0330A0000030A1006E08303E6F
:1008D800860002308700403FA200413FA3009B31C1
:1008E8008223833120006E08303E86000230870064
:1008F8002008C03F2108C13F6E082E3E8600023006
:100908008700403FAD00413FAE006E08303E860094
:1009180002308700403FAF00413FB0002E08300250
:10092800031D982C2D082F020318D42D6E082E3E77
:100938008600023087006E08303E84000230850051
:10094800003FAD00013FAE00AD09AE09AD0A031985
:10095800AE0A403F2D07AF00413F2E3DB0006E0864
:100968002C3E8600023087002F08C03F3008C13F68
:100978006E083A3E860002308700023001020318F2
:10098800152D0130AD006E083A3E86000230870012
:100998002D0881076E083A3E86000230870001085C
:1009A800013A031DE12C6E08363E860002308700AE
:1009B800F430C03F0130C13F152D6E083A3E860025
:1009C800023087000108023A031D152D6E083E3ECD
:1009D8008600023087000108013A031DFD2C6E08CD
:1009E800363E8600023087003230C03F0030C13FBB
:1009F800152D6E08063E860002308700403FAD0088
:100A0800413FAE002D082A3EAF0000302E3DB00019
:100A18006E08363E8600023087002F08C03F300837
:100A2800C13F6E08363E860002308700403FAD0069
:100A3800413FAE006E082C3E860002308700403FE2
:100A4800AF00413FB0002E083002031D2D2D2D08A8
:100A58002F02031C4C2D0130AD006E083C3E860071
:100A6800023087002D0881076E083C3E8600023060
:100A7800870003300102031CD42D6E083C3E86001B
:100A880002308700810101309C31F6248331D42D56
:100A980020006E083C3E86000230870081016E0807
:100AA800423E8600023087000A3001020318652D95
:100AB8000130AD006E08423E8600023087002D08E6
:100AC80081076E08423E8600023087000A30010224
:100AD800031CD42D6E088600023087008115A20100
:100AE800A20A0130A531752583312000A201A20A8E
:100AF8000230A5317525833120006E08463E8600F8
:100B080002308700011C9C2D6E08463E860002308C
:100B1800870001106E082C3E8600023087006E08A0
:100B2800063E840002308500403F803F413F813FC0
:100B38006E08463E860002308700811CD42D6E0860
:100B4800463E86000230870081106E082C3E8600E3
:100B5800023087006E08063E840002308500403F60
:100B6800803F413F813F6E083E3E8600023087004D
:100B78000108AD00AE012D08A0002E08A1003230FA
:100B8800A2000030A300A7318127833120006E081E
:100B9800363E8600023087002008C03F2108C13F4A
:100BA8009831A120080020006E08860002308700D6
:100BB800811C012E6E088600023087000119EE2D77
:100BC8006E0886000230870001156E088600023024
:100BD80087008111A331DC238331003A031908000F
:100BE800A43101248331003A0319080020006E085B
:100BF800860002308700011608006E088600023061
:100C08008700011D08006E08860002308700011168
:100C18006E0886000230870081156E083C3E86000B
:100C28000230870081016E083A3E86000230870054
:100C380081016E08063E8600023087000030C03F02
:100C4800C13F6E083F3E86000230870081016E0872
:100C5800463E86000230870001106E08463E860038
:100C68000230870081106E082C3E86000230870013
:100C78000030C03FC13F9831A12083312000A2013C
:100C8800A20A0130A531752583312000A201A20AEC
:100C98000230A531752508002000E9006D0886009E
:100CA80001308700011C08006908A531E925863153
:100CB80020006908013A031D6D2EE701E70A0C1FA1
:100CC8000C1A672EE7016D08860001308700670857
:100CD8007C2E6908023A031D7F2EE801E80A0C1CE5
:100CE8008D18772EE8016D088600013087006808A6
:100CF8008110031D81146D08860001308700811C56
:100D0800562F6D088600013087000119AC2E01307E
:100D1800E5006D08023E86000130870065088107FE
:100D28006D08023E86000130870005300102031C71
:100D380008006D08023E86000130870081016D08B9
:100D48008600013087000115690892317822080071
:100D580020006D088600013087008119DE2E6D089D
:100D6800033E8600013087000130810741310318B6
:100D7800810A6D08033E860001308700403FE50088
:100D8800413FE60000306602963003196502031CF5
:100D980008006D08033E8600013087000030C03F20
:100DA800C13F6D08860001308700811569089931B7
:100DB8003121080020006D08860001308700011AE3
:100DC800232F6D08053E860001308700013081071A
:100DD80041310318810A6D08053E860001308700FD
:100DE800403FE500413FE6000030660296300319B7
:100DF8006502031C08006D08053E86000130870067
:100E08000030C03FC13F6D088600013087000116E1
:100E1800A201A20A0130A5311925863121006908ED
:100E2800033E860001308700811C080064302000E2
:100E3800A6000030A70002309331C7230800200025
:100E48006D08860001308700811A08006D08073E8A
:100E58008600013087000130810741310318810A7B
:100E68006D08073E860001308700403FE500413F9E
:100E7800E600013066022C3003196502031C0800E5
:100E88006D08073E8600013087000030C03FC13F33
:100E98006D088600013087008116A2010130A53156
:100EA8001925080020006D08860001308700011D03
:100EB80008000130E5006D08023E86000130870019
:100EC800650881076D08023E8600013087000530FD
:100ED8000102031C08006D08023E860001308700ED
:100EE80081016D0886000130870001116D08033EFD
:100EF8008600013087000030C03FC13F6D08860082
:100F08000130870081116D08053E86000130870099
:100F18000030C03FC13F6D088600013087000112D4
:100F28006D08073E8600013087000030C03FC13F92
:100F38006D088600013087008112690893315623B5
:100F480086312000A2010130A531192508002000B2
:100F5800E8006808A431422487317C0886008701AC
:100F6800011FC22F2100A008031D08002108643AB0
:100F7800031D080001309E314C2608002100A008FE
:100F8800031D08002108023A031D08002C08FF3A37
:100F9800031DD82F2D08FF3A031DD82F2E08FF3A1E
:100FA800031DD82F0000080020006F080C3E8600A3
:100FB8000130870021002C080106031D08002000CD
:100FC8006F080D3E86000130870021002D080106BC
:100FD800031D080020006F080E3E860001308700C0
:100FE80021002E080106031D080001309631D9267C
:100FF80008008E31DD26080001309531C125080032
:101008002000E4006408A6317E26883121003808D3
:1010180086008701811C08003808023E8600870187
:101028000130810741310318810A3808023E8600E1
:101038008701403F2000E200413FE3001630630291
:10104800123003196202031C080021003808023E0E
:10105800860087010030C03FC13F01302000E20018
:1010680021003808043E86008701200062088107B5
:1010780021003808043E86008701380A840085016B
:1010880000080102031C08003808043E8600870196
:10109800810138088600870181102000A2016408B8
:1010A800A531362588312000A2016408A5312725FD
:1010B80088312000DD016408913133218831200016
:1010C800A201A20A6408A531652588312000A20181
:1010D8006408A5315525883101308B3118238831B2
:1010E80064302000A6000030A70001309331C723E8
:1010F80008002000A900AB01AA016E088600023092
:101108008700011E0800C030A4002408A000290898
:10111800A6316826883120006E08323E86000230EB
:1011280087002008C03F2108C13FAB0105302B02D2
:101138000318D7286E08323E860002308700403FE9
:10114800A400413FA5002B35083E6E07A6002608DF
:10115800860002308700403FA700413FA8002508CD
:101168002802031DB928240827020318CF286E086F
:10117800323E8600023087002B35083E6E07A400F9
:101188002408840002308500403F803F413F813F72
:10119800AA01AA0AD7280130A4002408AB07053001
:1011A8002B02031C9E28AA08031D0800AB0105306A
:1011B8002B02031808002B351A3E6E07A4002408DA
:1011C800860002308700403FA500413FA6006E0818
:1011D800323E860002308700403FA700413FA8000A
:1011E80026082802031DFA282508270203180E29B5
:1011F8006E08323E8600023087002B351A3E6E0795
:10120800A4002408840002308500403F803F413F0D
:10121800813F08000130A4002408AB07DB287808C8
:10122800860001308700811220008D198116780808
:10123800860001308700811C08007808063E860079
:1012480001308700403F2000A000413FA100780AFC
:10125800860001308700403FA200413FA3002108DB
:101268002302031D392920082202031C0800780ADA
:101278008600013087000030C03FC13F78088600F3
:1012880001308700811AAD297808033E86000130B5
:1012980087008108031DA629780886000130870089
:1012A800811D782978088600013087008111780827
:1012B800043E8600013087000108A0007808033E3C
:1012C800860001308700200881007808083E8600E3
:1012D800013087007808063E840001308500403FD1
:1012E800803F413F813F0800780886000130870031
:1012F800011EA029780886000130870001127808AD
:10130800053E8600013087000108A0007808033EEA
:101318008600013087002008810078080A3E860090
:10132800013087007808063E840001308500403F80
:10133800803F413F813F08007808860001308700E0
:1013480081100800780886000130870081168D1505
:101358000800780886000130870081128D1178080E
:10136800033E86000130870001308102080020001A
:101378003108B4003208B5003308B6000310350D43
:10138800360DB7003708BC00BC08031DD229003051
:10139800AE000030AF000030B00008002E08B400E6
:1013A8002F08B5003008B6000310350D360DB7000C
:1013B8003708BD00BD08031DE8290030AE00003025
:1013C800AF000030B00008000030B9000030BA00AB
:1013D8000030BB0089303D07B4003408BC02310836
:1013E800B4003208B5003308B6001030B636B50C74
:1013F800B40C890BFA293408B7003708BD002E0849
:10140800B4002F08B5003008B6001030B636B50C59
:10141800B40C890B0A2A3408B7003708BD06803097
:10142800B4003408BD05B217FF30B105FF30B2056E
:101438000030B305AF17FF30AE05FF30AF05003001
:10144800B0051830B4003408B8000130B935BA0D09
:10145800BB0D890B2A2A30083302031D392A2F08AD
:101468003202031D392A2E083102031C422A2E0893
:10147800B1022F08B23B3008B33B39140130B13503
:10148800B20DB30D890B432A0130B802031D292A76
:101498003908A0003A08A1003B08A2003C08B400A3
:1014A8003408A3003D08B5003508A4009031092090
:1014B80020002008AE002108AF002208B000080074
:1014C80020002E08B4002F08B5003008B60003101D
:1014D800350D360DB7003708B800B808031D7B2A4C
:1014E8000030AE000030AF000030B0000800310816
:1014F800B4003208B5003308B6000310350D360DB8
:10150800B7003708BD00BD08031D912A0030AE00A2
:101518000030AF000030B00008003D087B3EB4004A
:101528003408B8072E08B4002F08B5003008B600F4
:101538001030B636B50CB40C890B9D2A3408B700A8
:101548003708BD003108B4003208B5003308B600CA
:101558001030B636B50CB40C890BAD2A3408B70078
:101568003708BD068030B4003408BD05AF17B21780
:10157800FF30B105FF30B2050030B3050030B900C7
:101588000030BA000030BB000730B4003408BC009B
:101598002E1CD42A3108B9073208BA3D3308BB3D9E
:1015A8000130B036AF0CAE0C890BD52A0130B135FD
:1015B800B20DB30D890BDB2A0130BC02031DCC2A06
:1015C8000930B4003408BC002E1CF02A3108B907D1
:1015D8003208BA3D3308BB3D0130B036AF0CAE0C13
:1015E800890BF12A0130BB36BA0CB90C890BF72AE2
:1015F8000130BC02031DE82A3908A0003A08A100FE
:101608003B08A2003808B4003408A3003D08B50020
:101618003508A4009031092020002008AE002108D8
:10162800AF002208B00008002000A3002308A4315E
:1016380042248B317C0886008701011C08007C0845
:1016480086008701011908007C08860087010115BA
:1016580063302000A20022082100A00002302000F0
:10166800A20022082100A10020006F088600013096
:1016780087000130423F2100A20020006F08860049
:10168800013087000130433F2100A30020006F088C
:101698008600013087000130443F2100A40020006B
:1016A8006F088600013087000130453F2100A50002
:1016B80020006F088600013087000130463F210076
:1016C800A60020006F088600013087000130473FE0
:1016D8002100A70020006F08860001308700013034
:1016E800483F2100A80020006F08860001308700CD
:1016F8000130493F2100A90020006F088600013011
:10170800870001304A3F2100AA0020006F088600A8
:101718000130870001304B3F2100AB0020006F08EB
:1017280086000130870001304C3F2100AC002000CA
:101738006F0886000130870001304D3F2100AD0061
:1017480020006F0886000130870001304E3F2100DD
:10175800AE0020006F0886000130870001304F3F3F
:101768002100AF0020006F0886000130870001309B
:10177800503F2100B00020006F088600013087002C
:101788000130513F2100B10020006F088600013070
:1017980087000130523F2100B20020006F08860008
:1017A800013087000130533F2100B3000230200090
:1017B800A20022082100B400080020003E08C4004E
:1017C8003F08C5004008C6000310450D460DC70078
:1017D8004708CA004108C4004208C5004308C600BB
:1017E8000310450D460DC7004708C9004A080319EC
:1017F800092C49084A020318102C4A03FF3A4907E2
:10180800C40019304402031C102C4108BE004208D1
:10181800BF004308C00008004908031908004A0827
:10182800490203181F2C4903FF3A4A07C40019301C
:101838004402031808000630C4004408C800C01B4E
:10184800C817C31B4817BF17FF30BE05FF30BF05B9
:101858000030C005C217FF30C105FF30C205003097
:10186800C30549084A0203185B2C0130C135C20D73
:10187800C30D890B3A2C0130C90249084A060319DD
:10188800562C0130C802480807390319562C392C40
:101898000130C036BF0CBE0C890B4D2C0130C40082
:1018A8004408CA074A0849060319802C4C2C4A08E0
:1018B80049020318802C0130BE35BF0DC00D890BBD
:1018C800602C0130CA0249084A0603197C2C0130F1
:1018D800C8024808073903197C2C5F2C0130C3362D
:1018E800C20CC10C890B732C0130C4004408C90711
:1018F8004A084906031D722CC81F922CFF30BE06E9
:10190800FF30BF06FF30C0060130BE0700300318A5
:101918000130BF07003003180130C007481FA42C4E
:10192800FF30C106FF30C206FF30C3060130C107D1
:10193800003003180130C207003003180130C30714
:10194800C8013E08C1073F08C23D4008C33DC31F48
:10195800BF2CFF30C106FF30C206FF30C30601307E
:10196800C107003003180130C207003003180130E6
:10197800C307C801C80A4108A0004208A1004308DB
:10198800A2004A08C4004408A3004808C500450846
:10199800A4009031092020002008BE002108BF00C3
:1019A8002208C00008001F30A631DF268C31AA3A71
:1019B800031D502D0030A631DF268C312000DD00BC
:1019C8006F080C3E8600013087005D0881000130F9
:1019D800A631DF268C312000DD006F080D3E860021
:1019E800013087005D0881000230A631DF268C3186
:1019F8002000DD006F080E3E8600013087005D087C
:101A0800810043309E3106268C312000DD005D08C0
:101A1800DE005E08DD006F08153E86000130870095
:101A28005D0881005E08DD006F08163E8600013003
:101A380087005D0881005E08DD006F08173E86009C
:101A4800013087005D0881006F080C3E8600013078
:101A580087000108FF3A031D08006F080D3E860045
:101A6800013087000108FF3A031D08006F080E3E89
:101A78008600013087000108FF3A031D0800210095
:101A8800690886000130870081166908033E8600D0
:101A9800013087008114080043309E3106268C31BE
:101AA8002000DD005D08DE00FF30DD002100680851
:101AB80086000230870020005D088100FF30DD00CD
:101AC8002100680A86000230870020005D08810036
:101AD800FF30DD0021006808023E860002308700E2
:101AE80020005D088100FF30DD0021006808033E0A
:101AF80086000230870020005D088100FF30DD008D
:101B080021006808043E86000230870020005D0836
:101B18008100FF30DD0021006808053E86000230A4
:101B2800870020005D088100AA30DD0021006808D8
:101B38001F3E86000230870020005D0881005E0895
:101B4800DD006F08153E8600013087005D088100C2
:101B58005E08DD006F08163E8600013087005D08CC
:101B680081005E08DD006F08173E8600013087009F
:101B78005D0881008B139A31EA228B1721006908CE
:101B880086000130870081166908033E860001300F
:101B98008700811408007B08860001308700011C3B
:101BA80008007B0886000130870081191F2E7B08FA
:101BB800063E860001308700013081074131031855
:101BC800810A7B08063E860001308700403F2000DE
:101BD800AD00413FAE0002302E02BC3003192D0289
:101BE800031C0800A43179248D31003A0319152EFD
:101BF800A331DC238D31003A0319152E7B08063EEC
:101C08008600013087000030C03FC13F7B08860056
:101C18000130870081157B0886000130870001119B
:101C280008007B08063E860001308700BC30C03FB4
:101C38000230C13F08007B08063E8600013087005D
:101C48000130810741310318810A7B08063E86006E
:101C580001308700403F2000AD00413FAE0000301A
:101C68002E02023003192D02031C08007B08063ED1
:101C78008600013087000030C03FC13F7B088600E6
:101C88000130870081117B08860001308700811CA4
:101C9800882E7B0A860001308700403FAD00413F17
:101CA800AE0001302E02913003192D020318C42E04
:101CB8007B0A860001308700403FAD00413FAE00FF
:101CC80000302E02C83003192D02031CC42E013027
:101CD800AD007B08053E8600013087002D0881078E
:101CE8007B08053E86000130870002300102031C94
:101CF800CA2E7B08053E860001308700810100302E
:101D08009B31B9238D31CA2E7B0A860001308700AA
:101D1800403F2000AD00413FAE0001302E02903020
:101D280003192D020318A72E7B0A860001308700AD
:101D3800403FAD00413FAE0000302E02D3300319C2
:101D48002D020318C42E0130AD007B08053E860025
:101D5800013087002D0881077B08053E8600013089
:101D6800870002300102031CCA2E7B08053E86004C
:101D780001308700810101309B31B9238D31CA2E92
:101D88007B08053E86000130870081017B088600BC
:101D9800013087008118D52E7B0886000130870026
:101DA80001157B0A8600013087000030C03FC13F23
:101DB80008007D08860001308700011C08007D08A6
:101DC8008600013087000119292F7D0A860001301D
:101DD80087000130810741310318810A7D0A860096
:101DE80001308700403F2000AD00413FAE00013088
:101DF8002E02F43003192D02031C0800A4317924A3
:101E08008E31003A0319202FA43101248E31003A73
:101E18000319202F7D0A8600013087000030C03F5B
:101E2800C13F7D0886000130870001157D088600C6
:101E380001308700011208007D0A86000130870002
:101E4800E830C03F0330C13F08007D0A86000130FA
:101E580087000130810741310318810A7D0A860015
:101E680001308700403F2000AD00413FAE00003008
:101E78002E02043003192D02031C08007D0A860077
:101E8800013087000030C03FC13F7D088600013027
:101E9800870001117D08083E8600013087007D0813
:101EA800043E840001308500403F803F413F813F30
:101EB8007D08860001308700811C8F2F7D08043E35
:101EC800860001308700403FAD00413FAE00023040
:101ED8002E02583003192D02031CBD2F0130AD000E
:101EE8007D08033E8600013087002D0881077D08A4
:101EF800033E86000130870003300102031CC32F14
:101F08007D08033E860001308700810100309C3146
:101F1800B4248E31C32F7D08043E8600013087002B
:101F2800403F2000AD00413FAE0002302E02273076
:101F380003192D020318BD2F0130AD007D08033EA3
:101F48008600013087002D0881077D08033E860042
:101F58000130870003300102031CC32F7D08033EB4
:101F6800860001308700810101309C31B4248E3114
:101F7800C32F7D08033E86000130870081017D085C
:101F88008600013087008118CE2F7D088600013039
:101F9800870001167D08043E860001308700403F17
:101FA8002000AD00413FAE002E08AF006F08183E7C
:101FB8008600013087002F0881007D08043E8600D6
:101FC800013087000108AD006F08193E8600013016
:101FD80087002D0881007D08063E860001308700B5
:101FE8000030C03FC13F7D08083E860001308700B1
:101FF8000030C03FC13F08002000A0008B10201C0B
:1020080007280B1608000B120800200023080319E4
:102018001228220821042004031D23280030A000D0
:102028000030A1000030A20008000130A5002508FA
:10203800A3070130A236A10CA00C890B1E28FE3084
:10204800220503193C2819280130A5002508A307F3
:102058000130A007003003180130A1070030031831
:102068000130A2070130A236A10CA00C890B372839
:10207800FF3022050319492828280130A30201301E
:10208800A035A10DA20D890B4428A11F41282318B2
:102098005328FF30A0057F30A105FF30A2050310AB
:1020A800A30C2308A500A601A7011030A535A60D8D
:1020B800A70D890B5A282508A0042608A10427087B
:1020C800A204240803190800A217080020000D180C
:1020D8000D186C283B30A7312D279031210043087B
:1020E8000319C02820000E12FF30A4002408210084
:1020F800BF0020000E197D28A631AD269031A731EA
:102108006427903121003F082000A4002408210002
:10211800BE002000A50121003E082000250203186A
:10212800A728A7316427903121003F082000A40088
:102138002508A03E86008701240881000130A400FC
:102148002408A5078F28A7316427903121003F086C
:102158002000A40024082100BD00A7316427903185
:1021680021003F082000A40024082100B700200017
:102178000E162100B71B70153630A5314525903154
:102188003A30A531452590312000A2010130A53112
:102198000B2508002000AA002A08013A031DE4289C
:1021A800A63152269031003A0319FC282C30200021
:1021B800A6000130A7000A309331C7239031FC28CC
:1021C80020002A08023A031DF7282C30A600013007
:1021D800A70005309331C72390312100390A8600C2
:1021E80087010108012920002A08033A031D042950
:1021F80001309E319426903102309E3194269031E0
:102208002000A20101309931D22190312000A20191
:1022180002309931D221903121006908033E8600AD
:10222800013087000118080069080E3E8600013059
:102238008700011069080E3E860001308700811072
:1022480069080E3E86000130870001156908083EBE
:102258008600013087000030C03FC13F08002000E1
:10226800E100E001E00A6108FF3E890A3D29031008
:10227800E00DFF3E031D3B296108DE006F080B3EA1
:102288008600013087005E08810043309E310626B3
:1022980091312000DE006108143E6F07DF005F08FF
:1022A8008600013087005E0881006108143E6F07D0
:1022B800DE005E088600013087000108DF006F0835
:1022C800093E8600013087005F08810061081A3ED8
:1022D8006F07DE005E088600013087000108DF0016
:1022E8006F08113E8600013087005F0881005D0895
:1022F80003198E296F080F3E8600013087000108F8
:102308006004DE006F080F3E8600013087005E081B
:10231800810008006F080F3E8600013087006009C1
:102328000105DE006F080F3E8600013087005E0859
:10233800810008002000A8007D0886000130870081
:10234800011D0800F030A4002408A0002808A631C8
:10235800682691317D080A3E8600013087002000FA
:102368002008C03F2108C13F7D080A3E8600013091
:102378008700403FA400413FA5007D08063E860037
:1023880001308700403FA600413FA70025082702EB
:10239800031DD029240826020318E1297D080A3ED6
:1023A8008600013087007D08063E840001308500E4
:1023B800403F803F413F813F08007D080A3E86003C
:1023C80001308700403FA400413FA5007D08083E3A
:1023D800860001308700403FA600413FA70025083E
:1023E8002702031DF92924082602031808007D087E
:1023F8000A3E8600013087007D08083E84000130CF
:102408008500403F803F413F813F08002000A601F2
:10241800203026020318292A2608A631DF26923101
:102428002000A4002608210068072000A500250830
:10243800860002308700240881000130A4002408A7
:10244800A60720302602031C102A6F080C3E8600BF
:10245800013087000108A4002100680886000230C6
:1024680087002000240881006F080D3E8600013097
:1024780087000108A4002100680A8600023087004E
:102488002000240881006F080E3E86000130870076
:102498000108A40021006808023E86000230870077
:1024A80020002408810021006808223E86000230AE
:1024B8008700011D702A6808223E860002308700C6
:1024C8000111690886000130870081126908033EFE
:1024D80086000130870081108B13A431B324923118
:1024E8009A31EA228B1708002000E300E201E20A91
:1024F8006308013A031D822A7A08872A6308023A88
:10250800031D922A7908093E8600013087000310CE
:10251800011D0314003003180130E200620803199A
:1025280008006D0886000130870081176430A60016
:102538000030A70001309331C723923120006D0885
:10254800860001308700011BD42A6D0886000130FF
:1025580087000117A201A20A6308A5312725923135
:102568002000A201A20A6308A53165259231200046
:10257800A201A20A6308A5315525923120006D08F1
:102588008600013087000030011B0130DD00630840
:1025980091313321923101308B311823200008000A
:1025A80020006D0886000130870001136D08860041
:1025B800013087000030011B0130A2006308A531FB
:1025C800272520000800A4316E249231A6319526D3
:1025D80092318C31D7249231A431BF249231A43165
:1025E8002C249231A331AB239231A431D7249231D8
:1025F800A331A5239231A331F1239231A6311226BA
:102608009231A431FE249231A331BA239231A531FB
:10261800FD25923121006908860001308700011CE0
:10262800242B053088317D209231093091319E214B
:10263800923111309C3173249231893113219231B6
:1026480021006908860001308700811C0E2B69086B
:10265800860001308700811094313E249231210098
:102668006908860001308700011C0E2B9D31C125A9
:102678009231A431CB2492318731FD2792318331B5
:10268800A4239231A331A8239231A4315824923142
:10269800A43111249231883100209231A331F923D9
:1026A80092310E2B2000E4006D088600013087006F
:1026B800811F08006D0886000130870081136D08AE
:1026C800860001308700011FA22B6D0A86000130A9
:1026D8008700011C08006D0A860001308700011080
:1026E800A201A20A6408A531B52593312000A201F0
:1026F8006408A531A5259331200064081A3E6F07A8
:10270800E20062088600013087000108E3006F08D4
:10271800113E860001308700630881006D0886003D
:10272800013087000030011B0130DD006408913161
:102738003321933101308B31182308002000A20186
:10274800A20A6408A531652593312000A201640816
:10275800A531552593312000A301A40164089F31B8
:102768004627933120006D0886000130870000302D
:10277800011B0130DD0064089131332193310130B0
:102788008B31182308002000A9001430A000003065
:10279800A1002708A301A3072608A201A207A731C1
:1027A8008127933120002108A701A7072008A60147
:1027B800A6077808860001308700011C0800780801
:1027C8008600013087008118022C780886000130C5
:1027D800870081142908A8007808033E8600013084
:1027E8008700280881007808063E860001308700A7
:1027F8002608C03F2708C13F8D15080078088600C5
:10280800013087008119202C780886000130870064
:1028180081152908A8007808043E86000130870041
:10282800280881007808083E8600013087002608BD
:10283800C03F2708C13F080078088600013087009C
:10284800011A080078088600013087000116290857
:10285800A8007808053E8600013087002808810016
:1028680078080A3E8600013087002608C03F2708FE
:10287800C13F08002100690886000130870001185F
:10288800892C690A860001308700013081074131AF
:102898000318810A690A860001308700403F963A8A
:1028A800031D582C413F003A031D0800690A8600A1
:1028B800013087000030C03FC13F69088600013001
:1028C800870001140130A431632494310130A5310B
:1028D8008525943132302000A6000030A70003304F
:1028E8009331C723943121006908033E86000130E3
:1028F800870001140130A731482794312000A20134
:10290800A20A01309931A821080021006908063E71
:102918008600013087000130810741310318810AA0
:102928006908063E860001308700403F643A031D6F
:102938009F2C413F003A031D08006908063E8600A7
:10294800013087000030C03FC13F69088600013070
:102958008700811908006908860001308700811501
:1029680008002000E600E501E50A6608A531D6253D
:10297800943120006608013A031DC42C7A08C92C3A
:102988006608023A031DD12C79080C3E86000130F6
:102998008700003001180130E5006C08093E860008
:1029A80001308700811C072D6508031908006C0891
:1029B800093E860001308700011CF52C6C08093E91
:1029C8008600013087008110A401A40A66089731A7
:1029D8006C2720006C080C3E86000130870001102F
:1029E80008006C08093E8600013087008110A401A8
:1029F800660897316C2720006C080C3E8600013071
:102A08008700011008006C08093E86000130870025
:102A1800811D08006508031908006608A531D62538
:102A2800943120006C08093E86000130870081112E
:102A38006C08093E860001308700011D332DE20134
:102A4800E20A66089D313925943164302000A600D9
:102A58000030A70001309331C72320000800200070
:102A6800E20166089D3139252000080020004B0846
:102A7800CF004C08D0004D08D1000310500D510D67
:102A8800D2005208D800D808031D532D0030CE00BC
:102A98000030CD000030CC000030CB0008004B08DF
:102AA800CF004C08D0004D08D1001730D136D00CDB
:102AB800CF0C890B5A2D4F08D2005208D300CC17DF
:102AC800FF30CB05FF30CC050030CD054B08D400D6
:102AD8004C08D5004D08D600D7018E30D802D81F33
:102AE800912D5808803A8F3E0318832D0030CE0070
:102AF8000030CD000030CC000030CB0008000130A1
:102B0800D736D60CD50CD40C890B842D0130CF00C8
:102B18004F08D8070319AA2D832D18305802031C13
:102B2800A72D0030CE000030CD000030CC000030A2
:102B3800CB0008000130D435D50DD60DD70D890B43
:102B48009F2D0130D802D808031D9E2D5308031964
:102B5800B82DD409D509D609D709D40A0319D50A35
:102B68000319D60A0319D70A5708CE005608CD000C
:102B78005508CC005408CB0008002000EA006A0879
:102B8800A431422495317C0886008701011C080085
:102B98002000EB010C1F0C1AD52D0C18D52D8D1CFF
:102BA800DC2D7C0886008701011BDC2DEB01EB0A7C
:102BB8007C08860087016B088113031D81177C0838
:102BC80086008701811B142E7C0886008701811CE2
:102BD800F92D7C0886008701811090316A20953193
:102BE80001308731AB279531182E7C088600870184
:102BF8000119182E7C08860087018119182E7C0877
:102C08008600870181153630A53145259531343048
:102C1800A531452595310130903100209531182E88
:102C280001309931572195317C0886008701011DB3
:102C3800080001309931572195317C0886008701B9
:102C4800811A3E2E01302000E9007C0A86008701A7
:102C5800690881077C0A860087010108193A031D63
:102C680008007C0A8600870181017C0886008701AC
:102C7800811608007C088600870181127C0886007E
:102C8800870101119D317D2508002000E3006308BC
:102C9800A6313C26963121003C08860087010118A0
:102CA8008A2E3008803A031D662E2000A301A30A4D
:102CB800210031082000E2006208A40063089F3167
:102CC8004627963121003C08860087010114200020
:102CD800A201A20A6308A531362596312000A20177
:102CE800A20A6308A531652596312000A201A20A2F
:102CF8006308A5315525963121003C0886008701D7
:102D08000030011801302000DD00C82E21003008F5
:102D1800803A031DA02E2000A301A30A2100310838
:102D28002000E2006208A40063089F31462796311C
:102D38002000DD01DD0AC82E21003C08860087013D
:102D480001102000A2016308A53136259631200024
:102D5800A201A20A6308A5316525963121003C0825
:102D6800860087010030011801302000A2006308A6
:102D7800A531552596312000A301A40163089F3190
:102D8800462796312000DD016308913133219631C1
:102D980064302000A6000030A70001309331C7231B
:102DA800963101308B31182308002000E7006708AE
:102DB800A431422496312100AF08031D2C2F200096
:102DC800A401013097316C2796312000A20101300F
:102DD800A531272596312000A2010130A5313625DD
:102DE80096312000A401023097316C2796312000DB
:102DF800A2010230A531272596312000A201023018
:102E0800A5313625963120006F08093E860001302D
:102E1800870081016F080B3E860001308700810121
:102E28006F080F3E86000130870081016F08113E50
:102E380086000130870081016430A6000030A700B9
:102E480001309331C723963101308B3118230800A4
:102E580021002F08203A031D482F20006F08093E43
:102E680086000130870081016F080B3E8600013023
:102E7800870081016F08113E8600013087008101BB
:102E880001308B311823080021002F08013A031D57
:102E9800512F013096314926080021002F08113A98
:102EA800031D5A2F01309C313324080021002F08BC
:102EB800023A031D632F023096314926080021008B
:102EC8002F08213A031D080002309C3133240800E2
:102ED8002000A6002608A531D6259731200026080F
:102EE800A5002100390A86008701200025088100F5
:102EF80024080319D42F6C08860001308700811636
:102F0800A20126089F31A22797310030A631272633
:102F1800973120006C088600013087008114033047
:102F2800A5006C08023E8600013087002508810054
:102F38006C08860001308700011B08006C088600B9
:102F4800013087000117A001A00A26089B311B2326
:102F580021006808223E8600023087008110680838
:102F6800233E8600023087000030C03FC13F20006A
:102F78006C08053E8600013087000108A5006C0832
:102F8800043E860001308700250881004330A500F3
:102F98006C08043E8600013087002508810008007F
:102FA8006C0886000130870081126C08063E860096
:102FB800013087000108A5006C08043E8600013036
:102FC8008700250881006C0886000130870081147D
:102FD8006C0886000130870081116C08860001307A
:102FE800870001120330A5006C08023E86000130FC
:102FF80087002508810008000334163417341E346E
:103008001F3420342A342B340B340C340D340E3452
:103018000F34103411341234133414340A34153480
:1030280021342234183419341A341B341C341D3416
:10303800233424342534263429342C342D342E34A6
:1030480000340134023407340834093406340434B3
:1030580005342734283407340734303487346B3444
:10306800F8347F343F34093400345C34A734623494
:103078008634833403342234F83400344434B63488
:10308800103418341D341C34C7340034B234EA34D4
:103098000A34003411345934883431340B342F3421
:1030A8002E3406340434053400343034D3349134A7
:1030B80041340034FE34FE34FE34FE34FE34FE3433
:1030C800FE34FE34773021008C0007308D000C3040
:1030D8008E0022008C0102308D008E0122302300E8
:1030E8008C008D018E01773020008C0007308D0018
:1030F8000C308E0008002000A1002108013A031DB1
:103108008B28D930A00020082100BB00080020002F
:103118002108023A031D9628DD30A000200821006E
:10312800BB00080020002108633A031D0800D530C1
:10313800A00020082100BB0008002000A1010530E4
:103148002102031808002135083E6E07A000200858
:103158008600023087000030C03FC13F21351A3E4B
:103168006E07A0002008860002308700FF30C03FAD
:10317800FF30C13F0130A0002008A107A32820008C
:10318800E0006008A531D625983120006C0886003B
:103198000130870001156C08860001308700811412
:1031A8006F08093E86000130870001089E31EB2632
:1031B8002000DF006C08053E8600013087005F08AC
:1031C800810008008B1D08002700161D0800161135
:1031D8000B1021006908860001308700011C0800D7
:1031E800A631F826983120000D1D01292100390843
:1031F800023E86008701810108000830F1002100A5
:103208003908023E860087017108810008000130F4
:103218002000A2000030A30021082302031D162964
:103228002008220203180800A401A5010030250285
:1032380002300319240203182C290130A407003096
:10324800A53D00302502023003192402031C212960
:103258000130A2070030A33D10292000A4006D080A
:10326800860001308700811F08006D0A8600013042
:10327800870001146D088600013087000117A2013C
:10328800A20A2408A531272599312000A201A20A03
:103298002408A531B52599312000A201A20A2408E5
:1032A800A531A52508002000A4002408A431422443
:1032B80099317C0886008701811D08007C088600FA
:1032C800870181117C088600870181107C0A8600AD
:1032D800870181017C088600870181123630A5317B
:1032E800452599313A30A53145259931003090313D
:1032F800002008002000A8012F3028020318080029
:103308002808003E840098300318013E8500000814
:10331800A5002508A60028082F3E84009830031829
:10332800013E85000008A5002508A7002708A5007C
:103338002508A2002608A631C626993101302000AA
:10334800A5002508A80780292000A3002308A43188
:10335800422499317C088600870120002208011048
:10336800031D01147C088600870101137C08860070
:10337800870101117C088600870181117C0886007D
:10338800870181107C0A8600870181017C088600FC
:103398008701811200309031002008002000A3002E
:1033A8002308A531D62520006C08093E8600013087
:1033B800870022088110031D81146C08093E8600CD
:1033C8000130870022080110031D01146C08093E12
:1033D80086000130870022088111031D81156C08C1
:1033E800093E86000130870022080111031D0115DE
:1033F80008002000A3002308A531D62520006C086A
:103408000C3E86000130870001144330A2006C088E
:10341800053E860001308700220881007830A2002E
:103428006C08063E860001308700220881006C087F
:10343800063E8600013087000108A2006C08043EA1
:103448008600013087002208810008002000A200C1
:103458000530A0002008A1002208053A031D362ADD
:103468000530532A2208103A031D3C2A0A30532AF1
:103478002208153A031D422A0F30532A2208203AFF
:10348800031D482A1430532A2208253A031D4E2AC0
:103498001930532A2208303A031D562A1E30A0003C
:1034A8002008A1002108080020008E100E100E161A
:1034B8000A30A0000030A10099310B219A31200078
:1034C8000E120A30A0000030A10099310B219A3168
:1034D80020000E162830A0000030A10099310B21E1
:1034E8009A3120000E123030A60026082100BF00B5
:1034F80020000E197C2AA631AD269A3120000E191B
:10350800822A0E100E160800F20020006E08463EB1
:1035180086000230870071088110031D81146E082F
:10352800423E860002308700023081027208013A6A
:10353800031DA42A6E08433E8600023087008101DD
:103548007208023A031DAE2A6E08443E8600023015
:10355800870081017208033A031D08006E08453E82
:10356800860002308700810108002000A1006E0853
:10357800463E86000230870020088110031D811412
:103588006E08423E86000230870002308102210820
:10359800013A031DD52A6E08433E86000230870093
:1035A80081012108023A031DDF2A6E08443E860085
:1035B8000230870081012108033A031D08006E08C4
:1035C800453E86000230870081010800230015135C
:1035D8003030920094011512951615152000A1019E
:1035E800203021020318142B210823009100200009
:1035F8002108210068072000A0002008860002306A
:103608008700010823009300A43119249A3101305E
:103618002000A0002008A10720302102031CF82A5E
:1036280023009512A4311924230015110800200045
:10363800A1006E0886000230870081146E08463E9D
:1036480086000230870020080110031D011421089C
:10365800013A031D362B6E08433E86000230870070
:103668008101810A2108023A031D412B6E08443E5C
:103678008600023087008101810A2108033A031D70
:1036880008006E08453E8600023087008101810AE5
:1036980008002000E300653021002902031C5A2B92
:1036A80064302000E10061082100A90029082000F9
:1036B800E1006F08093E860001308700610881003B
:1036C8006308E1006F080B3E86000130870061083F
:1036D80081006F08093E8600013087000108E1007B
:1036E8006308143E6F07E200620886000130870015
:1036F8006108810063089831C32008002000A501F3
:10370800A601210820040319B22BA701A70AA11BAF
:10371800972B0130A035A10D890B8E2B0130A40009
:103728002408A7078B2B0130A535A60D890B982BEC
:1037380021082302031DA22B20082202031CA92B07
:103748002008A2022108A33B25140130A136A00CB1
:10375800890BAA2B0130A702031D972B2608A1016C
:10376800A1072508A001A00708002000AC007B08DD
:103778008600013087002C088110031D81142C0954
:103788000139AB007B08860001308700AB0DAB0D1B
:1037980001082B06FB392B0681002C08013A031D72
:1037A800D92B03309031CE209B3120002C080A3EC3
:1037B800AB002B08A20063309F31A2279B31200069
:1037C8002C090139A73148279B3120002C090139E0
:1037D800AB002B08A20001309931A8210800200075
:1037E800A400240898317F209B3121003B088600E3
:1037F8008701811C08003B0A860087010130810788
:1038080041310318810A3B0A86008701403F2000A6
:10381800A200413FA30000302302323003192202E4
:10382800031C080021003B0A860087010030C03FC6
:10383800C13F20002408013A031D252C08308C06BE
:1038480008002408023A031D2C2C80308E0608003C
:103858002408633A031D080020308D060800200064
:10386800E6006608A6313C269C3121003C0886000B
:103878008701011C4B2C6808223E86000230870015
:103888000114200066089B314D239C315D2C2000DB
:103898006608143E6F07E40064088600013087005C
:1038A8000108E5006F08093E8600013087006508B9
:1038B8008100200066081A3E6F07E400640886004D
:1038C800013087000108E5006F08113E86000130CD
:1038D80087006508810001308B311823080020001B
:1038E800A8007B08860001308700811D0800F030A1
:1038F800A4002408A0002808A63168269C317B086B
:10390800033E86000130870020002008C03F2108C0
:10391800C13F7B08033E860001308700403FA4007A
:10392800413FA5007B0A860001308700403FA60082
:10393800413FA70025082702031DA42C24082602BE
:10394800031808007B08033E8600013087007B0AC5
:10395800840001308500403F803F413F813F08009F
:103968002000AC007D088600013087002C088110FB
:10397800031D81142C090139AB007D088600013034
:103988008700AB0E01082B06EF392B0681002C08A7
:103998000319D32C01309031CE209C31DC2C6430BB
:1039A8002000A6000030A70002309331C7239C31C5
:1039B80020002C080A3EAB002B08A20063309F3180
:1039C800A2279C3120002C090139A73148279C31B6
:1039D80020002C090139AB002B08A20001309931D5
:1039E800A82108002000AC006E088600023087007D
:1039F8002C088112031D81162C090139AB006E08B1
:103A0800860002308700AB0DAB0DAB0D01082B060D
:103A1800F7392B0681002C08AB006E08053E86009E
:103A2800023087002B0881002C0803191F2D023053
:103A38009031CE209C3120002C080A3EAB002B0888
:103A4800A20063309F31A2279C3120002C09013944
:103A5800A73148279C3120002C090139AB002B08DD
:103A6800A20001309931A82108002000E400640870
:103A7800A531D6259D312000620803194E2D6C080A
:103A880086000130870081156C08860001308700A8
:103A9800811408006C08860001308700811D080029
:103AA8006C0886000130870081106C0886000130A0
:103AB80087008111A001A00A00309A31B9229D31F6
:103AC80020006C08043E8600013087000108E300EE
:103AD8006C08053E86000130870063088100DD011F
:103AE800DD0A6408913133219D3101308B3118236F
:103AF800080020000E127F30A40024082100BF0017
:103B080020000E19842DA631AD269D3121004008D4
:103B18002000A40024082100BF00A631AD269D3155
:103B28002000A50121004008200025020318AE2D21
:103B38002508A03E860087010108A400240821006A
:103B4800BF00A631AD269D3101302000A400240815
:103B5800A507962D0E163530A53145259D31200037
:103B68000D1CB32D0D18B62D3630A53145259D31C8
:103B78003B30A5314525F016080021006808223E93
:103B8800860002308700811C08006808223E8600F3
:103B980002308700011CFE2D6808233E8600023093
:103BA80087000130810741310318810A6808233EE4
:103BB800860002308700403F193A031DE52D413F3A
:103BC800003A031D08006808233E8600023087007B
:103BD8000030C03FC13F6808223E8600023087009F
:103BE80001106808223E8600023087008110923159
:103BF8000A22080021006808223E86000230870059
:103C0800811008002000D9000030DA005430DB00B1
:103C18004230DC000030AE00C830AF004230B000A7
:103C28005A08B1005B08B2005C08B3008931BB21B7
:103C38009E3120002E08DA002F08DB003008DC0057
:103C48005908BD3EA800FF3003180030A900A7316D
:103C5800DE279E3120002808B1002908B2002A0872
:103C6800B3005A08AE005B08AF005C08B0008931A9
:103C7800BB219E3120002E08CB002F08CC00300835
:103C8800CD0095313A2520004B03FF3A643E0800E9
:103C98002000AB002B08A43142249E3121002C08BF
:103CA8002000AA006F080C3E8600013087002A0811
:103CB800810021002D082000AA006F080D3E860013
:103CC800013087002A08810021002E082000AA0060
:103CD8006F080E3E8600013087002A088100643094
:103CE800A6000030A70001309331C7239E317C081D
:103CF80086008701011321006908033E8600013010
:103D08008700811C8D2E6808223E860002308700BD
:103D180001156808223E8600023087000114080059
:103D28002000A5002508A531D6259E3120006C0865
:103D3800860001308700811E08006C08860001306B
:103D4800870081106C0886000130870081116C089B
:103D580086000130870001126C0886000130870058
:103D680001130330A4006C08023E8600013087006E
:103D7800240881006C08063E86000130870001088F
:103D8800A4006C08043E86000130870024088100E6
:103D9800210039088600870101142000A001A00A2B
:103DA80025089A31B9229E312000A201A20A2508CD
:103DB8009F31A2279E312000A2012508A531362572
:103DC8009E312000A2012508A531272508002000E2
:103DD800DB000030DC005430DD004230DE00003013
:103DE800AE00C830AF004230B0005C08B1005D08DA
:103DF800B2005E08B3008931BB219E3120002E0835
:103E0800DC002F08DD003008DE005B08D900DA018D
:103E1800D909DA09D90A0319DA0A5908643EA80047
:103E280000305A3DA900A731DE279E31200028081E
:103E3800B1002908B2002A08B3005C08AE005D088A
:103E4800AF005E08B0008A3164229E3120002E083F
:103E5800C1002F08C2003008C3000030BE00863001
:103E6800BF004230C0008B31E1239E3120003E0864
:103E7800CB003F08CC004008CD0095313A25200002
:103E88004B0808002000A7002708A6317E269F318E
:103E98002100380886008701011C080038088600C0
:103EA8008701200023088110031D811423080319AA
:103EB800882F24089A312A229F312000A50021004A
:103EC800380A860087012000250881000F30240564
:103ED800A5002508053A0319752F24080F39031D75
:103EE8007B2F2630240203187B2F24087C2F0530D3
:103EF800A50027081A3E6F07A6002608860001308D
:103F0800870025088100942FA308031D942F2708F4
:103F18001A3E6F07A5002508860001308700810139
:103F280021003808023E860087010030C03FC13FAB
:103F38003808043E86008701810108002000A3009C
:103F4800230898317F209F312000A208031DBE2F2F
:103F58002308013A031DB22F8C1508002308023AE2
:103F6800031DB82F8E1708002308633A031D0800A5
:103F78008D1608002208013A031DD42F2308013AA0
:103F8800031DC82F8C1108002308023A031DCE2FE9
:103F98008E1308002308633A031D08008D120800D9
:103FA80022080A3A031DF62F21003B0886008701E4
:103FB80081103B0A860087010030C03FC13F2000C6
:103FC8002308013A031DEA2F8C1508002308023A3A
:103FD800031DF02F8E1708002308633A031D0800FD
:103FE8008D16080022080B3A031D080021003B0823
:083FF800860087018114080016
:10474A00A531952508008D31CF250800A431842490
:10475A0008003A30A531452508003B30A5314525EA
:10476A0008003630A531452508000130A331EA2377
:10477A00080020008E1A08008E16BE2B24000D1089
:10478A000B160B178B170800FE0012001E00FE0BFB
:10479A00CA2B0034640080010131890BD02B00340C
:1047AA00E1302000A00020082100B90008007D089F
:1047BA00860001308700010E01390800F23021001D
:1047CA009E00C03022009700080015302000A0008B
:1047DA0020082100C00008000130A4313724A33189
:1047EA000230A43137240800013088310420A33173
:1047FA0002308831042008007B08860001308700D7
:10480A00010C890C013908002000A400A201A20AA7
:10481A0024089F31A2270800013086315026A4318E
:10482A000230863150260800553023009600AA30FF
:10483A0096009514000000000800F2007208013A80
:10484A00031D0800E430F1007108FC00080048303C
:10485A002000A0002008F8007808860001308700B0
:10486A00011408002000A2002208A6317E26210099
:10487A00380886008701011408002000A1002108D9
:10488A00013A031D0800E430A0002008FC000800DB
:10489A002000A0006E0886000230870020088110E0
:1048AA00031D8114080001309431B524A43102306B
:1048BA009431B524A431A731122708002000A000A2
:1048CA007D0886000130870020080110031D0114AD
:1048DA000800A0302000A0002008EF00C030A0008F
:1048EA0020082100E900080020006E088600023036
:1048FA008700010CA000A00C200C01390800203010
:10490A002000A0002008FD007D08860001308700F5
:10491A0001160800F4007408A43122247C088600D9
:10492A00870173088110031D811408000B1E0800FB
:10493A008B1C08008B100B12F301F30A0130A4310F
:10494A008F2408003330A5314525A431E8302000F2
:10495A00A0000330A10099310B2108002300151390
:10496A0030309200910115161515A431192423002F
:10497A00151108000130A531C525A4310230A53131
:10498A00C525A4316330A531C525080001309B3106
:10499A00F323A43102309B31F323A43163309B31DA
:1049AA00F3230800A0302000A2002208EE006E08BF
:1049BA0086000230870081159831A1200800240062
:1049CA000D110430270094000430950096018B15D0
:1049DA000B100B178B170800C4302000A00020080A
:1049EA002100EA009501A630200095008B168B174E
:1049FA000800A331BE23A43124008D100130A43154
:104A0A000924A4310230A431092408002000A3009B
:104A1A002308A43142247C0886008701200022084A
:104A2A008111031D811508002000A3002308A43169
:104A3A0042247C0886008701200022080113031DF6
:104A4A00011708002000A3002308A6313C262100F4
:104A5A003C0886008701200022080110031D01146A
:104A6A0008002000A3002308A531E92520006D08CD
:104A7A0086000130870022080113031D0117080070
:104A8A002000A3000E122308A20022082100BF0062
:104A9A0020000E194D2DA631AD2620000E16080055
:104AAA002000A3002308A531D62520006C08093E62
:104ABA0086000130870022080110031D0114080036
:104ACA002000A3002308A531D62520006C08093E42
:104ADA0086000130870022088110031D8114080016
:104AEA002000A3002308A531D62520006C080C3E1F
:104AFA0086000130870022080110031D01140800F6
:104B0A002000A0006E0886000230870020080110ED
:104B1A00031D01146E088600023087008110080008
:104B2A0066302000A0002008FB007B0886000130C8
:104B3A00870001147B0886000130870001150800F0
:104B4A002000A3002308A531D62520006C08093EC1
:104B5A0086000130870022080111031D0115080093
:104B6A002000A3002308A531D62520006C08093EA1
:104B7A0086000130870022088111031D8115080073
:104B8A002000A400240898317F20A53121003B0889
:104B9A008600870101142000A20124089F31A22760
:104BAA0008002000A1002108013A031DE02D2E3043
:104BBA00A0002008EC002108023A031D08003B303F
:104BCA00A0002008EC0008002000A1002108013AFA
:104BDA00031DF42D5430A0002008ED000800210820
:104BEA00023A031D08005D30A0002008ED0008000D
:104BFA009A315822A53199317E21A531A7319F27B3
:104C0A00A531A331B223A531A331AE23A531A431F5
:104C1A00A724A531A331B62308002E302000A40012
:104C2A002408F90001309931FD21A6313B302000DA
:104C3A00A4002408FA0002309931FD21A631A331DB
:104C4A00D52308002000A1002108A0006E083A3EE2
:104C5A00860002308700200881002108A0006E0823
:104C6A00423E8600023087002008810008002000AA
:104C7A00A1002108013A031D472EE630A0002008B2
:104C8A002100BC0020002108023A031D0800E73079
:104C9A00A00020082100BC0008002000A101A201F8
:104CAA00A20A7908860001308700011B622E7A0861
:104CBA00860001308700011FA2012208A0002008F7
:104CCA00A100210808002000A300230821009D005C
:104CDA002000200821009E009D149D18722E1C0899
:104CEA002000A101A10721001B082000A001A007A4
:104CFA0008002000A1002108013A031D8A2ECB30AA
:104D0A00A00020082100B800080020002108023A6B
:104D1A00031D0800D030A00020082100B8000800B8
:104D2A0078302100990098316620A631A431F12407
:104D3A00A631A331E323A631A331C323A631A4317B
:104D4A00E42420302000A10021082100E800080006
:104D5A002000A10108302102031808002100BF1F0A
:104D6A00B92E20000E14BB2E20000E108E14031034
:104D7A002100BF0D20008E100130A0002008A107DD
:104D8A00AF2E2000A4000E122408A300230821003D
:104D9A00BF0020000E19CE2EA631AD26A631200066
:104DAA002208A30023082100BF00A631AD26200057
:104DBA000E1608002000A200A30130302300920042
:104DCA00200022082300910015131514140820004E
:104DDA00A0002008A100230013082000A00020083A
:104DEA00A30023080800FF302000950079088600F8
:104DFA00013087000118062F7908860001308700E4
:104E0A0001147A08860001308700011808007A0820
:104E1A008600013087000114080021003908860045
:104E2A008701011C08003908860087010110A63194
:104E3A005226A7310038031D08000030A4314D2442
:104E4A0021006808223E860002308700811408008B
:104E5A002000A3000E122308C03EA200220821004F
:104E6A00BF0020000E19362FA631AD26A731A73173
:104E7A00642720000E1621003F082000A200220805
:104E8A002100C30008002000A2000130A531E92555
:104E9A00A73120006D088600013087002208011022
:104EAA00031D01140230A531E92520006D08860092
:104EBA000130870022080110031D01140800200098
:104ECA00A10108302102031808008E1403102100E2
:104EDA00BF0D20000E1D742F21003F147A2FFE30C3
:104EEA002000A00020082100BF0520008E100130FC
:104EFA00A0002008A107662F2000A401A501201CFC
:104F0A008A2F2208A4072308A53D0130A235A30D44
:104F1A00890B8B2F0130A136A00C890B902F210809
:104F2A002004031D842F2508A101A1072408A0013C
:104F3A00A00708002000A70108302702031808006C
:104F4A0027085E3E840098300318013E8500000859
:104F5A00A5002508A6002608A5002508A2003E30BF
:104F6A00A631C626A73101302000A5002508A707CB
:104F7A00A12F633402340034003400340034003486
:104F8A0000340034003400340034FF34FF34FF347A
:104F9A000034003400340034003402340034003465
:104FAA000034003400340034003400340034003457
:104FBA0000342000AD01A91FE92FA809A909A80AF0
:104FCA000319A90AAD01AD0A2808A0002908A10001
:104FDA00A2018E30AB002B08A3002D08AC002C08D0
:104FEA00A4009031092020002008A8002108A90067
:064FFA002208AA000800D5
:020000040001F9
:04000E00E4F9FDFF15
:00000001FF
