:1000000080311628640008007E14803120007F08AB
:10001000F5009D315E25803180315120803199314C
:10002000C62175082000FF007E10090080311828C5
:10003000F001F601F701F801F901E801E901EA012F
:10004000EB01EC01A0308400003085004A3099318A
:1000500012218031203084000130850050309931E8
:1000600012218031C0308400013085001130993177
:1000700012218031203084000230850025309931F2
:1000800012218031B43084009C308500A03086007D
:1000900001308700203099310C217E1020008831FA
:1000A00002288B1E08000B1D0800A63020009500BA
:1000B0000B116B08860001308700011CAA28013053
:1000C000F1006B08033E860001308700710881074C
:1000D00021003808023E860087010108F100F20184
:1000E000F109F209F10A0319F20A20006B08043E33
:1000F00086000130870001087107F30072080318B9
:10010000720AF4006B08033E860001308700740811
:10011000803A803C031D8E2873080102031CDD29F0
:1001200020006B08033E86000130870081016B08C8
:1001300086000130870001106B08073E8600013001
:10014000870001146B08860001308700011FDD293C
:100150008C17DD296B08073E860001308700011CE3
:10016000A9296B08073E86000130870001106B0843
:10017000860001308700811CA9290130F1006B0A3B
:10018000860001308700710881076B0A8600013004
:1001900087006B08023E84000130850000080102E0
:1001A000031CA9296B0A86000130870081016B08B6
:1001B000860001308700811D13296B0886000130FD
:1001C0008700011AFA286B08043E86000130870078
:1001D00044300102031CF4286B08043E8600013001
:1001E000870001308102A9296B0886000130870051
:1001F0000116A9296B08043E86000130870078307B
:10020000010203180D290130F1006B08043E86003D
:100210000130870071088107A9296B088600013029
:1002200087000112A9296B08860001308700011D93
:100230005A296B08053E8600013087006B08043E92
:100240008400013085000008010203182F296B0883
:10025000043E8600013087000130810246296B0888
:10026000043E8600013087006B08053E84000130A3
:10027000850000080102031846290130F1006B08CF
:10028000043E860001308700710881076B08053E37
:100290008600013087006B08043E84000130850031
:1002A00000080106031DA9296B088600013087009C
:1002B000011175296B08860001308700811E7B299A
:1002C0006B08043E860001308700013081026B0814
:1002D000053E8600013087006B08043E8400013033
:1002E000850000080102031CA9296B088600013063
:1002F00087008110A9290130F1006B08043E8600B7
:1003000001308700710881076B08043E86000130C8
:1003100087006B08063E840001308500000801025A
:10032000031CA9296B0886000130870081106B0827
:1003300086000130870001136B080C3E86000130F7
:10034000870001142100380886008701011420006D
:100350008C118C1FDD290130F1006B08083E8600EE
:1003600001308700710881076B08043E8600013068
:1003700087000108F100F201F109F209F10A0319FD
:10038000F20A7108783EF3000030723DF4006B0809
:10039000083E8600013087007408803A803C031DC7
:1003A000D32973080102031CDD2920006B08083ED5
:1003B00086000130870081018C1320006C088600C4
:1003C00001308700011C2F2A0130F1006C08033E28
:1003D0008600013087007108810721003808023E3D
:1003E000860087010108F100F201F109F209F10A22
:1003F0000319F20A20006C08043E860001308700D1
:1004000001087107F30072080318720AF4006C08FF
:10041000033E8600013087007408803A803C031D4B
:10042000132A73080102031C622B20006C08033E90
:1004300086000130870081016C088600013087004A
:1004400001106C08073E86000130870001146C081B
:10045000860001308700011F622B0D16622B6C088D
:10046000073E860001308700011C2E2B6C08073EDA
:1004700086000130870001106C088600013087007B
:10048000811C2E2B0130F1006C0A860001308700A0
:10049000710881076C0A8600013087006C08023EF3
:1004A00084000130850000080102031C2E2B6C0A19
:1004B00086000130870081016C08860001308700CA
:1004C000811D982A6C08860001308700011A7F2A56
:1004D0006C08043E86000130870044300102031C92
:1004E000792A6C08043E86000130870001308102C1
:1004F0002E2B6C0886000130870001162E2B6C080D
:10050000043E860001308700783001020318922AE9
:100510000130F1006C08043E86000130870071084C
:1005200081072E2B6C0886000130870001122E2BCC
:100530006C08860001308700011DDF2A6C08053E2B
:100540008600013087006C08043E8400013085007D
:10055000000801020318B42A6C08043E860001302A
:10056000870001308102CB2A6C08043E86000130EE
:1005700087006C08053E84000130850000080102F8
:100580000318CB2A0130F1006C08043E86000130CC
:100590008700710881076C08053E860001308700DE
:1005A0006C08043E84000130850000080106031D2C
:1005B0002E2B6C088600013087000111FA2A6C0886
:1005C000860001308700811E002B6C08043E8600E7
:1005D00001308700013081026C08053E8600013041
:1005E00087006C08043E8400013085000008010289
:1005F000031C2E2B6C0886000130870081102E2BE7
:100600000130F1006C08043E86000130870071085B
:1006100081076C08043E8600013087006C08063EA6
:1006200084000130850000080102031C2E2B6C0899
:1006300086000130870081106C0886000130870039
:1006400001136C080C3E8600013087000114210064
:10065000380886008701011420008E130D1E622BBE
:100660000130F1006C08083E8600013087007108F7
:1006700081076C08043E8600013087000108F10004
:10068000F201F109F209F10A0319F20A7108783E40
:10069000F3000030723DF4006C08083E8600013023
:1006A00087007408803A803C031D582B73080102B0
:1006B000031C622B20006C08083E86000130870076
:1006C00081010D1221006E0A860087010130810729
:1006D00041310318810A6E0A86008701403FC83AFB
:1006E000031D742B413F003A031D822B6E0A8600C6
:1006F00087010030C03FC13F20006F0886000130F5
:100700008700811420006808860001308700811C62
:100710000800680A860001308700013081074131F6
:100720000318810A08002100EC00780886000130D7
:100730008700011C08006C089B310E2383312100C7
:100740006C08013A031DB32BEA01EA0A20000C1FD2
:100750000C1AAC2B2100EA017808860001308700D2
:1007600021006A08C52B6C08023A031DC82BEB0157
:10077000EB0A20000C1C8D18BF2B2100EB01780820
:1007800086000130870021006B088110031D811451
:100790007808860001308700811CA12C780886002B
:1007A000013087000119F72B01302000E50078089F
:1007B000023E860001308700650881077808023E06
:1007C00086000130870005300102031C080078080C
:1007D000023E8600013087008101780886000130E2
:1007E0008700011521006C0896319C2608007808C6
:1007F00086000130870081192A2C7808033E860084
:10080000013087000130810741310318810A7808DF
:10081000033E860001308700403F2000E500413F55
:10082000E60000306602963003196502031C0800DA
:100830007808033E8600013087000030C03FC13F8A
:100840007808860001308700811521006C089031FE
:10085000762008007808860001308700011A6E2C87
:100860007808053E8600013087000130810741315C
:100870000318810A7808053E860001308700403F52
:100880002000E500413FE600003066029630031983
:100890006502031C08007808053E860001308700C9
:1008A0000030C03FC13F7808860001308700011644
:1008B000A201A20A01309A313722833120006F0849
:1008C000033E860001308700811C08006430A600CA
:1008D0000030A70002309731112708007808860001
:1008E00001308700811A08007808073E8600013031
:1008F00087000130810741310318810A7808073EDB
:10090000860001308700403F2000E500413FE600BF
:10091000013066022C3003196502031C08007808B8
:10092000073E8600013087000030C03FC13F780895
:100930008600013087008116A20101309A313722EA
:1009400008007808860001308700011D080001308A
:100950002000E5007808023E860001308700650827
:1009600081077808023E86000130870005300102C9
:10097000031C08007808023E8600013087008101D0
:10098000780886000130870001117808033E860050
:10099000013087000030C03FC13F78088600013039
:1009A000870081117808053E8600013087000030FD
:1009B000C03FC13F780886000130870001127808E7
:1009C000073E8600013087000030C03FC13F7808F5
:1009D000860001308700811221006C08973188273A
:1009E00083312000A20101309A31372208007908B2
:1009F000860001308700011C08007908860001305C
:100A0000870001193D2D790A8600013087000130E9
:100A1000810741310318810A790A86000130870075
:100A2000403F2000AD00413FAE0001302E02F430C7
:100A300003192D02031C0800993154218431003A16
:100A40000319342D790A8600013087000030C03F39
:100A5000C13F7908860001308700011579088600BA
:100A60000130870001120800790A860001308700F2
:100A7000E830C03F0330C13F0800790A86000130EA
:100A800087000130810741310318810A790A860005
:100A900001308700403F2000AD00413FAE000030F4
:100AA0002E02043003192D02031C0800790A860067
:100AB000013087000030C03FC13F79088600013017
:100AC000870001117908083E860001308700790807
:100AD000043E840001308500403F803F413F813F1C
:100AE0007908860001308700811CA32D7908043E17
:100AF000860001308700403FAD00413FAE0002302C
:100B00002E02583003192D02031CD12D0130AD00E7
:100B10007908033E8600013087002D088107790897
:100B2000033E86000130870003300102031CD72DED
:100B30007908033E86000130870081010030903142
:100B4000B8208431D72D7908043E86000130870013
:100B5000403F2000AD00413FAE0002302E02273062
:100B600003192D020318D12D0130AD007908033E81
:100B70008600013087002D0881077908033E860032
:100B80000130870003300102031CD72D7908033E92
:100B9000860001308700810101309031B820843116
:100BA000D72D7908033E860001308700810179083E
:100BB0008600013087008118E22D79088600013017
:100BC000870001167908043E860001308700403F07
:100BD0002000AD00413FAE002E08AF006E08183E69
:100BE0008600013087002F0881007908043E8600C6
:100BF000013087000108AD006E08193E8600013003
:100C000087002D0881007908063E860001308700A4
:100C10000030C03FC13F7908083E860001308700A0
:100C20000030C03FC13F08007608860001308700D1
:100C3000011C0800760886000130870081195E2EAD
:100C40007608063E86000130870001308107413179
:100C50000318810A7608063E860001308700403F6F
:100C60002000AD00413FAE0002302E02BC3003191F
:100C70002D02031C0800993126218631003A031900
:100C8000542E7608063E8600013087000030C03FB3
:100C9000C13F7608860001308700811576088600FE
:100CA00001308700011108007608063E86000130F9
:100CB0008700BC30C03F0230C13F08007608063EC6
:100CC0008600013087000130810741310318810A15
:100CD0007608063E860001308700403F2000AD00C8
:100CE000413FAE0000302E02023003192D02031CDA
:100CF00008007608063E8600013087000030C03FBD
:100D0000C13F760886000130870081117608860091
:100D100001308700811CC72E760A860001308700CB
:100D2000403FAD00413FAE0001302E02913003192B
:100D30002D020318032F760A860001308700403FFA
:100D4000AD00413FAE0000302E02C83003192D0225
:100D5000031C032F0130AD007608053E86000130EC
:100D600087002D0881077608053E86000130870040
:100D700002300102031C092F7608053E860001306F
:100D80008700810100309F3109278631092F760ABB
:100D9000860001308700403F2000AD00413FAE009B
:100DA00001302E02903003192D020318E62E760A28
:100DB000860001308700403FAD00413FAE0000306B
:100DC0002E02D33003192D020318032F0130AD007A
:100DD0007608053E8600013087002D0881077608D9
:100DE000053E86000130870002300102031C092FF6
:100DF0007608053E860001308700810101309F3171
:100E000009278631092F7608053E860001308700C4
:100E1000810176088600013087008118142F76083A
:100E20008600013087000115760A860001308700B0
:100E30000030C03FC13F08002000A30023089931C3
:100E40008E218731770886008701011C080077080A
:100E500086008701011908007708860087010115BF
:100E600063302000A20022082100A00002302000F0
:100E7000A20022082100A10020006E088600013097
:100E800087000130423F2100A20020006E0886004A
:100E9000013087000130433F2100A30020006E088D
:100EA0008600013087000130443F2100A40020006B
:100EB0006E088600013087000130453F2100A50003
:100EC00020006E088600013087000130463F210077
:100ED000A60020006E088600013087000130473FE1
:100EE0002100A70020006E08860001308700013035
:100EF000483F2100A80020006E08860001308700CE
:100F00000130493F2100A90020006E088600013011
:100F1000870001304A3F2100AA0020006E088600A9
:100F20000130870001304B3F2100AB0020006E08EC
:100F300086000130870001304C3F2100AC002000CA
:100F40006E0886000130870001304D3F2100AD0062
:100F500020006E0886000130870001304E3F2100DE
:100F6000AE0020006E0886000130870001304F3F40
:100F70002100AF0020006E0886000130870001309C
:100F8000503F2100B00020006E088600013087002D
:100F90000130513F2100B10020006E088600013071
:100FA00087000130523F2100B20020006E08860009
:100FB000013087000130533F2100B300D2302000C0
:100FC000A20022082100B40008002000A3000E1295
:100FD0002308C03EA20022082100BE0020000E19F6
:100FE000EE2F9B31A62387319C315A2420000E1608
:100FF00021003E082000A20022082100C2000800B3
:101004009A31E72288319C31242488318E3121267B
:1010140088319931EA2188319931782188319831A0
:10102400E32088319831DD208831993134218831A9
:101034009B31372388319A311C2288319831F92029
:1010440088319B312223883120006F0886000130CB
:101054008700011C382809309531BE2588311130AC
:101064009031352088318C311C24883120006F0860
:10107400860001308700811C26286F088600013015
:101084008700811088316A2088319D311825883184
:1010940020006F08860001308700011C262891314A
:1010A4003E2188319931F62188319831E620883102
:1010B4009831E020883199319921883199314C2136
:1010C40088319831FD20883199313C218831262896
:1010D40020006F088600013087000118B1286F0ACC
:1010E4008600013087000130810741310318810AED
:1010F4006F0A860001308700403F963A031D84281A
:10110400413F003A031D08006F0A86000130870042
:101114000030C03FC13F6F088600013087000114D2
:1011240001309931A421883132302000A6000030EA
:10113400A700033097311127883120006F08033E40
:10114400860001308700011401309C313E2488312F
:101154002000A201A20A01309D31FA2508002000D6
:101164006F08063E86000130870001308107413157
:101174000318810A6F08063E860001308700403F4D
:10118400643A031DC728413F003A031D08006F0855
:10119400063E8600013087000030C03FC13F6F0823
:1011A400860001308700811DDD286F08860001302C
:1011B4008700811108006F088600013087008115BF
:1011C40008002000E600E501E50A66089A31D42209
:1011D400883120006608013A031DF2286C08F728BC
:1011E4006608023A031DFF286B080C3E8600013096
:1011F4008700003001180130E5006A08093E8600C6
:1012040001308700811C2A296508031908006A082F
:10121400093E860001308700011C1D296A08093E29
:101224008600013087008110A401A40A6608893170
:10123400E5212000080020006A08093E86000130EC
:1012440087008110A40166088931E5212000080087
:1012540020006A08093E860001308700811D0800CD
:1012640065080319080066089A31D42288312000E1
:101274006A08093E86000130870081116A08093E28
:10128400860001308700011D5729E201E20A660841
:101294009F314327883164302000A6000030A70026
:1012A400013097311127200008002000E201660870
:1012B4009F3143272000080020004B08CF004C0832
:1012C400D0004D08D1000310500D510DD20052082A
:1012D400D800D808031D77290030CE000030CD0097
:1012E4000030CC000030CB0008004B08CF004C0885
:1012F400D0004D08D1001730D136D00CCF0C890B5B
:101304007E294F08D2005208D300CC17FF30CB05FA
:10131400FF30CC050030CD054B08D4004C08D50077
:101324004D08D600D7018E30D802D81FB5295808E9
:10133400803A8F3E0318A7290030CE000030CD003C
:101344000030CC000030CB0008000130D736D60C7A
:10135400D50CD40C890BA8290130CF004F08D8072D
:101364000319CE29A72918305802031CCB290030B1
:10137400CE000030CD000030CC000030CB0008009F
:101384000130D435D50DD60DD70D890BC3290130C5
:10139400D802D808031DC22953080319DC29D4092B
:1013A400D509D609D709D40A0319D50A0319D60AC7
:1013B4000319D70A5708CE005608CD005508CC00AB
:1013C4005408CB0008002000A60026089A31D42235
:1013D400893120002608A5002100380A86008701EB
:1013E40020002508810024080319422A6A0886007F
:1013F400013087008116A2012608933166238931C2
:1014040020006A0886000130870081140330A5009B
:101414006A08023E860001308700250881006A08B8
:10142400860001308700011B08006A08860001302D
:10143400870001176D08223E860002308700811064
:101444006D08233E8600023087000030C03FC13F54
:101454006A08053E8600013087000108A5006A0875
:10146400043E860001308700250881004330A50032
:101474006A08043E860001308700250881000800C0
:101484006A0886000130870081126A08063E8600D9
:10149400013087000108A5006A08043E8600013077
:1014A4008700250881006A088600013087008114BE
:1014B4006A0886000130870081116A0886000130BD
:1014C400870001120330A5006A08023E860001303D
:1014D40087002508810008002100EC006C08993180
:1014E4008E218A31770886008701011C08002100BB
:1014F400ED0120000C1F0C1A832A0C18832A8D1C62
:101504008B2A770886008701011B8B2A2100ED01B5
:10151400ED0A77088600870121006D088113031DF9
:101524008117770886008701811BC42A7708860003
:101534008701811CA92A77088600870181109431CC
:1015440025248A310130923161228A31C82A7708F0
:10155400860087010119C82A770886008701811946
:10156400C82A770886008701811536309A316322AC
:101574008A3134309A3163228A31013099316521BC
:101584008A31C82A01309D31A9258A31770886001D
:101594008701011D080001309D31A9258A31770892
:1015A40086008701811AEE2A01302100EB00770AB8
:1015B400860087016B088107770A86008701010886
:1015C400193A031D0800770A86008701810177080C
:1015D400860087018116080077088600870181123A
:1015E40077088600870101119031FA200800200055
:1015F400E30063089B314C238A3121003B088600B9
:10160400870101183A2B3008803A031D162B20005D
:10161400A301A30A210031082000E2006208A4000B
:1016240063089231B3228A3121003B088600870186
:1016340001142000A201A20A63089A3154228A31BB
:101644002000A201A20A63089A3183228A31200071
:10165400A201A20A63089A3173228A3121003B084D
:10166400860087010030011801302000DD00782B4E
:1016740021003008803A031D502B2000A301A30A47
:10168400210031082000E2006208A40063089231BE
:10169400B3228A312000DD01DD0A782B21003B08CA
:1016A4008600870101102000A20163089A315422A8
:1016B4008A312000A201A20A63089A3183228A3166
:1016C40021003B088600870100300118013020000A
:1016D400A20063089A3173228A312000A301A40175
:1016E40063089231B3228A312000DD016308953109
:1016F40053258A3164302000A6000030A700013051
:10170400973111278A31013087311C2708002000C6
:10171400E700670899318E218B312100AF08031D42
:10172400DC2B2000A40101308931E5218B3120001C
:10173400A20101309A3145228B312000A2010130EF
:101744009A3154228B312000A40102308931E521E1
:101754008B312000A20102309A3145228B312000C6
:10176400A20102309A3154228B3120006E08093EC6
:1017740086000130870081016E080B3E860001302F
:10178400870081016E080F3E8600013087008101C9
:101794006E08113E86000130870081016430A60086
:1017A4000030A7000130973111278B310130873188
:1017B4001C27080021002F08203A031DF82B2000C5
:1017C4006E08093E86000130870081016E080B3ED9
:1017D40086000130870081016E08113E86000130C9
:1017E40087008101013087311C27080021002F0860
:1017F400013A031D012C01308A31F922080021002D
:101804002F08113A031D0A2C01309F31C02708000C
:1018140021002F08023A031D132C02308A31F922C9
:10182400080021002F08213A031D080002309F31CF
:10183400C027080020006808860001308700811254
:101844008D19811620006808860001308700811CEC
:1018540008006808063E860001308700403FA0006B
:10186400413FA100680A860001308700403FA20082
:10187400413FA30021082302031D422C2008220219
:10188400031C0800680A8600013087000030C03F4E
:10189400C13F6808860001308700811AB62C6808A9
:1018A400033E8600013087008108031DAF2C6808C1
:1018B400860001308700811D812C68088600013074
:1018C400870081116808043E860001308700010802
:1018D400A0006808033E86000130870020088100CC
:1018E4006808083E8600013087006808063E8400C8
:1018F40001308500403F803F413F813F0800680838
:10190400860001308700011EA92C6808860001307A
:10191400870001126808053E86000130870001082F
:10192400A0006808033E860001308700200881007B
:1019340068080A3E8600013087006808063E840075
:1019440001308500403F803F413F813F08006808E7
:101954008600013087008110080068088600013085
:10196400870081168D1508006808860001308700FD
:1019740081128D116808033E860001308700013012
:101984008102080020003108B4003208B500330891
:10199400B6000310350D360DB7003708BC00BC087F
:1019A400031DDB2C0030AE000030AF000030B0006F
:1019B40008002E08B4002F08B5003008B600031044
:1019C400350D360DB7003708BD00BD08031DF12CD9
:1019D4000030AE000030AF000030B000080000302E
:1019E400B9000030BA000030BB0089303D07B400B4
:1019F4003408BC023108B4003208B5003308B6001C
:101A04001030B636B50CB40C890B032D3408B7006E
:101A14003708BD002E08B4002F08B5003008B60002
:101A24001030B636B50CB40C890B132D3408B7003E
:101A34003708BD068030B4003408BD05B217FF3046
:101A4400B105FF30B2050030B305AF17FF30AE0566
:101A5400FF30AF050030B0051830B4003408B800CA
:101A64000130B935BA0DBB0D890B332D3008330263
:101A7400031D422D2F083202031D422D2E08310270
:101A8400031C4B2D2E08B1022F08B23B3008B33B88
:101A940039140130B135B20DB30D890B4C2D013021
:101AA400B802031D322D3908A0003A08A1003B08F2
:101AB400A2003C08B4003408A3003D08B500350872
:101AC400A4009331C42320002008AE002108AF00F5
:101AD4002208B000080020002E08B4002F08B5002A
:101AE4003008B6000310350D360DB7003708B800BE
:101AF400B808031D842D0030AE000030AF00003064
:101B0400B00008003108B4003208B5003308B6004C
:101B14000310350D360DB7003708BD00BD08031D91
:101B24009A2D0030AE000030AF000030B000080045
:101B34003D087B3EB4003408B8072E08B4002F08D3
:101B4400B5003008B6001030B636B50CB40C890BAD
:101B5400A62D3408B7003708BD003108B400320898
:101B6400B5003308B6001030B636B50CB40C890B8A
:101B7400B62D3408B7003708BD068030B4003408E9
:101B8400BD05AF17B217FF30B105FF30B205003005
:101B9400B3050030B9000030BA000030BB00073094
:101BA400B4003408BC002E1CDD2D3108B9073208FE
:101BB400BA3D3308BB3D0130B036AF0CAE0C890BD7
:101BC400DE2D0130B135B20DB30D890BE42D01309A
:101BD400BC02031DD52D0930B4003408BC002E1CF2
:101BE400F92D3108B9073208BA3D3308BB3D01303D
:101BF400B036AF0CAE0C890BFA2D0130BB36BA0CE3
:101C0400B90C890B002E0130BC02031DF12D3908DB
:101C1400A0003A08A1003B08A2003808B400340828
:101C2400A3003D08B5003508A4009331C423200067
:101C34002008AE002108AF002208B00008001F30C1
:101C44009B31D8238E31AA3A031D992E00309B3143
:101C5400D8238E312000DD006E080C3E8600013052
:101C640087005D08810001309B31D8238E3120002C
:101C7400DD006E080D3E8600013087005D0881009E
:101C840002309B31D8238E312000DD006E080E3ED9
:101C94008600013087005D08810043309131832143
:101CA4008E312000DD005D08DE005E08DD006E0878
:101CB400153E8600013087005D0881005E08DD0066
:101CC4006E08163E8600013087005D0881005E08BC
:101CD400DD006E08173E8600013087005D08810034
:101CE4006E080C3E8600013087000108FF3A031D90
:101CF40008006E080D3E8600013087000108FF3A97
:101D0400031D08006E080E3E86000130870001089E
:101D1400FF3A031D08006F08860001308700811612
:101D24006F08033E860001308700811408004330A9
:101D3400913183218E312000DD005D08DE00FF300B
:101D4400DD006D088600023087005D088100FF30E9
:101D5400DD006D0A8600023087005D088100FF30D7
:101D6400DD006D08023E8600023087005D088100B8
:101D7400FF30DD006D08033E8600023087005D08F9
:101D84008100FF30DD006D08043E860002308700CC
:101D94005D088100FF30DD006D08053E86000230DD
:101DA40087005D088100AA30DD006D081F3E8600B3
:101DB400023087005D0881005E08DD006E08153E74
:101DC4008600013087005D0881005E08DD006E0832
:101DD400163E8600013087005D0881005E08DD0044
:101DE4006E08173E8600013087005D0881008B1362
:101DF4009E31AA268B1720006F08860001308700C9
:101E040081166F08033E86000130870081140800A4
:101E140020003E08C4003F08C5004008C600031067
:101E2400450D460DC7004708CA004108C4004208D2
:101E3400C5004308C6000310450D460DC7004708FA
:101E4400C9004A080319322F49084A020318392FD6
:101E54004A03FF3A4907C40019304402031C392FCE
:101E64004108BE004208BF004308C00008004908FA
:101E7400031908004A0849020318482F4903FF3A86
:101E84004A07C40019304402031808000630C4008D
:101E94004408C800C01BC817C31B4817BF17FF302E
:101EA400BE05FF30BF050030C005C217FF30C105B5
:101EB400FF30C2050030C30549084A020318842FC5
:101EC4000130C135C20DC30D890B632F0130C90226
:101ED40049084A0603197F2F0130C8024808073908
:101EE40003197F2F622F0130C036BF0CBE0C890B43
:101EF400762F0130C4004408CA074A08490603196A
:101F0400A92F752F4A0849020318A92F0130BE359D
:101F1400BF0DC00D890B892F0130CA0249084A063A
:101F24000319A52F0130C802480807390319A52F42
:101F3400882F0130C336C20CC10C890B9C2F013091
:101F4400C4004408C9074A084906031D9B2FC81F3B
:101F5400BB2FFF30BE06FF30BF06FF30C006013086
:101F6400BE07003003180130BF07003003180130EA
:101F7400C007481FCD2FFF30C106FF30C206FF3017
:101F8400C3060130C107003003180130C207003016
:101F940003180130C307C8013E08C1073F08C23D0A
:101FA4004008C33DC31FE82FFF30C106FF30C206FF
:101FB400FF30C3060130C107003003180130C207E7
:101FC400003003180130C307C801C80A4108A00043
:101FD4004208A1004308A2004A08C4004408A30020
:101FE4004808C5004508A4009331C42320002008F4
:101FF400BE002108BF002208C00008002000E30042
:10200400653021002902031C0D2864302000E10002
:1020140061082100A90029082000E1006E08093E9A
:10202400860001308700610881006308E1006E08C2
:102034000B3E860001308700610881006E08093E6E
:102044008600013087000108E1006308143E6E0732
:10205400E20062088600013087006108810063089D
:102064009D313B2508002000A80076088600013039
:102074008700811D0800F030A4002408A00028086F
:102084009B31782390317608033E86000130870027
:1020940020002008C03F2108C13F7608033E860087
:1020A40001308700403FA400413FA500760A860026
:1020B40001308700403FA600413FA70025082702C2
:1020C400031D662824082602031808007608033E28
:1020D400860001308700760A840001308500403F85
:1020E400803F413F813F08002000A500A401A40ACD
:1020F4002508013A031D80286C0885282508023A22
:10210400031D90286B08093E8600013087000310E8
:10211400011D0314003003180130A400240803191E
:1021240008007808860001308700811F0800780ABB
:10213400860001308700011478088600013087008A
:102144000117A201A20A25089A31452290312000E4
:10215400A201A20A25089A31B32290312000A201DB
:10216400A20A25089A31A322200008002000AC000E
:1021740079088600013087002C088110031D811422
:102184002C090139AB007908860001308700AB0EB9
:1021940001082B06EF392B0681002C080319D728D8
:1021A40001309431EE249031E02864302000A60000
:1021B4000030A700023097311127903120002C08FD
:1021C4000A3EAB002B08A2006330933166239031A2
:1021D40020002C0901399C313E24903120002C0927
:1021E4000139AB002B08A20001309D31FA2508000B
:1021F40020000E127F30A40024082100BE0020001D
:102204000E1901299B31A623903121003F0820009B
:10221400A40024082100BE009B31A6239031200095
:10222400A50121003F082000250203182B292508B9
:10223400A03E860087010108A40024082100BE00F6
:102244009B31A623903101302000A4002408A50767
:1022540013290E1635309A316322903120000D1C5B
:1022640030290D18332936309A31632290313B30AE
:102274009A316322F016080020006D08223E860081
:1022840002308700811C08006D08223E860002305F
:102294008700011C7B296D08233E860002308700DD
:1022A4000130810741310318810A6D08233E8600FD
:1022B40002308700403F193A031D6229413F003A2A
:1022C400031D08006D08233E86000230870000309D
:1022D400C03FC13F6D08223E8600023087000110D6
:1022E4006D08223E860002308700811094318924D3
:1022F400080020006D08223E86000230870081100D
:1023040008002000D9000030DA005430DB004230ED
:10231400DC000030AE00C830AF004230B0005A08D4
:10232400B1005B08B2005C08B3008C31C424913165
:1023340020002E08DA002F08DB003008DC005908E2
:10234400BD3EA800FF3003180030A9009C31D424FE
:10235400913120002808B1002908B2002A08B300EE
:102364005A08AE005B08AF005C08B0008C31C4248E
:10237400913120002E08CB002F08CC003008CD006E
:1023840089315E2120004B03FF3A643E080020009F
:10239400AB002B0899318E21913121002C082000AB
:1023A400AA006E080C3E8600013087002A088100CE
:1023B40021002D082000AA006E080D3E8600013081
:1023C40087002A08810021002E082000AA006E0838
:1023D4000E3E8600013087002A0881006430A60082
:1023E4000030A7000130973111279131770886001A
:1023F4008701011320006F08033E86000130870027
:10240400811C0A2A6D08223E8600023087000115CD
:102414006D08223E86000230870001140800200067
:10242400A50025089A31D422923120006A0886003A
:1024340001308700811E08006A0886000130870089
:1024440081106A0886000130870081116A088600BD
:102454000130870001126A088600013087000113E9
:102464000330A4006A08023E860001308700240875
:1024740081006A08063E8600013087000108A40036
:102484006A08043E86000130870024088100210088
:1024940038088600870101142000A201A20A250839
:1024A4009331662392312000A20125089A315422E7
:1024B40092312000A20125089A314522080021000A
:1024C400EA006A0899318E219231770886008701E3
:1024D400011F782A2100A008031D08002108643A7E
:1024E400031D080001309131C92108002100A00812
:1024F400031D08002108023A031D08002C08FF3AB6
:10250400031D8E2A2D08FF3A031D8E2A2E08FF3A3A
:10251400031D8E2A0000080020006E080C3E860071
:102524000130870021002C080106031D080020004B
:102534006E080D3E86000130870021002D0801063B
:10254400031D080020006E080E3E8600013087003F
:1025540021002E080106031D080001308B31892358
:1025640008002000A70027089A31FA22923120009F
:10257400690886008701011C080069088600870134
:1025840023088110031D811423080319F22A240847
:102594009E317C2692312000A500690A86008701BD
:1025A400250881000F302405A5002508053A0319E4
:1025B400DF2A24080F39031DE52A263024020318D4
:1025C400E52A2408E62A0530A50027081A3E6E07E6
:1025D400A600260886000130870025088100FE2A0F
:1025E400A308031DFE2A27081A3E6E07A500250826
:1025F40086000130870081016908023E8600870158
:102604000030C03FC13F6908043E86008701810154
:1026140008002000DB000030DC005430DD004230D4
:10262400DE000030AE00C830AF004230B0005C08BD
:10263400B1005D08B2005E08B3008C31C42493314C
:1026440020002E08DC002F08DD003008DE005B08C7
:10265400D900DA01D909DA09D90A0319DA0A5908B9
:10266400643EA80000305A3DA9009C31D424933123
:1026740020002808B1002908B2002A08B3005C0829
:10268400AE005D08AF005E08B0008D316D2593315A
:1026940020002E08C1002F08C2003008C3000030FB
:1026A400BE008630BF004230C0008F310A2793310C
:1026B40020003E08CB003F08CC004008CD00893103
:1026C4005E2120004B0808002000A30023089C3151
:1026D400F62493312000A208031D822B2308013A1B
:1026E400031D762B8C1508002308023A031D7C2B4E
:1026F4008E1708002308633A031D08008D1608008E
:102704002208013A031D982B2308013A031D8C2B40
:102714008C1108002308023A031D922B8E13080023
:102724002308633A031D08008D12080022080A3AA0
:10273400031DBA2B21003A088600870181103A0A4A
:10274400860087010030C03FC13F20002308013AC2
:10275400031DAE2B8C1508002308023A031DB42B6D
:102764008E1708002308633A031D08008D1608001D
:1027740022080B3A031D080021003A08860087014D
:1027840081140800200023080319CD2B22082104FA
:102794002004031DDE2B0030A0000030A100003017
:1027A400A20008000130A5002508A3070130A236C5
:1027B400A10CA00C890BD92BFE3022050319F72B91
:1027C400D42B0130A5002508A3070130A007003051
:1027D40003180130A107003003180130A2070130AB
:1027E400A236A10CA00C890BF22BFF302205031991
:1027F400042CE32B0130A3020130A035A10DA20D5E
:10280400890BFF2BA11FFC2B23180E2CFF30A005D6
:102814007F30A105FF30A2050310A30C2308A500F7
:10282400A601A7011030A535A60DA70D890B152CFF
:102834002508A0042608A1042708A20424080319D3
:102844000800A217080020000D180D18272C3B3093
:102854008731E52794312100420803197B2C20009D
:102864000E12FF30A40024082100BE0020000E191F
:10287400382C9B31A62394319C315A249431210065
:102884003E082000A40024082100BD002000A5016A
:1028940021003D08200025020318622C9C315A2493
:1028A400943121003E082000A4002508A03E8600A3
:1028B4008701240881000130A4002408A5074A2CBC
:1028C4009C315A24943121003E082000A40024089D
:1028D4002100BC009C315A24943121003E08200080
:1028E400A40024082100B70020000E162100B71B05
:1028F400701536309A31632294313A309A3163221A
:1029040094312000A20101309A31292208002000CC
:10291400A601203026020318A62C26089B31D823B2
:1029240094312000A40026086D07A5002508860020
:1029340002308700240881000130A4002408A6077F
:1029440020302602031C8F2C6E080C3E86000130BA
:1029540087000108A4006D0886000230870024085F
:1029640081006E080D3E8600013087000108A40036
:102974006D0A860002308700240881006E080E3E2E
:102984008600013087000108A4006D08023E86001D
:1029940002308700240881006D08223E8600023040
:1029A4008700011DE62C6D08223E86000230870058
:1029B40001116F0886000130870081126F08033E01
:1029C40086000130870081108B139931DE21943108
:1029D4009E31AA268B1708002000AA002A08013A73
:1029E400031D042D9B3162239431003A03191C2DDD
:1029F4002C302000A6000130A7000A30973111279F
:102A040094311C2D20002A08023A031D172D2C3066
:102A1400A6000130A7000530973111279431210019
:102A2400380A860087010108212D20002A08033A6C
:102A3400031D242D01309231112294310230923140
:102A4400112294312000A20101309E3124269431B8
:102A54002000A20102309E312426943120006F0808
:102A6400033E860001308700011808006F080F3EFE
:102A740086000130870001106F080F3E8600013088
:102A8400870081106F080F3E860001308700011512
:102A94006F08083E8600013087000030C03FC13F08
:102AA40008002000E100E001E00A6108FF3E890A15
:102AB4005D2D0310E00DFF3E031D5B2D6108DE005C
:102AC4006E080B3E8600013087005E0881004330AB
:102AD4009131832195312000DE006108143E6E0798
:102AE400DF005F088600013087005E08810061080E
:102AF400143E6E07DE005E08860001308700010880
:102B0400DF006E08093E8600013087005F088100FF
:102B140061081A3E6E07DE005E08860001308700F9
:102B24000108DF006E08113E8600013087005F084F
:102B340081005D080319AE2D6E080F3E860001303A
:102B4400870001086004DE006E080F3E8600013035
:102B540087005E08810008006E080F3E8600013081
:102B6400870060090105DE006E080F3E8600013013
:102B740087005E08810008002000A800790886000C
:102B840001308700011D0800F030A4002408A000D3
:102B940028089B317823953179080A3E8600013054
:102BA400870020002008C03F2108C13F79080A3E61
:102BB400860001308700403FA400413FA50079080A
:102BC400063E860001308700403FA600413FA70033
:102BD40025082702031DF02D240826020318012EC0
:102BE40079080A3E8600013087007908063E840091
:102BF40001308500403F803F413F813F0800790814
:102C04000A3E860001308700403FA400413FA500F2
:102C14007908083E860001308700403FA600413F06
:102C2400A70025082702031D192E240826020318CD
:102C3400080079080A3E8600013087007908083EBA
:102C4400840001308500403F803F413F813F0800C0
:102C54002000E40064089A31FA22963120006908C1
:102C640086008701811C08006908023E86008701EE
:102C74000130810741310318810A6908023E860048
:102C84008701403FE200413FE30016306302123007
:102C940003196202031C08006908023E86008701CA
:102CA4000030C03FC13F0130E2006908043E8600A5
:102CB4008701620881076908043E86008701690A62
:102CC4008400850100080102031C08006908043E11
:102CD4008600870181016908860087018110A201AD
:102CE40064089A31542296312000A20164089A3172
:102CF400452296312000DD01640895315325963133
:102D04002000A201A20A64089A318322963120008D
:102D1400A20164089A3173229631013087311C274D
:102D2400963164302000A6000030A70001309731AE
:102D3400112708002000E300E201E20A6308013AD7
:102D4400031DA62E6C08AB2E6308023A031DB62E93
:102D54006B08093E8600013087000310011D03142F
:102D6400003003180130E2006208031908007808F3
:102D740086000130870081176430A6000030A70068
:102D84000130973111279631780886000130870089
:102D9400011BFE2E780886000130870001172000F1
:102DA400A201A20A63089A31452296312000A201A9
:102DB400A20A63089A31832296312000A201A20A52
:102DC40063089A31732296317808860001308700AF
:102DD4000030011B01302000DD00630895315325CC
:102DE4009631013087311C2720006F08103E860081
:102DF400013087000115080078088600013087003B
:102E0400011378088600013087000030011B01306F
:102E14002000A20063089A31452220000800200007
:102E2400A9001430A0000030A1002708A301A307C3
:102E34002608A201A2079C3177249731200021089B
:102E4400A701A7072008A601A60768088600013085
:102E54008700011C0800680886000130870081187B
:102E64004C2F680886000130870081142908A800C7
:102E74006808033E8600013087002808810068083E
:102E8400063E8600013087002608C03F2708C13F60
:102E94008D150800680886000130870081196A2FA3
:102EA400680886000130870081152908A800680891
:102EB400043E860001308700280881006808083E27
:102EC4008600013087002608C03F2708C13F08005C
:102ED4006808860001308700011A08006808860027
:102EE4000130870001162908A8006808053E8600FD
:102EF400013087002808810068080A3E86000130F6
:102F040087002608C03F2708C13F08002000E400CE
:102F14007808860001308700811F08007808860041
:102F24000130870081137808860001308700011F73
:102F3400D42F780A860001308700011C0800780A23
:102F44008600013087000110A201A20A64089A31A8
:102F5400B32297312000A20164089A31A322973149
:102F6400200064081A3E6E07E20062088600013001
:102F740087000108E3006E08113E860001308700D7
:102F84006308810078088600013087000030011B47
:102F94000130DD00640895315325973101308731C4
:102FA4001C2708002000A201A20A64089A31832287
:102FB40097312000A20164089A31732297312000CE
:102FC400A301A40164089231B322973178088600E2
:102FD400013087000030011B01302000DD0064084F
:102FE400953153259731013087311C2720006F0814
:102FF400103E8600013087000111080003341634A6
:1030040017341E341F3420342A342B340B340C343C
:103014000D340E340F341034113412341334143488
:103024000A34153421342234183419341A341B3434
:103034001C341D34233424342534263429342C34CC
:103044002D342E3400340134023407340834093466
:103054000634043405342734283407340734303430
:1030640087346B34F8347F343F34093400345C34AF
:10307400A73462348634833403342234F83400347D
:103084004434B634103418341D341C34C73400347A
:10309400B234EA340A3400341134593488343134C3
:1030A4000B342F342E3406340434053400343034D5
:1030B400D334913441340034FE34FE34FE34FE34CF
:0830C400FE34FE34FE34FE343C
:1031BA009A31932208008631142608009931AF21EA
:1031CA0008008431F72408003A309A316322080053
:1031DA003B309A316322080036309A316322080064
:1031EA001730210097000800013099312D2108007D
:1031FA0001308A316E22080020008E1A08008E16CD
:10320A00012924000D100B160B178B170800FE005E
:10321A0012001E00FE0B0D290034640080010131EA
:10322A00890B13290034E2302000A0002008210075
:10323A00B8000800F23021009E00C030220097003A
:10324A0008007908860001308700010E013908005C
:10325A0015302000A00020082100BF00080001301E
:10326A009931832199310230993183210800013043
:10327A0096312A269931023096312A2608002000F2
:10328A00A400A201A20A240893316623080001308F
:10329A0083319323993102308331932308007608CE
:1032AA00860001308700010C890C0139080055306D
:1032BA0023009600AA30960095140000000008002A
:1032CA002000A0008B10201C6C290B1608000B1282
:1032DA000800F2007208013A031D0800E530F10007
:1032EA007108F70008004A302000A0002008E80012
:1032FA006808860001308700011408002000A20037
:10330A0022089A31FA2220006908860087010114EE
:10331A0008002000A1002108013A031D0800E53039
:10332A00A0002008F700080001308831E320993115
:10333A0002308831E32099319B318E230800200026
:10334A00A000790886000130870020080110031DBB
:10335A00011408003C302000A0002008F900790878
:10336A0086000130870001160800F40074089931BC
:10337A006E2177088600870173088110031D811466
:10338A0008000B1E08008B1C08008B100B12F3019F
:10339A00F30A01309931BA21080033309A31632295
:1033AA009931E8302000A0000330A1009D31832527
:1033BA0008002300151330309200910115161515D7
:1033CA0099315C2123001511080001309A31C3227A
:1033DA00993102309A31C322993163309A31C3222A
:1033EA00080001309F318027993102309F318027B0
:1033FA00993163309F318027080024000D11043071
:10340A00270094000430950096018B150B100B17BA
:10341A008B170800C3302000A00020082100EE000E
:10342A009501A630200095008B168B17080099315C
:10343A0001219A3124008D100130993144219A31A9
:10344A0002309931442108002000A3002308993151
:10345A008E21770886008701200022088111031D2A
:10346A00811508002000A300230899318E217708CE
:10347A0086008701200022080113031D0117080096
:10348A002000A30023089B314C2321003B0886001F
:10349A008701200022080110031D011408002000E2
:1034AA00A30023089B310E23780886000130870089
:1034BA00200022080113031D011708002000A300A1
:1034CA000E122308A20022082100BE0020000E19B5
:1034DA006B2A9B31A62320000E1608002000A300A9
:1034EA0023089A31D42220006A08093E8600013056
:1034FA00870022080110031D011408002000A30000
:10350A0023089A31D42220006A08093E8600013035
:10351A00870022088110031D8114080068302000EA
:10352A00A0002008F6007608860001308700011402
:10353A007608860001308700011508002000A300E4
:10354A0023089A31D42220006A08093E86000130F5
:10355A00870022080111031D011508002000A3009D
:10356A0023089A31D42220006A08093E86000130D5
:10357A00870022088111031D811508002000A4007C
:10358A0024089C31F6249A3121003A0886008701E2
:10359A0001142000A20124089331662308002000A8
:1035AA00A1002108013A031DDE2A2030A0002008CC
:1035BA00EA002108023A031D08002E30A000200864
:1035CA00EA000800A0302000A0002008EE00D23057
:1035DA00A0006E08143E8600013087002008810092
:1035EA00C030A0002008EF0008002000A100210838
:1035FA00013A031D052BCC30A0002008E900080081
:10360A002108023A031D0800D130A0002008E90071
:10361A0008002000A1002108013A031D192B563089
:10362A00A0002008F80008002108023A031D08003B
:10363A005F30A0002008F80008009E31D9269B318F
:10364A009D31D0259B319C3195249B319831ED20B9
:10365A009B319831E9209B319931D2219B319831A4
:10366A00F120080020302000A4002408EB000130DB
:10367A009E314F269B312E302000A4002408EC00F6
:10368A0002309E314F269B319931182108002000C3
:10369A00A1002108013A031D572BE830A000200899
:1036AA002100BB0020002108023A031D0800E9306E
:1036BA00A00020082100BB0008002000A101A201EF
:1036CA00A20A6B08860001308700011B722B6C0866
:1036DA00860001308700011FA2012208A0002008ED
:1036EA00A100210808002000A300230821009D0052
:1036FA002000200821009E009D149D18822B1C0882
:10370A002000A101A10721001B082000A001A00799
:10371A0008002100380886008701011C08003808C3
:10372A008600870101109B3162239B310038031DFB
:10373A00080020006D08223E8600023087008114AE
:10374A0008002000A1010830210203180800210006
:10375A00BE1FB22B20000E14B42B20000E108E14A4
:10376A0003102100BE0D20008E100130A000200899
:10377A00A107A82B2000A4000E122408A3002308E6
:10378A002100BE0020000E19C72B9B31A6239B31B6
:10379A0020002208A30023082100BE009B31A62393
:1037AA0020000E1608002000A200A30130302300DA
:1037BA009200200022082300910015131514140802
:1037CA002000A0002008A100230013082000A00068
:1037DA002008A30023080800773021008C00073056
:1037EA008D000C308E0022008C0102308D008E017B
:1037FA00223023008C008D018E01773020008C004E
:10380A0007308D000C308E000800FF302000950034
:10381A006B088600013087000118182C6B08860097
:10382A000130870001146C088600013087000118F6
:10383A0008006C08860001308700011408007830FF
:10384A00210099009B31F1239C319A310F229C313E
:10385A0099311F219C31993106219C319A310222DA
:10386A009C3120302000A1002108ED009831F5207C
:10387A0008002000A20001309B310E239C317808F9
:10388A00860001308700200022080110031D011460
:10389A0002309B310E237808860001308700200011
:1038AA0022080110031D011408002000A10108309C
:1038BA002102031808008E1403102100BE0D2000F7
:1038CA000E1D6A2C21003E14702CFE302000A00030
:1038DA0020082100BE0520008E100130A00020081B
:1038EA00A1075C2C2000A401A501201C802C220821
:1038FA00A4072308A53D0130A235A30D890B812C0D
:10390A000130A136A00C890B862C21082004031D46
:10391A007A2C2508A101A1072408A001A007080004
:10392A002000A701083027020318080027085E3E76
:10393A00840098300318013E85000008A500250878
:10394A00A6002608A5002508A2003E309B31BF2309
:10395A009C3101302000A5002508A707972C633465
:10396A0002340034003400340034003400340034AB
:10397A00003400340034FF34FF34FF3400340034A0
:10398A00003400340034003400340034003400348D
:10399A000034003400340034003400340034200091
:1039AA00AD01A91FDF2CA809A909A80A0319A90AA8
:1039BA00AD01AD0A2808A0002908A100A2018E3095
:1039CA00AB002B08A3002D08AC002C08A4009331EF
:1039DA00C42320002008A8002108A9002208AA0060
:1039EA0008002000A1002108013A031D022DDA3047
:1039FA00A00020082100BA00080020002108023A8D
:103A0A00031D0D2DDE30A00020082100BA00080099
:103A1A0020002108633A031D0800D630A0002008C0
:103A2A002100BA00080020006F08103E860001300D
:103A3A008700011908000130A0006F080E3E8600B9
:103A4A0001308700200881076F080E3E860001308A
:103A5A00870001080A3A031D08006F080E3E860017
:103A6A000130870081018031022008002000E00037
:103A7A0060089A31D4229D3120006A0886000130FC
:103A8A00870001156A0886000130870081146E08D4
:103A9A00093E860001308700010893310B2320007C
:103AAA00DF006A08053E8600013087005F08810052
:103ABA0008008B1D08002700161D080016110B10A0
:103ACA0020006F08860001308700011C08009C3125
:103ADA000A249D3120000D1D792D21003808023E4F
:103AEA0086008701810108000830F10021003808AA
:103AFA00023E86008701710881000800013020001B
:103B0A00A2000030A30021082302031D8E2D2008E5
:103B1A00220203180800A401A50100302502023080
:103B2A00031924020318A42D0130A4070030A53D6F
:103B3A0000302502023003192402031C992D01309A
:103B4A00A2070030A33D882D2000A4002408993143
:103B5A008E219D31770886008701811D080077082C
:103B6A008600870181117708860087018110770A0C
:103B7A008600870181017708860087018112363025
:103B8A009A3163229D313A309A3163229D31003055
:103B9A009931652108002000A8012F302802031856
:103BAA0008002808003E840098300318013E85006A
:103BBA000008A5002508A60028082F3E8400983092
:103BCA000318013E85000008A5002508A70027085C
:103BDA00A5002508A20026089B31BF239D3101308C
:103BEA002000A5002508A807D22D2000A30023083D
:103BFA0099318E219D31770886008701200022089D
:103C0A000110031D01147708860087010113770844
:103C1A0086008701011177088600870181117708DC
:103C2A00860087018110770A86008701810177085B
:103C3A008600870181120030993165210800200031
:103C4A00A30023089A31D42220006A08093E86007C
:103C5A000130870022088110031D81146A08093E79
:103C6A0086000130870022080110031D01146A082A
:103C7A00093E86000130870022088111031D811543
:103C8A006A08093E86000130870022080111031DD7
:103C9A00011508002000A30023089A31D42220002D
:103CAA006A080C3E86000130870001144330A200E6
:103CBA006A08053E860001308700220881007830B4
:103CCA00A2006A08063E86000130870022088100A9
:103CDA006A08063E8600013087000108A2006A08C9
:103CEA00043E860001308700220881000800200077
:103CFA00A2000530A0002008A1002208053A031DF1
:103D0A00882E0530A52E2208103A031D8E2E0A3061
:103D1A00A52E2208153A031D942E0F30A52E22082F
:103D2A00203A031D9A2E1430A52E2208253A031D87
:103D3A00A02E1930A52E2208303A031DA82E1E30B7
:103D4A00A0002008A1002108080023001513303024
:103D5A00920094011512951615152000A101203024
:103D6A0021020318D22E21082300910020002108E5
:103D7A006D07A00020088600023087000108230092
:103D8A00930099315C219E3101302000A000200867
:103D9A00A10720302102031CB82E23009512993165
:103DAA005C2123001511080020008E100E100E163B
:103DBA000A30A0000030A1009D3183259E312000E9
:103DCA000E120A30A0000030A1009D3183259E31D9
:103DDA0020000E162830A0000030A1009D31832556
:103DEA009E3120000E123030A60026082100BE00A7
:103DFA0020000E19FD2E9B31A6239E3120000E199C
:103E0A00032F0E100E1608002000AC00760886005C
:103E1A00013087002C088110031D81142C090139F7
:103E2A00AB007608860001308700AB0DAB0D0108A8
:103E3A002B06FB392B0681002C08013A031D292F7A
:103E4A0003309431EE249F3120002C080A3EAB0047
:103E5A002B08A2006330933166239F3120002C097E
:103E6A0001399C313E249F3120002C090139AB00D5
:103E7A002B08A20001309D31FA2508002000E40039
:103E8A0064089A31D4229F31200062080319582FFE
:103E9A006A0886000130870081156A0886000130A9
:103EAA008700811408006A08860001308700811D96
:103EBA0008006A0886000130870081106A088600B7
:103ECA000130870081116A08043E860001308700AC
:103EDA000108E3006A08053E86000130870063088E
:103EEA008100DD01DD0A6408953153259F310130D7
:103EFA0087311C2708002000A40024089C31F624DE
:103F0A009F3121003A0886008701811C08003A0A7D
:103F1A00860087010130810741310318810A3A0A74
:103F2A0086008701403F2000A200413FA3000030E5
:103F3A002302323003192202031C080021003A0A24
:103F4A00860087010030C03FC13F20002408013AA3
:103F5A00031DB22F08308C0608002408023A031DFC
:103F6A00B92F80308E0608002408633A031D080022
:103F7A0020308D0608002000E60066089B314C239D
:103F8A009F3121003B0886008701011CD82F2000A1
:103F9A006D08223E860002308700011466089031BF
:103FAA0000209F31EA2F20006608143E6E07E400C5
:103FBA0064088600013087000108E5006E08093EA2
:103FCA0086000130870065088100200066081A3ED5
:103FDA006E07E40064088600013087000108E500E6
:103FEA006E08113E860001308700650881000130A5
:063FFA0087311C270800BE
:020000040001F9
:04000E00ECF9FDFF0D
:00000001FF
