:04000000803115280E
:10000800803120007F08F700A131BB218031833186
:100018002A238031A031DF20803177082000FF00BB
:1000280009008801A4317D2C2000B6003608AE31C5
:100038009126803120006B08860002308700811EDF
:100048002628272853286B08033E8600023087009D
:100058000130810741310318810A6B08033E86008D
:1000680002308700403FB200413FB30007303302FF
:10007800D03003193202031C42284328292B6B086D
:10008800033E8600023087000030C03F0030C13F89
:10009800AF0136089D3194258031292B292B20006A
:1000A8006B08860002308700011E5B285C28AA2A9C
:1000B8006B08453E8600023087006B08443E84008A
:1000C800023085000008B2006B08433E840002300D
:1000D8008500000832070107B3006B083E3E860022
:1000E80002308700330881006B08013E8600023029
:1000F80087000130810741310318810A6B08013EEE
:10010800860002308700403FB200413FB300003014
:100118003302073003193202031C93289428292B31
:100128006B08013E8600023087000030C03F003077
:10013800C13F6B0886000230870001120330A0001F
:100148000030A1006B08103E8600023087006B0863
:100158000C3E840002308500003FB200013FB3002E
:100168006B080E3E840002308500003F3207B40061
:10017800013F333DB500403F3407A200413F353DC4
:10018800A300A731B927803120006B082E3E8600D6
:10019800023087002008C03F2108C13F0330A0007B
:1001A8000030A1006B08223E8600023087006B08F1
:1001B8001E3E840002308500003FB200013FB300BC
:1001C8006B08203E840002308500003F3207B400EF
:1001D800013F333DB500403F3407A200413F353D64
:1001E800A300A731B927803120006B08303E860074
:1001F800023087002008C03F2108C13F6B082E3E0F
:10020800860002308700403FB200413FB3006B08D0
:10021800303E860002308700403FB400413FB500C1
:1002280033083502031D1A293208340203181D2920
:100238001E29A32A6B082E3E8600023087006B0811
:10024800303E840002308500003FB200013FB30019
:10025800B209B309B20A0319B30A403F3207B4001E
:10026800413F333DB5006B082C3E860002308700C5
:100278003408C03F3508C13F6B083A3E860002305B
:1002880087000A30010203184A294B29A3290130A3
:10029800B2006B083A3E86000230870032088107B8
:1002A8006B083A3E8600023087000108013A031DB8
:1002B8005E295F2968296B08363E86000230870070
:1002C800FF30C03F0030C13F6B083A3E8600023025
:1002D80087000108033A031D72297329A3296B08B3
:1002E8003E3E8600023087000108013A031D7D2941
:1002F8007E2988296B08363E8600023087001A302E
:10030800C03F0030C13FA3296B08063E860002307B
:100318008700403FB200413FB30032081A3EB400A4
:100328000030333DB5006B08363E8600023087004A
:100338003408C03F3508C13FA329A329A3296B0866
:10034800363E860002308700403FB200413FB3008E
:100358006B082C3E860002308700403FB400413FC6
:10036800B50033083502031DBB2932083402031CCB
:10037800BE29BF29E2290130B2006B083C3E860045
:1003880002308700320881076B083C3E8600023045
:10039800870003300102031CD229D329A32A6B0842
:1003A8003C3E8600023087008101AF010314AF0D87
:1003B80036089D3194258031A32AA32A20006B0892
:1003C8003C3E86000230870081016B083A3E860079
:1003D8000230870006300102031CF329F429A32AFE
:1003E8006B08423E8600023087001E300102031867
:1003F800FE29FF29092A0130B2006B08423E860017
:100408000230870032088107092A6B08423E8600BD
:10041800023087001A300102031C132A142A602AAA
:100428006B08463E860002308700011C1C2A1D2AE4
:10043800532A6B08463E86000230870001106B087D
:100448002C3E860002308700403FB200413FB30097
:100458006B08063E8600023087003208C03F33082A
:10046800C13F6B083E3E8600023087000108B2009B
:10047800B3013208A0003308A1001A30A2000030EE
:10048800A300A2315E22803120006B08363E860030
:10049800023087002008C03F2108C13F532A6B085B
:1004A8008600023087008115A2010314A20D0130D5
:1004B800A03131208031602A20006B08463E86003A
:1004C80002308700811C692A6A2AA32A6B08463EE3
:1004D80086000230870081106B082C3E86000230AF
:1004E8008700403FB200413FB3006B08063E8600DC
:1004F800023087003208C03F3308C13F6B083E3ED8
:100508008600023087000108B200B3013208A0005B
:100518003308A1001A30A2000030A300A2315E22E5
:10052800803120006B08363E8600023087002008A4
:10053800C03F2108C13FA32AA32AA32AA32A200037
:100548003608A4311C248031292B292B20006B0864
:10055800860002308700811CB22AB32AE02A6B0881
:100568008600023087000119BA2ABB2AC62A6B08FE
:1005780086000230870001156B088600023087006C
:100588008111C62A0130AF3122278031003A031980
:10059800CE2ACF2A292B0130AF3131278031003ABA
:1005A8000319D72AD82A292B20006B088600023085
:1005B80087000116292B292B6B088600023087003B
:1005C800011DE72AE82A292B6B08860002308700DC
:1005D80001116B0886000230870081156B083C3ECC
:1005E80086000230870081016B083A3E860002309F
:1005F800870081016B08063E8600023087000030C4
:10060800C03F0030C13F6B083F3E86000230870084
:1006180081016B08463E86000230870001106B0896
:10062800463E86000230870081100130A4311C2428
:1006380080312000A2010314A20D0130A031312025
:100648008031292B292B292B292B08008B1E2D2B98
:100658002E2BFC2C0B1D312B322BFC2CA630200012
:1006680095000B117A08860001308700011C3D2B8C
:100678003E2B752B0130F6007A08033E86000130C8
:100688008700760881077A08033E860001308700D4
:100698007A08043E84000130850000080102031C2A
:1006A800562B572BD52C7A08033E8600013087003D
:1006B80081017A0886000130870001107A08073E18
:1006C80086000130870001147A088600013087000F
:1006D800011F6F2B702BD52C0D168C17D52CD52CF4
:1006E800D52C7A08073E860001308700011C7D2B37
:1006F8007E2BB12C7A08073E860001308700011056
:100708007A08860001308700811C8B2B8C2BB12C3A
:100718000130F6007A08013E86000130870076082D
:1007280081077A08013E8600013087007A08023E78
:1007380084000130850000080102031CA42BA52BAE
:10074800B12C7A08013E86000130870081017A08C1
:10075800860001308700811DB22BB32BF22B7A085B
:10076800860001308700011ABA2BBB2BD52B7A08DB
:10077800043E86000130870026300102031CC52B89
:10078800C62BCE2B7A08043E860001308700013044
:100798008102B12C7A088600013087000116B12C3D
:1007A800B12C7A08043E86000130870078300102B7
:1007B8000318DF2BE02BEA2B0130F6007A08043E01
:1007C80086000130870076088107B12C7A088600F8
:1007D800013087000112B12CB12CB12C7A088600A7
:1007E80001308700011DF92BFA2B492C7A08053EA8
:1007F8008600013087007A08043E840001308500B5
:10080800000801020318092C0A2C122C7A08043E4D
:10081800860001308700013081022D2C7A08043EC1
:100828008600013087007A08053E84000130850083
:10083800000801020318212C222C2D2C0130F6006F
:100848007A08043E860001308700760881072D2C3F
:100858002D2C7A08053E8600013087007A08043E70
:1008680084000130850000080106031D3C2C3D2C46
:10087800B12C7A0886000130870001117A088600B9
:10088800013087008110B12CB12C7A088600013024
:100898008700811E502C512C6F2C7A08043E86004C
:1008A80001308700013081027A08053E8600013058
:1008B80087007A08043E84000130850000080102A0
:1008C800031C672C682CB12C7A088600013087003D
:1008D8008110B12CB12C0130F6007A08043E860054
:1008E80001308700760881077A08043E86000130C7
:1008F80087007A08063E840001308500000801025E
:10090800031C872C882CB12C7A08860001308700BC
:1009180081107A0886000130870001137A08093EA1
:1009280086000130870001172100380886008701FA
:10093800811520008E138C11F3010314F30DF401BB
:100948000314F40D0130A53118258331B12CB12CD5
:10095800B12CB12CB12CB12CB12C20000D1EB52C12
:10096800B62CD52C0130F6007A08083E86000130F6
:100978008700760881077A08083E860001308700DC
:100988000108003A0319C92CCA2CD52C7A08083E4C
:1009980086000130870081010D128C13D52CD52CCF
:1009A800D52C21006808013E8600870101308107A7
:1009B80041310318810A6808013E86008701403FDB
:1009C800643A031DE92C413F003A031DEC2CED2C41
:1009D800FC2C6808013E860087010030C03F0030CB
:1009E800C13F7D088600013087008114FC2CFC2C57
:1009F80008002000B2003208AE31AD268431200054
:100A0800B1010314B10D0C180A2D0B2D192D8D18D9
:100A18000E2D0F2D192D0C1B122D132D192D0C1AFF
:100A2800162D172D192DB101192D6D0886000130CD
:100A3800870031088110031D81146D08860001307C
:100A48008700011C282D292D882E6D08860001306D
:100A58008700811C302D312D282E6D08860001302D
:100A680087000119382D392D5E2D0130AF006D0832
:100A7800023E8600013087002F0881076D08023E7C
:100A880086000130870014300102031C4C2D4D2DC7
:100A9800882E6D08023E86000130870081016D08AE
:100AA800860001308700011532089A31C42284314A
:100AB800882E882E20006D08860001308700811955
:100AC800662D672D972D6D08033E8600013087003F
:100AD8000130810741310318810A6D08033E860001
:100AE80001308700403FAF00413FB0000130300285
:100AF8002C3003192F02031C822D832D882E6D089C
:100B0800033E8600013087000030C03F0030C13FFF
:100B18006D0886000130870081153208A331BF2394
:100B28008431882E882E20006D08860001308700C9
:100B3800011A9F2DA02DEA2D6D08053E8600013073
:100B480087000130810741310318810A6D08053E8D
:100B5800860001308700403FAF00413FB0000130C0
:100B680030022C3003192F02031CBB2DBC2D882EFC
:100B78006D08053E8600013087000030C03F003018
:100B8800C13F6D088600013087000116A2010314D9
:100B9800A20D0130A031002084317D08033E86007B
:100BA80001308700811CD92DDA2D882E02302000D3
:100BB800AF002F08A9003230AA000030AB00013086
:100BC800953151258431882E882E882E20006D0875
:100BD800860001308700811AF22DF32D882E6D08CA
:100BE800073E860001308700013081074131031834
:100BF800810A6D08073E860001308700403FAF003C
:100C0800413FB00002303002583003192F02031C54
:100C18000E2E0F2E882E6D08073E860001308700A5
:100C28000030C03F0030C13F6D08860001308700AA
:100C38008116A2010130A03100208431882E882E2F
:100C4800882E882E882E882E20006D088600013078
:100C58008700011D302E312E882E0130AF006D081F
:100C6800023E8600013087002F0881076D08023E8A
:100C780086000130870014300102031C442E452EE3
:100C8800882E6D08023E86000130870081016D08BC
:100C980086000130870001116D08033E860001308F
:100CA80087000030C03F0030C13F6D08860001302A
:100CB800870081116D08053E8600013087000030ED
:100CC800C03F0030C13F6D08860001308700011227
:100CD8006D08073E8600013087000030C03F0030B5
:100CE800C13F6D088600013087008112A2010130E2
:100CF800A03100208431200032089F3180278431C0
:100D0800882E882E882E882E08002000B5003508E9
:100D1800AD317725863120006E08860001308700C6
:100D2800011C972E982EF12F6E088600013087003F
:100D380001199F2EA02EF02E6E08013E860001306C
:100D480087000130810741310318810A6E08013E8E
:100D5800860001308700403FB200413FB3000330B6
:100D68003302E83003193202031CBB2EBC2EF12FCC
:100D78000130A031A9208631003A0319C42EC52EAE
:100D8800E32E0130AF3131278631003A0319CD2ED9
:100D9800CE2EE32E20006E08013E8600013087002B
:100DA8000030C03F0030C13F6E0886000130870028
:100DB80001156E088600013087000112F12F20000E
:100DC8006E08013E860001308700E830C03F0330DE
:100DD800C13FF12FF12FF12F6E08013E860001303F
:100DE80087000130810741310318810A6E08013EEE
:100DF800860001308700403FB200413FB300003019
:100E08003302073003193202031C0B2F0C2FF12F6A
:100E18006E08013E8600013087000030C03F003078
:100E2800C13F6E0886000130870001116E08083E38
:100E3800860001308700403FB200413FB3006E0892
:100E4800043E8600013087003208C03F3308C13FA6
:100E58006E08860001308700811C332F342F702FD5
:100E68006E08043E860001308700403FB200413FD3
:100E7800B300023033021C3003193202031C452F21
:100E8800462F672F0130B2006E08033E86000130FE
:100E98008700320881076E08033E8600013087000C
:100EA80003300102031C592F5A2FAD2F6E08033E41
:100EB8008600013087008101AF0101309C31B224E6
:100EC8008631AD2FAD2F20006E08033E860001301D
:100ED80087008101AD2FAD2F6E08043E86000130DA
:100EE8008700403FB200413FB30001303302DC309D
:100EF800031932020318812F822FA52F0130B20067
:100F08006E08033E860001308700320881076E08AC
:100F1800033E86000130870003300102031C952F31
:100F2800962FAD2F6E08033E8600013087008101A1
:100F3800AF010314AF0D01309C31B2248631AD2FBF
:100F4800AD2F20006E08033E860001308700810126
:100F5800AD2F20006E088600013087008118B52F5C
:100F6800B62FBC2F6E088600013087000116BC2FF3
:100F78006E08043E860001308700403FB200413FC2
:100F8800B3003308B4006F08183E860001308700AC
:100F9800340881006E08043E86000130870001088D
:100FA800B2006F08193E86000130870032088100C0
:100FB8006E08063E8600013087000030C03F0030D2
:100FC800C13F6E08083E8600013087000030C03FF0
:100FD8000030C13FF12FF12FF12F08002000A100B0
:100FE8002108AD317D25873120006C0886008701F6
:080FF800010C0139FF2F080074
:101002002000CC004C08DB3EB600FF300318003055
:10101200B700A3316C23883120003608BF0037089F
:10102200C0003808C1007B30BC005430BD003F30E6
:10103200BE0088312D20883120003C08A8003D08E0
:10104200A9003E08AA0093316A23883120002803B0
:10105200FF3A643E2C28080020003F08C2004008E6
:10106200C3004108C4000310430D440DC5004508E8
:10107200CA00CA08031D3E283F2847280030BC008A
:101082000030BD000030BE00E428E4283C08C20065
:101092003D08C3003E08C4000310430D440DC500C3
:1010A2004508CB00CB08031D57285828602800307C
:1010B200BC000030BD000030BE00E428E42800304F
:1010C200C7000030C8000030C90089304B07C20099
:1010D2004208CA023F08C2004008C3004108C400D7
:1010E2001030C436C30CC20C890B72284208C500EA
:1010F2004508CB003C08C2003D08C3003E08C400BE
:101102001030C436C30CC20C890B82284208C500B9
:101112004508CB068030C2004208CB05C017FF301D
:10112200BF05FF30C0050030C105BD17FF30BC054B
:10113200FF30BD050030BE051830C2004208C600AF
:10114200A2280130C735C80DC90D890BA3283E0856
:101152004102031DB2283D084002031DB2283C088B
:101162003F02031CB528B628BE283C08BF023D0832
:10117200C03B3E08C13B4714BE280130BF35C00DFD
:10118200C10D890BBF280130C602031DC928CA2818
:10119200A228CB284708A0004808A1004908A200BD
:1011A2004A08C2004208A3004B08C3004308A40037
:1011B2009D312025883120002008BC002108BD0077
:1011C2002208BE00E42808002000AD00AF01AE01F5
:1011D2002D08AE319126883120006B08860002303E
:1011E2008700011EF528F628A829C030A800280883
:1011F200A0002708A2311622883120006B08323E57
:101202008600023087002008C03F2108C13FAF019D
:1012120005302F02031C0E290F29112956295629A0
:101222006B08323E860002308700403FA800413FF3
:10123200A9002F080907083E6B07AA002A088600A2
:1012420002308700403FAB00413FAC0029082C022E
:10125200031D2D2928082B020318302931294B2977
:101262006B08323E860002308700403FA800413FB3
:10127200A9002F080907083E6B07AA002A08860062
:10128200023087002808C03F2908C13FAE0103147D
:10129200AE0D56290130A8002808AF0705302F02ED
:1012A200031C5429552911295629AE08031D5A2910
:1012B2005B29A829AF0105302F02031C612962298D
:1012C2006429A829A8292F0809071A3E6B07A80034
:1012D2002808860002308700403FA900413FAA004B
:1012E2006B08323E860002308700403FAB00413F30
:1012F200AC002A082C02031D802929082B0203189E
:10130200832984299B296B08323E8600023087009C
:10131200403FA800413FA9002F0809071A3E6B076A
:10132200AA002A088600023087002808C03F290840
:10133200C13FA8290130A8002808AF0705302F02B5
:10134200031CA429A5296429A829A829A8290800D9
:1013520020003C08C2003D08C3003E08C400031040
:10136200430D440DC5004508C600C608031DBA2931
:10137200BB29C3290030BC000030BD000030BE00D4
:10138200722A722A3F08C2004008C3004108C40002
:101392000310430D440DC5004508CB00CB08031DC7
:1013A200D329D429DC290030BC000030BD00003034
:1013B200BE00722A722A4B087B3EC2004208C60750
:1013C2003C08C2003D08C3003E08C4001030C436C9
:1013D200C30CC20C890BE8294208C5004508CB00A2
:1013E2003F08C2004008C3004108C4001030C436A0
:1013F200C30CC20C890BF8294208C5004508CB066C
:101402008030C2004208CB05BD17C017FF30BF05B0
:10141200FF30C0050030C1050030C7000030C800F1
:101422000030C9000730C2004208CA00182A3C1C1A
:101432001B2A1C2A232A3F08C7074008C83D410827
:10144200C93D232A0130BE36BD0CBC0C890B242AAF
:101452000130BF35C00DC10D890B2A2A0130CA02E5
:10146200031D342A352A182A362A0930C2004208B6
:10147200CA003B2A3C1C3E2A3F2A462A3F08C7078D
:101482004008C83D4108C93D462A0130BE36BD0C60
:10149200BC0C890B472A0130C936C80CC70C890B12
:1014A2004D2A0130CA02031D572A582A3B2A592ABB
:1014B2004708A0004808A1004908A2004608C20047
:1014C2004208A3004B08C3004308A4009D31202515
:1014D200893120002008BC002108BD002208BE007E
:1014E200722A08002000A4002408AE3167268A313F
:1014F20020002408013A031D7F2A802A902A003006
:101502008D190130A2007808860001308700A20EF2
:10151200A20D01082206DF3922068100902A7808EE
:10152200860001308700811C972A982A552B78085B
:10153200013E8600013087000130810741310318E6
:10154200810A7808063E860001308700403FA200EB
:10155200413FA3007808013E860001308700403FEA
:101562002206031DB62A413F2306031DB92ABA2AC1
:10157200552B7808013E8600013087000030C03FBD
:101582000030C13F7808860001308700811ACA2ADC
:10159200CB2AD22A780886000130870081168D1561
:1015A200552B780886000130870081128D1178084A
:1015B200033E8600013087008108031DE12AE22AEA
:1015C2004A2B7808860001308700811DE92AEA2A21
:1015D200122B780886000130870081117808043EBA
:1015E200860001308700403F0903C03FA20078080F
:1015F200033E860001308700220881007808083EF9
:10160200860001308700403FA200413FA3007808D6
:10161200063E8600013087002208C03F2308C13FF2
:10162200552B7808860001308700011E192B1A2BD2
:10163200422B780886000130870001127808053EA7
:10164200860001308700403F0903C03FA2007808AE
:10165200033E8600013087002208810078080A3E96
:10166200860001308700403FA200413FA300780876
:10167200063E8600013087002208C03F2308C13F92
:10168200552B78088600013087008110552B552B89
:10169200552B7808033E8600013087000130810215
:1016A200552B552B552B552B08002000A300230842
:1016B200AE319F268B317B0886008701011C622B8D
:1016C200632B562C7B08860087010119692B6A2B34
:1016D200562C7B0886008701011520006F088600C2
:1016E200013087000108A20022082100A00020008A
:1016F2006F08013E8600013087000108A20022081F
:101702002100A10020006F08183E860001308700EA
:101712000108A20022082100A20020006F08193E41
:101722008600013087000108A20022082100A300E0
:1017320020006F08043E8600013087000108A200E5
:1017420022082100A40020006F08053E8600013017
:1017520087000108A20022082100A50020006F08CE
:10176200063E8600013087000108A20022082100FF
:10177200A60020006F08073E86000130870001089E
:10178200A20022082100A70020006F08083E860060
:10179200013087000108A20022082100A8002000D1
:1017A2006F08093E8600013087000108A200220866
:1017B2002100A90020006F080A3E86000130870040
:1017C2000108A20022082100AA0020006F080B3E97
:1017D2008600013087000108A20022082100AB0028
:1017E20020006F080C3E8600013087000108A2002D
:1017F20022082100AC0020006F080D3E8600013057
:1018020087000108A20022082100AD0020006F0815
:101812000E3E8600013087000108A2002208210046
:10182200AE0020006F080F3E8600013087000108DD
:10183200A20022082100AF0020006F08103E86009F
:10184200013087000108A20022082100B000200018
:101852006F08113E8600013087000108A2002208AD
:101862002100B10020006F08123E8600013087007F
:101872000108A20022082100B20020006F08133ED6
:101882008600013087000108A20022082100B3006F
:1018920020006F08143E8600013087000108A20074
:1018A20022082100B400562C562C080020004C08B7
:1018B200D2004D08D3004E08D4000310530D540D2E
:1018C200D5005508D8004F08D2005008D30051085F
:1018D200D4000310530D540DD5005508D7005808F5
:1018E200031D742C852C570858020318792C7A2C66
:1018F2008D2C5803FF3A5707D20019305202031CAD
:10190200832C842C8D2C852C4F08CC005008CD00C4
:101912005108CE00862D862D5708031D912CA12C2F
:10192200580857020318962C972CA22C5703FF3AFB
:101932005807D20019305202031CA02CA12CA22C51
:10194200862D0630D2005208D600CE1FA92CAA2C12
:10195200AB2CD617D11FAE2CAF2CB02C5617CD17EF
:10196200FF30CC05FF30CD050030CE05D017FF305B
:10197200CF05FF30D0050030D105570858020318B3
:10198200C32CC42CF12CC52C0130CF35D00DD10D78
:10199200890BC62C0130D702570858060319D22CDE
:1019A200D32CE92C0130D60256080739031DDA2C54
:1019B200DB2CC52CE92CE92CE92C0130CE36CD0CE0
:1019C200CC0C890BDF2C0130D2005208D807E92C4D
:1019D20058085706031DEE2CEF2CDE2C242D242D47
:1019E200580857020318F62CF72C242DF82C013036
:1019F200CC35CD0DCE0D890BF92C0130D80257080C
:101A020058060319052D062D1C2D0130D602560845
:101A12000739031D0D2D0E2DF82C1C2D1C2D1C2DF0
:101A22000130D136D00CCF0C890B122D0130D200EF
:101A32005208D7071C2D58085706031D212D222DA9
:101A4200112D242D242DD61F272D282D392DFF3081
:101A5200CC06FF30CD06FF30CE060130CC07003079
:101A620003180130CD07003003180130CE07392D9D
:101A7200561F3C2D3D2D4E2DFF30CF06FF30D00698
:101A8200FF30D1060130CF07003003180130D007F4
:101A9200003003180130D1074E2DD6014C08CF0774
:101AA2004D08D03D4E08D13DD11F582D592D6D2DD9
:101AB200FF30CF06FF30D006FF30D1060130CF070E
:101AC200003003180130D007003003180130D1076D
:101AD200D6010314D60D6D2D4F08A0005008A100A9
:101AE2005108A2005808D2005208A3005608D30099
:101AF2005308A4009D3120258C3120002008CC0001
:101B02002108CD002208CE00862D08002000B40056
:101B12003408AD317D258D3120006C0886008701A7
:101B2200011C942D952DBC2E6C088600870181190D
:101B32009B2D9C2DE62D6C08063E86008701013008
:101B4200810741310318810A6C08063E860087012D
:101B5200403FB200413FB3000530330278300319F1
:101B62003202031CB52DB62DBC2E0130A031A920A6
:101B72008D31003A0319BE2DBF2DDA2D0130AF3160
:101B820022278D31003A0319C72DC82DDA2D2000E6
:101B92006C08063E860087010030C03F0030C13F1E
:101BA2006C088600870181156C0886008701011187
:101BB200BC2E20006C08063E860087017830C03FAC
:101BC2000530C13FBC2EBC2EBC2E6C08063E8600E2
:101BD20087010130810741310318810A6C08063EF2
:101BE20086008701403FB200413FB300003033021C
:101BF200043003193202031CFF2D002EBC2E6C0888
:101C0200063E860087010030C03F0030C13F6C08AD
:101C12008600870181116C0886008701811C122EC3
:101C2200132E5B2E6C08013E86008701403FB200F6
:101C3200413FB300013033029130031932020318DD
:101C4200232E242E532E6C08013E86008701403F2E
:101C5200B200413FB30000303302C83003193202F0
:101C6200031C342E352E532E0130B2006C08053E73
:101C720086008701320881076C08053E86008701CD
:101C820002300102031C462E472EA52E6C08053E8B
:101C9200860087018101AF0101309B3121238D3103
:101CA200A52EA52E20006C08053E86008701810125
:101CB200A52EA52E6C08013E86008701403FB2008A
:101CC200413FB3000130330290300319320203184E
:101CD2006B2E6C2E7E2E6C08013E86008701403FE3
:101CE200B200413FB30000303302D3300319320255
:101CF20003187C2E7D2E9E2E7E2E0130B2006C08A3
:101D0200053E86008701320881076C08053E860081
:101D1200870102300102031C8F2E902EA52E6C0823
:101D2200053E860087018101AF010314AF0D01302A
:101D32009B3121238D31A52EA52E20006C08053E56
:101D4200860087018101A52E20006C08860087018C
:101D52008118AC2EAD2EB12E6C08860087010115BC
:101D62006C08013E860087010030C03F0030C13F51
:101D7200BC2EBC2EBC2E08000130AF3113278E3191
:101D82000038031DC52EC62EFF2F01308731F227E2
:101D92008E310038031DCE2ECF2EFF2F0130AF31F2
:101DA200C0278E310038031DD72ED82EFF2F7D0875
:101DB2000F3E8600013087008118E02EE12EFF2FB2
:101DC2007D080E3E860001308700011DE92EEA2EB5
:101DD200232F7D080E3E860001308700011101305D
:101DE200AE3183268E3125302000DC006A08053EA4
:101DF2008600013087005C0881002530DC006A081B
:101E0200043E8600013087005C088100A2010314B1
:101E1200A20D0130A0310F208E312000A201031447
:101E2200A20D0130A03120208E312000A90103141F
:101E3200A90D6430AA000030AB0001309531512564
:101E42008E31232F7D08083E860001308700013045
:101E5200810741310318810A7D08083E860001305E
:101E62008700403F2C3A031D382F413F013A031DA2
:101E72003B2F3C2FFF2F7D08083E86000130870054
:101E82000030C03F0030C13F7D080E3E8600013069
:101E9200870001184D2F4E2F9E2F0130AF31222780
:101EA2008E31003A0319562F572F932F0130AF313D
:101EB20031278E31003A03195F2F602F932F0130A3
:101EC200A031A9208E31003A0319682F692F932F70
:101ED2007D080E3E86000130870001140130AE31CC
:101EE20083268E3120006A088600013087000115A2
:101EF2006A0886000130870081145730DC006A08C6
:101F0200053E8600013087005C088100A9010314A8
:101F1200A90D6430AA000030AB0001309531512583
:101F22008E31FF2F7D08083E8600013087002C305D
:101F3200C03F0130C13FFF2FFF2F7D080E3E8600BC
:101F4200013087008118A62FA72FFF2F7D080E3E94
:101F520086000130870081147D080F3E8600013023
:101F6200870081147D08033E86000130870001143A
:101F72000130AE3183268E312000A2010314A20D5E
:101F82000130A0310F208E312000A2010130A0319A
:101F920020208E3120006F08153E86000130870018
:101FA2000108A631AD268E312000DC006A08053E0C
:101FB2008600013087005C0881000330DC005C0889
:101FC200A9003230AA000030AB0001309531512512
:101FD2008E312000A2010314A20D0130AF31D027AF
:101FE2008E312000A5010314A50D0130A3311D235C
:101FF2008E31FF2FFF2FFF2FFF2FFF2F08007C08AE
:10200200223E860001308700811C082809284D28BD
:102012007C08223E860001308700011C112812280C
:1020220045287C08233E8600013087000130810765
:1020320041310318810A7C08233E86000130870063
:10204200403F643A031D2728413F003A031D2A28D6
:102052002B284D287C08233E860001308700003063
:10206200C03F0030C13F7C08223E8600013087001D
:1020720001107C08223E86000130870081109431D5
:10208200092490314D284D287C08223E86000130DB
:10209200870081104D284D2808002000AC002C0834
:1020A200AD317725903120006E088600013087001F
:1020B200011D5C285D28CF28F030A8002808A00068
:1020C2002708A2311622903120006E080A3E8600AF
:1020D200013087002008C03F2108C13F6E080A3E38
:1020E200860001308700403FA800413FA9006E08EA
:1020F200063E860001308700403FAA00413FAB0008
:1021020029082B02031D872828082A0203188A2877
:102112008B289E286E080A3E860001308700403FC9
:10212200A800413FA9006E08063E860001308700E4
:102132002808C03F2908C13FCF286E080A3E860002
:1021420001308700403FA800413FA9006E08083EC9
:10215200860001308700403FAA00413FAB002908BA
:102162002B02031DB62828082A020318B928BA2808
:10217200CF286E080A3E860001308700403FA80043
:10218200413FA9006E08083E8600013087002808FA
:10219200C03F2908C13FCF28CF28CF280800200000
:1021A200B0003008AE31752690317908860087017B
:1021B200811CDC28DD2851297908023E860087012E
:1021C2000130810741310318810A7908023E8600F5
:1021D2008701403F2000AE00413FAF002B302F026D
:1021E200C03003192E02031CF728F8285129790858
:1021F200023E860087010030C03F0030C13F0130FF
:10220200AE007908043E860087012E08810779080E
:10221200043E860087017908013E8400850100089A
:102222000102031C1529162951297908043E86004A
:10223200870181017908860087018110A201300897
:10224200AF31502790312000A2013008AF31602712
:1022520090312000A00130089B317E239031200074
:10226200A2010314A20D3008A0310F2090312000EA
:10227200A2013008A0312020903101308B31562349
:1022820090312000A9010314A90D6430AA00003086
:10229200AB000130953151259031512951295129F5
:1022A20008002000E4006408AE319F26913121002D
:1022B200AF08031D5D295E2999292000A60101307E
:1022C20092315B2291312000A2010130AF316027AF
:1022D20091312000A2010130AF315027913120000D
:1022E2006F08093E86000130870081016F080B3EAE
:1022F20086000130870081016F080F3E86000130A1
:10230200870081016F08113E86000130870081013C
:10231200A9010314A90D6430AA000030AB000130FA
:1023220095315125913101308B3156239131D32989
:1023320021002F08203A031D9F29A029B829200037
:102342006F08093E86000130870081016F080B3E4D
:1023520086000130870081016F08113E860001303E
:102362008700810101308B3156239131D32921001D
:102372002F08013A031DBE29BF29C4290130963115
:10238200A2269131D32921002F08113A031DCA290F
:10239200CB29D3290130A631EE269131D329D32975
:1023A200D329D32908002000A300230898316920EB
:1023B20091312000A208031DDF29E029FB2923080F
:1023C200013A031DE529E629E8298E175A2A23082E
:1023D200023A031DED29EE29F0298C155A2A230809
:1023E200633A031DF529F6295A2A8D165A2A5A2AC2
:1023F2005A2A5A2A2208013A031D002A012A1C2AB3
:102402002308013A031D062A072A092A8E135A2A8B
:102412002308023A031D0E2A0F2A112A8C115A2A66
:102422002308633A031D162A172A5A2A8D125A2A9A
:102432005A2A5A2A5A2A22080A3A031D212A222AE9
:102442004B2A21003A088600870181103A08013E92
:10245200860087010030C03F0030C13F20002308C2
:10246200013A031D352A362A382A8E175A2A23089A
:10247200023A031D3D2A3E2A402A8C155A2A230875
:10248200633A031D452A462A5A2A8D165A2A5A2A7F
:102492005A2A5A2A22080B3A031D502A512A5A2A2A
:1024A20021003A088600870181145A2A5A2A5A2A98
:1024B2005A2A08002000A8002808AE31832692314B
:1024C20020002808A70021003808013E8600870165
:1024D2002000270881002608031D702AC22A6A08E4
:1024E2008600013087008116A20128089131D4218B
:1024F200923120008C15A2010314A20D0130A031EB
:10250200532092312000A0010130A031F2209231FB
:1025120020006A0886000130870081140330A7007A
:102522006A08023E860001308700270881006A0897
:10253200860001308700011B9F2AA02AE12A6A082F
:102542008600013087000117A2010314A20D013099
:10255200AF31702792312000A2010314A20D013085
:10256200AF318027923120002808A7002708A20057
:10257200A3010314A30D0130A531BE259231E12A36
:10258200E12A20006A0886000130870081126A0869
:1025920086000130870081146A08860001308700B6
:1025A20081116A0886000130870001120330A700FA
:1025B2006A08023E86000130870027088100E12A6E
:1025C2000800A13106219231A13170219231973157
:1025D2004E279231AE314C269231AD315425923193
:1025E200AD31DD259231AD3145259231AD314A25EE
:1025F2009231AD314F259231AD3140259231A0312A
:10260200CD209231AD3127259231A1315A2192311B
:102612000A2B7D08860001308700011C112B122B2A
:102622002E2B05302000E9006908A700013088310F
:10263200E520923109302000E9006908A700013045
:1026420090314E20923111302000E9006908A70034
:1026520001309831942092312E2B7D088600013072
:102662008700811C352B362B0A2B7D088600013012
:102672008700811099312C2192317D08860001302A
:102682008700011C452B462B0A2B903100209231EA
:10269200AD312C259231AE3132269231AD316325E6
:1026A2009231AD3168259231AD316D259231AD3126
:1026B2009D259231AD315E259231AD317225923137
:1026C200AD31592592310A2B0A2B0A2B0A2B803164
:1026D200152820002808AC002908AD002A08AE0001
:1026E20003102D0D2E0DAF002F08B500B508031DE8
:1026F2007B2B7C2B862B0030AB000030AA000030F5
:10270200A9000030A800082C082C2808AC002908D1
:10271200AD002A08AE001730AE36AD0CAC0C890BFA
:102722008D2B2C08AF002F08B000A917FF30A80589
:10273200FF30A9050030AA052808B1002908B20017
:102742002A08B300B4018E30B502B51FA92BAA2BFB
:10275200CD2B3508803A8F3E0318B02BB12BBC2B02
:102762000030AB000030AA000030A9000030A80001
:10277200082C082CBC2B0130B436B30CB20CB10CB3
:10278200890BBD2B0130AC002C08B507031DCA2BE9
:10279200CB2BBC2BEF2BEF2B18303502031CD22B8B
:1027A200D32BE82B0030AB000030AA000030A90088
:1027B2000030A800082C082CE82B0130B135B20DEE
:1027C200B30DB40D890BDF2B0130B502E82BB50830
:1027D200031DEC2BED2BDE2BEF2BEF2B3008031D13
:1027E200F32BFF2BB109B209B309B409B10A0319DA
:1027F200B20A0319B30A0319B40AFF2B3408AB0057
:102802003308AA003208A9003108A800082C0800E1
:102812002000A60120302602031C102C112C132CA0
:102822002D2C2D2C2608A131A12194312000A400A9
:1028320026087C07A50025088600013087002408A9
:1028420081000130A4002408A60720302602031CC0
:102852002B2C2C2C132C2D2C6F080C3E86000130B7
:1028620087000108A4007C08860001308700240844
:1028720081006F080D3E8600013087000108A40028
:102882007C08013E860001308700240881006F0821
:102892000E3E8600013087000108A4007C08023E3B
:1028A200860001308700240881006F08153E8600EB
:1028B200013087000108A4007C08033E8600013035
:1028C2008700240881006F08163E860001308700C9
:1028D2000108A4007C08043E860001308700240819
:1028E20081006F08173E8600013087000108A400AE
:1028F2007C08053E860001308700240881007C08A0
:10290200223E860001308700011D882C892CA32CD1
:102912007C08223E86000130870001117D08860076
:102922000130870081127D08033E86000130870056
:1029320081107C081E3E860001308700810103144D
:10294200810DA32C8B13AE313F269431A431E224A6
:1029520094318B1708002000D300D1010314D10D4C
:10296200D2010314D20D5308AE31832694312000D4
:102972006A08093E860001308700811CC12CC22CE6
:102982000B2D5108031DC62C502D6A08093E8600E6
:1029920001308700011CCE2CCF2CF02C5208031DD5
:1029A200D32C502D6A08093E860001308700811021
:1029B200A2015308A031312094312000A201031456
:1029C200A20D5308A031422094312000A601031425
:1029D200A60D530892315B229431502D502D2000C8
:1029E2006A08093E8600013087008110A20153085F
:1029F200A031312094312000A2015308A03142209D
:102A020094312000A601530892315B229431502D5B
:102A1200502D502D20006A08093E860001308700A3
:102A2200811D142D152D502DA331442394310038CE
:102A3200031D1C2D1D2D502D20005308AE31832661
:102A4200943120006A08093E860001308700811116
:102A52006A08093E860001308700011D312D322DA2
:102A6200462DCD010314CD0D53089B31DC23943147
:102A72002000A9010314A90D6430AA000030AB00A4
:102A82000130953151259431502D2000CD0153084C
:102A92009B31DC239431502D502D502D502D0800A8
:102AA2002000AD002D08AE3167269531053020009B
:102AB200A0000030A1002B08A301A3072A08A2014D
:102AC200A2079C314524953120002108AB01AB07B8
:102AD2002008AA01AA077808860001308700011C95
:102AE200732D742DF62D7808860001308700811829
:102AF2007B2D7C2DB32D7808860001308700811450
:102B02000130A9022908AC007808033E8600013092
:102B120087002C0881007808063E86000130870075
:102B22002A08C03F2B08C13F2D08013A031D9A2DE8
:102B32009B2D9D2D8D159D2D7808063E860001301A
:102B4200870016000104031DA72DA82DF62D780875
:102B5200063E8600013087001430C03F0030C13F7E
:102B6200F62DF62D78088600013087008119BA2DDE
:102B7200BB2DD32D780886000130870081152908E6
:102B8200AC007808043E8600013087002C088100E2
:102B92007808083E8600013087002A08C03F2B08CB
:102BA200C13FF62D7808860001308700011ADA2D20
:102BB200DB2DF62D780886000130870001162908E2
:102BC200AC007808053E8600013087002C088100A1
:102BD20078080A3E8600013087002A08C03F2B0889
:102BE200C13FF62DF62DF62DF62D08002000E70048
:102BF2006708AE319F2695317B0886008701011C4C
:102C0200032E042EA12E2000E8010C18092E0A2EF4
:102C1200172E8D180D2E0E2E172E0C1B112E122E66
:102C2200172E0C1E152E162E222E172E7B0886000E
:102C32008701011B1D2E1E2E222EE8010314E80D12
:102C4200222E7B088600870168088113031D8117E5
:102C52007B0886008701811F2F2E302E352E0130F2
:102C6200A431AE249531A12E7B0886008701811CF8
:102C72003B2E3C2E482E9E31092695317B0886003C
:102C82008701811001309E3185269531A12E7B0866
:102C920086008701011D4E2E4F2E852E0130A43154
:102CA200AE2495317B0886008701811A592E5A2E4F
:102CB200782E01302000E6007B08013E8600870165
:102CC200660881077B08013E860087010108323AC7
:102CD200031D6C2E6D2EA12E7B08013E86008701FE
:102CE20081017B08860087018116A12EA12E7B0817
:102CF2008600870181127B088600870101119A31C3
:102D020015229531A12EA12E7B08860087018119FB
:102D12008B2E8C2EA12E7B088600870181153630E2
:102D2200A131302195313430A1313021953101303A
:102D3200AD31C9259531A12EA12EA12EA12EA12EF4
:102D420008002000B0003008AE31E626963121009E
:102D52003008803A031DAE2EAF2ECC2E2000A301E8
:102D62000314A30D210031082000AE002E08A40098
:102D72003008A73174279631210031082000AE00B7
:102D820030081A3E6F07AF002F0886000130870017
:102D92002E088100CC2E21003B08860087010118F5
:102DA200D32ED42EFE2E3B0886008701011420006C
:102DB200A2010314A20D3008AF3150279631200032
:102DC200A0010314A00D30089B317E239631200010
:102DD200A2010314A20D3008A0310F209631210068
:102DE2003B08860087010030011801302000A20054
:102DF2003008A031202096313D2F21003008803A42
:102E0200031D042F052F0E2F2000A0010314A00D77
:102E120030089B317E2396313D2F21003B088600EE
:102E2200870101102000A301A4013008A7317427F3
:102E320096312000A2013008AF3150279631200090
:102E4200A00130089B317E2396312000A201031499
:102E5200A20D3008A0310F20963121003B088600D8
:102E620087010030011801302000A2003008A03193
:102E7200202096313D2F3D2F2000A9010314A90DDA
:102E82006430AA000030AB000130953151259631F3
:102E920001308B315623963108001F30A131A12118
:102EA2009731AA3A031D562F572FBB2F0030A1315D
:102EB200A12197312000CD006F080C3E8600013021
:102EC20087004D0881000130A131A12197312000F6
:102ED200CD006F080D3E8600013087004D0881004D
:102EE2000230A131A12197312000CD006F080E3EA2
:102EF2008600013087004D0881000330A131A121F5
:102F020097312000CD006F08153E86000130870002
:102F12004D0881000430A131A12197312000CD005C
:102F22006F08163E8600013087004D08810005308B
:102F3200A131A12197312000CD006F08173E8600F4
:102F4200013087004D0881001E30A131A121973147
:102F5200013A031DAD2FAE2FFF2F7D0886000130F1
:102F6200870081127D08033E8600013087008110B0
:102F7200FF2FFF2F25308831012097312000CD000F
:102F82004D08CE004E08CD007C08033E860001307D
:102F920087004D0881004E08CD007C08043E860063
:102FA200013087004D0881004E08CD007C08053EA7
:102FB2008600013087004D0881004E08CD006F0861
:102FC200153E8600013087004D0881004E08CD0075
:102FD2006F08163E8600013087004D0881004E08BA
:102FE200CD006F08173E8600013087004D08810032
:102FF2008B13A431E22497318B17FF2F0800003482
:103002000334163417341E341F3420342A342B343C
:103012000B340C340D340E340F341034113412349A
:10302200133414340A341534213422341834193444
:103032001A341B341C341D342334243425342634EE
:1030420029342C342D342E34003401340234073424
:103052000834093406340434053427342834073458
:103062000734303487346B34F8347F343F340934D6
:1030720000345C34A734623486348334033422341B
:10308200F83400344434B634103418341D341C344B
:10309200C7340034B234EA340A34003411345934B7
:1030A200883431340B342F342E340634043405344E
:1030B20000343034D334913441340034FE34FE349D
:0C30C200FE34FE34FE34FE34FE34FE34D6
:1030D2002000A1002108013A031D702871287728D9
:1030E200DB30A00020082100BA009328200021082C
:1030F200023A031D7D287E288428DF30A0002008A4
:103102002100BA00932820002108633A031D8A286F
:103112008B289328D730A00020082100BA009328DA
:103122009328932808002000AC002C08AD317D259F
:10313200983120006C0886008701811DA128A228F1
:10314200DF28F030A8002808A0002708A2311622A4
:10315200983120006C08033E860087012008C03F9A
:103162002108C13F6C08033E86008701403FA8004A
:10317200413FA9006C08013E86008701403FAA003A
:10318200413FAB0029082B02031DC92828082A0247
:103192000318CC28CD28DF286C08033E860087015F
:1031A200403FA800413FA9006C08013E860087010C
:1031B2002808C03F2908C13FDF28DF280800200077
:1031C200AF002F08AE319F26983121002C08200035
:1031D200AE006F080C3E8600013087002E08810089
:1031E20021002D082000AE006F080D3E8600013040
:1031F20087002E08810021002E082000AE006F08F3
:103202000E3E8600013087002E088100A9010314BA
:10321200A90D6430AA000030AB0001309531512570
:1032220098317B088600870101137D08033E8600E2
:1032320001308700811C1E291F2925297C08223E76
:1032420086000130870001157C08223E860001308D
:103252008700011408007D088600013087000118EC
:103262003329342973297D08013E86000130870005
:103272000130810741310318810A7D08013E860031
:1032820001308700403F2C3A031D4929413F013A52
:10329200031D4C294D2977297D08013E8600013006
:1032A20087000030C03F0030C13F7D0886000130FA
:1032B200870001142000A1010314A10D0130AF31D8
:1032C200E02799312000A2010314A20D0130A1319F
:1032D200452199317D080E3E860001308700011597
:1032E200772977298E31BD26993177290800200068
:1032F200A200220898316920993121003A088600FB
:103302008701811C85298629C5293A08013E860044
:1033120087010130810741310318810A3A08013ED1
:1033220086008701403F643A031D9929413F003AD4
:10333200031D9C299D29C5293A08013E8600870163
:103342000030C03F0030C13F20002208013A031D77
:10335200AB29AC29AF2980308E06C5292208023A52
:10336200031DB429B529B82908308C06C5292208BD
:10337200633A031DBD29BE29C52920308D06C52902
:10338200C529C529C529C52908002000A200053084
:10339200A0002008A1002208053A031DD129D22944
:1033A200D7290530A0002008A100122A2208103ACD
:1033B200031DDC29DD29E2290A30A0002008A10032
:1033C200122A2208153A031DE729E829ED290F30B0
:1033D200A0002008A100122A2208203A031DF22987
:1033E200F329F8291430A0002008A100122A22088B
:1033F200253A031DFD29FE29032A1930A0002008C1
:10340200A100122A2208303A031D082A092A122A88
:103412001E30A0002008A100122A122A122A122A03
:10342200122A2108142A080020000E127F30A4005C
:1034320024082100BE001D2A20000E19212A222A5A
:103442001D2A232AA23183229A3121003F0820001B
:10345200A40024082100BE00A23183229A31200058
:10346200A501452A2508A03E860087010108A4007F
:1034720024082100BE00A23183229A3101302000AB
:10348200A4002408A507452A21003F0820002502A0
:10349200031C4C2A4D2A332A0E163530A131302115
:1034A2009A31532A20000D1C572A582A532A5A2A85
:1034B2005A2A0D185D2A5E2A5A2A5F2A3630A1310D
:1034C20030219A313B30A13130219A31F016080077
:1034D2002000A6002608AE3183269A3120006A0811
:1034E200860001308700811E772A782AC32A6A085B
:1034F20086000130870081106A088600013087004B
:1035020081116A0886000130870001126A0886006C
:103512000130870001130330A5006A08023E8600CD
:1035220001308700250881006A08063E86000130C6
:1035320087000108A5006A08043E86000130870062
:10354200250881002608A5002508A200A30103146E
:10355200A30D0130A53186259A312000A201031462
:10356200A20D26089131D4219A312000A201260809
:10357200AF3150279A312000A2012608AF316027CF
:103582009A31C32A08002000AE006D08860001307F
:1035920087008117A9010314A90D6430AA00003025
:1035A200AB000130953151259A3120006D0886001B
:1035B20001308700011BDE2ADF2A0D2B6D088600F1
:1035C200013087000117A2010314A20D2E08AF31AA
:1035D20060279A312000A2010314A20D2E08A03107
:1035E2000F209A312000A2010314A20D2E08A0314F
:1035F20020209A3120006D088600013087000030BB
:10360200011B0130A0002E089B317E239A3101302C
:103612008B3156239A31202B20006D088600013011
:10362200870001136D088600013087000030011BFE
:103632000130A2002E08AF3160279A31202B0800FA
:103642002000B1003108AD317D259B3120002F08CB
:10365200013A031D2D2B2E2B522B6C08860087015D
:103662008114A2010314A20D0130AF31B0279B31A6
:103672009F3102279B310B302000B0003008A2009E
:1036820063309131D4219B312000A2010130AF314E
:10369200D0279B312000A5010130A3311D239B318E
:1036A2007D2B20006C088600870181106C08860043
:1036B20087010115A2010130AF31B0279B319F3143
:1036C20002279B310A302000B0003008A20063308C
:1036D2009131D4219B312000A2010314A20D0130AB
:1036E200AF31D0279B312000A5010314A50D013075
:1036F200A3311D239B317D2B08002000A400A301D0
:103702000314A30D2408FF3E890A892B0310A30D7D
:10371200FF3E031D872B2408A1006F080B3E860085
:1037220001308700210881002408143E6F07A100A0
:1037320021088600013087000108A2006F08093EB7
:103742008600013087002208810024081A3E6F0794
:10375200A10021088600013087000108A2006F083D
:10376200113E860001308700220881002008031DD7
:10377200BB2BCB2B6F080F3E860001308700010860
:103782002304A1006F080F3E860001308700210844
:103792008100DB2B6F080F3E860001308700230972
:1037A2000105A1006F080F3E860001308700210845
:1037B2008100DB2B08002000D0005008AE318326A8
:1037C2009B3120004D08031DE72BF22B6A0886006F
:1037D2000130870081156A08860001308700811454
:1037E200442C6A08860001308700811DF92BFA2BD0
:1037F200442C6A0886000130870081106A0886001E
:10380200013087008111A201A3010314A30D01302D
:10381200A53186259B3120006A08043E86000130CE
:1038220087000108CE006A08053E86000130870045
:103832004E088100A0010314A00D50089B317E2385
:103842009B3101308B3156239B317C08223E86000E
:1038520001308700011420006A08053E860001300D
:1038620087000108883101209B312000CE005008DA
:10387200143E6F07CF004F088600013087004E08C4
:103882008100442C442C08002000A601A11F4A2CD0
:103892004B2C542CA009A109A00A0319A10AA601C4
:1038A2000314A60D542CA31F572C582C622CA209CA
:1038B200A309A20A0319A30A0130A4002408A60638
:1038C200622CA701A801210820040319692C6A2C83
:1038D200A02CA5010314A50D782C0130A035A10D53
:1038E200890B6F2C0130A4002408A507782CA11F96
:1038F2007B2C7C2C6E2C7E2C7E2C0130A735A80DC7
:10390200890B7F2C21082302031D892C2008220207
:10391200031C8C2C8D2C932C2008A2022108A33B83
:103922002714932C0130A136A00C890B942C013062
:10393200A502031D9D2C9E2C7E2CA02CA02C2608BB
:10394200031DA42CAA2CA709A809A70A0319A80ACF
:10395200AA2C2808A101A1072708A001A007B12CC1
:1039620008002000B1003108AD3177259C312000DC
:103972002F08031DBD2CE22C6E0886000130870043
:103982008114A2010314A20D0130AF3190279C31A2
:103992009F3102279C310B302000B0003008A2007A
:1039A20063309131D4219C312000A2010130AF312A
:1039B200D0279C312000A5010130A3311D239C3169
:1039C2001F2D2000AF08031DE72CE82C1F2D6E08C9
:1039D2008600013087008110A2010130AF319027AB
:1039E2009C3120006E0886000130870001160A30E3
:1039F200B0003008A20063309131D4219C310230F2
:103A02002000B0003008A9006430AA000030AB00EA
:103A12000130953151259C312000A2010314A20DE1
:103A22000130AF31D0279C312000A5010314A50D30
:103A32000130A3311D239C311F2D1F2D08002000B2
:103A42002308031D252D2D2D220821042004031DEA
:103A52002B2D2C2D412D2D2D0030A0000030A1004A
:103A62000030A200932D932D412D0130A500250891
:103A7200A3070130A236A10CA00C890B3B2D412DCE
:103A8200FE302205031D462D472D362D5D2D5D2D61
:103A92000130A5002508A3070130A0070030031854
:103AA2000130A107003003180130A2070130A2360D
:103AB200A10CA00C890B582DFF302205031D622D8D
:103AC200632D492D6E2D6E2D0130A3020130A035DC
:103AD200A10DA20D890B682D6E2DA11F712D722DC6
:103AE200652D2318752D762D7C2DFF30A0057F3096
:103AF200A105FF30A2050310A30C2308A500A6010F
:103B0200A7011030A535A60DA70D890B832D250819
:103B1200A0042608A1042708A2042408031D922D4C
:103B2200932DA21708002000B1003108AE31912672
:103B32009D3120002F08031D9F2DD22DA2010314B9
:103B4200A20D0130AF31A0279D3120006B08860005
:103B52000230870081166B08053E8600023087001E
:103B620081010314810D6B088600023087008111E8
:103B72009F3102279D310B302000B0003008A20097
:103B820063309131D4219D312000A2010130AF3147
:103B9200D0279D312000A5010130A3311D239D3185
:103BA200082E2000AF08031DD72DD82D082EA20104
:103BB2000130AF31A0279D3120006B088600023012
:103BC200870081126B08053E860002308700810162
:103BD2006B0886000230870081150A30B000300879
:103BE200A20063309131D4219D312000A20103143F
:103BF200A20D0130AF31D0279D312000A501031461
:103C0200A50D0130A3311D239D31082E082E080079
:103C120020000D1C0D2E0E2E162E102E102E0D18FD
:103C2200132E142E102E162E162E3B30A131F621F5
:103C32009E3121004208031D1F2E762E20000E12F7
:103C4200FF30A40024082100BE00272E20000E19F8
:103C52002B2E2C2E272E2D2EA23183229E31A331E4
:103C620094239E3121003E082000A4002408210054
:103C7200BD002000A5014F2EA33194239E312100C7
:103C82003E082000A4002508A03E860087012408E3
:103C920081000130A4002408A5074F2E21003D0811
:103CA20020002502031C562E572E3D2E582EA331DE
:103CB20094239E3121003E082000A4002408210004
:103CC200BC00A33194239E3121003E082000A400B1
:103CD20024082100B70020000E162100B71F722E03
:103CE200732E762E7015762E762E3630A131302137
:103CF2009E313A30A13130219E312000A2010130A3
:103D0200AE31F5269E3108002000E5006508AE318F
:103D12009F269E317B0886008701011F912E922EDD
:103D2200A42E2100A008031D972E982E012F2108F2
:103D3200643A031D9D2E9E2E012F01309831E02002
:103D42009E31012F012F2100A008031DA92EAA2EAA
:103D5200012F2108023A031DAF2EB02E012F2C088D
:103D6200FF3A031DB52EB62EC42E2D08FF3A031DB1
:103D7200BB2EBC2EC42E2E08FF3A031DC12EC22E0E
:103D8200C42E0000012F20006F080C3E8600013077
:103D9200870021002C080106031DD02ED12E012FF1
:103DA20020006F080D3E86000130870021002D089B
:103DB2000106031DDD2EDE2E012F20006F080E3EB0
:103DC20086000130870021002E080106031DEA2E1D
:103DD200EB2E012F0130913152219E31012F012F03
:103DE200012F012F012F012F012F012F012F012F51
:103DF200012F012F012F012F012F012F012F012F41
:103E020008000130AE31BB269F31003A03190A2F58
:103E12000B2F252FA231CF229F31003A0319122FE7
:103E2200132F202F0A302000AE002E08A9002C30BC
:103E3200AA000130AB000130953151259F3101308C
:103E42009A3169229F31542F0130AE31C9269F31F8
:103E5200003A03192D2F2E2F452F05302000AE00DA
:103E62002E08A9002C30AA000130AB000130953198
:103E720051259F3121003808013E86008701010843
:103E82009A3169229F31542F0130AF3104279F317B
:103E9200003A03194D2F4E2F542F01309A316922C7
:103EA2009F31542F542F2000A2010130A6312F261A
:103EB2009F317D08033E8600013087000118622F82
:103EC200632F7F2F7D080E3E860001308700011090
:103ED2007D080E3E86000130870081107D080E3E6F
:103EE20086000130870001157D08083E86000130FA
:103EF20087000030C03F0030C13F7F2F0800200004
:103F0200A9006D08860001308700811F892F8A2F42
:103F1200FF2F6D0886000130870081136D0886002F
:103F220001308700011F962F972FD72F6D08013E72
:103F3200860001308700011C9F2FA02FFF2F6D08E4
:103F4200013E8600013087000110A2010314A20D78
:103F52002908A03175209F312000A2012908A03133
:103F620064209F31200029081A3E6F07A700270806
:103F72008600013087000108A8006F08113E860004
:103F820001308700280881006D0886000130870013
:103F92000030011B0130A00029089B317E239F3194
:103FA20001308B3156239F31FF2FFF2F2000A301B9
:103FB200A4012908A73174279F312000A20103140C
:103FC200A20D2908A0310F209F312000A20129084B
:103FD200A03120209F3120006D088600013087002B
:103FE2000030011B0130A00029089B317E239F3144
:103FF20001308B3156239F31FF2FFF2F0800200005
:10400200A3002308AE319F26A0317B0886008701DA
:10401200200022080113031D011708002000A3003D
:104022002308AE318326A03120006A08093E8600AB
:104032000130870022088110031D8114080020002E
:10404200A3002308AE318326A03120006A08093E6E
:1040520086000130870022080110031D01140800A8
:104062002000A3002308AE318326A03120006A0875
:10407200093E86000130870022088112031D811645
:1040820008002000A3002308AE318326A0312000BF
:104092006A08093E86000130870022080113031DC9
:1040A200011708002000A3002308AE319126A03199
:1040B20020006B08463E860002308700220801106D
:1040C200031D011408002000A3002308AE3183263B
:1040D200A03120006A08093E8600013087002208CC
:1040E2000111031D011508002000A3002308AE31B1
:1040F2008326A03120006A08093E8600013087002D
:1041020022088111031D811508002000A200220847
:10411200AE319126A03120006B0886000230870064
:1041220081152208A4311C24A03108002000A3001C
:104132002308AE31D726A031210038088600870136
:10414200010C2000A200A20C220C0139A8280800B0
:104152002000A3002308AE319126A03120006B0875
:10416200860002308700010CA200A20C220C013949
:10417200BA2808002000A400240898316920A03140
:1041820021003A088600870101142000A2012408B8
:104192009131D421A0310800AD31AE25A0312400E7
:1041A2008D100130AD31D325A0312000A2010314BE
:1041B200A20D02309131D421A03108000B1EE22859
:1041C200E328F1288B1CE628E728F1288B100B1234
:1041D200F3010314F30D0130AE310B26A031F128A7
:1041E200080020002008A1006B083A3E8600023039
:1041F2008700210881002008A1006B08423E86004A
:1042020002308700210881000800C5302000A0008C
:104212002008EF002030A0002008FD007D08860065
:104222000130870081167D08033E86000130870039
:1042320081140800CB302000A00020082100E800F3
:104242006808053E860087019E30C03F0030C13FAE
:104252009501A630200095008B168B1708002000D0
:10426200A3000E122308A20022082100BE00392951
:1042720020000E193D293E2939293F29A2318322E6
:10428200A13120000E1608002000A3002308AE3141
:104292009126A13120006B08860002308700220897
:1042A2000110031D01146B08860002308700811083
:1042B2000800A5314F25A131A331ED23A131A2314F
:1042C200F622A131AD313125A131AD313625A131F1
:1042D200AE312526A131AD313B25A1310800783020
:1042E20021009900A1318821A131A1311B21A131E5
:1042F200AD318F25A131AD312225A131AD31F2256C
:10430200A131A0302000A1002108FC000800773074
:1043120021008C0007308D000C308E0022008C01B1
:1043220002308D008E01223023008C008D018E011F
:10433200773020008C0007308D000C308E00080092
:104342002000A200A30130302300920020002208A6
:10435200230091001513151414082000A000200852
:10436200A100230013082000A0002008A3002308B6
:10437200BA2908008B1DBE29BF29D7290B1CC229C7
:10438200C329D7292700161DC729C829D7291611DD
:104392000B107D08860001308700011CD129D2292B
:1043A200D729AD31A525A131D729D7290800200069
:1043B200A4000E122408A30023082100BE00E12954
:1043C20020000E19E529E629E129E729A2318322F5
:1043D200A13120002208A30023082100BE00A2313F
:1043E2008322A13120000E1608002000A3000E1225
:1043F2002308C03EA20022082100BE00002A20009D
:104402000E19042A052A002A062AA2318322A13182
:10441200A3319423A13120000E1621003E08200072
:10442200A20022082100C20008002000A6002608DF
:1044320021009D002000200821009E009D14212AB9
:104442009D18242A252A212A262A1B082000A20098
:10445200A30121001C082000A400A5012408A50036
:10446200A40122082407A0002308253DA100392A1F
:1044720008002000DD005D08AE318326A231200055
:104482006A0886000130870001156A08860001303B
:10449200870081146F08093E8600013087000108F9
:1044A200A631AD26A2312000DC006A08053E860056
:1044B200013087005C08810008002000A401A501EA
:1044C200622A201C652A662A6A2A2208A40723086F
:1044D200A53D0130A235A30D890B6B2A0130A1360F
:1044E200A00C890B702A21082004031D792A7A2A3C
:1044F200622A7B2A2508A101A1072408A001A0079E
:10450200822A08002000A10108302102031C8A2A05
:104512008B2A8D2AA82AA82A2100BE1F912A922A14
:10452200952A20000E14972A20000E108E140310D4
:104532002100BE0D20008E100130A0002008A1072E
:1045420008302102031CA62AA72A8D2AA82A0800BD
:104552000130A0319720A231003A0319B12AB22AC0
:10456200CE2A2000A2010130AF317027A231A23140
:10457200CF22A2310038031DBF2AC02ACE2A200032
:10458200A2010130AF318027A2317C08223E860091
:10459200013087008114CE2ACE2A08002000A4010F
:1045A200A3010314A30DA501EC2A2508013EAE3197
:1045B2008326A23120006A08860001308700011F8D
:1045C200E32AE42AE82AA4010314A40DE82A01300C
:1045D200A2002208A50723082502031CF12AF22AB9
:1045E200D62AF32A2408F52A08002000A701083059
:1045F2002702031CFD2AFE2A002B1C2B1C2B27083A
:104602005F3E98310A00A331A5002508A6002608BE
:10461200A5002508A2003E30A131D821A2310130E7
:104622002000A5002508A70708302702031C1A2B23
:104632001B2B002B1C2B08002000A6002608AE31E5
:104642009F26A33120002508031D282B2D2B7B0834
:10465200860087010114432B7B0886008701011025
:104662007B0886008701011370123630A131302198
:10467200A3313B30A1313021A3310130A431AE242A
:10468200A331432B08002000A401A3010314A30DAE
:10469200A501622B2508013EAE318326A3312000FD
:1046A2006A08093E860001308700811C592B5A2B6B
:1046B2005E2BA4010314A40D5E2B0130A20022087C
:1046C200A50723082502031C672B682B4B2B692B9C
:1046D20024086B2B08002000BB01B71F712B722B23
:1046E2007B2BB609B709B60A0319B70ABB01031433
:1046F200BB0D7B2B3608A0003708A100A2018E302B
:10470200B9003908A3003B08BA003A08A4009D3159
:104712002025A33120002008B6002108B700220876
:10472200B800932B08002000A10108302102031CCD
:104732009B2B9C2B9E2BBE2BBE2B8E140310210079
:10474200BE0D20000E1DA62BA72BAA2B21003E1466
:10475200B12BFE302000A00020082100BE05B12BA5
:1047620020008E100130A0002008A107083021028D
:10477200031CBC2BBD2B9E2BBE2B08002000A400CB
:104782006D08860001308700811FC82BC92BEC2BD6
:104792006D08013E86000130870001146D08860015
:1047A200013087000117A2010314A20D2408AF31C2
:1047B2006027A3312000A2010314A20D2408A03116
:1047C2007520A3312000A2010314A20D2408A031F8
:1047D2006420A331EC2B08002000A8012F3028020E
:1047E200031CF42BF52BF72B1B2C1B2C2808013E4A
:1047F20098310A00A331A5002508A6002808303EFA
:1048020098310A00A431A5002508A7002708A500B1
:104812002508A2002608A131D821A33101302000A9
:10482200A5002508A8072F302802031C192C1A2CD2
:10483200F72B1B2C08002000A10105302102031CCC
:10484200232C242C262C4B2C4B2C21080907083E08
:104852006B07A00020088600023087000030C03FAE
:104862000030C13F210809071A3E6B07A00020084B
:10487200860002308700FF30C03FFF30C13F013069
:10488200A0002008A10705302102031C492C4A2C54
:10489200262C4B2C080001302000A2000030A3007F
:1048A200712CA401A5010030250202300319240253
:1048B200031C5C2C5D2C5F2C6D2C6D2C0130A4072D
:1048C2000030A53D00302502023003192402031CEA
:1048D2006B2C6C2C5F2C6D2C0130A2070030A33D99
:1048E20021082302031D772C20082202031C7A2CA4
:1048F2007B2C522C7C2C0800F001F801F901FA0102
:10490200FB01EA01EB01EC01ED01EE01A0308400B4
:10491200003085004830AD318925A4312030840033
:10492200013085003D30AD318925A431203084002D
:10493200023085004730AD318925A4313130840001
:10494200A7308500A0308600013087004330AD31AA
:104952008325A43120009231E22A2000A4002408F9
:10496200AE319F26A4317B08860087018119BA2CBB
:10497200BB2CC32C7B0886008701811CC12CC22C56
:10498200E12CC32C7B088600870181117B088600FD
:10499200870181107B08013E8600870181017B0827
:1049A2008600870181123630A1313021A4313A309C
:1049B200A1313021A4310030AD31C925A431E12C1F
:1049C2000800230015133030920094011512951639
:1049D20015152000A10120302102031CF12CF22C1C
:1049E200F42C102D102D2108230091002000210805
:1049F2007C07A00020088600013087000108230000
:104A02009300AD31B725A43101302000A000200869
:104A1200A10720302102031C0F2D102DF42C23009E
:104A22009512AD31B725A431230015110800F50008
:104A32007508AE315926A53120006B08463E860026
:104A42000230870074088110031D81147308013A33
:104A5200031D2C2D2D2D342D6B08433E8600023074
:104A620087008101342D7308023A031D392D3A2D36
:104A7200412D6B08443E8600023087008101412DA2
:104A82007308033A031D462D472D4E2D6B08453EF4
:104A920086000230870081014E2D080020008E1012
:104AA2000E100E160A30A0000030A100A4314C24D2
:104AB200A53120000E120A30A0000030A100A4315E
:104AC2004C24A53120000E162830A0000030A10091
:104AD200A4314C24A53120000E123030A600260845
:104AE2002100BE00742D20000E19782D792D742D11
:104AF2007A2DA2318322A5317E2D20000E19822D1E
:104B0200832D7E2D0E100E1608002000A40024080E
:104B1200AE319126A53120006B08463E8600023058
:104B2200870023088110031D81142208013A031D06
:104B32009B2D9C2DA32D6B08433E860002308700DF
:104B42008101A32D2208023A031DA82DA92DB02D03
:104B52006B08443E8600023087008101B02D220896
:104B6200033A031DB52DB62DBD2D6B08453E8600BB
:104B7200023087008101BD2D08002000A500250814
:104B8200AE319126A53120002208013A031DCA2D1B
:104B9200CB2DD52D2308A4006B08433E860002309E
:104BA200870024088100D52D2208023A031DDA2D40
:104BB200DB2DE52D2308A4006B08443E860002305D
:104BC200870024088100E52D2208033A031DEA2DFF
:104BD200EB2DF52D2308A4006B08453E860002301C
:104BE200870024088100F52D08002000E0006530D0
:104BF20021002902031CFE2DFF2D062E6430200009
:104C0200DE005E082100A900062E29082000DE0031
:104C12006F08093E8600013087005E088100600847
:104C2200DE006F080B3E8600013087005E088100BF
:104C32006F08093E8600013087000108DE00600827
:104C4200143E6F07DF005F088600013087005E08B0
:104C520081006008A2313A22A53108002000A40098
:104C62002408AE318326A63120006A08093E860058
:104C72000130870022088110031D81146A08093E51
:104C820086000130870022080110031D01146A0802
:104C9200093E86000130870022088111031D81151B
:104CA2006A08093E86000130870022080111031DAF
:104CB20001152208003A003003190130A3006A08E6
:104CC200093E860001308700A30EA30D01082306CA
:104CD200DF392306810008002000DE005E08AE31C5
:104CE2008326A63178302000DC006A08063E860062
:104CF200013087005C0881006A08093E86000130A5
:104D0200870081166A08093E860001308700011774
:104D12006A08063E8600013087000108DC006A0846
:104D2200043E8600013087005C0881005E08143E64
:104D32006F07DC005C088600013087000108A6319D
:104D4200AD26A6312000DD006A08053E860001304E
:104D520087005D08810008002000DB005B08D900A5
:104D6200DA01D909DA09D90A0319DA0A5908643EBB
:104D7200B60000305A3DB700A3316C23A6312000A3
:104D82003608BF003708C0003808C1007B30BC00BD
:104D92005430BD003F30BE008931A921A631200028
:104DA2003C08CF003D08D0003E08D1000030CC00C6
:104DB2001430CD004230CE008C315724A631200071
:104DC2004C08A8004D08A9004E08AA0093316A2396
:104DD200A63120002808ED2E08002000E300630819
:104DE200AE31E626A63121003B0886008701011C70
:104DF200FB2EFC2E082F7C08223E86000130870005
:104E0200011420006308A531F625A6311A2F2000CF
:104E12006308143E6F07E1006108860001308700D5
:104E22000108E2006F08093E86000130870062082F
:104E32008100200063081A3E6F07E10061088600C6
:104E4200013087000108E2006F08113E8600013040
:104E520087006208810001308B315623A631080099
:104E6200FF34FF34FF3400340034003400340034A3
:104E72000034003400340034003400340034003490
:104E82000034003400340034003400340034003480
:104E92000034003400340034003400340034AA34C6
:104EA20000340034003400340034633402340034FB
:104EB2000034003400340034003400340034003450
:104EC2000034FF34FF34FF34003400340034003443
:104ED200003401340034003400340034003400342F
:104EE2000034003400342000A6002608AE317526B6
:104EF200A731790886008701011C802F812FB82FE6
:104F0200790886008701200023088110031D81147F
:104F12002308031D8D2F9A2F24089931C621A7310A
:104F22002000A5007908013E86008701250881003E
:104F3200AA2FA308031D9E2F9F2FAA2F26081A3ED1
:104F42006F07A50025088600013087008101AA2F7E
:104F5200AA2F7908023E860087010030C03F003048
:104F6200C13F7908043E860087018101B82F0800FD
:104F72002000A501A601210820040319C12FC22F78
:104F8200F82FA7010314A70DD02F0130A035A10DD2
:104F9200890BC72F0130A4002408A707D02FA11F17
:104FA200D32FD42FC62FD62FD62F0130A535A60D3D
:104FB200890BD72F21082302031DE12F200822028B
:104FC200031CE42FE52FEB2F2008A2022108A33BAC
:104FD2002514EB2F0130A136A00C890BEC2F0130E8
:104FE200A702031DF52FF62FD62FF82FF82F26082C
:0E4FF200A101A1072508A001A007FF2F0800BC
:105A440024000D100B178B1708000130AD3196257B
:105A5400AD31080001308A317322AD3108003B308A
:105A6400A1313021AD3108003A30A1313021AD31BE
:105A740008003630A1313021AD3108000130AD319C
:105A8400E725AD3108000130AE311826AD310800EC
:105A94000130A0318620AD3108000130AF31F0274C
:105AA400AD3108000130AD31C025AD310800013001
:105AB4009031D020AD31080001308431FD24AD3166
:105AC4000800013086318926AD310800013080316B
:105AD4001820AD31080001308D318725AD31080023
:105AE40001309531F725AD31080030302000A00099
:105AF4002008EE000800C3302000A0002008EC00BD
:105B04000800FE0012001E00FE0B842D0034640009
:105B140080010131890B8A2D0034F23021009E006E
:105B2400C03022009700080015302000A000200893
:105B34002100BF00080001309431AC24AD31A23102
:105B4400A922AD310800FF30200095007A088600B4
:105B54000130870001140800B02D8E1620008E1E1F
:105B6400B42DB52DAF2DB62D080055302300960069
:105B7400AA30960095140000000008002000A2013D
:105B84000314A20D0130AF314027AD3108002000CD
:105B9400A0008B102018CF2DD12D0B16D22D0B1257
:105BA40008002000A400A2010314A20D24089131CE
:105BB400D421AD3108004A302000DF005F08FA002C
:105BC4000130A6316D26AD3108002000A200220864
:105BD400AE317526AD3179088600870101140800BD
:105BE40024000D1104302700940004309500960120
:105BF4008B150B108B170800F2007208013A031D75
:105C0400042E052E0A2EE530F1007108FB000A2E41
:105C14000800F4007408AD31FE25AE317B0886001F
:105C2400870173088110031D811408002000A1005E
:105C34002108AD317725AE3120006E088600013091
:105C44008700011608003330A1313021AE31E8302D
:105C54002000A0000330A100A4314C24AE31080080
:105C6400013099317821AE31023099317821AE3149
:105C7400633099317821AE31080023001513303098
:105C84009200910115161515AD31B725AE312300DB
:105C9400151108000130A031BB20AE310230A03113
:105CA400BB20AE316330A031BB20AE310800F2001E
:105CB4007208013A031D5F2E602E662E2030F1001B
:105CC40071082000EB00662E08002000A1002108C6
:105CD400013A031D6E2E6F2E742E3E30A000200854
:105CE400F800742E08002000A1002108013A031DC9
:105CF4007C2E7D2E822ED230A0002008F900822E28
:105D040008002000A1002108013A031D8A2E8B2ED1
:105D1400902E4A30A0002008EA00902E08002000AF
:105D2400A1002108013A031D982E992E9E2E2030A1
:105D3400A0002008EB009E2E08002000A1002108EE
:105D4400013A031DA62EA72EAC2EE530A000200894
:105D5400FB00AC2E08002000A1002108013A031D1D
:105D6400B42EB52EBA2E5430A0002008ED00BA2E61
:105D740008002000A2002208AE31D726AE3121004F
:105D8400380886008701010C0139C82E080020005C
:105D9400A2002208AE31D726AE3121003808860091
:105DA400870101080139D62E08002000A10021082E
:105DB400013A031DDE2EDF2EE52EE330A00020087D
:105DC4002100B800E52E08002000A1002108013AB6
:105DD400031DED2EEE2EF42EE730A0002008210046
:105DE400BB00F42E08002000A3002308AE319F2638
:105DF400AE317B0886008701200022088111031D33
:105E0400811508002000A2002208AE31D726AF3148
:105E14002100380886008701010C890C0139122FF2
:105E240008002000A1002108AD317725AF31200002
:105E34006E08860001308700010C0139212F08000B
:105E44002000A1002108AD317725AF3120006E0874
:105E5400860001308700010E0139302F0800200030
:105E6400A1002108AD317D25AF3120006C088600EA
:105E74008701010C890C01393F2F08002000A30081
:105E84002308AE316726AF317808860001308700D9
:105E9400200022080110031D011408002000A300A3
:105EA4002308AE31AD26AF3120006D0886000130E5
:105EB400870022080113031D011708002000A30016
:105EC4002308AE31E626AF3121003B088600870166
:105ED400200022080110031D011408002000A30063
:105EE4002308AE31D726AF31210038088600870158
:105EF400200022088111031D811508002000A30041
:105F04002308AE319126AF3120006B0886000230A1
:105F1400870022088110031D811408002000A300BB
:105F24002308AE31D726AF31210038088600870117
:105F3400200022088110031D811408002000A30002
:105F44002308AE31D726AF312100380886008701F7
:105F5400200022080110031D011408002000A300E2
:105F64002308AE31D726AF312100380886008701D7
:105F7400200022080111031D011508002000A200C1
:105F84002208AE319126AF3120006B088600023022
:105F94008700010E890C0139CF2F08002000A300CF
:105FA4002308AE31AD26AF3120006D0886000130E4
:105FB400870022080110031D011408002000A2001C
:105FC4002208AD317725AF3120006E0886000130FC
:105FD400870021080110031D011408002000A100FE
:105FE4002108AD317D25AF3120006C088600870182
:0C5FF40001146C088600870101150800EC
:020000040001F9
:04000E00E4F9FEFF14
:00000001FF
