:040000008A11112828
:10000800FE00030EF2000408F3000A08F40083124D
:1000180003137F08F5008A11C02C8A116B2C8312F8
:100028000313DD005D088A11D0248A11831203139B
:10003800200884008313001C22282328AE282008C7
:100048008400801828282928492820088400801935
:100058002E282F28AE280130DA002008013E84001F
:100068005A0880072008013E840064300002031CFF
:100078003E283F28AE282008013E84008001200841
:1000880084008015AE28AE28AE2820088400801091
:1000980020088400001E5128522878282008023E93
:1000A80084000008DA002008033E84000008DB0012
:1000B8005A085B02031C61286228AE2820088400C5
:1000C80000128611D8010314D80D01308A118E242C
:1000D8008A1183120313D8010314D80D01308A1131
:1000E8007D248A11AE28AE28831203132008023E0D
:1000F8008400831300089C3EDA00FF3003180030A8
:10010800DB002008033E84005B08803ADC00803076
:100118005C02031D912800085A02031C94289528A4
:10012800AE28831203132008840083130016861553
:10013800D8010314D80D01308A118E248A11831234
:100148000313D80101308A117D248A11AE28AE2804
:10015800AE28AE28080083120313D90059088A1163
:10016800D1238A1183120313D808031DBC28BD2884
:10017800D8285908013A031DC228C328C5280616DD
:1001880034295908023A031DCA28CB28CD288616D7
:1001980034295908633A031DD228D32834298615EF
:1001A80034293429342934295808013A031DDD2813
:1001B800DE28F9285908013A031DE328E428E6282F
:1001C800061234295908023A031DEB28EC28EE28B8
:1001D800861234295908633A031DF328F428342970
:1001E8008611342934293429342958080A3A031D38
:1001F800FE28FF282629210884008313801021085F
:10020800013E840000308000840A003080005908D4
:10021800013A031D102911291329061634295908F2
:10022800023A031D182919291B2986163429590849
:10023800633A031D202921293429861534293429B4
:100248003429342958080B3A031D2B292C29342921
:10025800210884008313801434293429342934294B
:10026800080083120313DA005A088A11DF248A115E
:1002780083120313220884008313801C4429452910
:100288009E290130D8002208023E840058088007C1
:100298002208063E84000008D8002208023E840096
:1002A8000008D90058085902031C5B295C297B29DE
:1002B8002208073E84000018622963297B29220846
:1002C800073E840000145A08013A031D6C296D2961
:1002D8009E292208840000197229762983120313A3
:1002E800051679298312031305129E299E292208CF
:1002F800043E840083130008D8002208023E8400CC
:100308000008D90058085902031C8B298C299E29FA
:100318002208023E840080012208840080105A08C6
:10032800013A031D982999299E2906119E299E297B
:100338009E299E2908008A11B0248A118A11EE2468
:100348008A118A11FC248A118A1141258A118A117D
:1003580038258A118A1133258A118A1140258A1174
:100368000000B62983120313240884008313001C99
:10037800BE29BF29DA290930DF005F08D8003130EB
:10038800E0006008D90001308A11B9228A110530CD
:1003980083120313DF005F08D6000D30E000600809
:1003A800D70001308A113F258A11DA2983120313F5
:1003B800240884008313801CE229E329B629240831
:1003C800840080108A1107228A11831203132408DB
:1003D80084008313001CF129F229B6298A11092502
:1003E8008A118A113E258A118A1116258A118A11C5
:1003F8002E258A118A113D258A11B629B629B629D2
:10040800B6298A1111288312031324088400831340
:1004180000180F2A102A382A2408013E84000130C7
:100428008007840A0318800A2408013E8400000813
:10043800D600840A0008D700963056065704031DD4
:10044800262A272A672A2408013E840000308000D3
:10045800840A003080002408840000142408033E25
:1004680084000014672A672A2408063E84000130A5
:100478008007840A0318800A2408063E84000008BE
:10048800D600840A0008D700643056065704031DB6
:100498004E2A4F2A672A2408063E8400003080002E
:1004A800840A0030800024088400801D5C2A5D2AAC
:1004B800612A240884008011672A24088400801592
:1004C800672A672A672A080083120313DA005A0882
:1004D8008A11D1238A1183120313210884008313FC
:1004E800801C772A782AB82A2108013E8400013026
:1004F8008007840A0318800A2108013E8400000846
:10050800D800840A0008D90001305902F4300319D0
:100518005802031C902A912AB82A2108013E840017
:1005280000308000840A003080005A08013A031D18
:100538009E2A9F2AA22A10308606B82A5A08023A0A
:10054800031DA72AA82AAB2A20308606B82A5A08EB
:10055800633A031DB02AB12AB82A08308606B82A99
:10056800B82AB82AB82AB82A080083120313DE006A
:10057800DC01DD015E088A11D0248A11831203137D
:10058800200884008313801DCA2ACB2A082B200840
:10059800840080112008840080147030DA005A0822
:1005A800D60058088A112E248A1183120313DB00FF
:1005B8002008043E84005B08831380002008043E62
:1005C80084000008DA002008023E84005A088000EF
:1005D8007030DA005A08D60059088A112E248A1178
:1005E80083120313DB002008043E84005B08831396
:1005F80080002008043E84000008DA002008033E3A
:1006080084005A088000082B080083120313DD00B9
:10061800DB010314DB0DDC010314DC0D5D088A111A
:10062800DF248A1183120313220884008313801E97
:100638001E2B1F2B532B5B08031D232B532B220828
:100648008400001F282B292B3F2B5C08031D2D2B12
:10065800532B22088400801222088400801122086B
:1006680084000016D8010314D80D5D088A1154239C
:100678008A11532B532B83120313220884008313EC
:100688008012220884008015220884000012D801F4
:100698005D088A1154238A11532B532B532B0800BE
:1006A80083120313DA005A088A11DF248A1183128D
:1006B800031322088400831380142208073E840051
:1006C80000105808031D692B832B2208840000158D
:1006D8000D30D9002208043E8400590880000A30F1
:1006E800D9002208063E8400590880005A08013AB9
:1006F800031D7F2B802B9D2B06159D2B9D2B2208E0
:10070800840000110530D9002208043E84005908ED
:1007180080000230D9002208063E84005908800073
:100728005A08013A031D992B9A2B9D2B06159D2BD0
:100738009D2B08008B1EA12BA22BD02B0B1DA52BAC
:10074800A62BD02BA6308312031381000B11770838
:10075800013E8400013083138007840A0318800A4D
:100768007708013E84000008F000840A0008F100C0
:10077800C83070067104031DC22BC32BD02B770819
:10078800013E840000308000840A00308000240884
:1007980084008014D02BD02B080083120313D700B9
:1007A8005708013A031DD92BDA2BDF2B4E30D60020
:1007B8005608A100F72B5708023A031DE42BE52B36
:1007C800EA2B5230D6005608A100F72B5708633A97
:1007D800031DEF2BF02BF72B4A30D6005608A1004B
:1007E800F72BF72BF72B080083120313DA005A08AC
:1007F8008A11D0248A1183120313200884008313DA
:100808000014D8010314D80D5A088A11AF208A1190
:1008180083120313D8015A08013E8A11AF208A11A6
:1008280008003E3083120313D6005608F7007708F5
:10083800053E84009E3083138000840A00308000C7
:10084800831603138101A6308312031381008B16CC
:100858008B17080083120313D70057089F00560808
:10086800831603139F00831203139F143B2C9F18B6
:100878003E2C3F2C3B2C402C1E08422C08002F30CD
:10088800831603138500013086008701073083161D
:100898000317850001308600AF30831203138500EB
:1008A800013086008701080083120313DA005A0812
:1008B8008A11D1238A118312031321088400831318
:1008C8000014D8015A088A11AF208A110800F601CD
:1008D800F70183132030840056308A111F258A11AE
:1008E800A0308400CF308A111F258A1183018A1114
:1008F8009F2983120313D90059088A11DF248A110A
:100908008312031322088400580883130013031D5D
:100918000017080083120313D90059088A11DF242D
:100928008A11831203132208840058088313801243
:10093800031D8016080083120313D80058088A1173
:10094800DF248A118312031322088400831380157D
:1009580022088400001608000000253083120313C3
:10096800D6005608A400240884008313801624089F
:10097800033E8400801408008A119E238A1175089A
:1009880083120313FF0074088A0073088400720E30
:100998008300FE0E7E0E090083120313D70057084A
:1009A800013A031DD82CD92CDE2C4530D600560828
:1009B800A000DE2C080083120313D7005708013A61
:1009C800031DE72CE82CED2C3530D6005608A20084
:1009D800ED2C08003C308316031390008A11432441
:1009E8008A118A1115248A118A1127258A1108006B
:1009F80001308A1158248A1102308A1158248A1128
:100A080063308A1158248A11080001308A1168223B
:100A18008A1102308A1168228A1163308A11682289
:100A28008A11080001308A1109238A1101308A11BC
:100A380035218A11080064008001840A040603191C
:100A480000340406202D7230831603139F00C13032
:100A58009D00080001308A1113208A110800013016
:100A68008A11F8238A11080001308A119F248A11FB
:0C0A780008000800080008000800080042
:04400E00F4FCFFFFC0
:00000001FF
