:04000000803115280E
:10000800803120007F08F000000000008431A8241F
:100018008031000085318725803170082000FF007D
:100028000900880185310B2D7C08153E8600870163
:10003800011C1F28202869297C08153E8600870195
:1000480081147C08153E86008701011D2C282D2867
:1000580069287A080F392000CE007C08113E8600F6
:1000680087014E0881007B08CF007A08CE00043053
:10007800FF004F0DCF0CCE0CFF0B3D284E080F395B
:10008800D0007C08123E86008701500881007B085A
:100098000F39CE007C08133E860087014E08810088
:1000A8007B08CF007A08CE000C30FF004F0DCF0C34
:1000B800CE0CFF0B5A284E080F39D0007C08143E8E
:1000C800860087015008810026297C08153E860095
:1000D8008701811D7028712826297B08803AFF0036
:1000E800A7307F02031D7A2810307A02031C7D286E
:1000F8007E289F282000D10104305102031C852846
:1001080086288828262926291030CE005108113E35
:100118007C07CF004F08860087014E088100013018
:10012800CE004E08D10704305102031C9C289D289C
:10013800882826292629E830F1000330F2007B08B8
:10014800F401F4077A08F301F30783311D238031A2
:1001580071082000CE007C08143E860087014E08F6
:100168008100E830F1000330F2007B08F401F40765
:100178007A08F301F3078331892380317208FB0180
:10018800FB077108FA01FA076430F1000030F20049
:100198007B08F401F4077A08F301F30783311D2380
:1001A800803171082000CE007C08133E860087014C
:1001B8004E0881006430F1000030F2007B08F40141
:1001C800F4077A08F301F307833189238031720831
:1001D800FB01FB077108FA01FA070A30F100003049
:1001E800F2007B08F401F4077A08F301F30783317E
:1001F8001D23803171082000CE007C08123E860045
:1002080087014E0881000A30F1000030F2007B08B7
:10021800F401F4077A08F301F30783318923803165
:100228007208FB01FB077108FA01FA077A08200037
:10023800CE007C08113E860087014E0881002629E1
:10024800262926297C08143E860087010108003AE1
:1002580003192F2930293A2903302000CE007C08C1
:10026800173E860087014E08810069297C08133EE5
:10027800860087010108003A0319432944294E29B9
:1002880002302000CE007C08173E860087014E0809
:10029800810069297C08123E860087010108003A1E
:1002A80003195729582960297C08173E86008701B9
:1002B80081010314810D69297C08173E8600870196
:1002C80081016929692969296929080020005608D6
:1002D8008600870101187129722997295608013E5D
:1002E800860087010130810741310318810A5608C9
:1002F800013E86008701403FDC3A031D8529413FC6
:10030800053A031D88298929192A5608013E8600BD
:1003180087010030C03F0030C13F56088600870182
:100328000114192A192A5608053E8600870101304A
:10033800810741310318810A5608053E8600870166
:10034800403FE83A031DAA29413F033A031DAD295E
:10035800AE29F8295608053E860087010030C03FBF
:100368000030C13F04308C06BA29BA2956080C3E21
:10037800860087010108003A0319C329C429F8290E
:100388003A08403E86000130870001083A07D2004B
:1003980052088600013087000108D300D4015308B1
:1003A800FA005408FB008031182081310130200008
:1003B800D2003A08403E8600013087005208810783
:1003C8003A08403E8600013087000108203A031DA4
:1003D800EE29EF29F8293A08403E860001308700C7
:1003E8008101F829F829F8295608073E860087016F
:1003F8000130810741310318810A5608073E8600FB
:100408008701403FD03A031D0B2A413F073A031D9D
:100418000E2A0F2A192A5608073E8600870100303F
:10042800C03F0030C13F192A192A08007C08153E30
:1004380086008701811C212A222AA22A0130F10084
:100448007C08193E86008701710881077C08193EDF
:10045800860087010108053A031D332A342AA22A97
:100468007C08193E8600870181010F30F100710870
:1004780020008C057C08163E860087018108031D34
:10048800462A472A492A0C16702A7C08163E8600F6
:1004980087010108013A031D522A532A552A8C164E
:1004A800702A7C08163E860087010108023A031D5F
:1004B8005E2A5F2A612A0C17702A7C08163E86007D
:1004C80087010108033A031D6A2A6B2A702A8C17D0
:1004D800702A702A702A702A7C08163E86008701C6
:1004E8000108113E7C07F1007108860087010108A8
:1004F8007C07F20072088600870101088D007C08DD
:10050800163E860087017C08173E84008501000896
:1005180001020318902A912A9A2A0130F1007C08D6
:10052800163E8600870171088107A22A7C08163EBC
:10053800860087018101A22AA22AA22A0800A42AE9
:1005480024001618A82AA92AA42A1614AB2A1618B1
:10055800AE2AAF2AAB2AB02A11309100B32A141858
:10056800B62AB72AB32AB92AB92A161BBC2ABD2A21
:10057800B92AF30120307302031CC32AC42AC72AEC
:10058800F82AF82AC72A1618CA2ACB2AC72ACD2A2F
:10059800CD2A9619D02AD12ACD2A9615D32A96196A
:1005A800D62AD72AD32AD82A1108F100730820009E
:1005B8003A07F2007208860001308700710881004E
:1005C80024001616E72A161AEA2AEB2AE72AEC2A42
:1005D8000130F1007108F30720307302031CF52A7B
:1005E800F62AC72AF82AF82A9619FB2AFC2AF82A92
:1005F8009615FE2A9619012B022BFE2A1616042B95
:10060800161A072B082B042B0A2B0A2B16180D2B4E
:100618000E2B0A2B112B112B1615161D142B152B0F
:10062800102B172B172B16191A2B1B2B172B1C2BC0
:100638000800F701F21F212B222B2B2BF109F209BD
:10064800F10A0319F20AF7010314F70D2B2BF41F13
:100658002E2B2F2B392BF309F409F30A0319F40A6B
:100668000130F5007508F706392BF801F901720811
:1006780071040319402B412B772BF6010314F60D57
:100688004F2B0130F135F20D890B462B0130F50067
:100698007508F6074F2BF21F522B532B452B552B62
:1006A800552B0130F835F90D890B562B7208740259
:1006B800031D602B71087302031C632B642B6A2BC8
:1006C8007108F3027208F43B78146A2B0130F23691
:1006D800F10C890B6B2B0130F602031D742B752B63
:1006E800552B772B772B7708031D7B2B812BF8094C
:1006F800F909F80A0319F90A812B7908F201F207B6
:100708007808F101F107882B0800F701F41F8D2BF9
:100718008E2B972BF309F409F30A0319F40AF7014E
:100728000314F70D972BF21F9A2B9B2BA12BF10982
:10073800F209F10A0319F20AA12B720871040319CC
:10074800A62BA72BD72BF6010314F60DB52B0130DA
:10075800F135F20D890BAC2B0130F5007508F60761
:10076800B52BF21FB82BB92BAB2BBB2BBB2B7208AD
:100778007402031DC12B71087302031CC42BC52B03
:10078800CA2B7108F3027208F43BCA2B0130F23607
:10079800F10C890BCB2B0130F602031DD42BD52B82
:1007A800BB2BD72BD72B7708031DDB2BE12BF309AA
:1007B800F409F30A0319F40AE12B7408F201F207A9
:1007C8007308F101F107E82B0800EA2B240016183A
:1007D800EE2BEF2BEA2B1614F12B1618F42BF52B16
:1007E800F12BF62B10309100F92B1418FC2BFD2B54
:1007F800F92BFF2BFF2B161B022C032CFF2BF201CE
:1008080020307202031C092C0A2C0D2C362C362C95
:100818000D2C1618102C112C0D2C122C7208203EA1
:1008280020003A07F10071088600013087000108AE
:10083800240091001F2C1418222C232C1F2C252C4B
:10084800252C161B282C292C252C2A2C0130F100AC
:100858007108F20720307202031C332C342C0D2C43
:10086800362C362C1618392C3A2C362C3D2C3D2C8F
:100878001615161D402C412C3C2C432C432C1619C4
:10088800462C472C432C482C080020003A08423EAE
:10089800860001308700011E522C532C682C8C14C2
:1008A8003A08423E86000130870001128231A322B5
:1008B8008431200056080C3E86008701810103140C
:1008C800810D02308C06A72C0E1C6B2C6C2C832CF3
:1008D8003A08423E860001308700811A742C752C34
:1008E800A72C3A08423E86000130870081163A0854
:1008F800423E8600013087000116A72CA72C3A0833
:10090800423E860001308700811E8B2C8C2C922C55
:100918003A08423E86000130870081123A08423E7A
:10092800860001308700811D9A2C9B2CA72C3A0841
:10093800423E86000130870081118331E9238431EA
:10094800A72CA72CA72C08002100111CAC2CAD2C1F
:10095800DC2C2000111CB12CB22CDC2CFD309700B3
:100968004430960011103B08013E86008701013093
:10097800810741310318810A3B08013E860087013F
:10098800403F143A031DCA2C413F003A031DCD2CA9
:10099800CE2CDC2C3B08013E860087010030C03F8E
:1009A8000030C13F5608860087010115DC2CDC2C7D
:1009B80008008531CC25843185319C2584318531E9
:1009C800BD2584310000E82C2000560886008701E8
:1009D800011DEF2CF02CE82C560886008701011128
:1009E80081316A2184312000560886008701011C64
:1009F800FE2CFF2CE82C84314924843182311A22C0
:100A08008431E82CE82CE82CE82C80311528FC01EE
:100A18003A3084000030850014308531E92585316D
:100A2800203084000130850043308531E925853147
:100A380057308400853085002030860000308700DC
:100A48001A308531EF2585313730840085308500AF
:100A5800A03086000030870020308531EF258531B1
:100A680020008431DD2C6334023400340034003437
:100A78000034003400340034003400340034FF34CF
:100A8800FF34FF34003400340034003400340034C0
:100A980000340034003400340034003400340034AE
:100AA800003400340034C034F934A434B0349934F8
:100AB80092348234D8348034903488348334A734E0
:100AC800A13486348E34BF3400340034003400340A
:100AD80000340034003400340034093021008C0024
:100AE8008D0119308E0022008C018D018E0101309C
:100AF80023008C008D018E01093020008C008D01AF
:100B080019308E0008002100911D8B2D8C2D9B2DF6
:100B18002000911D902D912D9B2D210091112000D9
:100B28003A08423E86000130870001149B2D0800D8
:100B38007830210099008531712585310000853193
:100B4800AD2585310000000000008531DB258531A9
:100B580008004B30F10071082000BB0041309800BC
:100B6800FD30970044309600210011140B178B17A5
:100B780008002030F1007108FC007C08153E860052
:100B8800870101147C08153E86008701811508003D
:100B98003C30F10071082000D60056080D3E860052
:100BA80087010114A030F1007108D5000800203039
:100BB800F10071082000BA0009302400920080304A
:100BC80094009601283095000800640080010131E6
:100BD800890BEA2D0034FE0012001E00FE0BF02DDA
:020BE8000034D7
:020000040001F9
:04000E00E4FFFEFF0E
:00000001FF
