:040000008A11112828
:10000800FE00030EF2000408F3000A08F40083124D
:1000180003137F08F5008A15C02E8A11E72F8A1569
:10002800D4258A113C30831603139000AF30850025
:1000380001308600870107308316031785000130D9
:100048008600AF30831203138500013086008701D4
:1000580000004F3083120313DA005A08A50041301C
:100068009000FD308F00DA308E00831603130C14D5
:100078000B178B1700007030831603139F000000C6
:10008800263083120313DA005A08A1001230DA006E
:1000980021080E3E84005A0883138000AF30DA002E
:1000A80021080F3E84005A08800021080F3E840072
:1000B8000008DA002108083E84005A088000210858
:1000C800840000144B30DA005A08A2002208840089
:1000D80000146F288616861E722873286E287628C4
:1000E80076280616061E79287A2875287D287D2800
:1000F8008615861D802881287C2882284630DA00CB
:100108005A08A40024088400831300144030DA003D
:100118005A08A000200884000014A030DA005A0809
:10012800A3002308840000142308203E840000153F
:100138001930DA0023082C3E84005A088000023067
:10014800DA002308233E84005A0880002308263E4C
:10015800840064308000840A00308000B4280616C9
:10016800061EB728B828B3288612BA2883120313A4
:10017800610884008313001DC228C328BA286108B7
:10018800840000118A15DB258A11831203132208C3
:1001980084008313801CD128D228EA280130DA0091
:1001A8002208013E84005A0880072208013E840084
:1001B8000008963A031DE128E228EA282208013EB1
:1001C8008400800120308606EA28EA282208840074
:1001D800001DEF28F02808290130DA002208023E25
:1001E80084005A0880072208023E84000008963AD4
:1001F800031DFF28002908292208023E84008001E7
:10020800103086060829082922088400801D0D2937
:100218000E2926290130DA002208033E84005A08F4
:1002280080072208033E84000008963A031D1D2912
:100238001E2926292208033E8400800108308606EC
:100248002629262924088400001C2B292C291C2A4D
:100258002408013E840001308007840A0318800ABC
:100268002408013E84000008DA00840A0008DB0044
:1002780013305B06031D422988305A06031D4529A1
:1002880046291C2A2408013E840000308000840A84
:10029800003080007030831603139F0011308312E2
:1002A80003139F009F1458299F185B295C2958291C
:1002B8005D291E08DA002408033E84005A088313C7
:1002C80080002408840080186A296B29C129240821
:1002D800033E840067300002031873297429BB2980
:1002E8000130DA002408043E84005A0880072408F4
:1002F800043E84000008033A031D832984291C2A2C
:100308002408043E84008001240884008014200806
:10031800013E840080012308043E840080012108F6
:100328000A3E8400801021080A3E8400001121083A
:100338000A3E84008011AF30DA002108083E8400AC
:100348005A0880000611A9298616861EAC29AD29EF
:10035800A829B029B0290616061EB329B429AF2941
:10036800B52922088400831300151C2A1C2A240896
:10037800043E840080011C2A1C2A2408033E8400B1
:1003880075300002031CC929CA29152A0130DA0070
:100398002408043E84005A0880072408043E840088
:1003A8000008033A031DD929DA291C2A2408043E27
:1003B80084008001240884008010E3290616061EA4
:1003C800E629E729E229E829220884008313001195
:1003D80021080A3E84008018F229F3291C2A2108E2
:1003E8000A3E8400801421080A3E84000014210873
:1003F800073E840080010314800D022A21080A3E6A
:1004080084000015072A23082E3E8400800102304C
:10041800DA002308233E84005A0880001C2A1C2A7C
:100428001C2A2408043E840080011C2A1C2A1C2A39
:1004380020088400001C212A222AB42A0130DA006C
:100448002008013E84005A0880072008013E8400E5
:100458000008643A031D312A322AB42A2008013ED2
:10046800840080012008053E840000147030831643
:1004780003139F003130831203139F009F14442AF3
:100488009F18472A482A442A492A1E08DA002008C1
:10049800043E84005A088313800009309F009F148B
:1004A800552A9F18582A592A552A5A2A1E08DA0006
:1004B8002008033E84005A08831380002008053E64
:1004C8008400001020088400801420088400801C08
:1004D8006E2A6F2AB42A2008840080102008023E61
:1004E80084000018782A792A8F2A2008033E84007D
:1004F8000008DA002008043E84000008DB005A08DF
:100508005B02031C882A892AB42A2008023E840038
:100518000014B42AB42A2008033E840000089C3E34
:10052800DA00FF3003180030DB002008043E8400A6
:100538005B08803ADC0080305C02031DA52A0008B5
:100548005A02031CA82AA92AB42A831203132008D2
:10055800023E840083130010B42AB42AB42AB42AB1
:1005680083120313230884008313001CBC2ABD2AAA
:10057800BA280130DA002308043E84005A088007AC
:100588002308043E84000008643A031DCC2ACD2ABF
:10059800BA282308043E84008001230884008014BC
:1005A8007030831603139F000530831203139F00D6
:1005B8009F14DE2A9F18E12AE22ADE2AE32A333032
:1005C800D2000030D3001E08DA00DB015A08D4003C
:1005D8005B08D5008A154A268A118312031352082C
:1005E800DC002308013E84005C08831380000D3082
:1005F8009F009F14FF2A9F18022B032BFF2A042B0E
:100608001E08DA002308033E84005A08831380007A
:100618002308840080102308203E84000014230847
:10062800013E84008008031D1A2B1B2B242B230852
:10063800263E840064308000840A00308000702BDD
:100648002308013E84000008013A031D2C2B2D2BA2
:10065800362B2308263E8400B8308000840A0B30ED
:100668008000702B2308013E84000008023A031D15
:100678003E2B3F2B482B2308263E840070308000F9
:10068800840A17308000702B2308013E840000087C
:10069800033A031D502B512B5A2B2308263E840066
:1006A80028308000840A23308000702B2308013E04
:1006B800840004300002031C622B632B702B230878
:1006C800263E8400E0308000840A2E308000702BA3
:1006D800702B702B702B702B2308033E84000008AE
:1006E800DA002308053E84000008083E2307DB00E3
:1006F8005B0884005A088000E0010A306002031C8D
:10070800862B872B892BAB2BAB2B6008083E230746
:10071800DA005A0884000008DB00DC012308123ED6
:1007280084005B088007840F00080318000AFF0094
:100738005C087F07800084030130DA005A08E0076C
:100748000A306002031CA92BAA2B892BAB2B0A3079
:10075800D2000030D3002308123E84000008D400E1
:10076800840A0008D5008A1197278A118312031377
:100778005208DA002308063E840083130008143E5A
:100788002307DB005B0884005A0880002308123E18
:10079800840000308000840A00308000E0010A30C4
:1007A8006002031CD82BD92BDB2BFD2BFD2B6008FB
:1007B800143E2307DA005A0884000008DB00DC0135
:1007C80023081E3E84005B088007840F0008031876
:1007D800000AFF005C087F07800084030130DA000C
:1007E8005A08E0070A306002031CFB2BFC2BDB2BAA
:1007F800FD2B0A30D2000030D30023081E3E8400AF
:100808000008D400840A0008D5008A1197278A11A5
:10081800831203135208DA002308073E84005A089B
:100828008313800023081E3E840000308000840A61
:10083800003080002308053E84000A3000020318B7
:10084800262C272C2F2C0130DA002308053E8400A3
:100858005A088007492C2308053E84008001230894
:10086800063E84000A30000203183B2C3C2C442C22
:100878000130DA002308063E84005A088007492C14
:100888002308063E84008001492C2308203E84006A
:1008980000194F2C502C6A2C2008023E8400001CA2
:1008A800562C572CEF2C2408840080185C2C5D2CC7
:1008B800EF2C2308203E840000151930DA002308A5
:1008C8002C3E84005A088000EF2CEF2C2008023EB2
:1008D8008400001C702C712C782C24088400801C47
:1008E800762C772CEF2C782C2308203E84000011DE
:1008F8002308203E8400801C822C832CEF2C862C1D
:10090800862C8616861E892C8A2C852C8D2C8D2C5F
:100918000616061E902C912C8C2C922C21080A3E2F
:10092800840083138018992C9A2CA22C21080A3E43
:100938008400801DA02CA12CEF2CA22C21080A3E9B
:100948008400801021080A3E8400001421080A3E11
:100958008400801DB02CB12CC02CAF30DA002108E7
:100968000F3E84005A0880000430DA002108073E50
:1009780084005A088000EF2C0230DA002108073E74
:1009880084005A0880002308203E84000019CD2CDA
:10099800CE2CDA2C21080A3E84008015AF30DA000C
:1009A80021080F3E84005A088000EF2C6530DA00D9
:1009B80021080F3E84005A088000EF2CEF2CEF2C02
:1009C8000430DA002108073E84005A088000EF2C22
:1009D800EF2CEF2CEF2C2308203E8400801CF52CF4
:1009E800F62C602F2308203E8400001CFC2CFD2CD4
:1009F800BA282308203E840000102308203E8400E3
:100A0800001D072D082DBA282308293E84006430CC
:100A180000020318102D112D192D0130DA002308BA
:100A2800293E84005A088007AC2D2308293E8400FB
:100A3800800123082B3E84005A300002031C252D18
:100A4800262D562D23082B3E8400800123082A3E9C
:100A58008400800123082D3E8400800123082C3E59
:100A680084000008193A031D3A2D3B2D432D2330ED
:100A7800DA0023082C3E84005A088000AC2D230895
:100A88002C3E84000008233A031D4B2D4C2DAC2D21
:100A98002D30DA0023082C3E84005A088000AC2D43
:100AA800AC2DAC2D23082B3E84000008DA00230867
:100AB8002D3E84005A08800723082B3E84008001BD
:100AC80023082A3E84000630000203186C2D6D2D81
:100AD800752D0130DA0023082A3E84005A08800761
:100AE800AC2D23082A3E8400800123082D3E840073
:100AF8000B3000020318812D822DAC2D23082C3ECB
:100B0800840000082D3A031D8A2D8B2D932D233048
:100B1800DA0023082C3E84005A088000A42D2308FC
:100B28002C3E84000008233A031D9B2D9C2DA42DE8
:100B38001930DA0023082C3E84005A088000A42DBE
:100B480023082D3E84008001AC2DAC2DAC2DAC2D9E
:100B580023082E3E84000008DA0023082C3E840077
:100B680000085A07DB00DC01DC0DDB09DC09DB0AC5
:100B78000319DC0A2308073E840000085B07DD0030
:100B88005C0803185C0ADE002308033E84005E0844
:100B9800803A803C031DD22D5D080002031CD52D30
:100BA800D62DA12E8312031323082E3E840083130F
:100BB8000008DA0023082C3E840000085A07DB00EE
:100BC800DC01DC0D2308073E840000085B07DD001C
:100BD8000030031801305C07DE002308033E840060
:100BE8005E08803ADF0080305F02031DFD2D00089B
:100BF8005D02031C002E012EA12E8312031323086D
:100C0800213E8400003083138000840A0030800075
:100C18000E2E8616861E112E122E0D2E152E152E10
:100C28000616061E182E192E142E1A2E2308243ED8
:100C38008400013083138007840A0318800A23087C
:100C4800263E84000008DA00840A0008DB00230836
:100C5800243E84000008DC00840A0008DD005B08EC
:100C68005D06031D392E5A085C06031D3C2E3D2ED9
:100C7800BA282308243E840000308000840A00300B
:100C8800800021080A3E840080184B2E4C2E542EDA
:100C980021080A3E8400801D522E532EBA28542E55
:100CA80021080A3E8400801021080A3E84000014AE
:100CB80021080A3E8400801D622E632E722EAF30FA
:100CC800DA0021080F3E84005A0880000430DA0058
:100CD8002108073E84005A088000BA280230DA004A
:100CE8002108073E84005A0880002308203E84001B
:100CF80000197F2E802E8C2E21080A3E8400801534
:100D0800AF30DA0021080F3E84005A088000BA2864
:100D18006530DA0021080F3E84005A088000BA289E
:100D2800BA28BA280430DA002108073E84005A0895
:100D38008000BA28BA28BA28BA28013083120313C7
:100D4800DA0023082B3E84005A08831380072308FF
:100D5800213E840001308007840A0318800A230892
:100D6800213E84000008DA00840A0008DB0023081A
:100D7800233E84000008DC00DD015B085D06031DDE
:100D8800C72E5A085C06031DCA2ECB2E022F230835
:100D9800213E840000308000840A0030800023084F
:100DA800243E840000308000840A0030800021083E
:100DB8000A3E84008018E12EE22E022F21080A3E06
:100DC8008400801421080A3E840000142108073E8C
:100DD800840080010314800DF12E21080A3E84004E
:100DE8000015F62E23082E3E840080010230DA001A
:100DF8002308233E84005A088000022F23082C3E33
:100E080084000008DA00DB01DA09DB09DA0A0319D1
:100E1800DB0A2308073E840000085A07DC005B0849
:100E280003185B0ADD002308033E84005D08803A4E
:100E3800803C031D212F5C0800020318242F252F56
:100E4800302F282F282F061683120313061E2D2F46
:100E58002E2F272F8612BA288312031323082C3E1D
:100E6800840083130008DA002308073E8400000882
:100E78005A07DB00DC01DC0D2308033E84005C0814
:100E8800803ADD0080305D02031D4C2F00085B02B4
:100E980003184F2F502FBA28532F532F861683121B
:100EA8000313861E582F592F522F0612BA28BA2814
:100EB800BA28BA28BA28BA282308213E8400013063
:100EC80083138007840A0318800A2308213E8400BC
:100ED8000008DA00840A0008DB0001305B06031D05
:100EE800772F2C305A06031D7A2F7B2FBA28230818
:100EF800213E840000308000840A003080002308EE
:100F0800203E84008014892F8616861E8C2F8D2FF4
:100F1800882FBA28BA28BA28BA28BA28BA28BA28E4
:100F2800BA288A11112883120313D601D70153084E
:100F380052040319A02FA12FDF2FD8010314D80DB5
:100F4800B12F01300310D20DD30DFF3E031DA62F84
:100F58000130F6007608D807B12FD31FB42FB52F6C
:100F6800A52FB72FB72F01300310D60DD70DFF3E91
:100F7800031DB82F53085502031DC42F52085402ED
:100F8800031CC72FC82FD02F5208D4025308031CA4
:100F9800D503D5025614D02F01300310D30CD20C30
:100FA800FF3E031DD12F0130D802031DDC2FDD2F9A
:100FB800B72FDF2FDF2F5708D301D3075608D201E9
:100FC800D207E62F080083132030840052308A119C
:100FD800F7278A11A0308400CF308A11F7278A11A9
:100FE80083018A11132864008001840A0406031906
:060FF80000340406F82F8E
:101BA8003730F600760883120313E1000800831229
:101BB80003136108013E8400013083138007840AFF
:101BC8000318800A6108033E840001308007840AF4
:101BD8000318800A610884000018F32DF42D132ED1
:101BE8006108013E84000008F600840A0008F70036
:101BF80003307706031D022EE8307606031D052EF6
:101C0800062E2E2E6108013E840000308000840AD2
:101C1800003080006108840000142E2E2E2E6108EA
:101C2800013E84000008F600840A0008F70003302B
:101C38007706031D212EE8307606031D242E252E57
:101C48002E2E6108013E840000308000840A003096
:101C580080002E2E6108033E84000008F600840AE6
:101C68000008F70003307706031D3C2EE83076069F
:101C7800031D3F2E402E492E6108033E840000308C
:101C88008000840A00308000492E08008312031364
:101C9800D701D31F502E512E5A2ED209D309D20A5A
:101CA8000319D30AD7010314D70D5A2ED51F5D2E59
:101CB8005E2E682ED409D509D40A0319D50A013035
:101CC800F6007608D706682ED801D90153085204C1
:101CD80003196F2E702EAE2ED6010314D60D802E4A
:101CE80001300310D20DD30DFF3E031D752E0130B8
:101CF800F6007608D607802ED31F832E842E742EE6
:101D0800862E862E01300310D80DD90DFF3E031DF7
:101D1800872E53085502031D932E52085402031CA4
:101D2800962E972E9F2E5208D4025308031CD503D3
:101D3800D50258149F2E01300310D30CD20CFF3E4D
:101D4800031DA02E0130D602031DAB2EAC2E862E0D
:101D5800AE2EAE2E5708031DB22EB82ED809D909BB
:101D6800D80A0319D90AB82E5908D301D307580835
:101D7800D201D207BF2E08000000831603130C1CE3
:101D8800C62EC72EF22F831203130C1CCC2ECD2E79
:101D9800F22FFD308F00DA308E000C1061088400BD
:101DA8008313001CD82ED92ECE2F0130F000210825
:101DB800093E840070088007851FE32EE42EF12E6B
:101DC8002108053E84000018EA2EEB2E0C2F21086E
:101DD800053E840000140C2F0C2F2108053E8400BA
:101DE800001CF72EF82E0C2F2108053E8400001049
:101DF8002108093E84008001240884008018052FEA
:101E0800062F0C2F2108053E840000150C2F0C2FDF
:101E18002108053E8400001D122F132F362F21089C
:101E2800083E84000008F0002108093E84000008EC
:101E3800F10070087102031C222F232FCE2F2108D6
:101E4800093E840080012108053E84000011210814
:101E58000A3E8400001D312F322FCE2F0615CE2FBB
:101E6800CE2FCE2F061D392F3A2FCE2F061121083F
:101E78000A3E8400001C412F422FCE2F0130F00073
:101E88002108063E8400700880072108073E840068
:101E98000008F0002108063E840000087006031DB3
:101EA800562F572FCE2F2108063E84008001210887
:101EB8000A3E8400801C612F622F862F2108083E6D
:101EC80084000130800221080E3E84000008F000E2
:101ED8002108083E840000087006031D742F752F22
:101EE800792F21080A3E8400001021080A3E840048
:101EF800801D7F2F802FCE2F21080A3E840080115D
:101F0800CE2FCE2F0130F0002108083E8400700843
:101F1800800721080F3E84000008F0002108083ED1
:101F2800840000087006031D9A2F9B2FCE2F2108CE
:101F38000A3E84000010A52F21080A3E84000011E3
:101F4800CE2F21080A3E84008019AB2FAC2FB12F69
:101F580021080A3E84008015CE2F21080A3E8400FD
:101F6800001121080A3E8400801123082E3E8400B7
:101F780080010230F0002308233E840070088000AE
:101F8800CE2FCE2FCE2FCE2FCE2FCE2FCE2FCE2F61
:101F9800CE2FCE2F2508013E840001308007840A09
:101FA8000318800A2508013E84000008F000840A0E
:101FB8000008F100143070067104031DE42FE52FAA
:101FC800F22F2508013E840000308000840A00308A
:101FD8008000610884000015F22FF22F00007508B8
:101FE80083120313FF0074088A0073088400720EBA
:081FF8008300FE0E7E0E0900BD
:04400E00F4FFFFFFBD
:00000001FF
