:04000000803116280D
:100008007E14803120007F08F70099311421803157
:1000180084312F248031A731062777082000FF007C
:100028007E10090080311828F001F801F901FA0161
:10003800FB01EC01ED01EE01A030840000308500E9
:100048004930A63175268031203084000130850082
:100058004A30A63175268031A030840001308500F1
:100068002530A63175268031203084000230850085
:100078004730A63175268031C73084009A30850014
:10008800C5308600013087002030A6316F267E10EB
:1000980020009031A92820006E08860002308700D1
:1000A800811E7C286E08033E8600023087000130DE
:1000B800810741310318810A6E08033E8600023029
:1000C8008700403FAD00413FAE0003302E02E830CC
:1000D80003192D02031C08006E08033E8600023037
:1000E80087000030C03FC13F00309E31A82608007D
:1000F80020006E08860002308700011E4A2B6E0A17
:100108008600023087000130810741310318810AD7
:100118006E0A860002308700403FAD00413FAE00C6
:1001280000302E02053003192D02031C08006E0A48
:100138008600023087000030C03FC13F6E0886004D
:100148000230870001126E08453E860002308700A3
:100158006E08443E8400023085000008AD006E0839
:10016800433E84000230850000082D070107AE00D9
:100178006E083E3E8600023087002E088100B101DD
:10018800B10A043031020318F7283135083E6E07EA
:10019800AD002D088600023087006E082E3E8400D0
:1001A80002308500403F80070131413F803D3F31AB
:1001B80031351A3E6E07AD002D08860002308700E3
:1001C8006E08303E840002308500403F80070131D0
:1001D800413F803D3F310130AD002D08B10704306B
:1001E8003102031CC9280330A0000030A1006E08AA
:1001F8002E3E860002308700403FA200413FA30008
:1002080088310120803120006E082E3E86000230A1
:1002180087002008C03F2108C13F0330A0000030FC
:10022800A1006E08303E860002308700403FA200E1
:10023800413FA30088310120803120006E08303E04
:100248008600023087002008C03F2108C13F6E08A1
:100258002E3E860002308700403FAD00413FAE0091
:100268006E08303E860002308700403FAF00413FB5
:10027800B0002E083002031D43292D082F02031851
:10028800CD2A6E082E3E8600023087006E08303E6A
:10029800840002308500003FAD00013FAE00AD098B
:1002A800AE09AD0A0319AE0A403F2D07AF00413F22
:1002B8002E3DB0006E082C3E8600023087002F08C5
:1002C800C03F3008C13F6E083A3E860002308700C2
:1002D800023001020318C0290130AD006E083A3E11
:1002E8008600023087002D0881076E083A3E860096
:1002F800023087000108013A031D8C296E08363E3A
:10030800860002308700F430C03F0130C13FC02969
:100318006E083A3E8600023087000108023A031D43
:10032800C0296E083E3E8600023087000108013A67
:10033800031DA8296E08363E860002308700323039
:10034800C03F0030C13FC0296E08063E860002301B
:100358008700403FAD00413FAE002D082A3EAF0068
:1003680000302E3DB0006E08363E86000230870011
:100378002F08C03F3008C13F6E08363E8600023065
:100388008700403FAD00413FAE006E082C3E86001E
:1003980002308700403FAF00413FB0002E083002D6
:1003A800031DD8292D082F02031C462A0130AD0051
:1003B8006E083C3E8600023087002D0881076E08D3
:1003C8003C3E86000230870003300102031CCD2A20
:1003D8006E083C3E860002308700810101309E3164
:1003E800A826803120006E082C3E86000230870047
:1003F800403FAD00413FAE002E08AF006F08043EFD
:100408008600013087002F0881006E082C3E860088
:10041800023087000108AD006F08053E86000130F4
:1004280087002D0881006E08363E8600023087005E
:10043800403FAD00413FAE002E08AF006F08103EB0
:100448008600013087002F0881006E08363E86003E
:10045800023087000108AD006F08113E86000130A8
:1004680087002D0881006E083E3E86000230870016
:100478000108AD006F08083E8600013087002D088E
:100488008100CD2A6E083C3E86000230870081013B
:100498006E08423E8600023087000A3001020318C7
:1004A8005E2A0130AD006E08423E860002308700A9
:1004B8002D0881076E08423E8600023087000A3008
:1004C8000102031CCD2A6E088600023087008115C0
:1004D800A201A20A0130A731E02780312000A20141
:1004E800A20A0230A731E027803120006E08463E7C
:1004F800860002308700011C952A6E08463E860059
:100508000230870001106E082C3E860002308700FA
:100518006E08063E840002308500403F803F413F20
:10052800813F6E08463E860002308700811CCD2A36
:100538006E08463E86000230870081106E082C3E09
:100548008600023087006E08063E8400023085006F
:10055800403F803F413F813F6E083E3E860002306B
:1005680087000108AD00AE012D08A0002E08A100EB
:100578003230A2000030A3009A318A228031200054
:100588006E08363E8600023087002008C03F2108EA
:10059800C13F9B312B23803120006E082C3E860002
:1005A80002308700403FAD00413FAE002E08AF004B
:1005B8006F08023E8600013087002F0881006E0810
:1005C8002C3E8600023087000108AD006F08033E0C
:1005D8008600013087002D0881006E083E3E8600A7
:1005E800023087000108AD006F08083E8600013020
:1005F80087002D0881006E08063E860002308700BD
:100608000108AD006F080A3E8600013087002D08FA
:1006180081006E08363E860002308700403FAD00FC
:10062800413FAE002E08AF006F08103E8600013033
:1006380087002F0881006E08363E8600023087004A
:100648000108AD006F08113E8600013087002D08B3
:1006580081006E08053E8600023087000108AD0063
:100668006F08123E8600013087002D0881006E0851
:100678003A3E8600023087000108AD006F08133E3D
:100688008600013087002D08810008006E0886006A
:1006980002308700811C662B6E08860002308700B6
:1006A8000119602B6E0886000230870001156E085C
:1006B80086000230870081116E08860002308700AC
:1006C800011608006E08860002308700011D080028
:1006D8006E0886000230870001116E08860002301D
:1006E800870081156E083C3E860002308700810134
:1006F8006E083A3E86000230870081016E08063E89
:100708008600023087000030C03FC13F6E083F3E80
:1007180086000230870081016E08463E860002305E
:10072800870001106E08463E86000230870081105F
:100738006E082C3E8600023087000030C03FC13F63
:100748009B312B2380312000A201A20A0130A7315E
:10075800E02780312000A201A20A0230A731E02759
:10076800803120006E082C3E860002308700403F12
:10077800AD00413FAE002E08AF006F08023E860074
:10078800013087002F0881006E082C3E8600023059
:1007980087000108AD006F08033E8600013087001E
:1007A8002D0881006E083F3E860002308700010850
:1007B800AD006F08083E8600013087002D088100D3
:1007C8006E08063E8600023087000108AD006F08FB
:1007D8000A3E8600013087002D0881006E08363EEB
:1007E800860002308700403FAD00413FAE002E0832
:1007F800AF006F08103E8600013087002F08810087
:100808006E08363E8600023087000108AD006F088A
:10081800113E8600013087002D0881006E08053ED4
:100828008600023087000108AD006F08123E86007E
:10083800013087002D0881006E083A3E860002309C
:1008480087000108AD006F08133E8600013087005D
:100858002D08810008008B1E08000B1D0800A6301B
:10086800200095000B116D080C3E860001308700B2
:10087800811C742C0130F3006D080D3E8600013098
:100888008700730881076D080D3E860001308700D8
:1008980001089D3A031D742C6D080D3E8600013039
:1008A800870081016D080C3E8600013087008110A9
:1008B8006D088600013087000118742C6D08093E08
:1008C800860001308700811A742C6D08860001307B
:1008D800870001146D08860001308700011B8C1306
:1008E8006D08860001308700011CE92C0130F300F7
:1008F8006D08033E860001308700730881072100D8
:100908003908023E860087010108F300F401F30963
:10091800F409F30A0319F40A20006D08043E86005E
:100928000130870001087307F50074080318740A7A
:10093800F6006D08033E8600013087007608803A8D
:10094800803C031DA92C75080102031CC32D20003F
:100958006D08033E86000130870081016D0886001E
:100968000130870001106D08073E860001308700BE
:1009780001146D08860001308700011FC32D8C17F4
:100988006D08093E860001308700011FC32D6D08E0
:10099800093E86000130870001136D08860001308A
:1009A800870001136D080C3E860001308700011492
:1009B8008C1121003908860087010114F101F10A20
:1009C80001309D311C258431C32D20006D08093E5E
:1009D800860001308700811E0F2D0130F3006D085D
:1009E800033E860001308700730881076D08033EC7
:1009F80086000130870014300102031C0F2D6D089A
:100A0800033E86000130870081016D08093E86009B
:100A18000130870081126D08073E8600013087008B
:100A2800011CC32D6D08073E8600013087000110A8
:100A38006D08860001308700811CC32D0130F3004A
:100A48006D0A860001308700730881076D0A8600E9
:100A5800013087006D08023E8400013085000008DF
:100A68000102031CC32D6D0A860001308700810135
:100A78006D08860001308700811D782D6D0886007D
:100A880001308700011A612D6D08043E860001308F
:100A980087006130010203185B2D0130F3006D08F7
:100AA800043E86000130870073088107C32D6D0856
:100AB8008600013087000116C32D6D08043E8600AC
:100AC800013087001F300102031C722D6D08043E9F
:100AD80086000130870001308102C32D6D08860031
:100AE800013087000112C32D6D0886000130870090
:100AF800011DBE2D6D08043E8600013087006D087B
:100B0800053E840001308500000801020318962D77
:100B18000130F3006D08043E860001308700730839
:100B28008107AB2D6D08053E8600013087006D08F2
:100B3800043E840001308500000801020318AB2D33
:100B48006D08043E860001308700013081026D087F
:100B5800053E8600013087006D08043E84000130A0
:100B6800850000080106031DC32D6D0886000130AD
:100B7800870001116D08860001308700811079080F
:100B88000C3E860001308700811C022E0130F300E4
:100B980079080D3E860001308700730881077908BF
:100BA8000D3E8600013087000108933A031D022E8E
:100BB80079080D3E860001308700810179080C3ED6
:100BC800860001308700811079088600013087008F
:100BD8000118022E7908093E860001308700811A23
:100BE800022E7908860001308700011479088600F2
:100BF80001308700011F022E20000D12790886009F
:100C080001308700011C762E0130F3007908033E7D
:100C18008600013087007308810721003908023EE9
:100C2800860087010108F300F401F309F409F30AC7
:100C38000319F40A7908043E860001308700010888
:100C48007307F50074080318740AF6007908033E60
:100C58008600013087007608803A803C031D362ED6
:100C680075080102031C4F2F7908033E86000130E6
:100C78008700810179088600013087000110790812
:100C8800073E86000130870001147908860001308C
:100C98008700011F4F2F20000D167908093E860096
:100CA80001308700011F4F2F7908093E8600013067
:100CB800870001137908860001308700011379083D
:100CC8000C3E86000130870001148E13210039087C
:100CD800860087010114F101F10A02309D311C25BB
:100CE80084314F2F7908093E860001308700811E24
:100CF8009B2E0130F3007908033E860001308700FF
:100D0800730881077908033E860001308700143094
:100D18000102031C9B2E7908033E860001308700E0
:100D280081017908093E860001308700811279081F
:100D3800073E860001308700011C4F2F7908073EC7
:100D4800860001308700011079088600013087008D
:100D5800811C4F2F0130F300790A8600013087008B
:100D680073088107790A8600013087007908023EF6
:100D780084000130850000080102031C4F2F790A06
:100D880086000130870081017908860001308700DC
:100D9800811D042F7908860001308700011AED2E85
:100DA8007908043E8600013087006130010203188B
:100DB800E72E0130F3007908043E860001308700F1
:100DC800730881074F2F79088600013087000116C4
:100DD8004F2F7908043E8600013087001F3001023A
:100DE800031CFE2E7908043E86000130870001307E
:100DF80081024F2F790886000130870001124F2F9A
:100E08007908860001308700011D4A2F7908043EC1
:100E18008600013087007908053E8400013085008E
:100E2800000801020318222F0130F3007908043E5C
:100E380086000130870073088107372F7908053E3F
:100E48008600013087007908043E8400013085005F
:100E5800000801020318372F7908043E8600013084
:100E68008700013081027908053E8600013087003D
:100E78007908043E84000130850000080106031D3E
:100E88004F2F790886000130870001117908860004
:100E98000130870081102100690A8600870101302E
:100EA800810741310318810A690A86008701403F9A
:100EB800C83A031D612F413F003A031D6E2F690A8E
:100EC800860087010030C03FC13F7D0886000130A1
:100ED800870081147808860001308700811C08008B
:100EE800780A8600013087000130810741310318F4
:100EF800810A08002000E400640899316C218731D8
:100F08002100380886008701811C08003808023E45
:100F1800860087010130810741310318810A3808AA
:100F2800023E86008701403F2000E200413FE30087
:100F380016306302123003196202031C08002100F4
:100F48003808023E860087010030C03FC13F0130AB
:100F58002000E20021003808043E860087012000B6
:100F68006208810721003808043E86008701380A94
:100F78008400850100080102031C08003808043EAB
:100F880086008701810138088600870181102000CA
:100F9800A2016408A731A12787312000A2016408B3
:100FA800A731922787312000DD0164089331A423FB
:100FB80087312000A201A20A6408A731D02787310F
:100FC8002000A2016408A731C027873101308B3186
:100FD800FF23873164302000A6000030A7000130CD
:100FE8009531652508002000A0008B10201CFE2FDD
:080FF8000B1608000B120800A3
:101002002000A501A6012108200403193128A70107
:10101200A70AA11B16280130A035A10D890B0D28A6
:101022000130A4002408A7070A280130A535A60D1F
:10103200890B172821082302031D212820082202D8
:10104200031C28282008A2022108A33B25140130F2
:10105200A136A00C890B29280130A702031D1628EE
:101062002608A101A1072508A001A0070800200069
:10107200E7006708A631D92688312100AF08031D91
:101082008B282000A40101308931612188312000A0
:10109200A2010130A731922788312000A20101303C
:1010A200A731A12788312000A401023089316121B2
:1010B20088312000A2010230A73192278831200016
:1010C200A2010230A731A127883120006F08093E12
:1010D20086000130870081016F080B3E86000130D7
:1010E200870081016F080F3E860001308700810171
:1010F2006F08113E86000130870081016430A6002E
:101102000030A700013095316525883101308B31DF
:10111200FF23080021002F08203A031DA7282000E2
:101122006F08093E86000130870081016F080B3E7F
:1011320086000130870081016F08113E8600013070
:101142008700810101308B31FF23080021002F0825
:10115200013A031DB02801309731702708002100A1
:101162002F08113A031DB92801309E3125260800A7
:1011720021002F08023A031DC2280230973170273E
:10118200080021002F08213A031D080002309E3179
:10119200252608002000A900AB01AA016E088600DE
:1011A20002308700011E0800C030A4002408A000FD
:1011B200290899315621883120006E08323E860076
:1011C200023087002008C03F2108C13FAB01053033
:1011D2002B02031825296E08323E86000230870052
:1011E200403FA400413FA5002B35083E6E07A600F4
:1011F2002608860002308700403FA700413FA80032
:1012020025082802031D07292408270203181D297F
:101212006E08323E8600023087002B35083E6E078C
:10122200A4002408840002308500403F803F413FF3
:10123200813FAA01AA0A25290130A4002408AB078C
:1012420005302B02031CEC28AA08031D0800AB0181
:1012520005302B02031808002B351A3E6E07A40036
:101262002408860002308700403FA500413FA600C7
:101272006E08323E860002308700403FA700413FA1
:10128200A80026082802031D48292508270203185A
:101292005C296E08323E8600023087002B351A3EEA
:1012A2006E07A4002408840002308500403F803F7E
:1012B200413F813F08000130A4002408AB072929DF
:1012C2002000A60026089831D52089312000260862
:1012D200A5002100390A8600870120002508810027
:1012E20024080319C8296C0886000130870081167A
:1012F200A20126089131B821893100309831FF20AE
:10130200893120006C088600013087008114033087
:10131200A5006C08023E8600013087002508810086
:101322006C08860001308700011B08006C088600EB
:10133200013087000117A001A00A26089D317E25F1
:101342007C08223E86000130870081107C08233E03
:101352008600013087000030C03FC13F20006C088A
:10136200053E8600013087000108A5006C08043E96
:10137200860001308700250881006130A5006C08D5
:10138200043E8600013087002508810008006C08B1
:1013920086000130870081126C08063E860001300B
:1013A20087000108A5006C08043E86000130870012
:1013B200250881006C08093E86000130870001176C
:1013C2006C0886000130870081146C0886000130A9
:1013D200870081116C0886000130870001120330FA
:1013E200A5006C08023E86000130870025088100B6
:1013F20008007808860001308700811220008D19CC
:1014020081167808860001308700811C0800780860
:10141200063E860001308700403F2000A000413F89
:10142200A100780A860001308700403FA200413FB8
:10143200A30021082302031D202A20082202031CE4
:101442000800780A8600013087000030C03FC13FA3
:101452007808860001308700811A942A7808033EB2
:101462008600013087008108031D8D2A78088600D6
:1014720001308700811D5F2A7808860001308700CD
:1014820081117808043E8600013087000108A0001F
:101492007808033E86000130870020088100780822
:1014A200083E8600013087007808063E840001303D
:1014B2008500403F803F413F813F08007808860019
:1014C20001308700011E872A7808860001308700D4
:1014D20001127808053E8600013087000108A0004D
:1014E2007808033E860001308700200881007808D2
:1014F2000A3E8600013087007808063E84000130EB
:101502008500403F803F413F813F080078088600C8
:1015120001308700811008007808860001308700BA
:1015220081168D1508007808860001308700811227
:101532008D117808033E8600013087000130810258
:10154200080020003108B4003208B5003308B600A4
:101552000310350D360DB7003708BC00BC08031D5B
:10156200B92A0030AE000030AF000030B0000800F1
:101572002E08B4002F08B5003008B6000310350D50
:10158200360DB7003708BD00BD08031DCF2A003055
:10159200AE000030AF000030B00008000030B900EB
:1015A2000030BA000030BB0089303D07B400340877
:1015B200BC023108B4003208B5003308B60010305E
:1015C200B636B50CB40C890BE12A3408B7003708DB
:1015D200BD002E08B4002F08B5003008B600103048
:1015E200B636B50CB40C890BF12A3408B7003708AB
:1015F200BD068030B4003408BD05B217FF30B10516
:10160200FF30B2050030B305AF17FF30AE05FF3033
:10161200AF050030B0051830B4003408B80001300E
:10162200B935BA0DBB0D890B112B30083302031DDE
:10163200202B2F083202031D202B2E083102031CFF
:10164200292B2E08B1022F08B23B3008B33B3914C4
:101652000130B135B20DB30D890B2A2B0130B8021E
:10166200031D102B3908A0003A08A1003B08A20074
:101672003C08B4003408A3003D08B5003508A400B6
:101682009231162220002008AE002108AF00220865
:10169200B000080020002E08B4002F08B500300862
:1016A200B6000310350D360DB7003708B800B8087C
:1016B200031D622B0030AE000030AF000030B000DE
:1016C20008003108B4003208B5003308B600031030
:1016D200350D360DB7003708BD00BD08031D782B48
:1016E2000030AE000030AF000030B00008003D080E
:1016F2007B3EB4003408B8072E08B4002F08B500AA
:101702003008B6001030B636B50CB40C890B842BF9
:101712003408B7003708BD003108B4003208B500FC
:101722003308B6001030B636B50CB40C890B942BC6
:101732003408B7003708BD068030B4003408BD0550
:10174200AF17B217FF30B105FF30B2050030B30555
:101752000030B9000030BA000030BB000730B400DE
:101762003408BC002E1CBB2B3108B9073208BA3D25
:101772003308BB3D0130B036AF0CAE0C890BBC2B2D
:101782000130B135B20DB30D890BC22B0130BC0251
:10179200031DB32B0930B4003408BC002E1CD72B18
:1017A2003108B9073208BA3D3308BB3D0130B036C3
:1017B200AF0CAE0C890BD82B0130BB36BA0CB90C6E
:1017C200890BDE2B0130BC02031DCF2B3908A00090
:1017D2003A08A1003B08A2003808B4003408A3006C
:1017E2003D08B5003508A4009231162220002008D9
:1017F200AE002108AF002208B00008002000A300BC
:101802002308A631D9268B317A0886008701011C6C
:1018120008007A0886008701011908007A08860004
:101822008701011563302000A20022082100A000D8
:1018320002302000A20022082100A10020006F082F
:101842008600013087000130423F2100A2002000C3
:101852006F088600013087000130433F2100A3005A
:1018620020006F088600013087000130443F2100CC
:10187200A40020006F088600013087000130453F38
:101882002100A50020006F0886000130870001308A
:10189200463F2100A60020006F0886000130870025
:1018A2000130473F2100A70020006F088600013069
:1018B20087000130483F2100A80020006F08860001
:1018C200013087000130493F2100A90020006F0844
:1018D20086000130870001304A3F2100AA00200023
:1018E2006F0886000130870001304B3F2100AB00BA
:1018F20020006F0886000130870001304C3F210034
:10190200AC0020006F0886000130870001304D3F97
:101912002100AD0020006F088600013087000130F1
:101922004E3F2100AE0020006F0886000130870084
:1019320001304F3F2100AF0020006F0886000130C8
:1019420087000130503F2100B00020006F08860060
:10195200013087000130513F2100B10020006F08A3
:101962008600013087000130523F2100B200200082
:101972006F088600013087000130533F2100B30019
:10198200D2302000A20022082100B40008001F303B
:101992009931CC218C31AA3A031D402D0030993166
:1019A200CC218C312000DD006F080C3E8600013016
:1019B20087005D08810001309931CC218C312000F3
:1019C200DD006F080D3E8600013087005D08810052
:1019D20002309931CC218C312000DD006F080E3E9F
:1019E2008600013087005D08810061309F317327D6
:1019F2008C312000DD005D08DE005E08DD006F082E
:101A0200153E8600013087005D0881005E08DD001A
:101A12006F08163E8600013087005D0881005E086F
:101A2200DD006F08173E8600013087005D088100E7
:101A32006F080C3E8600013087000108FF3A031D43
:101A420008006F080D3E8600013087000108FF3A4A
:101A5200031D08006F080E3E860001308700010852
:101A6200FF3A031D08007D088600013087008116B9
:101A72007D08033E86000130870081140800613032
:101A82009F3173278C312000DD005D08DE00FF30BE
:101A9200DD007C088600013087005D088100FF3090
:101AA200DD007C0A8600013087005D088100FF307E
:101AB200DD007C08023E8600013087005D0881005F
:101AC200FF30DD007C08033E8600013087005D08A0
:101AD2008100FF30DD007C08043E86000130870073
:101AE2005D088100FF30DD007C08053E8600013084
:101AF20087005D088100AA30DD007C081F3E860059
:101B0200013087005D0881005E08DD006F08153E28
:101B12008600013087005D0881005E08DD006F08E5
:101B2200163E8600013087005D0881005E08DD00F8
:101B32006F08173E8600013087005D0881008B1315
:101B42009C31BD248B177D088600013087008116E9
:101B52007D08033E860001308700811408002000C2
:101B62003E08C4003F08C5004008C6000310450DEA
:101B7200460DC7004708CA004108C4004208C50014
:101B82004308C6000310450D460DC7004708C900AB
:101B92004A080319D82D49084A020318DF2D4A03BF
:101BA200FF3A4907C40019304402031CDF2D4108E3
:101BB200BE004208BF004308C000080049080319DC
:101BC20008004A0849020318EE2D4903FF3A4A0762
:101BD200C40019304402031808000630C400440847
:101BE200C800C01BC817C31B4817BF17FF30BE056C
:101BF200FF30BF050030C005C217FF30C105FF30FE
:101C0200C2050030C30549084A0203182A2E0130D2
:101C1200C135C20DC30D890B092E0130C902490815
:101C22004A060319252E0130C8024808073903194C
:101C3200252E082E0130C036BF0CBE0C890B1C2E7F
:101C42000130C4004408CA074A08490603194F2E46
:101C52001B2E4A08490203184F2E0130BE35BF0D14
:101C6200C00D890B2F2E0130CA0249084A060319FA
:101C72004B2E0130C8024808073903194B2E2E2E6D
:101C82000130C336C20CC10C890B422E0130C40094
:101C92004408C9074A084906031D412EC81F612E80
:101CA200FF30BE06FF30BF06FF30C0060130BE0760
:101CB200003003180130BF07003003180130C0079D
:101CC200481F732EFF30C106FF30C206FF30C30625
:101CD2000130C107003003180130C2070030031879
:101CE2000130C307C8013E08C1073F08C23D400892
:101CF200C33DC31F8E2EFF30C106FF30C206FF3028
:101D0200C3060130C107003003180130C20700309A
:101D120003180130C307C801C80A4108A0004208DD
:101D2200A1004308A2004A08C4004408A3004808CE
:101D3200C5004508A4009231162220002008BE00EA
:101D42002108BF002208C00008002000E9007B082B
:101D5200860001308700011C080069089831AC2018
:101D62008E3120006908013A031DC32EE701E70AFC
:101D72000C1F0C1ABD2EE7017B088600013087007C
:101D82006708D22E6908023A031DD52EE801E80A37
:101D92000C1C8D18CD2EE8017B08860001308700CF
:101DA20068088110031D81147B08860001308700BA
:101DB200811CAB2F7B088600013087000119022F9E
:101DC2000130E5007B08023E86000130870065088D
:101DD20081077B08023E8600013087000530010240
:101DE200031C08007B08023E860001308700810147
:101DF2007B088600013087000115690894310F24A1
:101E020008007B088600013087008119342F7B0887
:101E1200033E8600013087000130810741310318FB
:101E2200810A7B08033E860001308700403F200084
:101E3200E500413FE6000030660296300319650274
:101E4200031C08007B08033E860001308700003037
:101E5200C03FC13F7B0886000130870081156908B9
:101E62009B31962308007B08860001308700011A07
:101E7200782F7B08053E86000130870001308107FC
:101E820041310318810A7B08053E86000130870034
:101E9200403F2000E500413FE600003066029630F8
:101EA20003196502031C08007B08053E8600013009
:101EB20087000030C03FC13F7B08860001308700A9
:101EC2000116A201A20A0130A73184278E317D08B2
:101ED200033E860001308700811C08006430200028
:101EE200A6000030A70002309531652508007B0866
:101EF200860001308700811A08007B08073E8600B1
:101F0200013087000130810741310318810A7B08C3
:101F1200073E860001308700403F2000E500413F38
:101F2200E600013066022C3003196502031C08002A
:101F32007B08073E8600013087000030C03FC13F6A
:101F42007B088600013087008116A2010130A7318B
:101F5200842708007B08860001308700011D0800E5
:101F620001302000E5007B08023E86000130870038
:101F7200650881077B08023E860001308700053034
:101F82000102031C08007B08023E86000130870024
:101F920081017B0886000130870001117B08033E26
:101FA2008600013087000030C03FC13F7B088600B9
:101FB2000130870081117B08053E860001308700D1
:101FC2000030C03FC13F7B0886000130870001120C
:101FD2007B08073E8600013087000030C03FC13FCA
:101FE2007B088600013087008112690894317E24C3
:101FF2008E312000A2010130A73184270800200081
:10200200E8006808A631D92690317A08860087014F
:10201200011F17282100A008031D08002108643AA7
:10202200031D080001309F31B92708002100A008D4
:10203200031D08002108023A031D08002C08FF3A7C
:10204200031D2D282D08FF3A031D2D282E08FF3AC7
:10205200031D2D280000080020006F080C3E86009A
:102062000130870021002C080106031D0800200012
:102072006F080D3E86000130870021002D08010601
:10208200031D080020006F080E3E86000130870005
:1020920021002E080106031D080001308831382076
:1020A20008002000A50025089831D5209031200095
:1020B2006C08860001308700811E08006C088600CB
:1020C2000130870081106C08860001308700811181
:1020D2006C0886000130870001126C08860001300E
:1020E200870001130330A4006C08023E8600013011
:1020F2008700240881006C08063E860001308700B4
:102102000108A4006C08043E860001308700240800
:102112008100210039088600870101142000A001F6
:10212200A00A25089D314D2590312000A201A20A66
:1021320025089131B82190312000A2012508A7314C
:10214200A12790312000A2012508A731922708007B
:102152009831992090319931832190318C31C82462
:102162009031A7312A279031A631C3269031A73169
:1021720042279031A631902690319831EA20903151
:10218200A73169279031A6315C2690319831C02061
:1021920090317D08860001308700011CD728053068
:1021A2008831CB2090318931FA2190317D08860027
:1021B20001308700811CCA287D0886000130870013
:1021C20081109431EF2490317D0886000130870020
:1021D200011CCA289E3165269031A73136279031DD
:1021E20080314F209031A631EF269031A631A826BA
:1021F2009031A63160269031A63198269031CA28B6
:102202002000DB000030DC008630DD004230DE00E2
:102212000030AE00C830AF004230B0005C08B10000
:102222005D08B2005E08B3008A31A222913120001B
:102232002E08DC002F08DD003008DE005B08D90024
:10224200DA01D909DA09D90A0319DA0A5908643E06
:10225200A80000305A3DA9009A31E72291312000AE
:102262002808B1002908B2002A08B3005C08AE00B1
:102272005D08AF005E08B0008B314B239131200026
:102282002E08C1002F08C2003008C3000030BE0073
:10229200C230BF004230C0008D31B02591312000E4
:1022A2003E08CB003F08CC004008CD0096316126A5
:1022B20020004B0808002000A700270899316C2154
:1022C20091312100380886008701011C0800380876
:1022D20086008701200023088110031D8114230832
:1022E20003199E2924089C318F2491312000A500D6
:1022F2002100380A860087012000250881000F305E
:102302002405A5002508053A03198B2924080F394D
:10231200031D9129263024020318912924089229A9
:102322000530A50027081A3E6F07A600260886007A
:102332000130870025088100AA29A308031DAA29C4
:1023420027081A3E6F07A50025088600013087007E
:10235200810121003808023E860087010030C03F1B
:10236200C13F3808043E8600870181010800200031
:10237200A30023089B31092391312000A208031DE9
:10238200D4292308013A031DC8298C150800230803
:10239200023A031DCE298E1708002308633A031D53
:1023A20008008D1608002208013A031DEA292308B5
:1023B200013A031DDE298C1108002308023A031D8D
:1023C200E4298E1308002308633A031D08008D12C6
:1023D200080022080A3A031D0C2A21003B08860045
:1023E200870181103B0A860087010030C03FC13F50
:1023F20020002308013A031D002A8C150800230837
:10240200023A031D062A8E1708002308633A031DA9
:1024120008008D16080022080B3A031D080021004F
:102422003B08860087018114080020002308031955
:102432001F2A220821042004031D302A0030A00094
:102442000030A1000030A20008000130A5002508DC
:10245200A3070130A236A10CA00C890B2B2AFE3057
:1024620022050319492A262A0130A5002508A307B7
:102472000130A007003003180130A1070030031813
:102482000130A2070130A236A10CA00C890B442A0C
:10249200FF3022050319562A352A0130A3020130E2
:1024A200A035A10DA20D890B512AA11F4E2A231876
:1024B200602AFF30A0057F30A105FF30A20503107E
:1024C200A30C2308A500A601A7011030A535A60D6F
:1024D200A70D890B672A2508A0042608A10427084E
:1024E200A204240803190800A21708002000AA0069
:1024F2002A08013A031D8D2A993140219231003A6E
:102502000319A52A2C302000A6000130A7000A30AA
:10251200953165259231A52A20002A08023A031D29
:10252200A02A2C30A6000130A70005309531652580
:1025320092312100390A860087010108AA2A200067
:102542002A08033A031DAD2A0130903152209231FC
:1025520002309031522092312000A20101309C3190
:10256200372492312000A20102309C31372492316B
:102572007D08033E860001308700011808007D08AF
:102582000E3E86000130870001107D080E3E860057
:102592000130870081107D080E3E860001308700E1
:1025A20001157D08083E8600013087000030C03FDB
:1025B200C13F080020000D180D18DD2A3B309A316A
:1025C20018229231210043080319312B20000E12E8
:1025D200FF30A40024082100BF0020000E19EE2ABB
:1025E20099319A2192319A314F22923121003F083A
:1025F2002000A40024082100BE002000A501210023
:102602003E08200025020318182B9A314F229231DE
:1026120021003F082000A4002508A03E8600870173
:10262200240881000130A4002408A507002B9A3158
:102632004F22923121003F082000A40024082100EB
:10264200BD009A314F22923121003F082000A400A0
:1026520024082100B70020000E162100B71B7015B8
:102662003630A731B02792313A30A731B0279231B4
:102672002000A2010130A731762708002000A60120
:102682002030260203185C2B26089931CC21933185
:102692002000A40026087C07A5002508860001303A
:1026A2008700240881000130A4002408A6072030F6
:1026B2002602031C452B6F080C3E86000130870062
:1026C2000108A4007C0886000130870024088100EC
:1026D2006F080D3E8600013087000108A4007C0AC5
:1026E200860001308700240881006F080E3E8600B4
:1026F200013087000108A4007C08023E86000130F8
:102702008700240881007C08223E86000130870071
:10271200011D9C2B7C08223E86000130870001119E
:102722007D0886000130870081127D08033E860005
:102732000130870081108B13A7311E2793319C3102
:10274200BD248B1708002000E100E001E00A6108C7
:10275200FF3E890AAE2B0310E00DFF3E031DAC2B9A
:102762006108DE006F080B3E8600013087005E08BC
:10277200810061309F31732793312000DE006108B0
:10278200143E6F07DF005F088600013087005E0895
:1027920081006108143E6F07DE005E08860001308A
:1027A20087000108DF006F08093E860001308700BC
:1027B2005F08810061081A3E6F07DE005E0886002E
:1027C200013087000108DF006F08113E86000130EA
:1027D20087005F0881005D080319FF2B6F080F3E19
:1027E20086000130870001086004DE006F080F3E9A
:1027F2008600013087005E08810008006F080F3EE6
:1028020086000130870060090105DE006F080F3E77
:102812008600013087005E08810008002000E30086
:10282200E201E20A6308013A031D192C79081E2C01
:102832006308023A031D292C6D08093E8600013007
:1028420087000310011D0314003003180130E20059
:102852006208031908007B0886000130870081178F
:102862006430A6000030A70001309531652594310F
:102872007B08860001308700011B6B2C7B088600D9
:102882000130870001172000A201A20A6308A731C4
:10289200922794312000A201A20A6308A731D0270F
:1028A20094312000A201A20A6308A731C027943103
:1028B2007B088600013087000030011B01302000B8
:1028C200DD0063089331A423943101308B31FF235F
:1028D200200008007B0886000130870001137B0876
:1028E2008600013087000030011B01302000A20069
:1028F2006308A7319227200008002000E4007B082B
:10290200860001308700811F08007B0886000130A5
:10291200870081137B08860001308700011FCA2CC3
:102922007B0A860001308700011C08007B0A8600B2
:10293200013087000110A201A20A640898317820B0
:1029420094312000A201640898316820943120005B
:1029520064081A3E6F07E2006208860001308700B1
:102962000108E3006F08113E86000130870063080A
:1029720081007B088600013087000030011B013096
:10298200DD0064089331A423943101308B31FF239D
:1029920008002000A201A20A6408A731D0279431BE
:1029A2002000A2016408A731C02794312000A301AE
:1029B200A401640891315C2194317B0886000130C6
:1029C20087000030011B01302000DD0064089331D4
:1029D200A423943101308B31FF2308007D08860047
:1029E200013087000118342D7D0A860001308700EE
:1029F2000130810741310318810A7D0A86000130C6
:102A02008700403F963A031D082D413F003A031DBF
:102A120008007D0A8600013087000030C03FC13FB8
:102A22007D0886000130870001140130A731F027AC
:102A3200943132302000A6000030A70003309531D7
:102A4200652594317D08033E86000130870001141C
:102A520001309A31332294312000A201A20A0130BE
:102A62009C310D2408007D08063E86000130870057
:102A72000130810741310318810A7D08063E860034
:102A820001308700403F643A031D492D413F003A1F
:102A9200031D08007D08063E8600013087000030D5
:102AA200C03FC13F7D08860001308700811D5F2D38
:102AB2007D08860001308700811108007D088600AC
:102AC20001308700811508002000A9001430A00001
:102AD2000030A1002708A301A3072608A201A2072C
:102AE2009A318A22953120002108A701A7072008E0
:102AF200A601A6077808860001308700011C08009D
:102B020078088600013087008118A02D7808860099
:102B12000130870081142908A8007808033E860046
:102B220001308700280881007808063E86000130BF
:102B320087002608C03F2708C13F8D150800780886
:102B42008600013087008119BE2D78088600013089
:102B5200870081152908A8007808043E8600013004
:102B62008700280881007808083E86000130870027
:102B72002608C03F2708C13F0800780886000130B8
:102B82008700011A080078088600013087000116C4
:102B92002908A8007808053E860001308700280829
:102BA200810078080A3E8600013087002608C03F6F
:102BB2002708C13F08002000E600E501E50A660893
:102BC2009831D520953120006608013A031DEB2D7E
:102BD2007908F02D6608023A031DF82D6D080C3EA7
:102BE200860001308700003001180130E5006C08D2
:102BF200093E860001308700811C2E2E65080319CC
:102C020008006C08093E860001308700011C1C2E5A
:102C12006C08093E8600013087008110A401A40AD5
:102C220066088931612120006C080C3E8600013063
:102C32008700011008006C08093E860001308700F9
:102C42008110A40166088931612120006C080C3EC4
:102C5200860001308700011008006C08093E8600DA
:102C620001308700811D0800650803190800660805
:102C72009831D520953120006C08093E860001303C
:102C8200870081116C08093E860001308700011D12
:102C92005A2EE201E20A66089E31EB269531643033
:102CA2002000A6000030A7000130953165252000E4
:102CB20008002000E20166089E31EB262000080091
:102CC20020004B08CF004C08D0004D08D100031063
:102CD200500D510DD2005208D800D808031D7A2E8B
:102CE2000030CE000030CD000030CC000030CB00F0
:102CF20008004B08CF004C08D0004D08D100173017
:102D0200D136D00CCF0C890B812E4F08D20052083D
:102D1200D300CC17FF30CB05FF30CC050030CD05FA
:102D22004B08D4004C08D5004D08D600D7018E3090
:102D3200D802D81FB82E5808803A8F3E0318AA2E00
:102D42000030CE000030CD000030CC000030CB008F
:102D520008000130D736D60CD50CD40C890BAB2E1B
:102D62000130CF004F08D8070319D12EAA2E1830F0
:102D72005802031CCE2E0030CE000030CD000030B1
:102D8200CC000030CB0008000130D435D50DD60D73
:102D9200D70D890BC62E0130D802D808031DC52EC7
:102DA20053080319DF2ED409D509D609D709D40A45
:102DB2000319D50A0319D60A0319D70A5708CE00F0
:102DC2005608CD005508CC005408CB00080020005E
:102DD200EA006A08A631D92696317A088600870168
:102DE200011C08002000EB010C1F0C1AFC2E0C1811
:102DF200FC2E8D1C032F7A0886008701011B032FEE
:102E0200EB01EB0A7A08860087016B088113031D28
:102E120081177A0886008701811B3B2F7A0886007A
:102E22008701811C202F7A08860087018110923148
:102E3200DB22963101309031002096313F2F7A0803
:102E42008600870101193F2F7A08860087018119C0
:102E52003F2F7A088600870181153630A731B027C7
:102E620096313430A731B027963101308731F727B8
:102E720096313F2F01309B31BC2396317A08860070
:102E82008701011D080001309B31BC2396317A086D
:102E920086008701811A652F01302000E9007A0A35
:102EA20086008701690881077A0A8600870101087E
:102EB200193A031D08007A0A8600870181017A08FF
:102EC20086008701811608007A0886008701811230
:102ED2007A088600870101119F312F270800200000
:102EE200E300630899312A21973121003C088600CA
:102EF20087010118B12F3008803A031D8D2F200061
:102F0200A301A30A210031082000E2006208A40004
:102F1200630891315C21973121003C0886008701CA
:102F220001142000A201A20A6308A731A127973148
:102F32002000A201A20A6308A731D02797312000FE
:102F4200A201A20A6308A731C027973121003C08D9
:102F5200860087010030011801302000DD00EF2FCC
:102F620021003008803A031DC72F2000A301A30AC5
:102F7200210031082000E2006208A40063089131B8
:102F82005C2197312000DD01DD0AEF2F21003C0892
:102F92008600870101102000A2016308A731A12742
:102FA20097312000A201A20A6308A731D0279731E6
:102FB20021003C0886008701003001180130200002
:102FC200A2006308A731C02797312000A301A40102
:102FD200630891315C2197312000DD016308933150
:102FE200A423973164302000A6000030A7000130EE
:102FF20095316525973101308B31FF230800033469
:10300200163417341E341F3420342A342B340B3434
:103012000C340D340E340F34103411341234133492
:1030220014340A34153421342234183419341A343D
:103032001B341C341D3423342434253426342934DF
:103042002C342D342E340034013402340734083445
:103052000934063404340534273428340734073459
:10306200303487346B34F8347F343F3409340034DD
:103072005C34A73462348634833403342234F83423
:1030820000344434B634103418341D341C34C7347C
:103092000034B234EA340A340034113459348834F6
:1030A20031340B342F342E340634043405340034D6
:1030B2003034D334913441340034FE34FE34FE349F
:0A30C200FE34FE34FE34FE34FE340A
:1030D0002000A30023089831D52020006C08093E69
:1030E00086000130870022080111031D0115080028
:1030F0002000A30023089831D52020006C08093E49
:1031000086000130870022088111031D8115080007
:103110002000A40024089B310923983121003B089A
:103120008600870101142000A20124089131B821F2
:103130000800C5302000A0002008EF00D230A00019
:103140006F08143E8600013087002008810020307F
:10315000A0002008FD0008002000A1002108013A7D
:10316000031DB7285830A0002008FB0008002108E4
:10317000023A031D08006130A0002008FB0008008F
:103180009C31EC2498319B31E32398319A31A82269
:103190009831A63154269831A63150269831A7315E
:1031A00012279831A631582608002000A1002108D6
:1031B000013A031DDF283030A0002008EC008C17F6
:1031C0002108023A031DE8283E30A0002008EC0048
:1031D0000D16080030302000A4002408ED00013056
:1031E0009C31622498313E302000A4002408F9006C
:1031F00002309C3162249831A6317B2608002000E1
:10320000A1002108A0006E083A3E86000230870027
:10321000200881002108A0006E08423E860002308E
:1032200087002008810008008B1D08002700161D5C
:10323000080016110B107D08860001308700011C64
:10324000080021003908023E8600870181019A3179
:103250006C2208002000A1002108013A031D352935
:10326000E730A00020082100BC0020002108023A1D
:10327000031D0800E830A00020082100BC00080061
:103280002000A101A201A20A6D088600013087007A
:10329000011B50297908860001308700011FA20117
:1032A0002208A0002008A100210808002000A30097
:1032B000230821009D002000200821009E009D146D
:1032C0009D1860291C082000A101A10721001B08EE
:1032D0002000A001A00708002000A1002108013A59
:1032E000031D7829CB30A00020082100B800080079
:1032F00020002108023A031D0800D030A000200859
:103300002100B80008007830210099009931E521AA
:103310009931A7315C279931A63182269931A6319E
:1033200069269931A7314F27A0302000A10021083C
:10333000FC0008002000A101083021020318080049
:103340002100BF1FA62920000E14A82920000E105E
:103350008E1403102100BF0D20008E100130A0003C
:103360002008A1079C292000A4000E122408A30015
:1033700023082100BF0020000E19BB2999319A2192
:10338000993120002208A30023082100BF009931B1
:103390009A2120000E1608002000A200A301303060
:1033A0002300920020002208230091001513151419
:1033B00014082000A0002008A1002300130820000A
:1033C000A0002008A30023080800773021008C000B
:1033D00007308D000C308E0022008C0102308D00F1
:1033E0008E01223023008C008D018E017730200069
:1033F0008C0007308D000C308E0008002100390849
:1034000086008701011C0800390886008701011029
:103410009931402199310038031D08000030A63150
:10342000E4267C08223E86000130870081140800D3
:103430002000A3000E122308C03EA2002208210093
:10344000BF0020000E19212A99319A219A319A3110
:103450004F2220000E1621003F082000A200220863
:103460002100C30008002000A20001309831AC20E8
:103470009A317B0886000130870020002208011065
:10348000031D011402309831AC207B088600013006
:103490008700200022080110031D011408002000ED
:1034A000A10108302102031808008E140310210026
:1034B000BF0D20000E1D5F2A21003F14652AFE303B
:1034C0002000A00020082100BF0520008E10013040
:1034D000A0002008A107512AFF30200095006D08A8
:1034E0000C3E86000130870081187C2A6D080C3E56
:1034F000860001308700811479080C3E8600013077
:1035000087008118080079080C3E8600013087008A
:10351000811408002000A401A501201C932A220880
:10352000A4072308A53D0130A235A30D890B942AD9
:103530000130A136A00C890B992A21082004031D13
:103540008D2A2508A101A1072408A001A0070800D1
:103550002000A701083027020318080027085E3E54
:10356000840098300318013E85000008A500250856
:10357000A6002608A5002508A2003E309931B321F7
:103580009A3101302000A5002508A707AA2A633434
:103590000234003400340034003400340034003489
:1035A000003400340034FF34FF34FF34003400347E
:1035B000003400340034003400340034003400346B
:1035C000003400340034003400340034003420006F
:1035D000AD01A91FF22AA809A909A80A0319A90A75
:1035E000AD01AD0A2808A0002908A100A2018E3073
:1035F000AB002B08A3002D08AC002C08A4009231CE
:10360000162220002008A8002108A9002208AA00EC
:1036100008002000A1002108013A031D152BD93014
:10362000A00020082100BB00080020002108023A69
:10363000031D202BDD30A00020082100BB00080066
:1036400020002108633A031D0800D530A00020089F
:103650002100BB0008002000A10105302102031851
:1036600008002135083E6E07A000200886000230C1
:1036700087000030C03FC13F21351A3E6E07A000D1
:103680002008860002308700FF30C03FFF30C13F76
:103690000130A0002008A1072D2B2000E0006008C9
:1036A0009831D5209B3120006C08860001308700BE
:1036B00001156C0886000130870081146F08093EEF
:1036C0008600013087000108913101212000DF00D0
:1036D0006C08053E8600013087005F088100080005
:1036E00001302000A2000030A30021082302031DA6
:1036F0007B2B2008220203180800A401A50100303A
:1037000025020230031924020318912B0130A4076B
:103710000030A53D00302502023003192402031CAD
:10372000862B0130A2070030A33D752B2000A4009A
:103730007B08860001308700811F08007B0A860015
:103740000130870001147B088600013087000117D3
:10375000A201A20A2408A73192279B312000A201CE
:10376000A20A2408983178209B312000A201A20AE5
:1037700024089831682008002000A4002408A631FD
:10378000D9269B317A0886008701811D08007A08B6
:103790008600870181117A088600870181107A0AE4
:1037A0008600870181017A08860087018112363000
:1037B000A731B0279B313A30A731B0279B31003079
:1037C0008731F72708002000A8012F3028020318AE
:1037D00008002808003E840098300318013E850048
:1037E0000008A5002508A60028082F3E8400983070
:1037F0000318013E85000008A5002508A70027083A
:10380000A5002508A20026089931B3219B3101307B
:103810002000A5002508A807E52B2000A300230809
:10382000A631D9269C317A0886008701200022081B
:103830000110031D01147A088600870101137A081C
:103840008600870101117A088600870181117A08B4
:103850008600870181107A0A8600870181017A0833
:1038600086008701811200308731F7270800200089
:10387000A30023089831D52020006C08093E86005B
:103880000130870022088110031D81146C08093E55
:1038900086000130870022080110031D01146C0806
:1038A000093E86000130870022088111031D811521
:1038B0006C08093E86000130870022080111031DB3
:1038C000011508002000A30023089831D52020000E
:1038D0006C080C3E86000130870001146130A200A4
:1038E0006C08053E860001308700220881001E30EA
:1038F000A2006C08063E8600013087002208810085
:103900006C08053E8600013087000108A2006C08A3
:10391000043E860001308700220881000800200054
:10392000A2000530A0002008A1002208053A031DCE
:103930009B2C0530B82C2208103A031DA12C0A300C
:10394000B82C2208153A031DA72C0F30B82C2208DA
:10395000203A031DAD2C1430B82C2208253A031D43
:10396000B32C1930B82C2208303A031DBB2C1E3062
:10397000A0002008A1002108080023001513303002
:10398000920094011512951615152000A101203002
:1039900021020318E52C21082300910020002108B2
:1039A0007C07A00020088600013087000108230062
:1039B0009300A631B0269C3101302000A0002008E1
:1039C000A10720302102031CCB2C23009512A63125
:1039D000B02623001511080020008E100E100E16C0
:1039E0000A30A0000030A1009B3170239C312000E0
:1039F0000E120A30A0000030A1009B3170239C31D0
:103A000020000E162830A0000030A1009B3170234A
:103A10009C3120000E123030A60026082100BF0085
:103A200020000E19102D99319A219C3120000E1979
:103A3000162D0E100E160800F20020006E08463EED
:103A400086000230870071088110031D81146E0802
:103A5000423E860002308700023081027208013A3D
:103A6000031D382D6E08433E860002308700810119
:103A70007208023A031D422D6E08443E8600023051
:103A8000870081017208033A031D08006E08453E55
:103A9000860002308700810108002000A1006E0826
:103AA000463E86000230870020088110031D8114E5
:103AB0006E08423E860002308700023081022108F3
:103AC000013A031D692D6E08433E860002308700CF
:103AD00081012108023A031D732D6E08443E8600C1
:103AE0000230870081012108033A031D08006E0897
:103AF000453E860002308700810108002000A100B9
:103B00006E0886000230870081146E08463E8600EB
:103B10000230870020080110031D01142108013A1A
:103B2000031D992D6E08433E8600023087008101F7
:103B3000810A2108023A031DA42D6E08443E860026
:103B4000023087008101810A2108033A031D080021
:103B50006E08453E8600023087008101810A080018
:103B60002000E300653021002902031CBD2D6430D4
:103B70002000E10061082100A90029082000E100DF
:103B80006F08093E860001308700610881006308E4
:103B9000E1006F080B3E860001308700610881005C
:103BA0006F08093E8600013087000108E1006308C4
:103BB000143E6F07E200620886000130870061084A
:103BC000810063089B314D2308002000A4002408D5
:103BD0009B3109239D3121003B0886008701811C10
:103BE00008003B0A86008701013081074131031834
:103BF000810A3B0A86008701403F2000A200413F26
:103C0000A30000302302323003192202031C0800F3
:103C100021003B0A860087010030C03FC13F2000E1
:103C20002408013A031D172E08308C0608002408CA
:103C3000023A031D1E2E80308E0608002408633AC7
:103C4000031D080020308D0608002000E6006608ED
:103C500099312A219E3121003C0886008701011CF0
:103C60003D2E7C08223E8600013087000114200092
:103C700066089D31B0259E314F2E20006608143E07
:103C80006F07E40064088600013087000108E50042
:103C90006F08093E8600013087006508810020001A
:103CA00066081A3E6F07E40064088600013087004A
:103CB0000108E5006F08113E8600013087006508A5
:103CC000810001308B31FF2308007C08223E8600F2
:103CD00001308700811C08007C08223E86000130EC
:103CE0008700011CA12E7C08233E8600013087003E
:103CF0000130810741310318810A7C08233E860088
:103D000001308700403F193A031D882E413F003A99
:103D1000031D08007C08233E860001308700003028
:103D2000C03FC13F7C08223E860001308700011061
:103D30007C08223E860001308700811093313F23AA
:103D400008007C08223E86000130870081100800B0
:103D50002000AC006E088600023087002C0881121B
:103D6000031D81162C090139AB006E088600023054
:103D70008700AB0DAB0DAB0D01082B06F7392B06F9
:103D800081002C08AB006E08053E860002308700DB
:103D90002B0881002C080319D12E02309231772292
:103DA0009E3120002C080A3EAB002B08A200633095
:103DB0009131B8219E3120002C0901399A313322EA
:103DC0009E3120002C090139AB002B08A2000130E4
:103DD0009C310D2408002000E40064089831D520AF
:103DE0009E31200062080319002F6C088600013004
:103DF000870081156C088600013087008114080057
:103E00006C08860001308700811D08006C08860060
:103E10000130870081106C08860001308700811115
:103E2000A001A00A00309D314D259E3120006C0874
:103E3000043E8600013087000108E3006C08053E5F
:103E400086000130870063088100DD01DD0A640817
:103E50009331A4239E3101308B31FF2308002000D1
:103E60000E127F30A40024082100BF0020000E198C
:103E7000362F99319A219F31210040082000A4005B
:103E800024082100BF0099319A219F312000A5010B
:103E900021004008200025020318602F2508A03EBD
:103EA000860087010108A40024082100BF00993181
:103EB0009A219F3101302000A4002408A507482F33
:103EC0000E163530A731B0279F3120000D1C652F0D
:103ED0000D18682F3630A731B0279F313B30A731FE
:103EE000B027F01608002000D9000030DA00863034
:103EF000DB004230DC000030AE00C830AF004230A2
:103F0000B0005A08B1005B08B2005C08B3008A3107
:103F1000A2229F3120002E08DA002F08DB00300893
:103F2000DC0059089F3EA800FF3003180030A900AC
:103F30009A31E7229F3120002808B1002908B200F9
:103F40002A08B3005A08AE005B08AF005C08B00056
:103F50008A31A2229F3120002E08CB002F08CC00EE
:103F60003008CD009631612620004B03FF3A643EB5
:103F700008002000AB002B08A631D9269F31210074
:103F80002C082000AA006F080C3E86000130870034
:103F90002A08810021002D082000AA006F080D3E8C
:103FA0008600013087002A08810021002E082000A9
:103FB000AA006F080E3E8600013087002A088100A3
:103FC0006430A6000030A7000130953165259F318F
:103FD0007A088600870101137D08033E86000130C0
:103FE0008700811CF92F7C08223E86000130870063
:103FF00001157C08223E860001308700011408006C
:104CA0003A30A731B02708003B30A731B0270800C1
:104CB0003630A731B02708000130A6318926080018
:104CC00001309631E826080020008E1A08008E1662
:104CD000642E24000D100B160B178B170800FE0016
:104CE00012001E00FE0B702E0034640080010131A2
:104CF000890B762E0034E1302000A000200821002E
:104D0000B9000800F23021009E00C0302200970058
:104D1000080015302000A00020082100C000080075
:104D20000130A631CE26A6310230A631CE260800AB
:104D3000013087317E27A631023087317E27080077
:104D40002000A400A201A20A24089131B821080081
:104D500001308E31A626A63102308E31A6260800FB
:104D6000553023009600AA309600951400000000EC
:104D70000800F2007208013A031D0800E430F10057
:104D80007108FA0008004C302000A0002008F8004C
:104D90007808860001308700011408002000A20076
:104DA000220899316C2121003808860087010114FE
:104DB00008002000A1002108013A031D0800E4308A
:104DC000A0002008FA0008002000A0006E0886005D
:104DD0000230870020088110031D81140800013073
:104DE0009531DC25A63102309531DC25A63199318B
:104DF000FE210800F4007408A631B9267A0886005E
:104E0000870173088110031D811408000B1E080020
:104E10008B1C08008B100B12F301F30A0130A63132
:104E2000FA2608003330A731B027A731E830200038
:104E3000A0000330A1009B3170230800230015134C
:104E400030309200910115161515A631B0262300B9
:104E500015110800013098318820A73102309831AF
:104E60008820A731633098318820080001309D31B7
:104E7000E525A73102309D31E525A73163309D310D
:104E8000E525080020302000A2002208EE006E0870
:104E900086000230870081159B312B2308002400F7
:104EA0000D110430270094000430950096018B15F5
:104EB0000B100B178B170800C4302000A00020082F
:104EC0002100E9009501A630200095008B168B1774
:104ED0000800A6316426A73124008D100130A631C8
:104EE000A026A7310230A631A02608002000A3008A
:104EF0002308A631D9267A088600870120002208D7
:104F00008111031D811508002000A3002308A6318C
:104F1000D9267A0886008701200022080113031D84
:104F2000011708002000A300230899312A2121003D
:104F30003C0886008701200022080110031D01148F
:104F400008002000A30023089831AC207B088600CD
:104F500001308700200022080113031D01170800FB
:104F60002000A3000E122308A20022082100BF0087
:104F700020000E19B82F99319A2120000E16080032
:104F80002000A30023089831D52020006C08093E9A
:104F900086000130870022080110031D011408005B
:104FA0002000A30023089831D52020006C08093E7A
:104FB00086000130870022088110031D811408003B
:104FC0002000A30023089831D52020006C080C3E57
:104FD00086000130870022080110031D011408001B
:104FE0002000A0006E088600023087002008011013
:104FF000031D01146E08860002308700811008002E
:020000040001F9
:04000E00E4F9FDFF15
:00000001FF
