:04000000803116280D
:100008007E14803120007F08F700993180218031EB
:1000180084312F248031A731742777082000FF000E
:100028007E10090080311828F001F801F901FA0161
:10003800FB01EC01ED01EE01A030840000308500E9
:100048004930A631E4268031203084000130850013
:100058004C30A631E4268031A03084000130850080
:100068002530A631E4268031203084000230850016
:100078004730A631E4268031E83084009A30850084
:10008800C5308600013087002030A631DE267E107C
:10009800200091314E2920006E088600023087002A
:1000A800811E7C286E08033E8600023087000130DE
:1000B800810741310318810A6E08033E8600023029
:1000C8008700403FAD00413FAE0003302E02E830CC
:1000D80003192D02031C08006E08033E8600023037
:1000E80087000030C03FC13F00309F3135270800EE
:1000F80020006E08860002308700011E4A2B6E0A17
:100108008600023087000130810741310318810AD7
:100118006E0A860002308700403FAD00413FAE00C6
:1001280000302E02053003192D02031C08006E0A48
:100138008600023087000030C03FC13F6E0886004D
:100148000230870001126E08453E860002308700A3
:100158006E08443E8400023085000008AD006E0839
:10016800433E84000230850000082D070107AE00D9
:100178006E083E3E8600023087002E088100B101DD
:10018800B10A043031020318F7283135083E6E07EA
:10019800AD002D088600023087006E082E3E8400D0
:1001A80002308500403F80070131413F803D3F31AB
:1001B80031351A3E6E07AD002D08860002308700E3
:1001C8006E08303E840002308500403F80070131D0
:1001D800413F803D3F310130AD002D08B10704306B
:1001E8003102031CC9280330A0000030A1006E08AA
:1001F8002E3E860002308700403FA200413FA30008
:100208009E313B26803120006E082E3E860002304B
:1002180087002008C03F2108C13F0330A0000030FC
:10022800A1006E08303E860002308700403FA200E1
:10023800413FA3009E313B26803120006E08303EAE
:100248008600023087002008C03F2108C13F6E08A1
:100258002E3E860002308700403FAD00413FAE0091
:100268006E08303E860002308700403FAF00413FB5
:10027800B0002E083002031D43292D082F02031851
:10028800CD2A6E082E3E8600023087006E08303E6A
:10029800840002308500003FAD00013FAE00AD098B
:1002A800AE09AD0A0319AE0A403F2D07AF00413F22
:1002B8002E3DB0006E082C3E8600023087002F08C5
:1002C800C03F3008C13F6E083A3E860002308700C2
:1002D800023001020318C0290130AD006E083A3E11
:1002E8008600023087002D0881076E083A3E860096
:1002F800023087000108013A031D8C296E08363E3A
:10030800860002308700F430C03F0130C13FC02969
:100318006E083A3E8600023087000108023A031D43
:10032800C0296E083E3E8600023087000108013A67
:10033800031DA8296E08363E860002308700323039
:10034800C03F0030C13FC0296E08063E860002301B
:100358008700403FAD00413FAE002D082A3EAF0068
:1003680000302E3DB0006E08363E86000230870011
:100378002F08C03F3008C13F6E08363E8600023065
:100388008700403FAD00413FAE006E082C3E86001E
:1003980002308700403FAF00413FB0002E083002D6
:1003A800031DD8292D082F02031C462A0130AD0051
:1003B8006E083C3E8600023087002D0881076E08D3
:1003C8003C3E86000230870003300102031CCD2A20
:1003D8006E083C3E860002308700810101309F3163
:1003E8003527803120006E082C3E860002308700B9
:1003F800403FAD00413FAE002E08AF006F08043EFD
:100408008600013087002F0881006E082C3E860088
:10041800023087000108AD006F08053E86000130F4
:1004280087002D0881006E08363E8600023087005E
:10043800403FAD00413FAE002E08AF006F08103EB0
:100448008600013087002F0881006E08363E86003E
:10045800023087000108AD006F08113E86000130A8
:1004680087002D0881006E083E3E86000230870016
:100478000108AD006F08083E8600013087002D088E
:100488008100CD2A6E083C3E86000230870081013B
:100498006E08423E8600023087000A3001020318C7
:1004A8005E2A0130AD006E08423E860002308700A9
:1004B8002D0881076E08423E8600023087000A3008
:1004C8000102031CCD2A6E088600023087008115C0
:1004D800A201A20A01309831B62080312000A20181
:1004E800A20A02309831B620803120006E08463EBC
:1004F800860002308700011C952A6E08463E860059
:100508000230870001106E082C3E860002308700FA
:100518006E08063E840002308500403F803F413F20
:10052800813F6E08463E860002308700811CCD2A36
:100538006E08463E86000230870081106E082C3E09
:100548008600023087006E08063E8400023085006F
:10055800403F803F413F813F6E083E3E860002306B
:1005680087000108AD00AE012D08A0002E08A100EB
:100578003230A2000030A3009A31AB228031200033
:100588006E08363E8600023087002008C03F2108EA
:10059800C13F9B314C23803120006E082C3E8600E1
:1005A80002308700403FAD00413FAE002E08AF004B
:1005B8006F08023E8600013087002F0881006E0810
:1005C8002C3E8600023087000108AD006F08033E0C
:1005D8008600013087002D0881006E083E3E8600A7
:1005E800023087000108AD006F08083E8600013020
:1005F80087002D0881006E08063E860002308700BD
:100608000108AD006F080A3E8600013087002D08FA
:1006180081006E08363E860002308700403FAD00FC
:10062800413FAE002E08AF006F08103E8600013033
:1006380087002F0881006E08363E8600023087004A
:100648000108AD006F08113E8600013087002D08B3
:1006580081006E08053E8600023087000108AD0063
:100668006F08123E8600013087002D0881006E0851
:100678003A3E8600023087000108AD006F08133E3D
:100688008600013087002D08810008006E0886006A
:1006980002308700811C662B6E08860002308700B6
:1006A8000119602B6E0886000230870001156E085C
:1006B80086000230870081116E08860002308700AC
:1006C800011608006E08860002308700011D080028
:1006D8006E0886000230870001116E08860002301D
:1006E800870081156E083C3E860002308700810134
:1006F8006E083A3E86000230870081016E08063E89
:100708008600023087000030C03FC13F6E083F3E80
:1007180086000230870081016E08463E860002305E
:10072800870001106E08463E86000230870081105F
:100738006E082C3E8600023087000030C03FC13F63
:100748009B314C2380312000A201A20A013098314C
:10075800B62080312000A201A20A02309831B620CA
:10076800803120006E082C3E860002308700403F12
:10077800AD00413FAE002E08AF006F08023E860074
:10078800013087002F0881006E082C3E8600023059
:1007980087000108AD006F08033E8600013087001E
:1007A8002D0881006E083F3E860002308700010850
:1007B800AD006F08083E8600013087002D088100D3
:1007C8006E08063E8600023087000108AD006F08FB
:1007D8000A3E8600013087002D0881006E08363EEB
:1007E800860002308700403FAD00413FAE002E0832
:1007F800AF006F08103E8600013087002F08810087
:100808006E08363E8600023087000108AD006F088A
:10081800113E8600013087002D0881006E08053ED4
:100828008600023087000108AD006F08123E86007E
:10083800013087002D0881006E083A3E860002309C
:1008480087000108AD006F08133E8600013087005D
:100858002D08810008008B1E08000B1D0800A6301B
:10086800200095000B117908860001308700011CD3
:10087800AB2C0130F3007908033E86000130870075
:100888007308810721003908023E860087010108A4
:10089800F300F401F309F409F30A0319F40A7908D7
:1008A800043E86000130870001087307F5007408CC
:1008B8000318740AF6007908033E860001308700A1
:1008C8007608803A803C031D6B2C75080102031CD6
:1008D800842D7908033E860001308700810179085C
:1008E80086000130870001107908073E8600013034
:1008F800870001147908860001308700011F842DC4
:1009080020008C137908093E860001308700011FFA
:10091800842D7908093E8600013087000113790883
:10092800860001308700011379080C3E86000130EB
:10093800870001148C1121003908860087010114F1
:10094800F101F10A01309D313D258431842D79086A
:10095800093E860001308700811ED02C0130F3004B
:100968007908033E860001308700730881077908FB
:10097800033E86000130870014300102031CD02C8E
:100988007908033E86000130870081017908093E15
:1009980086000130870081127908073E8600013001
:1009A8008700011C842D7908073E860001308700E6
:1009B80001107908860001308700811C842D0130E0
:1009C800F300790A86000130870073088107790AE5
:1009D8008600013087007908023E840001308500D6
:1009E80000080102031C842D790A86000130870063
:1009F80081017908860001308700811D392D790829
:100A0800860001308700011A222D7908043E8600ED
:100A1800013087006130010203181C2D0130F300FA
:100A28007908043E86000130870073088107842D09
:100A380079088600013087000116842D7908043E64
:100A48008600013087001F300102031C332D79080E
:100A5800043E86000130870001308102842D790828
:100A68008600013087000112842D79088600013044
:100A78008700011D7F2D7908043E8600013087001C
:100A88007908053E8400013085000008010203183A
:100A9800572D0130F3007908043E860001308700A5
:100AA800730881076C2D7908053E860001308700A0
:100AB8007908043E8400013085000008010203180B
:100AC8006C2D7908043E86000130870001308102D0
:100AD8007908053E8600013087007908043E8400C5
:100AE8000130850000080106031D842D7908860061
:100AF80001308700011179088600013087008110D4
:100B08007A08860001308700011CF82D0130F300B7
:100B18007A08033E860001308700730881072100A8
:100B28003908023E860087010108F300F401F30941
:100B3800F409F30A0319F40A7A08043E860001301E
:100B4800870001087307F50074080318740AF60093
:100B58007A08033E8600013087007608803A803C98
:100B6800031DB82D75080102031CD12E7A08033E17
:100B780086000130870081017A08860001308700ED
:100B880001107A08073E86000130870001147A08B0
:100B9800860001308700011FD12E20000D127A082F
:100BA800093E860001308700011FD12E7A08093ED0
:100BB80086000130870001137A088600013087001B
:100BC80001137A080C3E86000130870001148E1349
:100BD80021003908860087010114F101F10A023069
:100BE8009D313D258431D12E7A08093E8600013099
:100BF8008700811E1D2E0130F3007A08033E86000F
:100C080001308700730881077A08033E86000130A7
:100C1800870014300102031C1D2E7A08033E86004B
:100C28000130870081017A08093E8600013087007B
:100C380081127A08073E860001308700011CD12EF8
:100C48007A08073E86000130870001107A0886007E
:100C580001308700811CD12E0130F3007A0A86000A
:100C680001308700730881077A0A860001308700FF
:100C78007A08023E84000130850000080102031C46
:100C8800D12E7A0A86000130870081017A08860011
:100C980001308700811D862E7A0886000130870082
:100CA800011A6F2E7A08043E8600013087006130F1
:100CB80001020318692E0130F3007A08043E860009
:100CC8000130870073088107D12E7A088600013029
:100CD80087000116D12E7A08043E8600013087006D
:100CE8001F300102031C802E7A08043E8600013062
:100CF800870001308102D12E7A08860001308700F2
:100D08000112D12E7A08860001308700011DCC2EF1
:100D18007A08043E8600013087007A08053E840080
:100D280001308500000801020318A42E0130F300E9
:100D38007A08043E86000130870073088107B92EBF
:100D48007A08053E8600013087007A08043E840050
:100D580001308500000801020318B92E7A08043E04
:100D6800860001308700013081027A08053E86003E
:100D7800013087007A08043E8400013085000008AD
:100D88000106031DD12E7A08860001308700011163
:100D98007A0886000130870081102100690A8600E0
:100DA80087010130810741310318810A690A8600E9
:100DB8008701403FC83A031DE32E413F003A031D17
:100DC800F02E690A860087010030C03FC13F7D08C8
:100DD800860001308700811478088600013087007A
:100DE800811C0800780A86000130870001308107DD
:100DF80041310318810A080020003E08C4003F085A
:100E0800C5004008C6000310450D460DC700470839
:100E1800CA004108C4004208C5004308C6000310C0
:100E2800450D460DC7004708C9004A080319282F71
:100E380049084A0203182F2F4A03FF3A4907C400FA
:100E480019304402031C2F2F4108BE004208BF007E
:100E58004308C00008004908031908004A08490265
:100E680003183E2F4903FF3A4A07C40019304402C9
:100E7800031808000630C4004408C800C01BC8177F
:100E8800C31B4817BF17FF30BE05FF30BF05003032
:100E9800C005C217FF30C105FF30C2050030C305C9
:100EA80049084A0203187A2F0130C135C20DC30D13
:100EB800890B592F0130C90249084A060319752FB1
:100EC8000130C802480807390319752F582F013017
:100ED800C036BF0CBE0C890B6C2F0130C40044080F
:100EE800CA074A08490603199F2F6B2F4A08490267
:100EF80003189F2F0130BE35BF0DC00D890B7F2F02
:100F08000130CA0249084A0603199B2F0130C8025A
:100F18004808073903199B2F7E2F0130C336C20CAE
:100F2800C10C890B922F0130C4004408C9074A0834
:100F38004906031D912FC81FB12FFF30BE06FF3091
:100F4800BF06FF30C0060130BE070030031801306D
:100F5800BF07003003180130C007481FC32FFF30F8
:100F6800C106FF30C206FF30C3060130C10700309A
:100F780003180130C207003003180130C307C80145
:100F88003E08C1073F08C23D4008C33DC31FDE2FCE
:100F9800FF30C106FF30C206FF30C3060130C1076B
:100FA800003003180130C207003003180130C307AE
:100FB800C801C80A4108A0004208A1004308A200CD
:100FC8004A08C4004408A3004808C5004508A4000E
:100FD8009231BB2220002008BE002108BF00220851
:100FE800C0000800F2007208013A031D0800E4304E
:100FF800F1007108FB0008002000A300230821006D
:101008009D002000200821009E009D149D180A289C
:101018001C082000A101A10721001B082000A00135
:10102800A00708002000EA006A08A731472788318E
:101038007B0886008701011C08002000EB010C1FBB
:101048000C1A2A280C182A288D1C31287B0886009F
:101058008701011B3128EB01EB0A7B088600870119
:101068006B088113031D81177B0886008701811B8C
:1010780069287B0886008701811C4E287B0886002A
:101088008701811093318023883101309031A52068
:1010980088316D287B088600870101196D287B0837
:1010A8008600870181196D287B08860087018115D4
:1010B800363098318620883134309831862088310E
:1010C8000130A731282788316D2801309B31DD2375
:1010D80088317B0886008701011D080001309B319B
:1010E800DD2388317B0886008701811A9328013027
:1010F8002000E9007B0A86008701690881077B0ACE
:10110800860087010108193A031D08007B0A86003A
:10111800870181017B0886008701811608007B080A
:101128008600870181127B088600870101119F31A3
:10113800BC2708002000E300630899319621883114
:1011480021003C08860087010118DF283008803A12
:10115800031DBB282000A301A30A21003108200099
:10116800E2006208A400630892310122883121005C
:101178003C088600870101142000A201A20A630826
:101188009831772088312000A201A20A630898319B
:10119800A62088312000A201A20A6308983196206F
:1011A800883121003C088600870100300118013091
:1011B8002000DD001D2921003008803A031DF52894
:1011C8002000A301A30A210031082000E2006208E0
:1011D800A40063089231012288312000DD01DD0A74
:1011E8001D2921003C088600870101102000A2016A
:1011F80063089831772088312000A201A20A630889
:101208009831A620883121003C08860087010030EB
:10121800011801302000A200630898319620883117
:101228002000A301A4016308923101228831200023
:10123800DD01630894314924883164302000A60018
:101248000030A700013096310426883101308C31F6
:10125800F52408002000E7006708A73147278931EF
:101268002100AF08031D81292000A40101308A3123
:10127800572289312000A201013098316820893134
:101288002000A20101309831772089312000A40183
:1012980002308A31572289312000A2010230983168
:1012A800682089312000A2010230983177208931E5
:1012B80020006F08093E86000130870081016F0811
:1012C8000B3E86000130870081016F080F3E8600C3
:1012D8000130870081016F08113E860001308700C8
:1012E80081016430A6000030A70001309631042641
:1012F800893101308C31F524080021002F08203A6B
:10130800031D9D2920006F08093E860001308700D3
:1013180081016F080B3E86000130870081016F084C
:10132800113E860001308700810101308C31F5249F
:10133800080021002F08013A031DA6290130883131
:101348009E20080021002F08113A031DAF29013003
:101358009E31B226080021002F08023A031DB82941
:10136800023088319E20080021002F08213A031DF1
:10137800080002309E31B22608002000A900AB0107
:10138800AA016E08860002308700011E0800C030DE
:10139800A4002408A00029088831002089312000F1
:1013A8006E08323E8600023087002008C03F2108C0
:1013B800C13FAB0105302B0203181B2A6E08323ED1
:1013C800860002308700403FA400413FA5002B352E
:1013D800083E6E07A6002608860002308700403FB8
:1013E800A700413FA80025082802031DFD2924085D
:1013F80027020318132A6E08323E8600023087003F
:101408002B35083E6E07A4002408840002308500AE
:10141800403F803F413F813FAA01AA0A1B2A013071
:10142800A4002408AB0705302B02031CE229AA08F4
:10143800031D0800AB0105302B02031808002B35EB
:101448001A3E6E07A4002408860002308700403F39
:10145800A500413FA6006E08323E86000230870094
:10146800403FA700413FA80026082802031D3E2A46
:10147800250827020318522A6E08323E86000230D9
:1014880087002B351A3E6E07A4002408840002301A
:101498008500403F803F413F813F08000130A40064
:1014A8002408AB071F2A2000A60026089931072127
:1014B8008A3120002608A5002100390A8600870104
:1014C80020002508810024080319BE2A6C0886001C
:1014D800013087008116A201260892315D228A31E7
:1014E800003099316B218A3120006C088600013068
:1014F800870081140330A5006C08023E8600013085
:101508008700250881006C08860001308700011BD0
:1015180008006C088600013087000117A001A00AA6
:1015280026089D319F257C08223E860001308700D1
:1015380081107C08233E8600013087000030C03FC0
:10154800C13F20006C08053E860001308700010875
:10155800A5006C08043E860001308700250881003C
:101568006130A5006C08043E86000130870025081C
:10157800810008006C0886000130870081126C0821
:10158800063E8600013087000108A5006C08043E6D
:10159800860001308700250881006C08093E860016
:1015A8000130870001176C0886000130870081141C
:1015B8006C0886000130870081116C0886000130B4
:1015C800870001120330A5006C08023E8600013036
:1015D8008700250881000800780886000130870008
:1015E800811220008D198116780886000130870045
:1015F800811C08007808063E860001308700403FBD
:101608002000A000413FA100780A86000130870031
:10161800403FA200413FA30021082302031D162BCF
:1016280020082202031C0800780A8600013087007F
:101638000030C03FC13F7808860001308700811A1A
:101648008A2B7808033E8600013087008108031D35
:10165800832B7808860001308700811D552B780878
:1016680086000130870081117808043E8600013029
:1016780087000108A0007808033E86000130870033
:10168800200881007808083E860001308700780825
:10169800063E840001308500403F803F413F813F46
:1016A80008007808860001308700011E7D2B780825
:1016B80086000130870001127808053E8600013057
:1016C80087000108A0007808033E860001308700E3
:1016D8002008810078080A3E8600013087007808D3
:1016E800063E840001308500403F803F413F813FF6
:1016F8000800780886000130870081100800780803
:1017080086000130870081168D150800780886004C
:101718000130870081128D117808033E8600013060
:10172800870001308102080020003108B400320827
:10173800B5003308B6000310350D360DB70037086D
:10174800BC00BC08031DAF2B0030AE000030AF005A
:101758000030B00008002E08B4002F08B50030088B
:10176800B6000310350D360DB7003708BD00BD08AB
:10177800031DC52B0030AE000030AF000030B000B4
:1017880008000030B9000030BA000030BB008930D2
:101798003D07B4003408BC023108B4003208B50073
:1017A8003308B6001030B636B50CB40C890BD72BFD
:1017B8003408B7003708BD002E08B4002F08B5005C
:1017C8003008B6001030B636B50CB40C890BE72BD0
:1017D8003408B7003708BD068030B4003408BD05AA
:1017E800B217FF30B105FF30B2050030B305AF17AF
:1017F800FF30AE05FF30AF050030B0051830B4003B
:101808003408B8000130B935BA0DBB0D890B072C67
:1018180030083302031D162C2F083202031D162C24
:101828002E083102031C1F2C2E08B1022F08B23BD0
:101838003008B33B39140130B135B20DB30D890B03
:10184800202C0130B802031D062C3908A0003A08E4
:10185800A1003B08A2003C08B4003408A3003D08DE
:10186800B5003508A4009231BB2220002008AE0044
:101878002108AF002208B000080020002E08B4009C
:101888002F08B5003008B6000310350D360DB70027
:101898003708B800B808031D582C0030AE000030D7
:1018A800AF000030B00008003108B4003208B500BD
:1018B8003308B6000310350D360DB7003708BD00E4
:1018C800BD08031D6E2C0030AE000030AF000030A4
:1018D800B00008003D087B3EB4003408B8072E0865
:1018E800B4002F08B5003008B6001030B636B50C75
:1018F800B40C890B7A2C3408B7003708BD003108BE
:10190800B4003208B5003308B6001030B636B50C4E
:10191800B40C890B8A2C3408B7003708BD06803010
:10192800B4003408BD05AF17B217FF30B105FF305A
:10193800B2050030B3050030B9000030BA000030FD
:10194800BB000730B4003408BC002E1CB12C310891
:10195800B9073208BA3D3308BB3D0130B036AF0C89
:10196800AE0C890BB22C0130B135B20DB30D890B19
:10197800B82C0130BC02031DA92C0930B40034086E
:10198800BC002E1CCD2C3108B9073208BA3D3308EB
:10199800BB3D0130B036AF0CAE0C890BCE2C0130FC
:1019A800BB36BA0CB90C890BD42C0130BC02031D10
:1019B800C52C3908A0003A08A1003B08A200380845
:1019C800B4003408A3003D08B5003508A4009231DE
:1019D800BB2220002008AE002108AF002208B0007A
:1019E80008002000A3002308A73147278C317B0873
:1019F80086008701011C08007B0886008701011901
:101A080008007B0886008701011563302000A200CA
:101A180022082100A00002302000A2002208210094
:101A2800A10020006F088600013087000130423F86
:101A38002100A20020006F088600013087000130D5
:101A4800433F2100A30020006F0886000130870073
:101A58000130443F2100A40020006F0886000130B7
:101A680087000130453F2100A50020006F0886004F
:101A7800013087000130463F2100A60020006F0892
:101A88008600013087000130473F2100A700200071
:101A98006F088600013087000130483F2100A80008
:101AA80020006F088600013087000130493F21007F
:101AB800A90020006F0886000130870001304A3FE6
:101AC8002100AA0020006F0886000130870001303D
:101AD8004B3F2100AB0020006F08860001308700D3
:101AE80001304C3F2100AC0020006F088600013017
:101AF800870001304D3F2100AD0020006F088600AF
:101B08000130870001304E3F2100AE0020006F08F1
:101B180086000130870001304F3F2100AF002000D0
:101B28006F088600013087000130503F2100B00067
:101B380020006F088600013087000130513F2100E6
:101B4800B10020006F088600013087000130523F45
:101B58002100B20020006F088600013087000130A4
:101B6800533F2100B30002302000A20022082100C8
:101B7800B40008001F309A310B228D31AA3A031D98
:101B8800362E00309A310B228D312000DD006F088F
:101B98000C3E8600013087005D08810001309A31D3
:101BA8000B228D312000DD006F080D3E86000130CC
:101BB80087005D08810002309A310B228D312000A8
:101BC800DD006F080E3E8600013087005D08810049
:101BD8006130903118208D312000DD005D08DE0075
:101BE8005E08DD006F08153E8600013087005D083D
:101BF80081005E08DD006F08163E86000130870010
:101C08005D0881005E08DD006F08173E8600013020
:101C180087005D0881006F080C3E86000130870050
:101C28000108FF3A031D08006F080D3E86000130C9
:101C380087000108FF3A031D08006F080E3E860062
:101C4800013087000108FF3A031D08007D0886005F
:101C58000130870081167D08033E86000130870029
:101C6800811408006130903118208D312000DD008A
:101C78005D08DE00FF30DD007C088600013087004B
:101C88005D088100FF30DD007C0A86000130870096
:101C98005D088100FF30DD007C08023E86000130CF
:101CA80087005D088100FF30DD007C08033E860068
:101CB800013087005D088100FF30DD007C08043EAC
:101CC8008600013087005D088100FF30DD007C0858
:101CD800053E8600013087005D088100AA30DD00DE
:101CE8007C081F3E8600013087005D0881005E0881
:101CF800DD006F08153E8600013087005D08810011
:101D08005E08DD006F08163E8600013087005D081A
:101D180081005E08DD006F08173E860001308700ED
:101D28005D0881008B139C31DE248B177D088600AB
:101D38000130870081167D08033E86000130870048
:101D4800811408002000E9006D0886000130870032
:101D5800011C0800690899312D218E31200069087D
:101D6800013A031DC32EE701E70A0C1F0C1ABD2E0A
:101D7800E7016D088600013087006708D22E6908E0
:101D8800023A031DD52EE801E80A0C1C8D18CD2E49
:101D9800E8016D0886000130870068088110031D7E
:101DA80081146D08860001308700811CAB2F6D08F7
:101DB8008600013087000119022F0130E5006D0807
:101DC800023E860001308700650881076D08023EE3
:101DD80086000130870005300102031C08006D08E9
:101DE800023E86000130870081016D0886000130BF
:101DF8008700011569089431B424080020006D0893
:101E08008600013087008119342F6D08033E860053
:101E1800013087000130810741310318810A6D08BC
:101E2800033E860001308700403FE500413FE60061
:101E380000306602963003196502031C08006D081D
:101E4800033E8600013087000030C03FC13F6D0867
:101E5800860001308700811569089B31B723080087
:101E680020006D08860001308700011A782F6D0860
:101E7800053E860001308700013081074131031893
:101E8800810A6D08053E860001308700403FE50065
:101E9800413FE60000306602963003196502031CD4
:101EA80008006D08053E8600013087000030C03FFD
:101EB800C13F6D088600013087000116A201A20A01
:101EC8000130A731F2278E317D08033E86000130AC
:101ED8008700811C080064302000A6000030A7009D
:101EE800023096310426080020006D088600013073
:101EF8008700811A08006D08073E860001308700B8
:101F08000130810741310318810A6D08073E8600B8
:101F180001308700403FE500413FE600013066029E
:101F28002C3003196502031C08006D08073E860063
:101F3800013087000030C03FC13F6D088600013086
:101F480087008116A2010130A731F227080020007E
:101F58006D08860001308700011D08000130E5008A
:101F68006D08023E860001308700650881076D080C
:101F7800023E86000130870005300102031C08007C
:101F88006D08023E86000130870081016D088600D9
:101F98000130870001116D08033E8600013087007B
:101FA8000030C03FC13F6D088600013087008111B5
:101FB8006D08053E8600013087000030C03FC13FF4
:101FC8006D0886000130870001126D08073E860003
:101FD800013087000030C03FC13F6D0886000130E6
:101FE800870081126908953193258E312000A2015E
:081FF8000130A731F2270800B7
:102002007830210099009A3124229031A731CA27D1
:102012009031A631F1269031A631D8269031A731E0
:10202200BD27A0302000A1002108FC0008002000EC
:10203200D9000030DA008630DB004230DC000030AC
:10204200AE00C830AF004230B0005A08B1005B08A1
:10205200B2005C08B3008B319823903120002E0827
:10206200DA002F08DB003008DC0059089F3EA80088
:10207200FF3003180030A9009B3108239031200063
:102082002808B1002908B2002A08B3005A08AE0095
:102092005B08AF005C08B0008B31982390312000C0
:1020A2002E08CB002F08CC003008CD0097317927BD
:1020B20020004B03FF3A643E08002000AB002B08CF
:1020C200A7314727903121002C082000AA006F0871
:1020D2000C3E8600013087002A08810021002D086D
:1020E2002000AA006F080D3E8600013087002A08F2
:1020F200810021002E082000AA006F080E3E8600F3
:10210200013087002A0881006430A6000030A70051
:1021120001309631042690317B0886008701011335
:102122007D08033E860001308700811C9E287C08C2
:10213200223E86000130870001157C08223E86007F
:1021420001308700011408002000E8006808A73168
:10215200472790317B0886008701011FBC28210098
:10216200A008031D08002108643A031D080001307D
:1021720090315E2008002100A008031D08002108FC
:10218200023A031D08002C08FF3A031DD2282D082D
:10219200FF3A031DD2282E08FF3A031DD228000061
:1021A200080020006F080C3E8600013087002100E5
:1021B2002C080106031D080020006F080D3E860052
:1021C2000130870021002D080106031D08002000B0
:1021D2006F080E3E86000130870021002E0801069E
:1021E200031D0800013089312E2108002000A500BE
:1021F200250899310721903120006C0886000130B2
:102202008700811E08006C0886000130870081105B
:102212006C0886000130870081116C08860001304D
:10222200870001126C088600013087000113033019
:10223200A4006C08023E8600013087002408810059
:102242006C08063E8600013087000108A4006C0875
:10225200043E8600013087002408810021003908ED
:102262008600870101142000A001A00A25089D31E3
:102272006E2590312000A201A20A250892315D222A
:1022820090312000A201250898317720903120005A
:10229200A201250898316820080099311A2191314C
:1022A2009031012091318D31BE259131A73198278E
:1022B2009131A73131279131A731B0279131A63120
:1022C200FF269131993156219131A731D72791318A
:1022D200A631CB2691319931412191317D08860079
:1022E20001308700011C7C2905308931C1219131DF
:1022F2008A31F02291317D08860001308700811CED
:102302006F297D08860001308700811095312325D1
:1023120091317D08860001308700011C6F299E31B2
:10232200F2269131A731A427913180314F2091318A
:10233200A7315D279131A73117279131A631CF26D9
:102342009131A731072791316F292000DB0000303E
:10235200DC008630DD004230DE000030AE00C830E6
:10236200AF004230B0005C08B1005D08B2005E0808
:10237200B3008B319823913120002E08DC002F0806
:10238200DD003008DE005B08D900DA01D909DA097C
:10239200D90A0319DA0A5908643EA80000305A3DE6
:1023A200A9009B310823913120002808B100290897
:1023B200B2002A08B3005C08AE005D08AF005E08F8
:1023C200B0008C314124913120002E08C1002F0829
:1023D200C2003008C3000030BE00C230BF0042302D
:1023E200C00087310027913120003E08CB003F0812
:1023F200CC004008CD009731792720004B08080017
:102402002000A70027089931C22192312100380803
:1024120086008701011C0800380886008701200019
:1024220023088110031D811423080319432A240859
:102432009C31B02492312000A5002100380A860088
:1024420087012000250881000F302405A5002508FA
:10245200053A0319302A24080F39031D362A26307B
:1024620024020318362A2408372A0530A500270833
:102472001A3E6F07A600260886000130870025084D
:1024820081004F2AA308031D4F2A27081A3E6F070F
:10249200A500250886000130870081012100380847
:1024A200023E860087010030C03FC13F3808043E2B
:1024B20086008701810108002000A30023089B31C8
:1024C2002A2392312000A208031D792A2308013A07
:1024D200031D6D2A8C1508002308023A031D732A76
:1024E2008E1708002308633A031D08008D160800A2
:1024F2002208013A031D8F2A2308013A031D832A69
:102502008C1108002308023A031D892A8E13080041
:102512002308633A031D08008D12080022080A3AB4
:10252200031DB12A21003B088600870181103B0A66
:10253200860087010030C03FC13F20002308013AD6
:10254200031DA52A8C1508002308023A031DAB2A95
:102552008E1708002308633A031D08008D16080031
:1025620022080B3A031D080021003B088600870160
:1025720081140800200023080319C42A2208210418
:102582002004031DD52A0030A0000030A100003035
:10259200A20008000130A5002508A3070130A236D9
:1025A200A10CA00C890BD02AFE3022050319EE2AB9
:1025B200CB2A0130A5002508A3070130A00700306F
:1025C20003180130A107003003180130A2070130BF
:1025D200A236A10CA00C890BE92AFF3022050319AF
:1025E200FB2ADA2A0130A3020130A035A10DA20D87
:1025F200890BF62AA11FF32A2318052BFF30A00509
:102602007F30A105FF30A2050310A30C2308A5000B
:10261200A601A7011030A535A60DA70D890B0C2B1D
:102622002508A0042608A1042708A20424080319E7
:102632000800A21708002000AA002A08013A031D78
:10264200322B9931AC219331003A03194A2B2C30A9
:102652002000A6000130A7000A30963104269331EB
:102662004A2B20002A08023A031D452B2C30A600D3
:102672000130A70005309631042693312100390A32
:102682008600870101084F2B20002A08033A031D08
:10269200522B01309031F720933102309031F720E4
:1026A20093312000A20101309C3158249331200043
:1026B200A20102309C31582493317D08033E8600EA
:1026C20001308700011808007D080E3E86000130A7
:1026D200870001107D080E3E8600013087008110C0
:1026E2007D080E3E86000130870001157D08083EF8
:1026F2008600013087000030C03FC13F0800200043
:102702000D180D18822B3B309A315722933121003C
:1027120043080319D62B20000E12FF30A400240810
:102722002100BF0020000E19932B9931D92193313A
:102732009A318E22933121003F082000A400240800
:102742002100BE002000A50121003E082000250234
:102752000318BD2B9A318E22933121003F082000AD
:10276200A4002508A03E86008701240881000130CC
:10277200A4002408A507A52B9A318E2293312100AB
:102782003F082000A40024082100BD009A318E22B7
:10279200933121003F082000A40024082100B70043
:1027A20020000E162100B71B701536309831862096
:1027B20093313A309831862093312000A2010130C2
:1027C200A731E42708002000A601203026020318C2
:1027D200012C26089A310B2293312000A4002608EE
:1027E2007C07A500250886000130870024088100A7
:1027F2000130A4002408A60720302602031CEA2B7D
:102802006F080C3E8600013087000108A4007C0896
:10281200860001308700240881006F080D3E860083
:10282200013087000108A4007C0A8600013087007D
:10283200240881006F080E3E8600013087000108DF
:10284200A4007C08023E8600013087002408810033
:102852007C08223E860001308700011D412C7C0845
:10286200223E86000130870001117D08860001307A
:10287200870081127D08033E8600013087008110A7
:102882008B13A7318C2793319C31DE248B170800E0
:102892002000E100E001E00A6108FF3E890A532CB2
:1028A2000310E00DFF3E031D512C6108DE006F088E
:1028B2000B3E8600013087005E0881006130903156
:1028C200182094312000DE006108143E6F07DF00FB
:1028D2005F088600013087005E0881006108143EAF
:1028E2006F07DE005E088600013087000108DF0006
:1028F2006F08093E8600013087005F088100610889
:102902001A3E6F07DE005E0886000130870001086C
:10291200DF006F08113E8600013087005F088100EA
:102922005D080319A42C6F080F3E86000130870052
:1029320001086004DE006F080F3E86000130870048
:102942005E08810008006F080F3E86000130870094
:1029520060090105DE006F080F3E86000130870026
:102962005E08810008002000E300E201E20A630839
:10297200013A031DBE2C7A08C32C6308023A031DD8
:10298200CE2C7908093E8600013087000310011D14
:102992000314003003180130E20062080319080032
:1029A2006D0886000130870081176430A600003070
:1029B200A700013096310426943120006D0886006C
:1029C20001308700011B102D6D0886000130870041
:1029D2000117A201A20A63089831682094312000ED
:1029E200A201A20A63089831A62094312000A20114
:1029F200A20A630898319620943120006D0886005F
:102A0200013087000030011B0130DD006308943182
:102A12004924943101308C31F52420000800200033
:102A22006D0886000130870001136D0886000130B1
:102A320087000030011B0130A20063089831682032
:102A4200200008007D088600013087000118682DEB
:102A52007D0A860001308700013081074131031869
:102A6200810A7D0A860001308700403F963A031DA5
:102A72003C2D413F003A031D08007D0A86000130CB
:102A820087000030C03FC13F7D08860001308700CB
:102A9200011401309831C620953132302000A60051
:102AA2000030A70003309631042695317D08033E9D
:102AB200860001308700011401309A31722295316B
:102AC2002000A201A20A01309C312E2408007D08B8
:102AD200063E86000130870001308107413103182C
:102AE200810A7D08063E860001308700403F643A35
:102AF200031D7D2D413F003A031D08007D08063E5F
:102B02008600013087000030C03FC13F7D0886004B
:102B120001308700811908007D0886000130870096
:102B2200811508002000E4006D088600013087004E
:102B3200811F08006D0886000130870081136D082F
:102B4200860001308700011FDF2D6D0A86000130EB
:102B52008700011C08006D0A860001308700011001
:102B6200A201A20A64089831E62095312000A20150
:102B720064089831D6209531200064081A3E6F0708
:102B8200E20062088600013087000108E3006F0856
:102B9200113E860001308700630881006D088600BF
:102BA200013087000030011B0130DD0064089431E0
:102BB2004924953101308C31F52408002000A2010E
:102BC200A20A64089831A62095312000A201640867
:102BD2009831962095312000A301A4016408923116
:102BE2000122953120006D088600013087000030F7
:102BF200011B0130DD006408943149249531013014
:102C02008C31F52408002000A9001430A000003007
:102C1200A1002708A301A3072608A201A2079A314F
:102C2200AB22963120002108A701A7072008A601A0
:102C3200A6077808860001308700011C0800780882
:102C420086000130870081183F2E78088600013007
:102C5200870081142908A8007808033E8600013005
:102C62008700280881007808063E86000130870028
:102C72002608C03F2708C13F8D1508007808860046
:102C82000130870081195D2E7808860001308700A7
:102C920081152908A8007808043E860001308700C3
:102CA200280881007808083E86000130870026083F
:102CB200C03F2708C13F080078088600013087001E
:102CC200011A0800780886000130870001162908D9
:102CD200A8007808053E8600013087002808810098
:102CE20078080A3E8600013087002608C03F270880
:102CF200C13F08002000E40064089931C2219631E6
:102D02002100380886008701811C08003808023E2D
:102D1200860087010130810741310318810A380892
:102D2200023E86008701403F2000E200413FE3006F
:102D320016306302123003196202031C08002100DC
:102D42003808023E860087010030C03FC13F013093
:102D52002000E20021003808043E8600870120009E
:102D62006208810721003808043E86008701380A7C
:102D72008400850100080102031C08003808043E93
:102D820086008701810138088600870181102000B2
:102D9200A20164089831772096312000A2016408CC
:102DA2009831682096312000DD016408943149246D
:102DB20096312000A201A20A64089831A620963119
:102DC2002000A201640898319620963101308C319E
:102DD200F524963164302000A6000030A7000130AF
:102DE2009631042608002000E600E501E50A66089F
:102DF20099310721963120006608013A031D032FFD
:102E02007A08082F6608023A031D102F79080C3E33
:102E1200860001308700003001180130E5006C089F
:102E2200093E860001308700811C462F6508031980
:102E320008006C08093E860001308700011C342F0F
:102E42006C08093E8600013087008110A401A40AA3
:102E520066088A31572220006C080C3E8600013039
:102E62008700011008006C08093E860001308700C7
:102E72008110A40166088A31572220006C080C3E9A
:102E8200860001308700011008006C08093E8600A8
:102E920001308700811D08006508031908006608D3
:102EA20099310721963120006C08093E86000130D5
:102EB200870081116C08093E860001308700011DE0
:102EC200722FE201E20A66089F3178279631643058
:102ED2002000A6000030A700013096310426200011
:102EE20008002000E20166089F31782720000800D0
:102EF20020004B08CF004C08D0004D08D100031031
:102F0200500D510DD2005208D800D808031D922F3F
:102F12000030CE000030CD000030CC000030CB00BD
:102F220008004B08CF004C08D0004D08D1001730E4
:102F3200D136D00CCF0C890B992F4F08D2005208F2
:102F4200D300CC17FF30CB05FF30CC050030CD05C8
:102F52004B08D4004C08D5004D08D600D7018E305E
:102F6200D802D81FD02F5808803A8F3E0318C22F9C
:102F72000030CE000030CD000030CC000030CB005D
:102F820008000130D736D60CD50CD40C890BC32FD0
:102F92000130CF004F08D8070319E92FC22F18308C
:102FA2005802031CE62F0030CE000030CD00003066
:102FB200CC000030CB0008000130D435D50DD60D41
:102FC200D70D890BDE2F0130D802D808031DDD2F63
:102FD20053080319F72FD409D509D609D709D40AFA
:102FE2000319D50A0319D60A0319D70A5708CE00BE
:102FF2005608CD005508CC005408CB000800033415
:10300200163417341E341F3420342A342B340B3434
:103012000C340D340E340F34103411341234133492
:1030220014340A34153421342234183419341A343D
:103032001B341C341D3423342434253426342934DF
:103042002C342D342E340034013402340734083445
:103052000934063404340534273428340734073459
:10306200303487346B34F8347F343F3409340034DD
:103072005C34A73462348634833403342234F83423
:1030820000344434B634103418341D341C34C7347C
:103092000034B234EA340A340034113459348834F6
:1030A20031340B342F342E340634043405340034D6
:1030B2003034D334913441340034FE34FE34FE349F
:0A30C200FE34FE34FE34FE34FE340A
:1030D0002000A30023089931962121003C08860096
:1030E0008701200022080110031D011408002000A0
:1030F000A300230899312D2120006D08860001309E
:10310000870022080113031D011708002000A300F7
:103110000E122308A20022082100BF0020000E1971
:103120008E289931D92120000E1608002000A30016
:1031300023089931072120006C08093E86000130E0
:10314000870022080110031D011408002000A300BD
:1031500023089931072120006C08093E86000130C0
:10316000870022088110031D811408002000A3009D
:1031700023089931072120006C080C3E860001309D
:10318000870022080110031D011408002000A00080
:103190006E0886000230870020080110031D01140C
:1031A0006E08860002308700811008002000A3000E
:1031B00023089931072120006C08093E8600013060
:1031C000870022080111031D011508002000A3003B
:1031D00023089931072120006C08093E8600013040
:1031E000870022088111031D811508002000A4001A
:1031F00024089B312A23983121003B08860087014F
:1032000001142000A201240892315D220800200050
:10321000A1002108013A031D11293030A000200827
:10322000EC002108023A031D08003F30A0002008EE
:10323000EC000800C5302000A0002008EF0002309C
:10324000A0006F08143E860001308700200881002E
:103250002030A0002008FD0008002000A100210867
:10326000013A031D38295A30A0002008ED0008005B
:103270002108023A031D08006330A0002008ED0079
:1032800008009D310D2599319C31042499319A31E2
:10329000C9229931A631C3269931A631BF26993169
:1032A000A73180279931A631C72608003030200089
:1032B000A4002408F90001309C31832499313F3067
:1032C0002000A4002408FA0002309C3183249931A4
:1032D000A631EA2608002000A1002108A0006E08FF
:1032E0003A3E860002308700200881002108A000B5
:1032F0006E08423E860002308700200881000800E8
:103300008B1D08002700161D080016110B107D08E4
:10331000860001308700011C080021003908023EA8
:103320008600870181019D31D12508002000A10080
:103330002108013A031DA129E730A000200821003F
:10334000BC0020002108023A031D0800E830A0005C
:1033500020082100BC0008002000A101A201A20A4F
:103360007908860001308700011BBC297A08860095
:1033700001308700011FA2012208A0002008A1003F
:10338000210808002000A1002108013A031DCE29D0
:10339000CB30A00020082100B80008002000210840
:1033A000023A031D0800D030A00020082100B80018
:1033B00008002000A10108302102031808002100A4
:1033C000BF1FE52920000E14E72920000E108E14DF
:1033D00003102100BF0D20008E100130A000200836
:1033E000A107DB292000A4000E122408A300230853
:1033F0002100BF0020000E19FA299931D9219931F5
:1034000020002208A30023082100BF009931D92100
:1034100020000E1608002000A200A3013030230077
:10342000920020002208230091001513151414089F
:103430002000A0002008A100230013082000A00005
:103440002008A30023080800773021008C000730F3
:103450008D000C308E0022008C0102308D008E0118
:10346000223023008C008D018E01773020008C00EB
:1034700007308D000C308E000800210039088600CE
:103480008701011C08003908860087010110993165
:10349000AC219A310038031D08000030A7315227B3
:1034A0007C08223E8600013087008114080020003D
:1034B000A3000E122308C03EA20022082100BF0074
:1034C00020000E19602A9931D9219A319A318E2221
:1034D00020000E1621003F082000A2002208210033
:1034E000C30008002000A200013099312D219A313B
:1034F00020006D0886000130870022080110031D9E
:103500000114023099312D2120006D088600013010
:10351000870022080110031D011408002000A101EA
:1035200008302102031808008E1403102100BF0D7B
:1035300020000E1D9E2A21003F14A42AFE302000E8
:10354000A00020082100BF0520008E100130A0003F
:103550002008A107902A2000A401A501201CB42A5C
:103560002208A4072308A53D0130A235A30D890B2D
:10357000B52A0130A136A00C890BBA2A21082004F3
:10358000031DAE2A2508A101A1072408A001A00758
:1035900008002000A70108302702031808002708A8
:1035A0005E3E840098300318013E85000008A500A7
:1035B0002508A6002608A5002508A2003E3099315E
:1035C000F2219A3101302000A5002508A707CB2A57
:1035D00063340234003400340034003400340034E6
:1035E0000034003400340034FF34FF34FF3400343E
:1035F000003400340034003400340034003400342B
:10360000003400340034003400340034003400341A
:103610002000AD01A91F132BA809A909A80A0319A5
:10362000A90AAD01AD0A2808A0002908A100A2013D
:103630008E30AB002B08A3002D08AC002C08A40092
:103640009231BB2220002008A8002108A9002208EE
:10365000AA0008002000A1002108013A031D362B12
:10366000D930A00020082100BB000800200021085C
:10367000023A031D412BDD30A00020082100BB00D1
:10368000080020002108633A031D0800D530A0007F
:1036900020082100BB0008002000A1010530210204
:1036A000031808002135083E6E07A0002008860098
:1036B000023087000030C03FC13F21351A3E6E07FF
:1036C000A0002008860002308700FF30C03FFF3096
:1036D000C13F0130A0002008A1074E2B2000E000D0
:1036E0006008993107219B3120006C088600013069
:1036F000870001156C0886000130870081146F086F
:10370000093E86000130870001089131A621200082
:10371000DF006C08053E8600013087005F088100ED
:10372000080001302000A2000030A300210823027D
:10373000031D9C2B2008220203180800A401A501E8
:10374000003025020230031924020318B22B013085
:10375000A4070030A53D00302502023003192402E1
:10376000031CA72B0130A2070030A33D962B20009D
:10377000A4006D08860001308700811F08006D0AD3
:1037800086000130870001146D0886000130870033
:103790000117A201A20A2408983168209B31200059
:1037A000A201A20A24089831E6209B312000A20140
:1037B000A20A24089831D62008002000A40024087A
:1037C000A73147279B317B0886008701811D0800B0
:1037D0007B088600870181117B08860087018110A4
:1037E0007B0A8600870181017B08860087018112A0
:1037F0003630983186209B313A30983186209B3183
:103800000030A731282708002000A8012F30280207
:10381000031808002808003E840098300318013E71
:1038200085000008A5002508A60028082F3E840072
:1038300098300318013E85000008A5002508A70060
:103840002708A5002508A20026089931F2219C31FD
:1038500001302000A5002508A807062C2000A300A1
:103860002308A73147279C317B0886008701200069
:1038700022080110031D01147B0886008701011333
:103880007B088600870101117B0886008701811172
:103890007B088600870181107B0A860087018101F1
:1038A0007B088600870181120030A7312827080095
:1038B0002000A30023089931072120006C08093E4D
:1038C00086000130870022088110031D81146C08D6
:1038D000093E86000130870022080110031D0114F3
:1038E0006C08093E86000130870022088111031D03
:1038F00081156C08093E86000130870022080111FD
:10390000031D011508002000A30023089931072199
:1039100020006C080C3E86000130870001146130E5
:10392000A2006C08053E8600013087002208810055
:103930001E30A2006C08063E860001308700220877
:1039400081006C08053E8600013087000108A20056
:103950006C08043E860001308700220881000800C0
:103960002000A2000530A0002008A1002208053A8E
:10397000031DBC2C0530D92C2208103A031DC22C83
:103980000A30D92C2208153A031DC82C0F30D92C27
:103990002208203A031DCE2C1430D92C2208253AB7
:1039A000031DD42C1930D92C2208303A031DDC2CED
:1039B0001E30A0002008A1002108080023001513D4
:1039C0003030920094011512951615152000A101B2
:1039D000203021020318062D210823009100200029
:1039E00021087C07A000200886000130870001081C
:1039F00023009300A7311F279C3101302000A00035
:103A00002008A10720302102031CEC2C2300951272
:103A1000A7311F2723001511080020008E100E105B
:103A20000E160A30A0000030A1009B3191239D3179
:103A300020000E120A30A0000030A1009B3191231B
:103A40009D3120000E162830A0000030A1009B31CF
:103A500091239D3120000E123030A600260821004F
:103A6000BF0020000E19312D9931D9219D31200040
:103A70000E19372D0E100E160800F20020006E08E9
:103A8000463E86000230870071088110031D8114B4
:103A90006E08423E860002308700023081027208C2
:103AA000013A031D592D6E08433E860002308700FF
:103AB00081017208023A031D632D6E08443E8600A0
:103AC0000230870081017208033A031D08006E0866
:103AD000453E860002308700810108002000A100D9
:103AE0006E08463E86000230870020088110031DC4
:103AF00081146E08423E8600023087000230810247
:103B00002108013A031D8A2D6E08433E86000230CB
:103B1000870081012108023A031D942D6E08443E5E
:103B200086000230870081012108033A031D080046
:103B30006E08453E860002308700810108002000A3
:103B4000A1006E0886000230870081146E08463E90
:103B500086000230870020080110031D011421088F
:103B6000013A031DBA2D6E08433E860002308700DD
:103B70008101810A2108023A031DC52D6E08443EC9
:103B80008600023087008101810A2108033A031D63
:103B900008006E08453E8600023087008101810AD8
:103BA0000800FF302000950079088600013087006A
:103BB0000118EC2D7908093E860001308700811A32
:103BC000EC2D790886000130870001147908860001
:103BD00001308700011B8C177A08860001308700AE
:103BE000011808007A08093E860001308700811A12
:103BF00008007A0886000130870001147A088600E0
:103C000001308700011F08000D1608002000E300A6
:103C1000653021002902031C132E64302000E100CE
:103C200061082100A90029082000E1006F08093E71
:103C3000860001308700610881006308E1006F0899
:103C40000B3E860001308700610881006F08093E45
:103C50008600013087000108E1006308143E6F0709
:103C6000E200620886000130870061088100630875
:103C70009B316E2308002000A501A6012108200425
:103C800003196B2EA701A70AA11B502E0130A035E6
:103C9000A10D890B472E0130A4002408A707442E4C
:103CA0000130A535A60D890B512E21082302031DD5
:103CB0005B2E20082202031C622E2008A20221088B
:103CC000A33B25140130A136A00C890B632E0130D3
:103CD000A702031D502E2608A101A1072508A00157
:103CE000A00708002000A40024089B312A239E314D
:103CF00021003B0886008701811C08003B0A8600E2
:103D000087010130810741310318810A3B0A86008F
:103D10008701403F2000A200413FA3000030230262
:103D2000323003192202031C080021003B0A8600DE
:103D300087010030C03FC13F20002408013A031D25
:103D4000A42E08308C0608002408023A031DAB2E6E
:103D500080308E0608002408633A031D08002030D6
:103D60008D0608002000E6006608993196219E31F4
:103D700021003C0886008701011CCA2E7C08223ED7
:103D80008600013087000114200066089E31062657
:103D90009E31DC2E20006608143E6F07E4006408A4
:103DA0008600013087000108E5006F08093E8600A3
:103DB0000130870065088100200066081A3E6F0701
:103DC000E40064088600013087000108E5006F0800
:103DD000113E8600013087006508810001308C317A
:103DE000F52408007C08223E860001308700811CF3
:103DF00008007C08223E860001308700011C2E2F1F
:103E00007C08233E86000130870001308107413164
:103E10000318810A7C08233E860001308700403F5A
:103E2000193A031D152F413F003A031D08007C0875
:103E3000233E8600013087000030C03FC13F7C0830
:103E4000223E86000130870001107C08223E860059
:103E50000130870081109331E42308007C08223E62
:103E6000860001308700811008002000AC006E0839
:103E70008600023087002C088112031D81162C0950
:103E80000139AB006E08860002308700AB0DAB0D28
:103E9000AB0D01082B06F7392B0681002C08AB006F
:103EA0006E08053E8600023087002B0881002C0832
:103EB00003195E2F023093311C239F3120002C0800
:103EC0000A3EAB002B08A200633092315D229F3185
:103ED00020002C0901399A3172229F3120002C09CF
:103EE0000139AB002B08A20001309C312E240800C0
:103EF0002000E4006408993107219F312000620806
:103F000003198D2F6C0886000130870081156C081D
:103F1000860001308700811408006C08860001309B
:103F20008700811D08006C08860001308700811021
:103F30006C088600013087008111A001A00A0030C2
:103F40009D316E259F3120006C08043E86000130B3
:103F500087000108E3006C08053E860001308700F9
:103F600063088100DD01DD0A6408943149249F3132
:103F700001308C31F524080020000E127F30A4009F
:103F800024082100BF0020000E19C32F9931D92128
:103F90009F31210040082000A40024082100BF0018
:103FA0009931D9219F312000A5012100400820002E
:103FB00025020318ED2F2508A03E86008701010881
:103FC000A40024082100BF009931D9219F3101307C
:103FD0002000A4002408A507D52F0E1635309831EF
:103FE00086209F3120000D1CF22F0D18F52F363042
:103FF000983186209F313B3098318620F01608009A
:104D7E003A309831862008003B3098318620080062
:104D8E0036309831862008000130A631F82608000A
:104D9E00013088311620080020008E1A08008E1669
:104DAE00D32E24000D100B160B178B170800FE00C8
:104DBE0012001E00FE0BDF2E003464008001013154
:104DCE00890BE52E0034E1302000A00020082100E0
:104DDE00B9000800F23021009E00C030220097007A
:104DEE00080015302000A00020082100C000080097
:104DFE000130A7313C27A6310230A7313C270800ED
:104E0E00013096317B26A731023096317B26080081
:104E1E002000A400A201A20A240892315D220800FB
:104E2E0001308E31A626A73102308E31A62608001B
:104E3E00553023009600AA3096009514000000000D
:104E4E0008002000A0008B10201C2F2F0B1608002E
:104E5E000B1208004E302000A0002008F800780841
:104E6E00860001308700011408002000A2002208ED
:104E7E009931C221210038088600870101140800EB
:104E8E002000A1002108013A031D0800E430A00013
:104E9E002008FB0008002000A0006E0886000230EB
:104EAE00870020088110031D8114080001309631FF
:104EBE00F426A73102309631F426A7319A313D22DD
:104ECE000800F40074088731F6277B0886008701F6
:104EDE0073088110031D811408000B1E08008B1C23
:104EEE0008008B100B12F301F30A0130A73168276B
:104EFE000800333098318620A731E8302000A0001A
:104F0E000330A1009B31912308002300151330308C
:104F1E009200910115161515A7311F2723001511A3
:104F2E00080001309831F620A73102309831F62072
:104F3E00A73163309831F620080001309E31722679
:104F4E00A73102309E317226A73163309E31722610
:104F5E00080020302000A2002208EE006E08860015
:104F6E000230870081159B314C23080024000D115F
:104F7E000430270094000430950096018B150B1019
:104F8E000B178B170800C4302000A000200821004A
:104F9E00E9009501A630200095008B168B170800AE
:104FAE00A631D326A73124008D100130A7310F274B
:104FBE00A7310230A7310F2708002000A3002308D5
:104FCE00A73147277B088600870120002208811120
:104FDE00031D811508002000A3002308A7314727D1
:104FEE007B0886008701200022080113031D01178C
:024FFE000800A9
:020000040001F9
:04000E00E4F9FDFF15
:00000001FF
