:100000008431CA2C00000800803120007F08F300F2
:100010008B1D0B280C2832280B1C0F281028322887
:100020002700161D14281528322816110B10000061
:1000300020006D08860001308700011C202821283F
:100040003228FF30950079088600870101147A086C
:100050008600870101143D088600013087000114E5
:10006000322832288B1E35283628B42C0B1D39280F
:100070003A28B42CA630200095000B117908860090
:100080008701011C4428452874280130F2007908B2
:10009000043E86008701720881077908043E8600C5
:1000A00087017908053E8400850100080102031CD0
:1000B0005A285B289E297908043E86008701810121
:1000C00079088600870101107908083E86008701BB
:1000D0000114790886008701011F6F2870289E2966
:1000E0008C179E299E299E297908083E8600870143
:1000F000011C7B287C287F297908083E860087011F
:100100000110790886008701811C872888287F29AB
:100110000130F2007908023E8600870172088107EB
:100120007908023E860087017908033E8400850134
:1001300000080102031C9D289E287F297908023EA1
:10014000860087018101790886008701811DA92821
:10015000AA28E228790886008701011AB028B12868
:10016000C8287908053E8600870126300102031C55
:10017000BA28BB28C2287908053E860087010130CD
:1001800081027F2979088600870101167F297F294E
:100190007908053E860087016E3001020318D128D8
:1001A000D228DB280130F2007908053E860087015D
:1001B000720881077F2979088600870101127F294B
:1001C0007F297F29790886008701011DE828E92811
:1001D0002E297908063E860087017908053E8400AD
:1001E0008501000801020318F628F728FE2879087F
:1001F000053E860087010130810216297908053EF7
:10020000860087017908063E840085010008010206
:1002100003180B290C2916290130F2007908053E34
:100220008600870172088107162916297908063E7B
:10023000860087017908053E8400850100080106D3
:10024000031D232924297F297908860087010111AC
:1002500079088600870181107F297F297908860027
:100260008701811E342935294F297908053E8600EA
:100270008701013081027908063E860087017908EE
:10028000053E8400850100080102031C4829492914
:100290007F2979088600870181107F297F29013015
:1002A000F2007908053E8600870172088107790807
:1002B000053E860087017908073E84008501000815
:1002C0000102031C642965297F29790886008701BA
:1002D0008110790886008701011300009A314B22B2
:1002E000803101309D317A2580319B311E23803150
:1002F0007F297F297F297F297F297F297F29200046
:100300008C1F832984299E290130F2007908093E37
:1003100086008701720881077908093E86008701F7
:100320000108003A0319952996299E297908093E62
:100330008600870181018C139E299E297A088600F8
:100340008701011CA429A529D4290130F2007A08CB
:10035000043E86008701720881077A08043E860001
:1003600087017A08053E8400850100080102031C0C
:10037000BA29BB29FE2A7A08043E8600870181013A
:100380007A088600870101107A08083E86008701F6
:1003900001147A0886008701011FCF29D029FE2A7F
:1003A0008D14FE2AFE2AFE2A7A08083E860087015E
:1003B000011CDB29DC29DF2A7A08083E8600870138
:1003C00001107A0886008701811CE729E829DF2AC5
:1003D0000130F2007A08023E860087017208810728
:1003E0007A08023E860087017A08033E8400850170
:1003F00000080102031CFD29FE29DF2A7A08023EBB
:100400008600870181017A0886008701811D092AFB
:100410000A2A422A7A0886008701011A102A112A1C
:10042000282A7A08053E8600870126300102031C2F
:100430001A2A1B2A222A7A08053E860087010130E3
:100440008102DF2A7A08860087010116DF2ADF2A67
:100450007A08053E860087016E3001020318312AB2
:10046000322A3B2A0130F2007A08053E86008701D5
:1004700072088107DF2A7A08860087010112DF2AC5
:10048000DF2ADF2A7A0886008701011D482A492AC7
:100490008E2A7A08063E860087017A08053E840087
:1004A0008501000801020318562A572A5E2A7A0895
:1004B000053E8600870101308102762A7A08053ED2
:1004C000860087017A08063E840085010008010243
:1004D00003186B2A6C2A762A0130F2007A08053E4E
:1004E0008600870172088107762A762A7A08063EF6
:1004F000860087017A08053E840085010008010610
:10050000031D832A842ADF2A7A08860087010111C5
:100510007A08860087018110DF2ADF2A7A088600A0
:100520008701811E942A952AAF2A7A08053E860003
:100530008701013081027A08063E860087017A0829
:10054000053E8400850100080102031CA82AA92A8F
:10055000DF2A7A08860087018110DF2ADF2A01302E
:10056000F2007A08053E86008701720881077A0842
:10057000053E860087017A08073E84008501000851
:100580000102031CC42AC52ADF2A7A0886008701D3
:1005900081107A0886008701011300009A314B22EE
:1005A000803101309D31B12580319B311E23803156
:1005B000DF2ADF2ADF2ADF2ADF2ADF2ADF2A2000DC
:1005C0008D1CE32AE42AFE2A0130F2007A08093E53
:1005D00086008701720881077A08093E8600870134
:1005E0000108003A0319F52AF62AFE2A7A08093E7C
:1005F0008600870181018D10FE2AFE2A3D088600B3
:1006000001308700011C052B062B3C2B0130F2002A
:100610003D08043E860001308700720881073D08CE
:10062000043E8600013087003D08053E840001300D
:10063000850000080102031C1E2B1F2B8E2C3D0879
:10064000043E86000130870081013D0886000130AC
:10065000870001103D08083E860001308700011424
:100660003D08860001308700011F372B382B8E2C68
:100670000D168E2C8E2C8E2C3D08083E86000130E7
:100680008700011C442B452B6B2C3D08083E86003F
:100690000130870001103D08860001308700811C71
:1006A000522B532B6B2C0130F2003D08023E86008A
:1006B00001308700720881073D08023E8600013044
:1006C00087003D08033E84000130850000080102D8
:1006D000031C6B2B6C2B6B2C3D08023E86000130FB
:1006E000870081013D08860001308700811D792B3C
:1006F0007A2BB92B3D08860001308700011A812B27
:10070000822B9C2B3D08053E860001308700263059
:100710000102031C8C2B8D2B952B3D08053E86007A
:1007200001308700013081026B2C3D0886000130CA
:10073000870001166B2C6B2C3D08053E86000130AE
:1007400087006E3001020318A62BA72BB12B0130B6
:10075000F2003D08053E86000130870072088107DF
:100760006B2C3D0886000130870001126B2C6B2C2E
:100770006B2C3D08860001308700011DC02BC12B6A
:10078000102C3D08063E8600013087003D08053EDE
:10079000840001308500000801020318D02BD12B02
:1007A000D92B3D08053E86000130870001308102CB
:1007B000F42B3D08053E8600013087003D08063ECB
:1007C000840001308500000801020318E82BE92BA2
:1007D000F42B0130F2003D08053E86000130870011
:1007E00072088107F42BF42B3D08063E8600013089
:1007F00087003D08053E84000130850000080106A1
:10080000031D032C042C6B2C3D088600013087004F
:1008100001113D0886000130870081106B2C6B2C84
:100820003D08860001308700811E172C182C362CBD
:100830003D08053E860001308700013081023D08F9
:10084000063E8600013087003D08053E84000130E9
:10085000850000080102031C2E2C2F2C6B2C3D0858
:1008600086000130870081106B2C6B2C0130F20068
:100870003D08053E860001308700720881073D086B
:10088000053E8600013087003D08073E84000130A8
:10089000850000080102031C4E2C4F2C6B2C3D08D8
:1008A00086000130870081103D08860001308700F6
:1008B000011300009A314B22803101309D31E8252F
:1008C00080319B311E2380316B2C6B2C6B2C6B2C5D
:1008D0006B2C6B2C6B2C20000D1E6F2C702C8E2C17
:1008E0000130F2003D08093E8600013087007208A1
:1008F00081073D08093E8600013087000108003A63
:100900000319832C842C8E2C3D08093E860001306F
:10091000870081010D128E2C8E2C8E2C6E08013ECC
:10092000860087010130810741310318810A6E0872
:10093000013E86008701403F143A031DA12C413F30
:10094000003A031DA42CA52CB42C6E08013E860091
:1009500087010030C03F0030C13F6D088600013084
:1009600087008114B42CB42C00000B1EB82CB92CB9
:10097000C52C8B1CBC2CBD2CC52C8B100B12200045
:100980003F08860087018114C52C000073082000F1
:10099000FF00090088019D31442D20003F0886009A
:1009A0008701011FD42CD52C102DA008031DD92C94
:1009B000DA2C692F2108643A031DDF2CE02C692F03
:1009C0002C08E9006C080C3E86000130870069089D
:1009D00081002D08E9006C080D3E8600013087007B
:1009E000690881002E08E9006C080E3E860001307F
:1009F0008700690881006430F4000030F5000130A0
:100A00009031D020843120003F08860087010113F7
:100A10003E08223E8600013087000114692F692FAD
:100A2000A008031D142D152D392F2108023A031D8E
:100A30001A2D1B2D392F6C080C3E860001308700C3
:100A40002C080106031D252D262D692F6C080D3E4F
:100A50008600013087002D080106031D302D312D41
:100A6000692F6C080E3E8600013087002E080106B3
:100A7000031D3B2D3C2D692FAF08031D402D412D3B
:100A80007C2D00309331D1238431003087316A27A7
:100A90008431003094315F24843120004008860086
:100AA0008701011041088600870101104208860075
:100AB000870101104608083E86008701011047089B
:100AC000083E8600870101104808083E860087011D
:100AD00001106430F4000030F50001309031D02076
:100AE000843120006C080F3E8600013087008101B0
:100AF0009631682684317C2D20002F08013A031D91
:100B0000822D832DF02D3008803A031D882D892DEC
:100B1000A22D39088600870101143908023E86009B
:100B200087010030C03F0030C13F31089F3111279D
:100B300084312000E9003908013E860087016908F8
:100B40008100AE2D39088600870101103908023E68
:100B5000860087010030C03F0030C13F400886005A
:100B600087010118B42DB52DCE2D400886008701D0
:100B700001144608083E86008701011401309331B4
:100B8000D12384316430F4000030F500013090311D
:100B9000D0208431963168268431692F20003008B6
:100BA000803A0319D42DD52DE32D40088600870106
:100BB00001104608083E860087010110003093317D
:100BC000D1238431E32D6430F4000030F50001308E
:100BD0009031D0208431963168268431692F692F75
:100BE00020002F08113A031DF62DF72D0E2E400878
:100BF00086008701011CFD2DFE2D692F01309431E7
:100C0000FE24843120003E08223E86000130870009
:100C10000114963168268431692F692F20002F082E
:100C2000023A031D142E152E822E3008803A031D21
:100C30001A2E1B2E342E3A088600870101143A081A
:100C4000023E860087010030C03F0030C13F3108BE
:100C50009F31112784312000E9003A08013E8600C7
:100C6000870169088100402E3A088600870101103B
:100C70003A08023E860087010030C03F0030C13F85
:100C80004108860087010118462E472E602E410834
:100C90008600870101144708083E86008701011479
:100CA000013087316A2784316430F4000030F50068
:100CB00001309031D0208431963168268431692FFB
:100CC00020003008803A0319662E672E752E4108E1
:100CD0008600870101104708083E86008701011041
:100CE000003087316A278431752E6430F40000307B
:100CF000F50001309031D02084319631682684315E
:100D0000692F692F20002F08213A031D882E892E74
:100D1000A02E410886008701011C8F2E902E692F7E
:100D200002309431FE24843120003E08223E8600A9
:100D3000013087000114963168268431692F692FAC
:100D400020002F08033A031DA62EA72E142F3008CB
:100D5000803A031DAC2EAD2EC62E3B0886008701BF
:100D600001143B08023E860087010030C03F00307E
:100D7000C13F31089F31112784312000E9003B0831
:100D8000013E8600870169088100D22E3B0886005B
:100D9000870101103B08023E860087010030C03FFA
:100DA0000030C13F4208860087010118D82ED92E95
:100DB000F22E42088600870101144808083E86008A
:100DC00087010114013094315F2484316430F400D0
:100DD0000030F50001309031D02084319631682602
:100DE0008431692F20003008803A0319F82EF92E3B
:100DF000072F42088600870101104808083E860038
:100E000087010110003094315F248431072F643052
:100E1000F4000030F50001309031D020843196315B
:100E200068268431692F692F20002F08313A031D6D
:100E30001A2F1B2F692F420886008701011C212FC2
:100E4000222F692F03309431FE24843120003E0884
:100E5000223E8600013087000114963168268431D5
:100E6000692F692F692F692F692F692F692F692FC2
:100E7000692F20002008633A031D3F2F402F482F81
:100E80002108023A031D452F462F482F0000692FE5
:100E900020002008FF3A031D4E2F4F2F572F210807
:100EA000023A031D542F552F572F0000692F2000A1
:100EB000A008031D5C2F5D2F692F2108643A031DD4
:100EC000622F632F692F0000692F692F692F692F07
:100ED000692F08002000E8006808031D702FB32F59
:100EE0007A088600870181167A0886008701811FAB
:100EF0007A2F7B2F872F7A08860087018114033091
:100F0000F8007A08033E86008701780881007A0895
:100F100086008701011B8D2F8E2F932F7A08860064
:100F20008701011700000230F80020003C08013E54
:100F30008600870178088100903167208731003072
:100F40009E3156268731F4010314F40D7A08063ECB
:100F5000860087010108F8007808F5000230973113
:100F600031278731F72F2000E808031DB82FB92F4C
:100F7000F72F7A088600870181127A088600870198
:100F800081147A0886008701811FC72FC82FD92FA7
:100F90007A088600870181117A088600870101128C
:100FA0000330F8007A08033E860087017808810044
:100FB000E52F7A0886008701011300309E315626FE
:100FC000873100008731FE2787319A314A228731E5
:100FD000F4017A08063E860087010108F8007808C7
:100FE000F5000230973131278731F72FF72F0800AE
:100FF000640080010131890BF92F003400000800E2
:10100000230015131A3092009101151615159A3107
:10101000682288312300151108009A317B2288311B
:1010200078302100990077308C0005308D000C302D
:101030008E0022008C018D018E01223023008C0055
:101040008D018E01773020008C0005308D000C3032
:101050008E00DA302200D10051082000EE006E0828
:10106000053E860087019E30C03F0030C13F210011
:101070009501A630200095008B168B170000F230EA
:1010800021009E00C0302200970024000D100B1795
:101090008B170D1104302700940004309500960141
:1010A0008B150B108B170000A0302200D1005108C7
:1010B0002000BE009131842188319B31A8238831E2
:1010C0009A317122883165288E1620008E1E69287B
:1010D0006A2864286B2801309E311F268831013030
:1010E0009E315626883101309E318D268831BF30A1
:1010F0002200D10051082000C600C8302200D100D3
:1011000051082000C700D1302200D1005108200032
:10111000C800000061302200D10051082000BC004E
:10112000A0302200D1005108F90020006C08153EC3
:1011300086000130870001082200D1007908063EB0
:1011400086008701510881007830D1007908073E78
:101150008600870151088100790886008701811780
:101160007908073E860087010108D1007908053E0D
:1011700086008701510881006130D10051082000AC
:10118000BC00AB302200D1005108FA0020006C08EE
:10119000163E86000130870001082200D1007A083F
:1011A000063E86008701510881007830D1007A0818
:1011B000073E86008701510881007A088600870172
:1011C00081177A08073E860087010108D1007A0856
:1011D000053E86008701510881006130D100510829
:1011E0002000BC0046302200D10051082000BD0084
:1011F0006C08173E86000130870001082200D100EC
:1012000020003D08063E860001308700220051087C
:1012100081007830D10020003D08073E8600013073
:10122000870022005108810020003D08860001301F
:10123000870081173D08073E8600013087000108BE
:101240002200D10020003D08053E860001308700C5
:10125000220051088100000000000000E13022005F
:10126000D10051082000B900E6302200D100510819
:101270002000BA00EB302200D10051082000BB0052
:101280009A31B8228831903169208831472920006D
:101290006D08860001308700011C4F2950296529FF
:1012A0000C1D532954295C290000F018582959298C
:1012B0006229F01462296229F01C5F2960296229E1
:1012C000F010622900000000652920006D088600EA
:1012D00001308700811C6D296E2947296D08860021
:1012E00001308700811093314B23883120006D0835
:1012F000860001308700011C7E297F2947299F3104
:101300005F27883100000000000000002000460830
:1013100086008701011C8D298E29402B0C1F9129E5
:101320009229CC2A46088600870181189829992994
:10133000042A01302200D10020004608013E860028
:10134000870122005108810720004608013E8600DF
:10135000870164300102031CAE29AF29402B4608E7
:10136000013E8600870181014608860087018114BD
:101370000C1FBB29BC29402B3908860087010110AE
:101380003908023E860087010030C03F0030C13F6F
:101390004608083E8600870181144608083E8600FC
:1013A00087010118D429D529EE294608083E860070
:1013B0008701011440088600870101140130933130
:1013C000D12388316430F4000030F50001309031D1
:1013D000D0208831963168268831402B200046087D
:1013E000083E860087010110400886008701011031
:1013F0006430F4000030F50001309031D0208831A5
:10140000402B402B402B402B2000460886008701B4
:1014100001190B2A0C2A542A4608023E860087012D
:101420000130810741310318810A4608023E8600D7
:101430008701403F2200D100413FD20003305202D9
:10144000E83003195102031C262A272A402B2000CA
:101450004608023E860087010030C03F0030C13F91
:1014600046088600870101154608083E8600870168
:10147000811C3B2A3C2A402B4608083E86008701F7
:101480000114400886008701011401309F31AF2705
:1014900088316430F4000030F50001309031D02004
:1014A0008831402B402B402B2000460886008701C6
:1014B00081195B2A5C2A922A4608043E860087012D
:1014C0000130810741310318810A4608043E860035
:1014D0008701403F2200D100413FD2000330520239
:1014E000E83003195102031C762A772A402B20008A
:1014F0004608043E860087010030C03F0030C13FEF
:1015000046088600870181153F088600870101177C
:101510003230F4000030F50002309031D0208831B4
:10152000402B402B2000460886008701011A992A8B
:101530009A2A402B4608063E860087010130810723
:1015400041310318810A4608063E86008701403F64
:101550002200D100413FD2000B305202B8300319B3
:101560005102031CB42AB52A402B20004608063E2F
:10157000860087010030C03F0030C13F460886002A
:10158000870101163F08860087010113402B402B7D
:10159000402B402B402B402B460886008701811CA6
:1015A000D22AD32A402B01302200D1002000460845
:1015B000013E86008701220051088107200046086D
:1015C000013E8600870164300102031CE82AE92AF3
:1015D000402B4608013E86008701810146088600AF
:1015E000870181104608023E860087010030C03F17
:1015F0000030C13F46088600870101114608043EBD
:10160000860087010030C03F0030C13F4608860099
:10161000870181114608063E860087010030C03FE1
:101620000030C13F46088600870101123F0886004E
:10163000870101134608083E86008701811C212B83
:10164000222B402B4608083E860087018110460861
:10165000083E86008701011C2E2B2F2B342B0030D7
:101660009F31AF278831382B00309331D123883117
:10167000963168268831402B402B402B402B402B45
:101680002000470886008701011C472B482BFA2CB5
:101690000C1E4B2B4C2B862C47088600870181188B
:1016A000522B532BBE2B01302200D10020004708C3
:1016B000013E86008701220051088107200047086B
:1016C000013E8600870164300102031C682B692BF0
:1016D000FA2C4708013E86008701810147088600F1
:1016E000870181140C1E752B762BFA2C3A08860084
:1016F000870101103A08023E860087010030C03F92
:101700000030C13F4708083E860087018114470822
:10171000083E8600870101188E2B8F2BA82B4708C7
:10172000083E8600870101144108860087010114E4
:10173000013087316A2788316430F4000030F500C9
:1017400001309031D0208831963168268831FA2CCA
:1017500020004708083E86008701011040088600E7
:10176000870101106430F4000030F5000130903141
:10177000D0208831FA2CFA2CFA2CFA2C20004708B9
:10178000860087010119C52BC62B0E2C4708023E87
:10179000860087010130810741310318810A47081B
:1017A000023E86008701403F2200D100413FD20027
:1017B00003305202E83003195102031CE02BE12BE5
:1017C000FA2C20004708023E860087010030C03F07
:1017D0000030C13F47088600870101154708083ED1
:1017E00086008701811CF52BF62BFA2C4708083E52
:1017F0008600870101144108860087010114013029
:1018000090317F2088316430F4000030F5000130E1
:101810009031D0208831FA2CFA2CFA2C200047087D
:10182000860087018119152C162C4C2C4708043E84
:10183000860087010130810741310318810A47087A
:10184000043E86008701403F2200D100413FD20084
:1018500003305202E83003195102031C302C312CA2
:10186000FA2C20004708043E860087010030C03F64
:101870000030C13F47088600870181153F08860078
:10188000870101173230F4000030F500023090314A
:10189000D0208831FA2CFA2C2000470886008701D6
:1018A000011A532C542CFA2C4708063E8600870157
:1018B0000130810741310318810A4708063E86003E
:1018C0008701403F2200D100413FD2000B3052023D
:1018D000B83003195102031C6E2C6F2CFA2C200017
:1018E0004708063E860087010030C03F0030C13FF8
:1018F00047088600870101163F088600870101130B
:10190000FA2CFA2CFA2CFA2CFA2CFA2C470886001E
:101910008701811C8C2C8D2CFA2C01302200D100E7
:1019200020004708013E86008701220051088107F8
:1019300020004708013E8600870164300102031C35
:10194000A22CA32CFA2C4708013E860087018101B6
:1019500047088600870181104708023E86008701FC
:101960000030C03F0030C13F4708860087010111A9
:101970004708043E860087010030C03F0030C13F69
:1019800047088600870181114708063E86008701C7
:101990000030C03F0030C13F470886008701011278
:1019A0003F088600870101134708083E860087012B
:1019B000811CDB2CDC2CFA2C4708083E86008701B2
:1019C00081104708083E86008701011CE82CE92C9D
:1019D000EE2C003090317F208831F22C003087319E
:1019E0006A278831963168268831FA2CFA2CFA2C2D
:1019F000FA2CFA2C2000480886008701011C012DD2
:101A0000022DB32E0C1C052D062D402E48088600F5
:101A1000870181180C2D0D2D782D01302200D10069
:101A200020004808013E86008701220051088107F6
:101A300020004808013E8600870164300102031C33
:101A4000222D232DB32E4808013E860087018101F7
:101A500048088600870181140C1C2F2D302DB32ED1
:101A60003B088600870101103B08023E8600870183
:101A70000030C03F0030C13F4808083E8600870163
:101A800081144808083E860087010118482D492D19
:101A9000622D4808083E860087010114420886002E
:101AA00087010114013094315F2488316430F400DF
:101AB0000030F50001309031D02088319631682611
:101AC0008831B32E20004808083E860087010110A7
:101AD00042088600870101106430F4000030F500F0
:101AE00001309031D0208831B32EB32EB32EB32ED7
:101AF000200048088600870101197F2D802DC82D00
:101B00004808023E860087010130810741310318F1
:101B1000810A4808023E86008701403F2200D1002A
:101B2000413FD20003305202E83003195102031C36
:101B30009A2D9B2DB32E20004808023E8600870177
:101B40000030C03F0030C13F4808860087010115C2
:101B50004808083E86008701811CAF2DB02DB32EAA
:101B60004808083E86008701011442088600870164
:101B70000114013091312A2188316430F4000030A1
:101B8000F50001309031D0208831B32EB32EB32E22
:101B900020004808860087018119CF2DD02D062E00
:101BA0004808043E8600870101308107413103184F
:101BB000810A4808043E86008701403F2200D10088
:101BC000413FD20003305202E83003195102031C96
:101BD000EA2DEB2DB32E20004808043E8600870135
:101BE0000030C03F0030C13F4808860087018115A2
:101BF0003F088600870101173230F4000030F500FD
:101C000002309031D0208831B32EB32E2000480806
:101C100086008701011A0D2E0E2EB32E4808063EAF
:101C2000860087010130810741310318810A480885
:101C3000063E86008701403F2200D100413FD2008E
:101C40000B305202B83003195102031C282E292EE2
:101C5000B32E20004808063E860087010030C03FB2
:101C60000030C13F48088600870101163F08860002
:101C700087010113B32EB32EB32EB32EB32EB32E82
:101C8000480886008701811C462E472EB32E01305E
:101C90002200D10020004808013E86008701220072
:101CA0005108810720004808013E86008701643002
:101CB0000102031C5C2E5D2EB32E4808013E8600F7
:101CC0008701810148088600870181104808023E8B
:101CD000860087010030C03F0030C13F48088600C1
:101CE000870101114808043E860087010030C03F8B
:101CF0000030C13F48088600870181114808063E30
:101D0000860087010030C03F0030C13F4808860090
:101D1000870101123F088600870101134808083E29
:101D200086008701811C952E962EB32E4808083E0A
:101D30008600870181104808083E86008701011C43
:101D4000A22EA32EA82E003091312A218831AC2E4C
:101D5000003094315F248831963168268831B32E63
:101D6000B32EB32EB32E9531B0258831200039081B
:101D700086008701011CBD2EBE2E202F3908023E91
:101D8000860087010130810741310318810A390833
:101D9000023E86008701403F2200D100413FD20031
:101DA000EA305202603003195102031CD82ED92E9A
:101DB000202F20003908023E860087010030C03FF6
:101DC0000030C13F01302200D10020003908043E1C
:101DD0008600870122005108810720003908043E4F
:101DE000860087013908013E840085010008010250
:101DF000031CFB2EFC2E202F3908043E8600870191
:101E0000810139088600870101104008860087019A
:101E100001104608083E860087010110003093310A
:101E2000D12388316430F4000030F5000130903166
:101E3000D0208831963168268831202F202F202FFE
:101E400020003A0886008701011C272F282F8A2F9F
:101E50003A08023E860087010130810741310318AC
:101E6000810A3A08023E86008701403F2200D100E5
:101E7000413FD200EA305202603003195102031C84
:101E8000422F432F8A2F20003A08023E8600870106
:101E90000030C03F0030C13F01302200D10020009F
:101EA0003A08043E8600870122005108810720007D
:101EB0003A08043E860087013A08013E8400850105
:101EC00000080102031C652F662F8A2F3A08043E82
:101ED0008600870181013A088600870101104108C8
:101EE0008600870101104708083E8600870101101F
:101EF000003087316A2788316430F4000030F50003
:101F000001309031D02088319631682688318A2F6F
:101F10008A2F8A2F20003B0886008701011C912F01
:101F2000922FF42F3B08023E860087010130810783
:101F300041310318810A3B08023E86008701403F79
:101F40002200D100413FD200EA3052026030031932
:101F50005102031CAC2FAD2FF42F20003B08023E92
:101F6000860087010030C03F0030C13F01302200B1
:101F7000D10020003B08043E860087012200510862
:101F8000810720003B08043E860087013B08013E94
:101F90008400850100080102031CCF2FD02FF42FED
:101FA0003B08043E8600870181013B0886008701CB
:101FB000011042088600870101104808083E86008B
:101FC00087010110003094315F2488316430F400BF
:101FD0000030F50001309031D020883196316826EC
:101FE0008831F42FF42FF42F9231512288319C3113
:101FF0004C24883147294729472947298431CA2C4D
:1020000000340334163417341E341F3420342A3479
:102010002B340B340C340D340E340F341034113493
:102020001234133414340A3415342134223418345D
:1020300019341A341B341C341D342334243425340D
:10204000263429342C342D342E3400340134023417
:10205000073408340934063404340534273428346A
:1020600007340734303487346B34F8347F343F34EA
:10207000093400345C34A734623486348334033446
:102080002234F83400344434B634103418341D3457
:102090001C34C7340034B234EA340A340034113406
:1020A0005934883431340B342F342E34063404340C
:1020B000053400343034D334913441340034FE34A8
:1020C000FE34FE34FE34FE34FE34FE34FE340000B2
:1020D00008009D310F2590319C317B2490319B313C
:1020E000CE2390319A314D2290319A315222903143
:1020F0009A31852290319A31572290310800200080
:10210000E8007A0886008701811F87288828CF2861
:102110006808031D8C2895287A0886008701811598
:102120007A08860087018114CF28E808031D9928C2
:102130009A28CF287A0886008701811DA028A12827
:10214000CF287A088600870181107A0886008701E7
:1021500081117A08053E860087010108F8007A0897
:10216000063E8600870178088100F4010314F40D0F
:102170007A08063E860087010108F8007808F50015
:10218000023097313127903120003E08223E8600F0
:10219000013087000114CF28CF28CF28CF2808008E
:1021A000F7002000370886008701011CD828D928AD
:1021B00029293708860087018118DF28E0280B29A4
:1021C00037088600870181148D150130F7027708E2
:1021D000F6003708033E860087017608810037083D
:1021E000053E860087017408C03F7508C13F370867
:1021F000053E8600870116000104031D0029012900
:1022000029293708053E860087016430C03F003029
:10221000C13F2929292937088600870181191129F9
:102220001229292937088600870181157708F600C9
:102230003708043E86008701760881003708073E8C
:10224000860087017408C03F7508C13F29292929E4
:10225000292908002000E8003D0886000130870099
:10226000811F3329342983296808031D382943290C
:102270003D0886000130870081153D088600013049
:10228000870081148329E808031D472948298329E9
:102290003D08860001308700811D4F295029832980
:1022A0003D0886000130870081103D08860001301E
:1022B000870081113D08053E860001308700010836
:1022C000F8003D08063E860001308700780881004E
:1022D000F4010314F40D3D08063E8600013087002A
:1022E0000108F8007808F500033097313127913163
:1022F00020003E08223E8600013087000114832919
:1023000083298329832908001F309A31A42291311F
:10231000AA3A031D8C298D29DC2900309A31A42288
:102320009131F80020006C080C3E860001308700D7
:102330007808810001309A31A4229131F800200000
:102340006C080D3E8600013087007808810002305D
:102350009A31A4229131F80020006C080E3E8600CC
:10236000013087007808810003309A31A42291312E
:10237000F80020006C08153E8600013087007808C0
:10238000810004309A31A4229131F80020006C08B9
:10239000163E8600013087007808810005309A31AA
:1023A000A4229131F80020006C08173E860001300D
:1023B000870078088100E2298B139C31DB2491315E
:1023C0008B17E229080020000D1CE729E829F029D5
:1023D000EA29EA290D18ED29EE29EA29F029F02940
:1023E0003B309A31E822913120005008183A031D01
:1023F000FA29FB29432A0E12FF30F8007808C5009D
:10240000012A0E19042A052A012A062A9B313D2396
:1024100091319B315E23913120004508F800780806
:10242000C400E801242A9B315E2391312000450835
:10243000F8006808203E8600870178088100013096
:10244000F8007808E807242A44086802031C292AAF
:102450002A2A132A2B2A9B315E239131200045081A
:10246000F8007808C3009B315E23913120004508B5
:10247000F8007808B8000E16B81F3F2A402A432AF1
:10248000F015432A432A36309A31912291313A305D
:102490009A319122913120003F08860087018111F5
:1024A00008002000370886008701811C582A592A15
:1024B000CA2A3708013E8600870101308107413171
:1024C0000318810A3708053E86008701403FF40063
:1024D000413FF5003708013E86008701403F740602
:1024E000031D742A413F7506031D772A782ACA2ADC
:1024F0003708013E860087010030C03F0030C13FF1
:102500008D19832A842A862A8D15CA2A8D113708A7
:10251000033E860087018108031D8F2A902AC02A66
:10252000370886008701811D962A972ABA2A37081C
:102530008600870181113708043E86008701403FED
:102540000903C03FF4003708033E86008701740882
:1025500081003708073E86008701403FF400413F75
:10256000F5003708053E860087017408C03F7508EE
:10257000C13FCA2A3708860087018110CA2ACA2AA1
:102580003708033E8600870101308102CA2ACA2A21
:10259000CA2ACA2A0800F80120307802031CD12A6E
:1025A000D22AD42AEE2AEE2A78089A31A42292312D
:1025B0002000E80078083E07E9006908860001303D
:1025C0008700680881000130E8006808F8072030BB
:1025D0007802031CEC2AED2AD42AEE2A20006C088B
:1025E0000C3E8600013087000108E8003E088600A6
:1025F00001308700680881006C080D3E86000130BC
:1026000087000108E8003E08013E8600013087008F
:10261000680881006C080E3E8600013087000108C2
:10262000E8003E08023E860001308700680881000D
:102630006C08153E8600013087000108E8003E085E
:10264000033E860001308700680881006C08163E52
:102650008600013087000108E8003E08043E86003D
:1026600001308700680881006C08173E8600013041
:1026700087000108E8003E08053E8600013087001B
:10268000680881008B138831002092319C31DB2453
:1026900092318B17080020006D08053E860001303E
:1026A00087000130810741310318810A6D08053E1A
:1026B000860001308700403FE83A031D612B413F0F
:1026C000033A031D642B652B822B6D08053E8600A3
:1026D000013087000030C03F0030C13F6D088600E8
:1026E00001308700811D752B762B7C2B6D088600B1
:1026F000013087008111822B6D0886000130870030
:102700008115822B6D088600013087000118892B06
:102710008A2BD02B6D08013E8600013087000130E6
:10272000810741310318810A6D08013E860001309E
:102730008700403FDC3A031D9F2B413F053A031DB4
:10274000A22BA32BD02B6D08013E86000130870001
:102750000030C03F0030C13F6D0886000130870067
:1027600001143230F4000030F50003309031D020F5
:10277000933120004608860087010114470886002F
:102780008701011448088600870101140000803188
:102790000220933101309B31F5239331D02BD02B84
:1027A00008002000E8006808031DD72B1A2C7908C0
:1027B000860087018116790886008701811FE12B39
:1027C000E22BEE2B79088600870181140330F80094
:1027D0007908033E86008701780881007908860021
:1027E0008701011BF42BF52BFB2B79088600870151
:1027F00001170000FB2B20003C08013E86008701EA
:1028000081010314810D90316720933100309E3196
:102810001F269331F4010314F40D7908063E860057
:1028200087010108F8007808F50001309731312759
:1028300093315E2C2000E808031D1F2C202C5E2CF9
:102840007908860087018112790886008701811442
:10285000790886008701811F2E2C2F2C402C7908A7
:1028600086008701811179088600870101120330F3
:10287000F8007908033E86008701780881004C2C17
:10288000790886008701011300309E311F2693319D
:1028900000008731FE2793319A314A229331F401A7
:1028A0007908063E860087010108F8007808F500DF
:1028B00001309731312793315E2C5E2C08002000C7
:1028C000E8006808031D652CB02C3D088600013027
:1028D000870081163D08860001308700811F712C1A
:1028E000722C802C3D088600013087008114033053
:1028F000F8003D08033E860001308700780881001B
:102900003D08860001308700011B872C882C8E2C07
:102910003D08860001308700011700000330F800F1
:1029200020003C08013E8600870178088100903134
:102930006720943100309E318D269431F4010314C8
:10294000F40D20003D08063E860001308700010896
:10295000F8007808F5000330973131279431FD2CC9
:102960002000E808031DB52CB62CFD2C3D08860080
:102970000130870081123D088600013087008114F4
:102980003D08860001308700811FC72CC82CDC2C35
:102990003D0886000130870081113D088600013026
:1029A000870001120330F8003D08033E8600013025
:1029B000870078088100E92C3D08860001308700F7
:1029C000011300309E318D26943100008731FE279F
:1029D00094319A314A229431F40120003D08063E98
:1029E0008600013087000108F8007808F500033000
:1029F000973131279431FD2CFD2C0800F80065300B
:102A000020002902031C052D062D0B2D6430F70034
:102A10007708A9000B2D2908F7006C08093E8600ED
:102A200001308700770881007808F7006C080B3EBA
:102A3000860001308700770881007808013A031D7D
:102A4000222D232D4C2D7908860087010115790848
:102A50008600870181140030F400C030F5003F305B
:102A6000F6009A315C229431F7007908063E860020
:102A700087017708810020006C080F3E8600013036
:102A8000870001080138F7006C080F3E860001300E
:102A9000870077088100AF2D7808023A031D512D79
:102AA000522D7B2D7A088600870101157A08860051
:102AB000870181140030F400C030F5003F30F6008B
:102AC0009A315C229431F7007A08063E860087012D
:102AD0007708810020006C080F3E860001308700D7
:102AE00001080238F7006C080F3E860001308700AD
:102AF00077088100AF2D7808033A031D802D812DC2
:102B0000AF2D3D0886000130870001153D08860085
:102B10000130870081140030F400C030F5003F30F0
:102B2000F6009A315C229431F70020003D08063E01
:102B3000860001308700770881006C080F3E860010
:102B40000130870001080438F7006C080F3E86004A
:102B50000130870077088100AF2DAF2DAF2D080021
:102B600020003F0886008701011CB72DB82D672E75
:102B70000C1BBB2DBC2DC52D0C1ABF2DC02DC52D7A
:102B80000C1CC32DC42DD02DC52D3F0886008701F8
:102B9000011BCB2DCC2DD02D9C311F249531672EC0
:102BA00020003F0886008701811CD72DD82DE72DF6
:102BB0009131E321953120003F0886008701811083
:102BC0008431CD249531203020008D06672E3F08BA
:102BD00086008701011DED2DEE2D232E9C311F2433
:102BE000953120003F0886008701811AF82DF92DC4
:102BF000162E0130EA003F08013E860087016A0870
:102C000081073F08013E860087010108963A031DAF
:102C10000A2E0B2E672E3F08013E86008701810198
:102C20003F08860087018116672E672E3F088600C1
:102C3000870181123F088600870101119E31C42659
:102C40009531672E672E20003F0886008701811985
:102C50002A2E2B2E672E3F0886008701811A312EDF
:102C6000322E4F2E0130EA003F08013E86008701D8
:102C70006A0881073F08013E860087010108323A51
:102C8000031D432E442E672E3F08013E8600870118
:102C900081013F08860087018116672E672E3F0855
:102CA0008600870181123F08860087018115363032
:102CB0009A319122953134309A31912295318B108D
:102CC0000B16672E672E672E672E672E672E08005D
:102CD00020003F0886008701011C6F2E702E302FC8
:102CE0003F08860087010119762E772E302F3F0886
:102CF0008600870101156330F4007408A0000230DB
:102D0000F4007408A1006C08153E860001308700AD
:102D10000108F4007408A2006C08163E8600013019
:102D200087000108F4007408A3006C08173E8600B1
:102D3000013087000108F4007408A4006C08183EF4
:102D40008600013087000108F4007408A5006C08B3
:102D5000193E8600013087000108F4007408A600BF
:102D60006C08073E8600013087000108F4007408F3
:102D7000A7006C08083E8600013087000108F400B7
:102D80007408A8006C08093E86000130870001081D
:102D9000F4007408A9006C080A3E86000130870020
:102DA0000108F4007408AA006C080B3E860001308C
:102DB00087000108F4007408AB006C080C3E860024
:102DC000013087000108F4007408AC006C080D3E67
:102DD0008600013087000108F4007408AD006C081B
:102DE0000E3E8600013087000108F4007408AE0032
:102DF0006C080F3E8600013087000108F40074085B
:102E0000AF006C08103E8600013087000108F40016
:102E10007408B0006C08113E86000130870001087C
:102E2000F4007408B1006C08123E8600013087007F
:102E30000108F4007408B2006C08133E86000130EB
:102E400087000108F4007408B3006C08143E860083
:102E5000013087000108F4007408B400302F302FCF
:102E60000800F7007508D83EFF3A013E643EF600C0
:102E700020006C08093E860001308700760881003A
:102E80007708F6006C080B3E860001308700760854
:102E900081007708013A031D4E2F4F2F852F7508AB
:102EA000F6006C08153E8600013087007608810028
:102EB0007408013A031D5D2F5E2F6E2F6C080F3EC4
:102EC00086000130870001080138F6006C080F3ECB
:102ED00086000130870076088100FF2FF408031D6B
:102EE000722F732FFF2F6C080F3E86000130870072
:102EF0000108FE39F6006C080F3E8600013087009D
:102F000076088100FF2FFF2FFF2F7708023A031D5D
:102F10008A2F8B2FC12F7508F6006C08163E86008D
:102F200001308700760881007408013A031D992F4B
:102F30009A2FAA2F6C080F3E8600013087000108E7
:102F40000238F6006C080F3E8600013087007608D4
:102F50008100FF2FF408031DAE2FAF2FFF2F6C0849
:102F60000F3E8600013087000108FD39F6006C082D
:102F70000F3E86000130870076088100FF2FFF2F6B
:102F8000FF2F7708033A031DC62FC72FFF2F7508A1
:102F9000F6006C08173E8600013087007608810035
:102FA0007408013A031DD52FD62FE62F6C080F3E6B
:102FB00086000130870001080438F6006C080F3ED7
:102FC00086000130870076088100FF2FF408031D7A
:102FD000EA2FEB2FFF2F6C080F3E86000130870091
:102FE0000108FB39F6006C080F3E860001308700AF
:102FF00076088100FF2FFF2FFF2FFF2FFF2F0800E4
:103494000800000008003B309A3191229A3108005C
:1034A4003A309A3191229A31080036309A31912279
:1034B4009A31080020002903FF3A8C3E612A080053
:1034C400FE0012001E00FE0B632A00345530230058
:1034D4009600AA3096009514000000000800B6304B
:1034E400F40074082000B70037088600870101142F
:1034F40008003A30F40074082000ED002030F40095
:103504007408EC00080033309A3191229A31E83083
:10351400F4000330F5009C31AA249A310800F70026
:1035240020000E127708F6007608C500992A0E19B5
:103534009C2A9D2A992A9E2A9B313D239A31200058
:103544000E160800F600F7011A30230092007608E0
:103554009100151315141408F4007408F5001308E9
:10356400F4007408F7007708B72A08006330F40001
:1035740074082000BF001530F4007408C9006530D9
:10358400F4007408C0006630F4007408C1006730A9
:10359400F4007408C200080000340034003400341D
:1035A4000034003400340034003400340034003477
:1035B400FF34FF34FF34003400340034003400346A
:1035C400033425342534253400340034F700200036
:1035D4000E127708C03EF6007608C500F12A0E19CF
:1035E400F42AF52AF12AF62A9B313D239A319B319C
:1035F4005E239A3120000E164508F6007608D000A6
:103604000800F80020000E127808F7007708C500BB
:103614000B2B0E190E2B0F2B0B2B102B9B313D2339
:103624009B317608F70077082000C5009B313D23C5
:103634009B3120000E160800790886008701811A44
:10364400242B252B3C2B7A0886008701811A2B2BEF
:103654002C2B3C2B20003D08860001308700811A6A
:10366400342B352B3C2B3E08223E8600013087004C
:1036740081143C2B0800F50108307502031C432B10
:10368400442B462B5D2B5D2B2000C51F4A2B4B2B57
:103694004D2B0E144E2B0E108E140310C50D8E10D0
:1036A4000130F4007408F50708307502031C5B2B25
:1036B4005C2B462B5D2B0800F50108307502031CBA
:1036C400642B652B672B822B822B20008E14031016
:1036D400C50D0E1D6E2B6F2B712B4514762BFE30F2
:1036E400F4007408C505762B8E100130F4007408BC
:1036F400F50708307502031C802B812B672B822B66
:103704000800FF34FF34FF34AA340034003400349A
:103714000034003400340034003400340034003405
:1037240000340034003400340034003400340034F5
:10373400003400340034003400340034AA34AA3491
:10374400AA34003400340034003400345130F4001E
:1037540074082000CA004A088600870101148D16E7
:103764005530F4007408CB004B088600870101141F
:103774008C155930F4007408CC004C08860087017D
:1037840001140E175D30F4007408CD004D08860056
:10379400870101148E1708002000EA0108306A022C
:1037A400031CD52BD62BD82BF42BF42B6A085F3EA5
:1037B40090310A009B31E8006808E9006908E800D4
:1037C4006808F6003E309B3103239B310130200012
:1037D400E8006808EA0708306A02031CF22BF32B9E
:1037E400D82BF42B0800F8007808013A031DFB2BB2
:1037F400FC2B022C20003F088600870101141E2C9C
:10380400F808031D062C072C1E2C20003F088600F8
:10381400870101103F08860087010113F01236303A
:103824009A3191229B313B309A3191229B319C31C8
:103834001F249B311E2C1E2C080020003F088600EC
:1038440087018119262C272C2F2C3F0886008701FD
:10385400811C2D2C2E2C4B2C2F2C3F0886008701ED
:1038640081113F088600870181103F08013E8600D0
:10387400870181013F0886008701811236309A3121
:1038840091229C313A309A3191229C318B100B1247
:103894004B2C080020004A0886008701811C532C09
:1038A400542C772C4A08013E860087010130810799
:1038B40041310318810A4A08013E86008701403FCE
:1038C400F43A031D672C413F013A031D6A2C6B2C0B
:1038D400772C4A08013E860087010030C03F003043
:1038E400C13F20308D06772C772C000000000000AB
:1038F40008002000EB012F306B02031C822C832C68
:10390400852CA92CA92C6B08013E90310A009C310E
:10391400E8006808E9006B08303E90310A009C31E9
:10392400E8006808EA006A08E8006808F600690820
:103934009B3103239C3101302000E8006808EB0729
:103944002F306B02031CA72CA82C852CA92C080053
:1039540001302000E8000030E900CF2CEA01EB013F
:1039640000306B02023003196A02031CBA2CBB2C10
:10397400BD2CCB2CCB2C0130EA070030EB3D0030C2
:103984006B02023003196A02031CC92CCA2CBD2C19
:10399400CB2C0130E8070030E93D75086902031DAE
:1039A400D52C74086802031CD82CD92CB02CDA2C22
:1039B4000800230015131A3092009401151295166D
:1039C4001515F50120307502031CE92CEA2CEC2CAA
:1039D400072D072D750823009100750820003E0768
:1039E400F400740886000130870001082300930066
:1039F4009A3168229C310130F4007408F5072030B4
:103A04007502031C062D072DEC2C230095129A3108
:103A140068229C3123001511080020008E100E101E
:103A24000E160A30F4000030F5009C31AA249D31B2
:103A340020000E120A30F4000030F5009C31AA2454
:103A44009D3120000E162830F4000030F5009C3122
:103A5400AA249D3120000E123030F6007608C500ED
:103A6400332D0E19362D372D332D382D9B313D2313
:103A74009D313C2D20000E19402D412D3C2D0E1062
:103A84000E160800F001F901FA012030840000301C
:103A9400850048308731F8279D31A03084000030FC
:103AA400850050308731F8279D313A308400013049
:103AB400850017308731F8279D31CE3084009A3045
:103AC400850020308600013087001A309A31622246
:103AD4009D31833084009B308500A0308600013006
:103AE400870025309A3162229D31200088310D28CB
:103AF400F100F108031D7F2D802D832D20008C15EE
:103B0400B02D7108013A031D882D892D8C2D2000BC
:103B14008C11B02D71080A3A031D912D922DA12DFF
:103B240020004B088600870181104B08013E860067
:103B340087010030C03F0030C13F8C15B02D7108A3
:103B44000B3A031DA62DA72DB02D20004B0886008F
:103B540087018114B02DB02DB02DB02D0800F100D7
:103B6400F108031DB62DB72DBA2D20000E17E72D31
:103B74007108013A031DBF2DC02DC32D20000E1363
:103B8400E72D71080A3A031DC82DC92DD82D200030
:103B94004C088600870181104C08013E860087018D
:103BA4000030C03F0030C13F0E17E72D71080B3ABB
:103BB400031DDD2DDE2DE72D20004C088600870136
:103BC4008114E72DE72DE72DE72D0800F100F1081A
:103BD400031DED2DEE2DF12D20008E171E2E7108E4
:103BE400013A031DF62DF72DFA2D20008E131E2EFB
:103BF40071080A3A031DFF2D002E0F2E20004D08D8
:103C04008600870181104D08013E8600870100303F
:103C1400C03F0030C13F8E171E2E71080B3A031DA2
:103C2400142E152E1E2E20004D08860087018114A7
:103C34001E2E1E2E1E2E1E2E0800F400F408031D38
:103C4400242E252E282E20008C15552E7408013A7A
:103C5400031D2D2E2E2E312E20008C11552E74086E
:103C64000A3A031D362E372E462E20004B088600B6
:103C7400870181104B08013E860087010030C03F58
:103C84000030C13F8C15552E74080B3A031D4B2E82
:103C94004C2E552E20004B08860087018114552E8A
:103CA400552E552E552E0800F400F408031D5B2EE6
:103CB4005C2E5F2E20000E178C2E7408013A031D13
:103CC400642E652E682E20000E138C2E74080A3A7A
:103CD400031D6D2E6E2E7D2E20004C08860087015C
:103CE40081104C08013E860087010030C03F00303F
:103CF400C13F0E178C2E74080B3A031D822E832E9F
:103D04008C2E20004C088600870181148C2E8C2E6A
:103D14008C2E8C2E0800F400F408031D922E932E92
:103D2400962E20008E17C32E7408013A031D9B2E75
:103D34009C2E9F2E20008E13C32E74080A3A031D56
:103D4400A42EA52EB42E20004D08860087018110D4
:103D54004D08013E860087010030C03F0030C13F5E
:103D64008E17C32E74080B3A031DB92EBA2EC32E18
:103D740020004D08860087018114C32EC32EC32E54
:103D8400C32E080020000E127F30F8007808C5000A
:103D9400CB2E0E19CE2ECF2ECB2ED02E9B313D23E3
:103DA4009E3120004908F8007808C5009B313D2366
:103DB4009E312000E801EF2E6808203E860087012E
:103DC4000108F8007808C5009B313D239E3101307D
:103DD400F80078082000E807EF2E49086802031C61
:103DE400F42EF52EDE2E0E1635309A3191229E31A8
:103DF400FB2E20000D1CFF2E002FFB2E022F022F66
:103E04000D18052F062F022F072F36309A319122D5
:103E14009E313B309A3191229E3170170800F60092
:103E24000530F4007408F5007608053A031D1B2FCD
:103E34001C2F212F0530F4007408F5005C2F760840
:103E4400103A031D262F272F2C2F0A30F400740854
:103E5400F5005C2F7608153A031D312F322F372FCA
:103E64000F30F4007408F5005C2F7608203A031D27
:103E74003C2F3D2F422F1430F4007408F5005C2FC2
:103E84007608253A031D472F482F4D2F1930F4008B
:103E94007408F5005C2F7608303A031D522F532F17
:103EA4005C2F1E30F4007408F5005C2F5C2F5C2F2F
:103EB4005C2F5C2F75085E2F080020003E08223E10
:103EC400860001308700811C682F692FAE2F3E08C1
:103ED400223E860001308700011C712F722FA52F0E
:103EE4003E08233E860001308700013081074131BE
:103EF4000318810A3E08233E860001308700403FB4
:103F0400E83A031D872F413F033A031D8A2F8B2F65
:103F1400AE2F3E08233E8600013087000030C03FAC
:103F24000030C13F3E08223E860001308700011068
:103F34003E08223E86000130870081109231CB2258
:103F44009F31AE2FAE2F20003E08223E8600013066
:103F540087008110AE2FAE2F08002000E8007908FA
:103F640086008701811FB72FB82FFF2F6808031D14
:103F7400BC2FC52F79088600870181157908860032
:103F840087018114FF2FE808031DC92FCA2FFF2FB3
:103F9400790886008701811DD02FD12FFF2F790842
:103FA40086008701811079088600870181117908CC
:103FB400053E860087010108F8007908063E860060
:103FC400870178088100F4010314F40D7908063E92
:103FD400860087010108F8007808F5000130973160
:103FE40031279F3120003E08223E860001308700A1
:0C3FF4000114FF2FFF2FFF2FFF2F0800EC
:020000040001F9
:04000E00E4FFFDFF0F
:00000001FF
