:04000000803115280E
:10000800803120007F08F900A131A421803180319E
:1000180018208031AD314025803179082000FF005B
:1000280009008801983169288B1E1B281C28702D0F
:100038000B1D1F282028702DA630200095000B11BD
:100048007B08860001308700011C2B282C287C287F
:100058000130F5007B08033E8600013087007508F3
:10006800810721003B08023E860087010108F50050
:10007800F601F509F609F50A0319F60A7B08043EA4
:1000880086000130870001087507F7007608031815
:10009800760AF8007B08033E86000130870078085E
:1000A800803A803C031D5A2877080102031C5D280A
:1000B8005E28D9297B08033E86000130870081012C
:1000C8007B0886000130870001107B08073E860008
:1000D8000130870001147B08860001308700011F6A
:1000E80076287728D92920000D16D929D929D92980
:1000F8007B08073E860001308700011C842885287C
:10010800B7297B08073E86000130870001107B086D
:10011800860001308700811C92289328B729013076
:10012800F5007B08013E86000130870075088107CD
:100138007B08013E8600013087007B08023E840070
:100148000130850000080102031CAB28AC28B72940
:100158007B08013E86000130870081017B0886000C
:1001680001308700811DB928BA28F9287B08860044
:1001780001308700011AC128C228DC287B08043E08
:100188008600013087003D300102031CCC28CD28B1
:10019800D5287B08043E86000130870001308102A3
:1001A800B7297B088600013087000116B729B729CF
:1001B8007B08043E8600013087007830010203186E
:1001C800E628E728F1280130F5007B08043E860080
:1001D8000130870075088107B7297B088600013040
:1001E80087000112B729B729B7297B088600013093
:1001F8008700011D0029012950297B08053E86003A
:10020800013087007B08043E840001308500000827
:10021800010203181029112919297B08043E8600B8
:10022800013087000130810234297B08043E8600B2
:10023800013087007B08053E8400013085000008F6
:10024800010203182829292934290130F5007B08DF
:10025800043E860001308700750881073429342957
:100268007B08053E8600013087007B08043E840039
:100278000130850000080106031D43294429B729D8
:100288007B0886000130870001117B088600013059
:1002980087008110B729B7297B08860001308700BD
:1002A800811E5729582976297B08043E860001308B
:1002B8008700013081027B08053E860001308700F7
:1002C8007B08043E84000130850000080102031CFD
:1002D8006E296F29B7297B088600013087008110B5
:1002E800B729B7290130F5007B08043E86000130A4
:1002F8008700750881077B08043E86000130870067
:100308007B08063E84000130850000080102031CBA
:100318008E298F29B7297B08860001308700811034
:100328007B0886000130870001137B08093E8600A0
:1003380001308700011721003B08860087018115DD
:1003480020008E13F2010314F20DF3010314F30DD0
:100358000130A2310D228031B729B729B729B72931
:10036800B729B729B72920000D1EBB29BC29D929CF
:100378000130F5007B08083E8600013087007508CB
:1003880081077B08083E8600013087000108003A93
:100398000319CF29D029D9297B08083E86000130C6
:1003A800870081010D12D929D9297C0886000130DE
:1003B8008700011CE029E129312A0130F5007C0879
:1003C800033E8600013087007508810721003B083D
:1003D800023E860087010108F500F601F509F609D5
:1003E800F50A0319F60A7C08043E860001308700E6
:1003F80001087507F70076080318760AF8007C08E4
:10040800033E8600013087007808803A803C031D4F
:100418000F2A77080102031C122A132A8F2B7C0843
:10042800033E86000130870081017C088600013088
:10043800870001107C08073E860001308700011400
:100448007C08860001308700011F2B2A2C2A8F2B5D
:1004580020008C178F2B8F2B8F2B7C08073E860054
:1004680001308700011C392A3A2A6D2B7C08073E87
:1004780086000130870001107C0886000130870063
:10048800811C472A482A6D2B0130F5007C08013E63
:10049800860001308700750881077C08013E8600C8
:1004A800013087007C08023E840001308500000886
:1004B8000102031C602A612A6D2B7C08013E86001C
:1004C8000130870081017C08860001308700811D8A
:1004D8006E2A6F2AAE2A7C08860001308700011A2E
:1004E800762A772A912A7C08043E86000130870004
:1004F8003D300102031C812A822A8A2A7C08043E94
:10050800860001308700013081026D2B7C0886004F
:100518000130870001166D2B6D2B7C08043E860088
:10052800013087007830010203189B2A9C2AA62AEA
:100538000130F5007C08043E86000130870075080C
:1005480081076D2B7C0886000130870001126D2B16
:100558006D2B6D2B7C08860001308700011DB52AA4
:10056800B62A052B7C08053E8600013087007C08EA
:10057800043E840001308500000801020318C52AE2
:10058800C62ACE2A7C08043E860001308700013046
:100598008102E92A7C08043E8600013087007C0835
:1005A800053E840001308500000801020318DD2A99
:1005B800DE2AE92A0130F5007C08043E8600013075
:1005C800870075088107E92AE92A7C08053E860024
:1005D800013087007C08043E840001308500000853
:1005E8000106031DF82AF92A6D2B7C0886000130C4
:1005F800870001117C0886000130870081106D2B6F
:100608006D2B7C08860001308700811E0C2B0D2B7A
:100618002B2B7C08043E86000130870001308102C4
:100628007C08053E8600013087007C08043E840073
:100638000130850000080102031C232B242B6D2B9D
:100648007C0886000130870081106D2B6D2B0130EE
:10065800F5007C08043E8600013087007508810794
:100668007C08043E8600013087007C08063E840032
:100678000130850000080102031C432B442B6D2B1D
:100688007C0886000130870081107C0886000130D4
:10069800870001137C08093E860001308700011796
:1006A80021003B0886008701811520008C1102304B
:1006B800F5007508F200F3010314F30D0130A231BF
:1006C8000D2280316D2B6D2B6D2B6D2B6D2B6D2BB2
:1006D8006D2B20008C1F712B722B8F2B0130F50096
:1006E8007C08083E860001308700750881077C0871
:1006F800083E8600013087000108003A0319852B5F
:10070800862B8F2B7C08083E8600013087008101EC
:100718008C138F2B8F2B7D08860001308700011CDE
:10072800962B972BE72B0130F5007D08033E8600BA
:10073800013087007508810721003B08023E8600CA
:1007480087010108F500F601F509F609F50A03190C
:10075800F60A7D08043E8600013087000108750707
:10076800F70076080318760AF8007D08033E86002D
:10077800013087007808803A803C031DC52B770834
:100788000102031CC82BC92B462D7D08033E860099
:100798000130870081017D08860001308700011043
:1007A8007D08073E86000130870001147D08860019
:1007B80001308700011FE12BE22B462D20008D140C
:1007C800462D462D462D7D08073E860001308700C0
:1007D800011CEF2BF02B232D7D08073E86000130EE
:1007E800870001107D08860001308700811CFD2BE1
:1007F800FE2B232D0130F5007D08013E86000130D7
:100808008700750881077D08013E86000130870052
:100818007D08023E84000130850000080102031CA7
:10082800162C172C232D7D08013E860001308700E9
:1008380081017D08860001308700811D242C252C2C
:10084800642C7D08860001308700011A2C2C2D2C81
:10085800472C7D08043E8600013087003D300102A8
:10086800031C372C382C402C7D08043E86000130B0
:10087800870001308102232D7D0886000130870022
:100888000116232D232D7D08043E860001308700A4
:10089800783001020318512C522C5C2C0130F500E1
:1008A8007D08043E86000130870075088107232DE6
:1008B8007D088600013087000112232D232D232D6A
:1008C8007D08860001308700011D6B2C6C2CBB2C29
:1008D8007D08053E8600013087007D08043E8400BF
:1008E800013085000008010203187B2C7C2C842C25
:1008F8007D08043E860001308700013081029F2C6C
:100908007D08043E8600013087007D08053E84008E
:1009180001308500000801020318932C942C9F2CA9
:100928000130F5007D08043E860001308700750817
:1009380081079F2C9F2C7D08053E8600013087008B
:100948007D08043E84000130850000080106031D6F
:10095800AE2CAF2C232D7D088600013087000111B5
:100968007D088600013087008110232D232D7D0806
:10097800860001308700811EC22CC32CE12C7D0823
:10098800043E860001308700013081027D08053E63
:100998008600013087007D08043E84000130850010
:1009A80000080102031CD92CDA2C232D7D088600AF
:1009B800013087008110232D232D0130F5007D089B
:1009C800043E860001308700750881077D08043ED3
:1009D8008600013087007D08063E840001308500CE
:1009E80000080102031CF92CFA2C232D7D0886002F
:1009F8000130870081107D088600013087000113CF
:100A08007D08093E860001308700011721003B0858
:100A180086008701811520000E130330F500750844
:100A2800F200F3010314F30D0130A2310D228031DD
:100A3800232D232D232D232D232D232D232D20005E
:100A48008D1C272D282D462D0130F5007D08083EE8
:100A5800860001308700750881077D08083E8600FA
:100A6800013087000108003A03193B2D3C2D462D23
:100A78007D08083E86000130870081018D10462DD3
:100A8800462D462D21006D08013E86000130870065
:100A98000130810741310318810A6D08013E860043
:100AA80001308700403FC83A031D5C2D413F003AA2
:100AB800031D5F2D602D702D6D08013E86000130ED
:100AC80087000030C03F0030C13F6C08860001300D
:100AD80087008114702D702D08002000B1003108A6
:100AE800AF313D27853120003108013A031D7D2DA6
:100AF8007E2D8D2D00300C180130AF006F08860058
:100B080001308700AF0D01082F06FD392F0681003F
:100B1800B92D3108023A031D922D932DA22D0030D4
:100B28000C1B0130AF006F08860001308700AF0D45
:100B380001082F06FD392F068100B92D3108033A27
:100B4800031DA72DA82DB92D00300C1A0130AF00B8
:100B58006F08860001308700AF0D01082F06FD39A8
:100B68002F068100B92DB92DB92D6F0886000130E7
:100B78008700011CC02DC12D212F6F088600013070
:100B88008700811CC82DC92DC12E6F088600013031
:100B980087000119D02DD12DF62D0130AF006F0837
:100BA800023E8600013087002F0881076F08023E49
:100BB8008600013087000A300102031CE42DE52D70
:100BC800212F6F08023E86000130870081016F08DF
:100BD80086000130870001153108A731A327853128
:100BE800212F212F20006F088600013087008119EE
:100BF800FE2DFF2D2F2E6F08033E86000130870043
:100C08000130810741310318810A6F08033E8600CD
:100C180001308700403FAF00413FB0000030300254
:100C2800963003192F02031C1A2E1B2E212F6F0832
:100C3800033E8600013087000030C03F0030C13FCE
:100C48006F0886000130870081153108A031E62041
:100C58008531212F212F20006F0886000130870061
:100C6800011A372E382E832E6F08053E8600013074
:100C780087000130810741310318810A6F08053E5A
:100C8800860001308700403FAF00413FB000003090
:100C98003002963003192F02031C532E542E212F95
:100CA8006F08053E8600013087000030C03F0030E5
:100CB800C13F6F088600013087000116A2010314A6
:100CC800A20D0130AB31FB23853121006C08033EB6
:100CD800860001308700811C722E732E212F02306E
:100CE8002000AF002F08A9006430AA000030AB0034
:100CF80001309031A7208531212F212F212F20006D
:100D08006F08860001308700811A8B2E8C2E212FC8
:100D18006F08073E860001308700013081074131A6
:100D28000318810A6F08073E860001308700403F9C
:100D3800AF00413FB000013030022C3003192F02C0
:100D4800031CA72EA82E212F6F08073E860001300E
:100D580087000030C03F0030C13F6F088600013077
:100D680087008116A2010130AB31FB238531212F89
:100D7800212F212F212F212F212F20006F088600BE
:100D880001308700011DC92ECA2E212F0130AF0066
:100D98006F08023E8600013087002F0881076F0820
:100DA800023E8600013087000A300102031CDD2E56
:100DB800DE2E212F6F08023E860001308700810158
:100DC8006F0886000130870001116F08033E860016
:100DD800013087000030C03F0030C13F6F088600F7
:100DE8000130870081116F08053E860001308700B9
:100DF8000030C03F0030C13F6F08860001308700D7
:100E080001126F08073E8600013087000030C03F9E
:100E18000030C13F6F088600013087008112A201AF
:100E28000130AB31FB238531200031089D31342559
:100E38008531212F212F212F212F08002000E700A5
:100E48006708AB314E2387312100AF08031D2D2FD2
:100E58002E2F8E2F2000A60101309131EA218731F3
:100E68002000A2010130AB319B2387312000A20171
:100E78000130AB318B2387312000A601023091313C
:100E8800EA2187312000A2010230AB319B23873150
:100E98002000A2010230AB318B2387312000A6014C
:100EA80003309131EA2187312000A2010330AB31B0
:100EB8009B2387312000A2010330AB318B2387317C
:100EC80021006B08093E86000130870081016B080C
:100ED8000B3E86000130870081016B080F3E8600BB
:100EE8000130870081016B08113E860001308700C0
:100EF80081012000A9010314A90D6430AA00003063
:100F0800AB0001309031A72087310130A5319625FB
:100F18008731FB2F21002F08203A031D942F952F8E
:100F2800AC2F6B08093E86000130870081016B08F1
:100F38000B3E86000130870081016B08113E860058
:100F48000130870081010130A53196258731FB2FBB
:100F580021002F08013A031DB22FB32FB82F0130FB
:100F680092318C228731FB2F21002F08113A031D63
:100F7800BE2FBF2FC42F0130A431AC248731FB2FE3
:100F880021002F08023A031DCA2FCB2FD02F023081
:100F980092318C228731FB2F21002F08213A031D23
:100FA800D62FD72FDC2F0230A431AC248731FB2F6A
:100FB80021002F08033A031DE22FE32FE82F033007
:100FC80092318C228731FB2F21002F08313A031DE3
:100FD800EE2FEF2FFB2F0330A431AC248731FB2FEA
:100FE800FB2FFB2FFB2FFB2FFB2FFB2FFB2F0800CB
:1010000020302000E2006208FB000130A331DB2326
:1010100088312A302000E2006208FC000230A3314F
:10102000DB23883134302000E2006208FD00033009
:10103000A331DB23883108002000B2003208A03140
:10104000BB20883121003508860036088700811CC6
:101050002A282B28E6283508023E2000AE00003062
:101060002100363D2000AF002E0886002F088700A3
:101070000130810741310318810A21003508023E01
:101080002000AE0000302100363D2000AF002E08C9
:1010900086002F088700403FB000413FB100163066
:1010A0003102123003193002031C57285828E62851
:1010B00021003508023E2000AE0000302100363D00
:1010C0002000AF002E0886002F0887000030C03FA8
:1010D0000030C13F0130AE0021003508043E200041
:1010E000AF0000302100363D2000B0002F08860000
:1010F000300887002E08810721003508043E2000B3
:10110000AE0000302100363D2000AF002E088600E2
:101110002F08870021003508013E2000B000003074
:101120002100363D2000B1003008840031088500E0
:1011300000080102031C9D289E28E628210035088E
:10114000043E2000AE0000302100363D2000AF00FC
:101150002E0886002F0887008101210035088600AF
:101160003608870081102000A2013208AB318B23A2
:1011700088312000A2013208AB319B238831200046
:10118000A00132089931EB2188312000A20103141B
:10119000A20D3208AC313C2488312000A201320873
:1011A000AC314D2488310130A5319625883120009D
:1011B000A9010314A90D6430AA000030AB0001306E
:1011C0009031A7208831E628E628E628080020008C
:1011D0004C08D2004D08D3004E08D4000310530D24
:1011E000540DD5005508D8004F08D2005008D30040
:1011F0005108D4000310530D540DD5005508D700E5
:101200005808031D042915295708580203180929ED
:101210000A291D295803FF3A5707D20019305202F4
:10122000031C132914291D2915294F08CC00500827
:10123000CD005108CE00162A162A5708031D212971
:10124000312958085702031826292729322957031C
:10125000FF3A5807D20019305202031C30293129B5
:101260003229162A0630D2005208D600CE1F39295C
:101270003A293B29D617D11F3E293F294029561725
:10128000CD17FF30CC05FF30CD050030CE05D0178F
:10129000FF30CF05FF30D0050030D1055708580288
:1012A000031853295429812955290130CF35D00DF0
:1012B000D10D890B56290130D7025708580603195A
:1012C0006229632979290130D60256080739031D9E
:1012D0006A296B2955297929792979290130CE364E
:1012E000CD0CCC0C890B6F290130D2005208D807E5
:1012F000792958085706031D7E297F296E29B429AC
:10130000B42958085702031886298729B42988293F
:101310000130CC35CD0DCE0D890B89290130D80295
:1013200057085806031995299629AC290130D60289
:1013300056080739031D9D299E298829AC29AC2907
:10134000AC290130D136D00CCF0C890BA229013049
:10135000D2005208D707AC2958085706031DB129F7
:10136000B229A129B429B429D61FB729B829C92976
:10137000FF30CC06FF30CD06FF30CE060130CC0763
:10138000003003180130CD07003003180130CE07BC
:10139000C929561FCC29CD29DE29FF30CF06FF30C1
:1013A000D006FF30D1060130CF07003003180130DE
:1013B000D007003003180130D107DE29D6014C08D0
:1013C000CF074D08D03D4E08D13DD11FE829E9296E
:1013D000FD29FF30CF06FF30D006FF30D1060130A7
:1013E000CF07003003180130D00700300318013058
:1013F000D107D6010314D60DFD294F08A0005008CF
:10140000A1005108A2005808D2005208A3005608B3
:10141000D3005308A4009A31CE228831200020083E
:10142000CC002108CD002208CE00162A080020009A
:10143000D600D4010314D40DD5010314D50D5608DC
:10144000AE3162268A3120006D08093E86000130E7
:101450008700811C2C2A2D2A182B5608013A031DBF
:10146000322A332A482A7C08093E86000130870048
:10147000811E3B2A3C2A452A7D08093E8600013010
:101480008700811A442A452A482AD401482A482A32
:101490005608023A031D4D2A4E2A632A7B08093E4C
:1014A000860001308700811E562A572A602A7D084F
:1014B000093E860001308700811A5F2A602A632A6C
:1014C000D401632A632A5608033A031D682A692A4D
:1014D0007E2A7B08093E860001308700811E712A22
:1014E000722A7B2A7C08093E860001308700811A17
:1014F0007A2A7B2A7E2AD4017E2A7E2A5408031D5A
:10150000822A5D2B6D08093E860001308700011C90
:101510008A2A8B2AFD2A5608013A031D902A912A0D
:10152000A62A7C08093E860001308700011F992AFF
:101530009A2AA32A7D08093E860001308700011BF4
:10154000A22AA32AA62AD501A62AA62A5608023A22
:10155000031DAB2AAC2AC12A7B08093E8600013054
:101560008700011FB42AB52ABE2A7D08093E8600DD
:1015700001308700011BBD2ABE2AC12AD501C12A1C
:10158000C12A5608033A031DC62AC72ADC2A7B084B
:10159000093E860001308700011FCF2AD02AD92AB0
:1015A0007C08093E860001308700011BD82AD92A11
:1015B000DC2AD501DC2ADC2A5508031DE02A5D2B34
:1015C0006D08093E8600013087008110A20156088F
:1015D000AC315E248A312000A2010314A20D56080A
:1015E000AC316F248A312000A6010314A60D5608E1
:1015F0009131EA218A315D2B5D2B20006D08093E77
:101600008600013087008110A2015608AC315E24AB
:101610008A312000A2015608AC316F248A312000A3
:10162000A60156089131EA218A315D2B5D2B5D2B95
:1016300020006D08093E860001308700811D212BA6
:10164000222B5D2BA0313E208A310038031D292B2F
:101650002A2B5D2B20005608AE3162268A312000ED
:101660006D08093E86000130870081116D08093E32
:10167000860001308700011D3E2B3F2B532BD001EC
:101680000314D00D5608993112218A312000A90186
:101690000314A90D6430AA000030AB000130903172
:1016A000A7208A315D2B2000D001560899311221E4
:1016B0008A315D2B5D2B5D2B5D2B08002000B50072
:1016C0003508AA313F228B312100430886000130C2
:1016D0008700011C6C2B6D2BD62C43088600013033
:1016E00087000119742B752BBD2B4308013E860022
:1016F000013087000130810741310318810A430816
:10170000013E860001308700403F2000B200413F8B
:10171000B30001303302F43003193202031C912B61
:10172000922BD62C0130AD3109258B31003A0319AB
:101730009A2B9B2BB02B21004308013E86000130E1
:1017400087000030C03F0030C13F430886000130B1
:101750008700011543088600013087000112D62C4E
:1017600021004308013E860001308700E830C03F79
:101770000330C13FD62CD62CD62C4308013E860020
:10178000013087000130810741310318810A430885
:10179000013E860001308700403F2000B200413FFB
:1017A000B30000303302043003193202031CD92B7A
:1017B000DA2BD62C21004308013E86000130870039
:1017C0000030C03F0030C13F430886000130870031
:1017D00001114308083E860001308700403F200089
:1017E000B200413FB30021004308043E86000130AF
:1017F000870020003208C03F3308C13F2100430862
:10180000860001308700811C062C072C482C4308D9
:10181000043E860001308700403F2000B200413F77
:10182000B300023033021C3003193202031C192C9E
:101830001A2C3F2C0130B20021004308033E8600E1
:101840000130870020003208810721004308033E51
:1018500086000130870003300102031C302C312C3C
:101860008A2C4308033E8600013087008101200056
:10187000AF0101309C31B2248B318A2C8A2C21009B
:101880004308033E86000130870081018A2C8A2CA0
:101890004308043E860001308700403F2000B2002C
:1018A000413FB30001303302DC3003193202031828
:1018B0005A2C5B2C822C0130B20021004308033EDD
:1018C000860001308700200032088107210043088C
:1018D000033E86000130870003300102031C712C97
:1018E000722C8A2C4308033E860001308700810158
:1018F0002000AF010314AF0D01309C31B2248B31B5
:101900008A2C8A2C21004308033E86000130870080
:1019100081018A2C2100430886000130870081184C
:10192000922C932C992C43088600013087000116D5
:10193000992C4308043E860001308700403F200078
:10194000B200413FB3003308B40021006B08183ED9
:101950008600013087002000340881002100430800
:10196000043E86000130870001082000B2002100FB
:101970006B08193E86000130870020003208810084
:1019800021004308063E8600013087000030C03F3A
:101990000030C13F4308083E860001308700003018
:1019A000C03F0030C13FD62CD62CD62C08002000DA
:1019B000B6003608AB3106238C3120006E08860055
:1019C00002308700811EE52CE62C122D6E08033EA6
:1019D0008600023087000130810741310318810AF7
:1019E0006E08033E860002308700403FB200413F50
:1019F000B30003303302E83003193202031C012D17
:101A0000022DFF2F6E08033E860002308700003053
:101A1000C03F0030C13FAF0136089E3140268C31B7
:101A2000FF2FFF2F20006E08860002308700011E66
:101A30001A2D1B2D792F6E08453E86000230870037
:101A40006E08443E8400023085000008B2006E0833
:101A5000433E840002308500000832070107B300CE
:101A60006E083E3E860002308700330881006E0813
:101A7000013E8600023087000130810741310318A2
:101A8000810A6E08013E860002308700403FB200A6
:101A9000413FB30000303302043003193202031C0B
:101AA000522D532DFF2F6E08013E86000230870015
:101AB0000030C03F0030C13F6E0886000230870012
:101AC00001120330A0000030A1006E08103E860015
:101AD000023087006E080C3E840002308500003F13
:101AE000B200013FB3006E080E3E84000230850054
:101AF000003F3207B400013F333DB500403F34079B
:101B0000A200413F353DA300A4311D248C312000AB
:101B10006E082E3E8600023087002008C03F210854
:101B2000C13F0330A0000030A1006E08223E8600B5
:101B3000023087006E081E3E840002308500003FA0
:101B4000B200013FB3006E08203E840002308500E1
:101B5000003F3207B400013F333DB500403F34073A
:101B6000A200413F353DA300A4311D248C3120004B
:101B70006E08303E8600023087002008C03F2108F2
:101B8000C13F6E082E3E860002308700403FB20003
:101B9000413FB3006E08303E860002308700403F70
:101BA000B400413FB50033083502031DD92D32087A
:101BB00034020318DC2DDD2D722F6E082E3E8600B8
:101BC000023087006E08303E840002308500003FFE
:101BD000B200013FB300B209B309B20A0319B30A54
:101BE000403F3207B400413F333DB5006E082C3E04
:101BF0008600023087003408C03F3508C13F6E08B8
:101C00003A3E8600023087000A3001020318092E8E
:101C10000A2E622E0130B2006E083A3E8600023073
:101C20008700320881076E083A3E8600023087003E
:101C30000108013A031D1D2E1E2E272E6E08363E6A
:101C4000860002308700FF30C03F0030C13F6E0881
:101C50003A3E8600023087000108033A031D312E08
:101C6000322E622E6E083E3E86000230870001084A
:101C7000013A031D3C2E3D2E472E6E08363E86004F
:101C8000023087001A30C03F0030C13F622E6E081C
:101C9000063E860002308700403FB200413FB3005D
:101CA00032081A3EB4000030333DB5006E08363EAF
:101CB0008600023087003408C03F3508C13F622EDD
:101CC000622E622E6E08363E860002308700403F4C
:101CD000B200413FB3006E082C3E86000230870000
:101CE000403FB400413FB50033083502031D7A2E52
:101CF00032083402031C7D2E7E2EA12E0130B2004C
:101D00006E083C3E860002308700320881076E086C
:101D10003C3E86000230870003300102031C912EF6
:101D2000922E722F6E083C3E8600023087008101A1
:101D3000AF010314AF0D36089E3140268C31722F4F
:101D4000722F20006E083C3E860002308700810121
:101D50006E083A3E86000230870006300102031CFE
:101D6000B22EB32E722F6E08423E860002308700DC
:101D7000063001020318BD2EBE2EC82E0130B2005F
:101D80006E08423E86000230870032088107C82E66
:101D90006E08423E86000230870002300102031CBA
:101DA000D22ED32E2F2F6E08463E8600023087009B
:101DB000011CDB2EDC2E122F6E08463E8600023000
:101DC000870001106E082C3E860002308700403FDD
:101DD000B200413FB3006E08063E86000230870025
:101DE0003208C03F3308C13F6E083E3E86000230D5
:101DF00087000108B200B3013208A0003308A10037
:101E00001A30A2000030A300AE31A8268C31200089
:101E10006E08363E8600023087002008C03F210849
:101E2000C13F122F6E088600023087008115A20183
:101E30000314A20D0130AC315E248C312000A201CC
:101E40000314A20D0230AC315E248C312000A201BB
:101E50000314A20D0330AC315E248C312F2F2000EF
:101E60006E08463E860002308700811C382F392FCD
:101E7000722F6E08463E86000230870081106E0881
:101E80002C3E860002308700403FB200413FB30045
:101E90006E08063E8600023087003208C03F3308D5
:101EA000C13F6E083E3E8600023087000108B20046
:101EB000B3013208A0003308A1001A30A20000309C
:101EC000A300AE31A8268C3120006E08363E860075
:101ED000023087002008C03F2108C13F722F722FB7
:101EE000722F722F20003608A13143218C31FF2F31
:101EF000FF2F20006E08860002308700811C812F92
:101F0000822FA62F6E088600023087000119892FC4
:101F10008A2F952F6E0886000230870001156E0803
:101F20008600023087008111952F0130AB316C2380
:101F30008C31003A03199D2F9E2FFF2F20006E0831
:101F40008600023087000116FF2FFF2F6E088600E3
:101F500002308700011DAD2FAE2FFF2F6E088600C7
:101F60000230870001116E0886000230870081155B
:101F70006E083C3E86000230870081016E083A3EC2
:101F800086000230870081016E08063E860002301E
:101F900087000030C03F0030C13F6E083F3E8600E2
:101FA0000230870081016E08463E860002308700BD
:101FB00001106E08463E8600023087008110013015
:101FC000A13143218C312000A2010314A20D013064
:101FD000AC315E248C312000A2010314A20D02302A
:101FE000AC315E248C312000A2010314A20D033019
:101FF000AC315E248C31FF2FFF2FFF2FFF2F080005
:1020020015302000A00020082100C4000800200094
:102012002808AC002908AD002A08AE0003102D0DD7
:102022002E0DAF002F08B500B508031D19281A2878
:1020320024280030AB000030AA000030A900003094
:10204200A800A628A6282808AC002908AD002A085E
:10205200AE001730AE36AD0CAC0C890B2B282C0819
:10206200AF002F08B000A917FF30A805FF30A9055F
:102072000030AA052808B1002908B2002A08B300D6
:10208200B4018E30B502B51F472848286B283508A1
:10209200803A8F3E03184E284F285A280030AB0052
:1020A2000030AA000030A9000030A800A628A62807
:1020B2005A280130B436B30CB20CB10C890B5B2830
:1020C2000130AC002C08B507031D682869285A287E
:1020D2008D288D2818303502031C70287128862817
:1020E2000030AB000030AA000030A9000030A80088
:1020F200A628A62886280130B135B20DB30DB40D3D
:10210200890B7D280130B5028628B508031D8A286F
:102112008B287C288D288D283008031D91289D2826
:10212200B109B209B309B409B10A0319B20A031910
:10213200B30A0319B40A9D283408AB003308AA0075
:102142003208A9003108A800A62808002000AD0026
:102152002D08AB31302390310A302000A00000302E
:10216200A1002B08A301A3072A08A201A207993103
:102172007E21903120002108AB01AB072008AA0183
:10218200AA0721003908860001308700011CCA28ED
:10219200CB28472939088600013087008118D228C8
:1021A200D328F828390886000130870081142000DE
:1021B2002908AC0021003908033E8600013087005F
:1021C20020002C08810021003908063E86000130DB
:1021D200870020002A08C03F2B08C13F2D08013A82
:1021E200031DF428F52847298D1547294729210081
:1021F20039088600013087008119002901291E292A
:102202003908860001308700811520002908AC00BA
:1022120021003908043E86000130870020002C0886
:10222200810021003908083E860001308700200025
:102232002A08C03F2B08C13F4729210039088600E0
:1022420001308700011A26292729472939088600E3
:1022520001308700011620002908AC00210039084E
:10226200053E86000130870020002C0881002100F5
:1022720039080A3E86000130870020002A08C03F44
:102282002B08C13F47294729472947290800200031
:10229200A3002308A331232391312000A208031DA8
:1022A2005329542978292308013A031D59295A2907
:1022B2005C298E17E9292308023A031D6129622944
:1022C20064298C15E9292308033A031D69296A291F
:1022D2006C290E17E9292308633A031D7129722913
:1022E200E9298D16E929E929E929E929E9292208B3
:1022F200013A031D7D297E29A2292308013A031DE3
:102302008329842986298E13E9292308023A031D89
:102312008B298C298E298C11E9292308033A031D64
:102322009329942996290E13E9292308633A031D58
:102332009B299C29E9298D12E929E929E929E92919
:10234200E92922080A3A031DA729A829DA29210026
:102352003D088600870181103D08013E8600870105
:102362000030C03F0030C13F20002308013A031D66
:10237200BB29BC29BE298E17E9292308023A031D6D
:10238200C329C429C6298C15E9292308033A031D48
:10239200CB29CC29CE290E17E9292308633A031D3C
:1023A200D329D429E9298D16E929E929E929E92935
:1023B200E92922080B3A031DDF29E029E929210036
:1023C2003D08860087018114E929E929E929E929DB
:1023D20008002000A8002808AE31622691312000B2
:1023E2002808A70021003B08013E86008701200043
:1023F200270881002608031DFF295F2A6D08860031
:10240200013087008116A2012808913148219131BB
:102412002000A2010314A20D0130AC3180249131BD
:102422002000A0010130AD315325913120006D080B
:1024320086000130870081140330A7006D08023E38
:10244200860001308700270881006D088600013070
:102452008700011B2D2A2E2A8B2A6D088600013047
:1024620087000117A2010314A20D0130AB31AB2387
:1024720091312000A2010314A20D0130AB31BB2324
:10248200913120002808A7002708A200A301031405
:10249200A30D0130A231B322913120006D08053E17
:1024A2008600013087000108A7006D08043E8600FF
:1024B20001308700270881008B2A8B2A6D0886004D
:1024C2000130870081126D08063E860001308700C8
:1024D2000108A7006D08043E860001308700270826
:1024E20081006D0886000130870081146D08860026
:1024F2000130870081116D088600013087000112CA
:102502000330A7006D08023E8600013087002708CD
:1025120081008B2A08002000B0003008AF31632709
:10252200923121003008803A031D982A992AB82A4C
:102532002000A3010314A30D210031082000AE00E6
:102542002E08A40030089831AB20923121003108C6
:102552002000AE0030081A3E21006B072000AF00B9
:102562002F088600013087002E088100B82A21003A
:102572003F08860087010118BF2AC02AEA2A3F08BD
:102582008600870101142000A2010314A20D300865
:10259200AB318B2392312000A2010314A20D30082B
:1025A200AC313C2492312000A2010314A20D300868
:1025B200AC314D24923121003F0886008701003062
:1025C200011801302000A00030089931EB2192312E
:1025D200292B21003008803A031DF02AF12AFA2A19
:1025E2002000A0010314A00D30089931EB21923193
:1025F200292B21003F088600870101102000A2013B
:102602003008AB318B2392312000A2010314A20DBA
:102612003008AC313C24923121003F08860087010A
:102622000030011801302000A2003008AC314D24E6
:1026320092312000A00130089931EB219231200023
:10264200A301A40130089831AB209231292B292B08
:102652002000A9010314A90D6430AA000030AB00C8
:1026620001309031A72092310130A5319625923167
:1026720008002000EA006A08AB314E2393312100A2
:102682003E0886008701011C472B482BED2B2000BA
:10269200EB010C184D2B4E2B572B0C1B512B522B95
:1026A200572B0C1E552B562B642B572B21003E0803
:1026B20086008701011B5E2B5F2B642B2000EB0140
:1026C2000314EB0D642B21003E08860087012000D5
:1026D2006B088113031D811721003E0886008701C4
:1026E200811F742B752B7A2B0130A131D8219331A4
:1026F200ED2B21003E0886008701811C812B822B55
:102702008E2B3E088600870181109B31BA239331BC
:1027120001309A315B229331ED2B21003E08860075
:102722008701011D952B962BD02B0130A131D82189
:10273200933121003E0886008701811AA12BA22B2A
:10274200C32B01302000E90021003E08013E860033
:10275200870120006908810721003E08013E8600AA
:1027620087010108193A031DB72BB82BED2B3E0840
:10277200013E8600870181013E088600870181169D
:10278200ED2BED2B3E088600870181123E08860064
:1027920087010111A6313A269331ED2BED2B210051
:1027A2003E08860087018119D72BD82BED2B3E08D6
:1027B2008600870181153630AD316725933134307B
:1027C200AD31672593310130AA3161229331ED2B6E
:1027D200ED2BED2BED2BED2B080020003F08C20066
:1027E2004008C3004108C4000310430D440DC50056
:1027F2004508CA00CA08031DFF2B002C082C003014
:10280200BC000030BD000030BE00A52CA52C3C0849
:10281200C2003D08C3003E08C4000310430D440D2E
:10282200C5004508CB00CB08031D182C192C212C00
:102832000030BC000030BD000030BE00A52CA52C2D
:102842000030C7000030C8000030C90089304B0793
:10285200C2004208CA023F08C2004008C300410841
:10286200C4001030C436C30CC20C890B332C42088E
:10287200C5004508CB003C08C2003D08C3003E0825
:10288200C4001030C436C30CC20C890B432C42085E
:10289200C5004508CB068030C2004208CB05C017F0
:1028A200FF30BF05FF30C0050030C105BD17FF3046
:1028B200BC05FF30BD050030BE051830C20042081D
:1028C200C600632C0130C735C80DC90D890B642CB5
:1028D2003E084102031D732C3D084002031D732C68
:1028E2003C083F02031C762C772C7F2C3C08BF024D
:1028F2003D08C03B3E08C13B47147F2C0130BF3529
:10290200C00DC10D890B802C0130C602031D8A2C1B
:102912008B2C632C8C2C4708A0004808A100490886
:10292200A2004A08C2004208A3004B08C3004308A1
:10293200A4009A31CE22933120002008BC00210845
:10294200BD002208BE00A52C08002000AD00AF018A
:10295200AE012D08AB310623943120006E088600AB
:1029620002308700011EB62CB72C692DC030A8009A
:102972002808A0002708AE318426943120006E0872
:10298200323E8600023087002008C03F2108C13F46
:10299200AF0105302F02031CCF2CD02CD22C172DC7
:1029A200172D6E08323E860002308700403FA80095
:1029B200413FA9002F080907083E6E07AA002A080E
:1029C200860002308700403FAB00413FAC0029083F
:1029D2002C02031DEE2C28082B020318F12CF22CDA
:1029E2000C2D6E08323E860002308700403FA80060
:1029F200413FA9002F080907083E6E07AA002A08CE
:102A02008600023087002808C03F2908C13FAE0176
:102A12000314AE0D172D0130A8002808AF070530AA
:102A22002F02031C152D162DD22C172DAE08031DB7
:102A32001B2D1C2D692DAF0105302F02031C222DE9
:102A4200232D252D692D692D2F0809071A3E6E07A2
:102A5200A8002808860002308700403FA900413FB5
:102A6200AA006E08323E860002308700403FAB006B
:102A7200413FAC002A082C02031D412D29082B02DC
:102A82000318442D452D5C2D6E08323E860002301F
:102A92008700403FA800413FA9002F0809071A3EBE
:102AA2006E07AA002A088600023087002808C03F65
:102AB2002908C13F692D0130A8002808AF07053059
:102AC2002F02031C652D662D252D692D692D692D7B
:102AD20008001F30AD31F0259531AA3A031D722D41
:102AE200732DE02D0030AD31F02595312000D0005E
:102AF20021006B080C3E8600013087002000500840
:102B020081000130AD31F02595312000D000210047
:102B12006B080D3E860001308700200050088100BE
:102B22000230AD31F02595312000D00021006B0834
:102B32000E3E8600013087002000500881003C30A4
:102B4200A431642495312000D0005008D1005108EE
:102B5200D00021006B08153E86000130870020005E
:102B6200500881005108D00021006B08163E8600F3
:102B7200013087002000500881005108D000210058
:102B82006B08173E86000130870020005008810044
:102B92001E30AD31F0259531013A031DD12DD22DD4
:102BA200302E21006C0886000130870081126C08EB
:102BB200033E8600013087008110302E302E3C30DB
:102BC200A431642495312000D0005008D10051086E
:102BD200D00021006A08033E8600023087002000F0
:102BE200500881005108D00021006A08043E860086
:102BF200023087002000500881005108D0002100D7
:102C02006A08053E860002308700200050088100D5
:102C12005108D00021006B08153E86000130870064
:102C22002000500881005108D00021006B08163E98
:102C32008600013087002000500881005108D00032
:102C420021006B08173E86000130870020005008E3
:102C520081008B13A231EB2295318B17302E0800A5
:102C620020003C08C2003D08C3003E08C400031017
:102C7200430D440DC5004508C600C608031D422E7B
:102C8200432E4B2E0030BC000030BD000030BE0091
:102C9200FA2EFA2E3F08C2004008C3004108C400C1
:102CA2000310430D440DC5004508CB00CB08031D9E
:102CB2005B2E5C2E642E0030BC000030BD00003064
:102CC200BE00FA2EFA2E4B087B3EC2004208C6070F
:102CD2003C08C2003D08C3003E08C4001030C436A0
:102CE200C30CC20C890B702E4208C5004508CB00EC
:102CF2003F08C2004008C3004108C4001030C43677
:102D0200C30CC20C890B802E4208C5004508CB06B5
:102D12008030C2004208CB05BD17C017FF30BF0587
:102D2200FF30C0050030C1050030C7000030C800C8
:102D32000030C9000730C2004208CA00A02E3C1C65
:102D4200A32EA42EAB2E3F08C7074008C83D41085A
:102D5200C93DAB2E0130BE36BD0CBC0C890BAC2E6E
:102D62000130BF35C00DC10D890BB22E0130CA0230
:102D7200031DBC2EBD2EA02EBE2E0930C20042085D
:102D8200CA00C32E3C1CC62EC72ECE2E3F08C70734
:102D92004008C83D4108C93DCE2E0130BE36BD0CAB
:102DA200BC0C890BCF2E0130C936C80CC70C890B5D
:102DB200D52E0130CA02031DDF2EE02EC32EE12ED6
:102DC2004708A0004808A1004908A2004608C2001E
:102DD2004208A3004B08C3004308A4009A31CE2244
:102DE200963120002008BC002108BD002208BE0048
:102DF200FA2E08002000A6002608AB3130239631B7
:102E020020002608013A031D072F082F1A2F003031
:102E12008D190130A2002100390886000130870097
:102E22002000A20EA20D01082206DF39220681002F
:102E32001A2F21003908860001308700811C222FB9
:102E4200232FFF2F3908013E860001308700013011
:102E5200810741310318810A3908063E8600013094
:102E62008700403F2000A200413FA3002100390813
:102E7200013E860001308700403F2000A400413F10
:102E8200A50023082502031D482F22082402031C43
:102E92004B2F4C2FFF2F21003908013E86000130B5
:102EA20087000030C03F0030C13F39088600013042
:102EB2008700811A5D2F5E2FE52F3908033E8600B9
:102EC200013087008108031D672F682FDC2F390826
:102ED200860001308700811D6F2F702F9D2F3908CA
:102EE20086000130870081113908043E86000130D6
:102EF200870001082000A20021003908033E860055
:102F02000130870020002208810021003908083E94
:102F1200860001308700403F2000A200413FA3000D
:102F220021003908063E8600013087002000220871
:102F3200C03F2308C13FFF2F21003908860001301E
:102F42008700011EA52FA62FD32F39088600013036
:102F5200870001123908053E86000130870001080A
:102F62002000A20021003908033E860001308700BC
:102F7200200022088100210039080A3E8600013023
:102F82008700403F2000A200413FA30021003908F2
:102F9200063E86000130870020002208C03F230839
:102FA200C13FFF2F210039088600013087008110C0
:102FB200FF2FFF2FFF2F390886000130870081166F
:102FC20020008D15FF2FFF2F2100390886000130C8
:102FD2008700811220002608013A031DF12FF22FEB
:102FE200F42F8D11F42F21003908033E86000130A1
:102FF200870001308102FF2FFF2FFF2F08000034CE
:103002000334163417341E341F3420342A342B343C
:103012000B340C340D340E340F341034113412349A
:10302200133414340A341534213422341834193444
:103032001A341B341C341D342334243425342634EE
:1030420029342C342D342E34003401340234073424
:103052000834093406340434053427342834073458
:103062000734303487346B34F8347F343F340934D6
:1030720000345C34A734623486348334033422341B
:10308200F83400344434B634103418341D341C344B
:10309200C7340034B234EA340A34003411345934B7
:1030A200883431340B342F342E340634043405344E
:1030B20000343034D334913441340034FE34FE349D
:0C30C200FE34FE34FE34FE34FE34FE34D6
:1030D200FA01FB01FC01FD01ED01EE01EF01A0305F
:1030E2008400003085004A30AA31322298312030E3
:1030F2008400013085004530AA3132229831A03057
:103102008400013085002A30AA3132229831A03061
:103112008400023085004730AA31322298310A30C9
:103122008400AE308500CA308600013087001A3034
:10313200AA312C229831F2308400AE308500203042
:103142008600023087002530AA312C2298312000D7
:103152009C31362C2000A8002808A031BB209831D1
:1031620021003508860036088700011CB928BA28D4
:1031720011293508860036088700200023088110AF
:10318200031D81142308031DC728DE282408A43147
:10319200F72498312000A50021003508013E2000C7
:1031A200A60000302100363D2000A7002608860038
:1031B2002708870025088100EF28A308031DE228BD
:1031C200E328EF2828081A3E21006B072000A500FB
:1031D20025088600013087008101EF28210035088B
:1031E200023E2000A50000302100363D2000A6004E
:1031F20025088600260887000030C03F0030C13F06
:1032020021003508043E2000A50000302100363D93
:103212002000A600250886002608870081011129C2
:1032220008002000D3005308AE31622699312000F5
:103232005008031D1D2928296D08860001308700CA
:1032420081156D0886000130870081147D296D0883
:10325200860001308700811D2F2930297D296D08C4
:1032620086000130870081106D08860001308700DA
:103272008111A201A3010314A30D0130A2317B220B
:10328200993120006D08043E860001308700010854
:10329200D1006D08053E860001308700510881008B
:1032A200A0010314A00D53089931EB21993101308B
:1032B200A5319625993121006A08223E8600023006
:1032C2008700011420006D08053E8600013087004A
:1032D2000108A431642499312000D1005308143E1E
:1032E20021006B072000D2005208860001308700BF
:1032F200510881007D297D2908002000A601A11F17
:10330200832984298D29A009A109A00A0319A10AE8
:10331200A6010314A60D8D29A31F902991299B298B
:10332200A209A309A20A0319A30A0130A4002408CE
:10333200A6069B29A701A801210820040319A22996
:10334200A329D929A5010314A50DB1290130A0355E
:10335200A10D890BA8290130A4002408A507B129D1
:10336200A11FB429B529A729B729B7290130A73543
:10337200A80D890BB82921082302031DC2292008A0
:103382002202031CC529C629CC292008A202210831
:10339200A33B2714CC290130A136A00C890BCD29DF
:1033A2000130A502031DD629D729B729D929D92940
:1033B2002608031DDD29E329A709A809A70A03197D
:1033C200A80AE3292808A101A1072708A001A0074C
:1033D200EA2908002000A400A3010314A30D240875
:1033E200FF3E890AF6290310A30DFF3E031DF429AF
:1033F2002408A10021006B080B3E860001308700E3
:103402002000210881002408143E21006B072000BF
:10341200A10021088600013087000108A2002100D6
:103422006B08093E860001308700200022088100D7
:1034320024081A3E21006B072000A1002108860003
:10344200013087000108A20021006B08113E8600AE
:10345200013087002000220881002008031D322A43
:10346200462A21006B080F3E8600013087000108C2
:1034720020002304A10021006B080F3E86000130CA
:1034820087002000210881005A2A21006B080F3E84
:10349200860001308700200023090105A1002100D8
:1034A2006B080F3E86000130870020002108810052
:1034B2005A2A08002000E8006808AB314E239A31EE
:1034C20021003E0886008701011F682A692A7A2A9C
:1034D200A008031D6D2A6E2ACD2A2108643A031D15
:1034E200732A742ACD2A0130A531E7259A31CD2AD3
:1034F200CD2A2100A008031D7F2A802ACD2A210877
:10350200023A031D852A862ACD2A2C08FF3A031D7A
:103512008B2A8C2A9A2A2D08FF3A031D912A922A75
:103522009A2A2E08FF3A031D972A982A9A2A0000FF
:10353200CD2A21006B080C3E8600013087002C0842
:103542000106031DA52AA62ACD2A6B080D3E860078
:10355200013087002D080106031DB02AB12ACD2AA9
:103562006B080E3E8600013087002E080106031DFF
:10357200BB2ABC2ACD2A0130873122279A31CD2A93
:10358200CD2ACD2ACD2ACD2ACD2ACD2ACD2ACD2A81
:10359200CD2ACD2ACD2ACD2A080020002308031DDA
:1035A200D32ADB2A220821042004031DD92ADA2A7D
:1035B200EF2ADB2A0030A0000030A1000030A20078
:1035C200412B412BEF2A0130A5002508A30701302A
:1035D200A236A10CA00C890BE92AEF2AFE302205A3
:1035E200031DF42AF52AE42A0B2B0B2B0130A5002C
:1035F2002508A3070130A007003003180130A107F6
:10360200003003180130A2070130A236A10CA00C31
:10361200890B062BFF302205031D102B112BF72AD5
:103622001C2B1C2B0130A3020130A035A10DA20DD1
:10363200890B162B1C2BA11F1F2B202B132B23189E
:10364200232B242B2A2BFF30A0057F30A105FF302E
:10365200A2050310A30C2308A500A601A7011030A0
:10366200A535A60DA70D890B312B2508A004260828
:10367200A1042708A2042408031D402B412BA217F2
:10368200080021006C0886000130870001184A2BCF
:103692004B2BB92B6C08013E8600013087000130AC
:1036A200810741310318810A6C08013E860001300E
:1036B2008700403F963A031D602B413F003A031DAD
:1036C200632B642BB92B6C08013E86000130870006
:1036D2000030C03F0030C13F6C08860001308700D7
:1036E20001142000A1010314A10D0130AC31B32457
:1036F2009B312000A2010314A20D0130AD317C25C3
:103702009B3103302000AE002E08A9003230AA00FF
:103712000030AB0001309031A7209B3121006C08B2
:10372200033E86000130870001142000A201031429
:10373200A20D0130AB31EB239B312000A201031417
:10374200A20D0230AB31EB239B312000A201031406
:10375200A20D0330AB31EB239B312000A5010314F2
:10376200A50D0130A03167209B31B92BB92BB92BA4
:10377200080020000D1CBE2BBF2BC72BC12BC12B59
:103782000D18C42BC52BC12BC72BC72B3B30AE3119
:1037920042269B3121004708031DD02B272C2000F5
:1037A2000E12FF30A40024082100C200D82B2000F2
:1037B2000E19DC2BDD2BD82BDE2BAF3117279B31DB
:1037C200A03190209B31210042082000A40024084F
:1037D2002100C1002000A501002CA03190209B31C6
:1037E200210042082000A4002508A03E860087018F
:1037F200240881000130A4002408A507002C210020
:10380200410820002502031C072C082CEE2B092C52
:10381200A03190209B31210042082000A4002408FE
:103822002100C000A03190209B31210042082000DD
:10383200A40024082100BA0020000E162100BA1F9D
:10384200232C242C272C7A15272C272C3630AD310B
:1038520067259B313A30AD3167259B312000A201AB
:103862000130AB317B239B310800AD31A7259C3160
:10387200AD31D7259C3195316A259C31AC31E62496
:103882009C31AA3118229C31AA310E229C31AA31D4
:1038920013229C31AA31A8229C31883100209C310C
:1038A200AC310B249C31A931F5219C31A03100208F
:1038B2009C315B2C21006C08860001308700011CC2
:1038C200632C642C772C05302000EC006C08A700D8
:1038D20001309431A6249C3109302000EC006C08A0
:1038E200A70001309E31D1269C31772C21006C0833
:1038F200860001308700811C7F2C802C5B2C6C0899
:1039020086000130870081109B3142239C312100C7
:103912006C08860001308700011C902C912C5B2CD6
:10392200A53146259C31A931FA219C31AC31D524EF
:103932009C31AA311D229C31AA3122229C31AC3108
:103942001B249C31AA31CF229C31AA3127229C31DF
:10395200AA31C2229C315B2C5B2C5B2C5B2C80310C
:1039620015282000B1003108AA313F229C312000E5
:103972002F08031DBD2CF02C2100430886000130C6
:10398200870081142000A2010314A20D0130AB3183
:10399200CB239C319F3165279C310B302000B00036
:1039A2003008A2006330913148219C312000A201ED
:1039B2000130AB31EB239C312000A2010230AB314C
:1039C200EB239C312000A2010330AB31EB239C316D
:1039D2002000A5010130A03167209C31332D200049
:1039E200AF08031DF52CF62C332D21004308860069
:1039F2000130870081102000A2010130AB31CB23BE
:103A02009C312100430886000130870001160A30EC
:103A12002000B0003008A2006330913148219C316F
:103A22002000A2010314A20D0130AB31EB239C3123
:103A32002000A2010314A20D0230AB31EB239C3112
:103A42002000A2010314A20D0330AB31EB239C3101
:103A52002000A5010314A50D0130A03167209C317F
:103A6200332D332D08002000AB006F088600013093
:103A72008700811F3D2D3E2DB72D6F088600013036
:103A8200870081136F08860001308700011F4A2DCD
:103A92004B2D8F2D6F08013E860001308700011CDF
:103AA200532D542DB72D6F08013E8600013087003B
:103AB2000110A2010314A20D2B08AC31A2249D31E6
:103AC2002000A2012B08AC3191249D3120002B084B
:103AD2001A3E21006B072000A90029088600013048
:103AE20087000108AA0021006B08113E8600013000
:103AF200870020002A0881006F08860001308700B5
:103B02000030011B0130A0002B089931EB219D31BF
:103B12000130A53196259D31B72DB72D2000A20188
:103B22000314A20D2B08AC313C249D312000A201CC
:103B32002B08AC314D249D3120006F0886000130E6
:103B420087000030011B0130A0002B089931EB21C6
:103B52009D312000A301A4012B089831AB209D3197
:103B62000130A53196259D31B72DB72D08002000D3
:103B7200A60120302602031CBF2DC02DC22DDE2D32
:103B8200DE2D2608AD31F0259D312000A400260847
:103B920021006A072000A500250886000230870060
:103BA200240881000130A4002408A6072030260240
:103BB200031CDC2DDD2DC22DDE2D21006B080C3EF9
:103BC20086000130870001082000A40021006A0855
:103BD20086000230870020002408810021006B0843
:103BE2000D3E86000130870001082000A40021005C
:103BF2006A08013E86000230870020002408810006
:103C020021006B080E3E860001308700010820006B
:103C1200A40021006A08023E8600023087002000CC
:103C22002408810021006A08223E860002308700B3
:103C3200011D1C2E1D2E372E6A08223E86000230E0
:103C4200870001116C0886000130870081126C0820
:103C5200033E86000130870081106A081E3E8600FE
:103C62000230870081010314810D372E8B13AA3194
:103C7200B5229D31A231EB229D318B170800200025
:103C8200B1003108AB3106239E3120002F08031DFD
:103C92004B2E8A2EA2010314A20D0130AB31DB237D
:103CA2009E3120006E0886000230870081166E0861
:103CB200053E86000230870081010314810D6E08E3
:103CC20086000230870081119F3165279E310B30BB
:103CD2002000B0003008A2006330913148219E31AB
:103CE2002000A2010130AB31EB239E312000A20162
:103CF2000230AB31EB239E312000A2010330AB3105
:103D0200EB239E312000A5010130A03167209E31B6
:103D1200D02E2000AF08031D8F2E902ED02EA20190
:103D22000130AB31DB239E3120006E088600023069
:103D3200870081126E08053E8600023087008101ED
:103D42006E0886000230870081150A30B000300804
:103D5200A2006330913148219E312000A201031458
:103D6200A20D0130AB31EB239E312000A2010314DE
:103D7200A20D0230AB31EB239E312000A2010314CD
:103D8200A20D0330AB31EB239E312000A5010314B9
:103D9200A50D0130A03167209E31D02ED02E080013
:103DA2002000AC002C08AA313F229E31210043089A
:103DB200860001308700011DDF2EE02E642FF030D7
:103DC2002000A8002808A0002708AE3184269E31D2
:103DD200210043080A3E86000130870020002008A7
:103DE200C03F2108C13F210043080A3E860001303E
:103DF2008700403F2000A800413FA900210043085E
:103E0200063E860001308700403F2000AA00413F65
:103E1200AB0029082B02031D102F28082A020318C1
:103E2200132F142F2B2F210043080A3E8600013046
:103E32008700403F2000A800413FA900210043081D
:103E4200063E86000130870020002808C03F29086E
:103E5200C13F642F210043080A3E860001308700DB
:103E6200403F2000A800413FA90021004308083E2E
:103E7200860001308700403F2000AA00413FAB008E
:103E820029082B02031D472F28082A0203184A2F4C
:103E92004B2F642F210043080A3E86000130870021
:103EA200403F2000A800413FA90021004308083EEE
:103EB20086000130870020002808C03F2908C13F42
:103EC200642F642F642F08000130AB3114239F311B
:103ED200003A03196D2F6E2F902FAF31D8279F31E3
:103EE200003A0319752F762F832F0A302000AE0077
:103EF2002E08A9002C30AA000130AB00013090310D
:103F0200A7209F310130A6318E269F310230A63183
:103F12008E269F310330A6318E269F31C72F013066
:103F2200AB3122239F31003A0319982F992FB02FDA
:103F320005302000AE002E08A9002C30AA00013066
:103F4200AB0001309031A7209F3121003B08013E98
:103F5200860087010108A6318E269F31C72F0130C6
:103F6200AB315D239F31003A0319B82FB92FC72F08
:103F72000130A6318E269F310230A6318E269F3126
:103F82000330A6318E269F31C72FC72F2000A201F2
:103F92000130A3315C239F312000A2010230A33102
:103FA2005C239F312000A2010330A3315C239F31A7
:103FB20021006C08033E8600013087000118E22FC1
:103FC200E32FFF2F6C080E3E8600013087000110A0
:103FD2006C080E3E86000130870081106C080E3E90
:103FE20086000130870001156C08083E860001300A
:103FF20087000030C03F0030C13FFF2F0800A231D0
:104002004422A031A1311421A031AF318A27A0313D
:10401200A931FF21A031AA310422A031AA319B2269
:10402200A031AA310922A03108002000BB01B71F2C
:104032001B281C282528B609B709B60A0319B70A8E
:10404200BB010314BB0D25283608A0003708A100C8
:10405200A2018E30B9003908A3003B08BA003A0821
:10406200A4009A31CE22A03120002008B6002108F7
:10407200B7002208B8003D2808002000A401033040
:10408200A2002208A300A5015D282508013EAE3149
:104092006226A03120006D08093E860001308700AB
:1040A200811C542855285928A4010314A40D592809
:1040B2000130A2002208A50723082502031C62285A
:1040C2006328462864282408662808002000A600E1
:1040D2002608AB314E23A03120002508031D72288B
:1040E200782821003E088600870101148F282100CC
:1040F2003E088600870101103E08860087010113F1
:104102007A123630AD316725A0313B30AD316725AB
:10411200A0310130A131D821A0318F280800200020
:10412200A10108302102031C972898289A28BA284E
:10413200BA288E1403102100C20D20000E1DA228E1
:10414200A328A62821004214AD28FE302000A0009A
:1041520020082100C205AD2820008E100130A000E9
:104162002008A10708302102031CB828B9289A2880
:10417200BA2808002000A0002008013A031DC22826
:10418200C328C928C8302100B5000030B600E52890
:1041920020002008023A031DCF28D028D628CD308F
:1041A2002100B5000030B600E52820002008033ABF
:1041B200031DDC28DD28E52860302100B500013030
:1041C200B600E528E528E52808002000A4006F08CD
:1041D200860001308700811FEF28F02813296F081D
:1041E200013E86000130870001146F08860001300D
:1041F20087000117A2010314A20D2408AB319B23EF
:10420200A0312000A2010314A20D2408AC31A22483
:10421200A0312000A2010314A20D2408AC31912484
:10422200A031132908002000A8012F302802031C06
:104232001B291C291E29422942292808013E98319E
:104242000A00A131A5002508A6002808303E9831B1
:104252000A00A131A5002508A7002708A500250806
:10426200A2002608AE312426A13101302000A5008B
:104272002508A8072F302802031C402941291E299E
:10428200422908002000A10105302102031C4A290D
:104292004B294D297229722921080907083E6E0708
:1042A200A00020088600023087000030C03F0030A6
:1042B200C13F210809071A3E6E07A00020088600A8
:1042C20002308700FF30C03FFF30C13F0130A00005
:1042D2002008A10705302102031C702971294D29EC
:1042E2007229080001302000A2000030A3009829A2
:1042F200A401A50100302502023003192402031C87
:10430200832984298629942994290130A40700301D
:10431200A53D00302502023003192402031C922914
:104322009329862994290130A2070030A33D210850
:104332002302031D9E2920082202031CA129A2296F
:104342007929A32908008B1DA729A829D7290B1C85
:10435200AB29AC29D7292700161DB029B129D729A5
:1043620016110B1021006C08860001308700011C19
:10437200BB29BC29D729AD312D25A13120000D1D26
:10438200C329C429CB2921003B08023E86008701AC
:104392008101D7290E30F00021003B08023E860041
:1043A200870170088100D729D729D7290800200062
:1043B200A4002408AB314E23A13121003E0886001F
:1043C20087018119E529E629EE293E088600870141
:1043D200811CEC29ED290C2AEE293E088600870172
:1043E20081113E088600870181103E08013E860049
:1043F200870181013E088600870181123630AD3186
:104402006725A1313A30AD316725A1310030AA319B
:104412006122A1310C2A0800F4007408AA31DC22BE
:10442200A23120006E08463E8600023087007308E3
:104432008110031D81147208013A031D212A222AC8
:10444200292A6E08433E8600023087008101292A0C
:104452007208023A031D2E2A2F2A362A6E08443E7B
:104462008600023087008101362A7208033A031D52
:104472003B2A3C2A432A6E08453E860002308700CA
:104482008101432A080020008E100E100E160A30F9
:10449200A0000030A100A1317321A23120000E1230
:1044A2000A30A0000030A100A1317321A231200006
:1044B2000E162830A0000030A100A1317321A231D4
:1044C20020000E123030A60026082100C200692A00
:1044D20020000E196D2A6E2A692A6F2AAF3117271A
:1044E200A231732A20000E19772A782A732A0E1015
:1044F2000E1608002000A4002408AB310623A231C6
:1045020020006E08463E8600023087002308811094
:10451200031D81142208013A031D902A912A982A28
:104522006E08433E8600023087008101982A2208E5
:10453200023A031D9D2A9E2AA52A6E08443E860041
:10454200023087008101A52A2208033A031DAA2A04
:10455200AB2AB22A6E08453E8600023087008101EE
:10456200B22A08002000A5002508AB310623A2319B
:1045720020002208013A031DBF2AC02ACA2A2308A2
:10458200A4006E08433E86000230870024088100A2
:10459200CA2A2208023A031DCF2AD02ADA2A23087D
:1045A200A4006E08443E8600023087002408810081
:1045B200DA2A2208033A031DDF2AE02AEA2A23081C
:1045C200A4006E08453E8600023087002408810060
:1045D200EA2A0800230015133030920094011512C4
:1045E200951615152000A10120302102031CFA2A7C
:1045F200FB2AFD2A1B2B1B2B2108230091002000E4
:10460200210821006A072000A0002008860002304D
:104612008700010823009300AA314F22A231013002
:104622002000A0002008A10720302102031C1A2B21
:104632001B2BFD2A23009512AA314F22A2312300FF
:10464200151108002000A1002108013A031D2A2BA0
:104652002B2B312BD630A00020082100BD005B2B74
:1046620020002108023A031D372B382B3E2BDA306B
:10467200A00020082100BD005B2B20002108033A86
:10468200031D442B452B4B2BDE30A00020082100BC
:10469200BD005B2B20002108633A031D512B522BD6
:1046A2005B2BD230A00020082100BD005B2B5B2BCE
:1046B2005B2B5B2B08002000A4002408AE3162268D
:1046C200A33120006D08093E8600013087002208D0
:1046D2008110031D81146D08093E86000130870098
:1046E20022080110031D01146D08093E86000130E5
:1046F200870022088111031D81156D08093E86007D
:104702000130870022080111031D01152208003A19
:10471200003003190130A3006D08093E8600013004
:104722008700A30EA30D01082306DF3923068100AB
:1047320008002000E300653021002902031CA22B9F
:10474200A32BAA2B64302000E10061082100A900FC
:10475200AA2B29082000E10021006B08093E8600EF
:10476200013087002000610881006308E100210018
:104772006B080B3E86000130870020006108810033
:1047820021006B08093E86000130870001082000E5
:10479200E1006308143E21006B072000E20062087A
:1047A200860001308700610881006308AE31CD26A2
:1047B200A33108002000E1006108AE316226A33176
:1047C20078302000DF006D08063E86000130870049
:1047D2005F0881006D08093E86000130870081165E
:1047E2006D08093E86000130870001176D08063EFC
:1047F2008600013087000108DF006D08043E860054
:10480200013087005F0881006108143E21006B07B8
:104812002000DF005F088600013087000108A73111
:104822004627A3312000E0006D08053E86000130D6
:1048320087006008810008002000A501A601210868
:1048420020040319252C262C5C2CA7010314A70D88
:10485200342C0130A035A10D890B2B2C0130A40082
:104862002408A707342CA11F372C382C2A2C3A2CC9
:104872003A2C0130A535A60D890B3B2C21082302C9
:10488200031D452C20082202031C482C492C4F2CC6
:104892002008A2022108A33B25144F2C0130A13687
:1048A200A00C890B502C0130A702031D592C5A2C45
:1048B2003A2C5C2C5C2C2608A101A1072508A0013A
:1048C200A007632C08002000CC000030CD0070301F
:1048D200CE004230CF000030BC00C830BD004230B4
:1048E200BE004D08BF004E08C0004F08C100933102
:1048F200EE23A43120003C08CD003D08CE003E0846
:10490200CF004C08C43EB600FF3003180030B70099
:10491200A0311620A43120003608BF003708C0009D
:104922003808C1004D08BC004E08BD004F08BE004B
:104932009331EE23A43120003C08A8003D08A900D1
:104942003E08AA0090310820A43120002803FF3A33
:10495200643EAB2C08002000E6006608AF316327F6
:10496200A43121003F0886008701011CB92CBA2C12
:10497200C62C6A08223E86000230870001142000FD
:104982006608A3319A23A431DC2C20006608143E69
:1049920021006B072000E4006408860001308700D4
:1049A2000108E50021006B08093E860001308700FE
:1049B200200065088100200066081A3E21006B076E
:1049C2002000E40064088600013087000108E50049
:1049D20021006B08113E8600013087002000650827
:1049E20081000130A5319625A43108002000A200E3
:1049F2000530A0002008A1002208053A031D022D5F
:104A0200032D082D0530A0002008A100432D220807
:104A1200103A031D0D2D0E2D132D0A30A000200873
:104A2200A100432D2208153A031D182D192D1E2D04
:104A32000F30A0002008A100432D2208203A031DB8
:104A4200232D242D292D1430A0002008A100432D50
:104A52002208253A031D2E2D2F2D342D1930A000AA
:104A62002008A100432D2208303A031D392D3A2D8A
:104A7200432D1E30A0002008A100432D432D432DBD
:104A8200432D432D2108452D080021006A08223EAE
:104A9200860002308700811C4F2D502D952D6A080B
:104AA200223E860002308700011C582D592D8C2D84
:104AB2006A08233E860002308700013081074131B7
:104AC2000318810A6A08233E860002308700403FAD
:104AD200323A031D6E2D413F003A031D712D722D96
:104AE200952D6A08233E8600023087000030C03FC1
:104AF2000030C13F6A08223E860002308700011062
:104B02006A08223E86000230870081109D31B82556
:104B1200A531952D952D21006A08223E860002308E
:104B220087008110952D952D08002000A4002408EF
:104B3200AB314E23A53121003E0886008701011CBE
:104B4200A32DA42DE62D3E08860087010119AA2D6A
:104B5200AB2DE62D3E08860087010115633020004B
:104B6200A20022082100A00002302000A200220898
:104B72002100A10002302000A2002208A500153069
:104B82002502031CC52DC62DC82DE62DE62D2508B0
:104B920021006B072000A200220886000130870056
:104BA2000108A3002508A03E860087012308810092
:104BB2000130A2002208A50715302502031CE22DB0
:104BC200E32DC82DE62DE62DE62D08002000AF00CE
:104BD2002F08AB314E23A53121002C082000AE0056
:104BE20021006B080C3E86000130870020002E0851
:104BF200810021002D082000AE0021006B080D3E2F
:104C020086000130870020002E08810021002E0836
:104C12002000AE0021006B080E3E860001308700A6
:104C220020002E088100A9010314A90D6430AA00F6
:104C32000030AB0001309031A720A53121003E08A1
:104C42008600870101136C08033E8600013087004D
:104C5200811C2C2E2D2E332E6A08223E8600023015
:104C6200870001156A08223E86000230870001147F
:104C7200080020000E127F30A40024082100C20088
:104C8200422E20000E19462E472E422E482EAF31BC
:104C92001727A631210044082000A400240821007F
:104CA200C200AF311727A6312000A5016A2E2508C0
:104CB200A03E860087010108A40024082100C2004A
:104CC200AF311727A63101302000A4002408A50720
:104CD2006A2E2100440820002502031C712E722E28
:104CE200582E0E163530AD316725A631782E2000AC
:104CF2000D1C7C2E7D2E782E7F2E7F2E0D18822E5F
:104D0200832E7F2E842E3630AD316725A6313B307F
:104D1200AD316725A631FA1608002000A600260844
:104D2200AE316226A63120006D0886000130870070
:104D3200811E9C2E9D2EE82E6D0886000130870074
:104D420081106D0886000130870081116D08860090
:104D52000130870001126D088600013087000113BF
:104D62000330A5006D08023E860001308700250849
:104D720081006D08063E8600013087000108A5000B
:104D82006D08043E86000130870025088100260850
:104D9200A5002508A200A3010314A30D0130A2312E
:104DA2007B22A6312000A2010314A20D2608913114
:104DB2004821A6312000A2012608AB318B23A6315F
:104DC2002000A2012608AB319B23A631E82E080061
:104DD2002000A4002408A3312323A63121003D088A
:104DE20086008701811CF62EF72E452F3D08013ED5
:104DF200860087010130810741310318810A3D088D
:104E0200013E86008701403F2000A200413FA300EF
:104E120000302302323003192202031C112F122FF9
:104E2200452F21003D08013E860087010030C03F2A
:104E32000030C13F20002408013A031D212F222FF8
:104E4200252F80308E06452F2408023A031D2A2F73
:104E52002B2F2E2F08308C06452F2408033A031DD2
:104E6200332F342F372F40308E06452F2408633AD4
:104E7200031D3C2F3D2F452F20308D06452F452FFA
:104E8200452F452F452F452F08002000DB0000301D
:104E9200DC007030DD004230DE000030BC00C83083
:104EA200BD004230BE005C08BF005D08C0005E0865
:104EB200C1009331EE23A73120003C08DC003D08FD
:104EC200DD003E08DE005B08D900DA01D909DA0903
:104ED200D90A0319DA0A5908643EB60000305A3D6D
:104EE200B700A0311620A73120003608BF003708CE
:104EF200C0003808C1005C08BC005D08BD005E0847
:104F0200BE0096313126A73120003C08CF003D0873
:104F1200D0003E08D1000030CC007030CD004230CD
:104F2200CE008831E720A73120004C08A8004D08A8
:104F3200A9004E08AA0090310820A73120002808B5
:104F4200A22F08002000AE006F0886000130870003
:104F52008117A9010314A90D6430AA000030AB0027
:104F620001309031A720A73120006F088600013060
:104F72008700011BBD2FBE2FEC2F6F08860001306A
:104F820087000117A2010314A20D2E08AB319B2347
:104F9200A7312000A2010314A20D2E08AC313C243B
:104FA200A7312000A2010314A20D2E08AC314D241A
:104FB200A73120006F088600013087000030011BF6
:104FC2000130A0002E089931EB21A7310130A53123
:104FD2009625A731FF2F20006F0886000130870039
:104FE20001136F088600013087000030011B013079
:0E4FF200A2002E08AB319B23A731FF2F080031
:1053E00024000D100B178B1708000130903101209D
:1053F000A931080001309631FB26A93108003B3065
:10540000AD316725A93108003A30AD316725AA31A1
:1054100008003630AD316725AA3108000130AA31C5
:105420008E22AA3108000130AC31C424AA31080010
:105430000130AA315822AA31080001308B315E2395
:10544000AA31080001308C31D724AA31080001307C
:1054500093313A23AA310800FE0012001E00FE0B11
:105460002D2A0034640080010131890B332A003475
:10547000F23021009E00C030220097000800B030BA
:105480002000A00020082100C3000800482A8E1632
:1054900020008E1E4C2A4D2A472A4E2A08005530DD
:1054A00023009600AA309600951400000000080022
:1054B0002000A2010314A20D0130AC312B24AA312B
:1054C00008002000A0008B102018672A692A0B16FC
:1054D0006A2A0B1208002000A400A2010314A20DE6
:1054E000240891314821AA31080024000D1104300C
:1054F000270094000430950096018B150B108B1734
:1055000008002000A1002108A031BB20AA31210001
:105510003508860036088700011408002000A10025
:105520002108AA313F22AA31210043088600013018
:105530008700011608003330AD316725AA31E83005
:105540002000A0000330A100A1317321AA3108007E
:105550000130AA318122AA310230AA318122AA3136
:105560000330AA318122AA310800230015133030FC
:105570009200910115161515AA314F22AA31230068
:1055800015110800013088311C20AA310230883101
:105590001C20AA31033088311C20AA3108000130B8
:1055A00085317125AA31023085317125AA31033048
:1055B00085317125AA310800F1007108013A031DF7
:1055C000E22AE32AE92AA030F00070082000EE0069
:1055D000E92A0800F1007108013A031DF02AF12AB6
:1055E000F72AE530F00070082100BE00F72A080015
:1055F000F3007308AA31EA22AA3121003E0886008E
:10560000870172088110031D811408002000A10089
:105610002108013A031D0D2B0E2B132BA030A000E7
:105620002008EE00132B08002000A2002208AB3156
:105630003F23AB3121003B0886008701010C013973
:10564000212B08002000A2002208AB313F23AB3100
:1056500021003B0886008701010801392F2B080033
:105660002000A1002108013A031D372B382B3E2BC7
:10567000BE30A00020082100B9003E2B0800200009
:10568000A1002108013A031D462B472B4D2BE23088
:10569000A00020082100BB004D2B08002000A10025
:1056A0002108013A031D552B562B5C2BE530A00039
:1056B00020082100BE005C2B08002000A200220868
:1056C000AB313F23AB3121003B0886008701010C41
:1056D000890C01396B2B08002000A1002108AA3198
:1056E0003F22AB3121004308860001308700010EC4
:1056F00001397A2B08002000A3002308AB314E2388
:10570000AB3121003E08860087012000220881116C
:10571000031D811508002000A3002308AF313D2799
:10572000AB3120006F08860001308700220801138A
:10573000031D011708002000A3002308AF316327D1
:10574000AB3121003F0886008701200022080110AC
:10575000031D011408002000A3002308AB313F23E0
:10576000AB3121003B08860087012000220881110F
:10577000031D811508002000A3002308AB31062378
:10578000AB3120006E0886000230870022088110AD
:10579000031D811408002000A3002308AB313F2320
:1057A000AB3121003B0886008701200022088110D0
:1057B000031D811408002000A3002308AB313F2300
:1057C000AB3121003B088600870120002208011030
:1057D000031D011408002000A3002308AF313D275A
:1057E000AB3120006F0886000130870022080110CD
:1057F000031D011408002000A3002308AB314E2331
:10580000AB3121003E0886008701200022080113E9
:10581000031D01170800AA314622AC310130AA311C
:105820006B22AC310230AA316B22AC310330AA3189
:105830006B22AC31080001308A311722AC310230C2
:105840008A311722AC3103308A311722AC31AF31A3
:10585000B127AC3108002000A3002308AB3130236E
:10586000AC31210039088600013087002000220871
:105870000110031D011408002000A3002308AE310D
:105880006226AC3120006D08093E86000130870099
:1058900022088110031D811408002000A3002308A2
:1058A000AE316226AC3120006D08093E8600013021
:1058B000870022080110031D011408002000A30026
:1058C0002308AE316226AC3120006D08093E860007
:1058D0000130870022088112031D81160800200074
:1058E000A3002308AE316226AC3120006D08093ECA
:1058F00086000130870022080113031D01170800EC
:105900002000A3002308AB310623AC3120006E0831
:10591000463E86000230870022080110031D011454
:1059200008002000A3002308AE316226AC3120001D
:105930006D08093E86000130870022080111031D11
:10594000011508002000A3002308AE316226AC3107
:1059500020006D08093E8600013087002208811171
:10596000031D811508002000A2002208AA313F2251
:10597000AC31210043088600013087002000210857
:105980000110031D011408002000A2002208AB3101
:105990000623AC3120006E08860002308700811596
:1059A0002208A1314321AC3108000130A631E9269B
:1059B000AC310230A631E926AC310330A631E926FC
:1059C000AC316330A631E926AC3108000130AD318D
:1059D0001B25AC310230AD311B25AC310330AD316C
:1059E0001B25AC316330AD311B25AC3108002000E4
:1059F000A3002308AB313F23AC3121003B088600D4
:105A00008701010C2000A200A20C220C0139082DF4
:105A100008002000A3002308AB310623AD3120008D
:105A20006E08860002308700010CA200A20C220C36
:105A300001391A2D08002000A4002408A3312323D3
:105A4000AD3121003D088600870101142000A2012C
:105A5000240891314821AD310800FF302000950025
:105A60007B0886000130870001147C088600013025
:105A7000870001147D0886000130870001140800AA
:105A80000B1E432D442D522D8B1C472D482D522D7E
:105A90008B100B12F2010314F20D0130AA31F8221F
:105AA000AD31522D080020002008A1006E083A3EBA
:105AB000860002308700210881002008A1006E08BE
:105AC000423E860002308700210881000800200045
:105AD000A3000E122308A20022082100C200702D8C
:105AE00020000E19742D752D702D762DAF311727CE
:105AF000AD3120000E1608002000A3002308AB31B2
:105B00000623AD3120006E0886000230870022088F
:105B10000110031D01146E088600023087008110F9
:105B2000080059302000A00020082100ED006D0879
:105B3000053E8600013087009E30C03F0030C13FE7
:105B40009501A630200095008B168B170800CA30EF
:105B50002000A00020082100EB00A0302000A000C1
:105B600020082100EC006C088600013087008116B7
:105B70006C08033E860001308700811408007730EE
:105B800021008C0005308D000C308E0022008C012D
:105B90008D018E01023023008C008D018E01773043
:105BA00020008C0005308D000C308E00080078300D
:105BB00021009900AD31BF25AD31AD319125AD3119
:105BC000AA313822AD31A931F021AD31AA31752287
:105BD000AD3120302000A10021082100EA0008009A
:105BE0002000A200A30130302300920020002208F0
:105BF000230091001513151414082000A00020089C
:105C0000A100230013082000A0002008A3002308FF
:105C1000092E0800633402340034003400340034A8
:105C2000003400340034003400340034FF34FF34D6
:105C3000FF340034003400340034003403340034C2
:105C400000340034003400342000A4000E12240874
:105C5000A30023082100C2002D2E20000E19312E92
:105C6000322E2D2E332EAF311727AE3120002208D1
:105C7000A30023082100C200AF311727AE31200056
:105C80000E1608002000A3000E122308C03EA2003A
:105C900022082100C2004C2E20000E19502E512E39
:105CA0004C2E522EAF311727AE31A0319020AE319D
:105CB00020000E16210042082000A2002208210028
:105CC000C70008002000A1002108013A031D692E29
:105CD0006A2E6E2E2030A0002008ED002108023A26
:105CE000031D732E742E782E2A30A0002008ED009C
:105CF0002108033A031D7D2E7E2E832E3430A00012
:105D00002008ED00832E08002000A60026082100B0
:105D10009D002000200821009E009D148F2E9D18BC
:105D2000922E932E8F2E942E1B082000A200A301EA
:105D300021001C082000A400A5012408A500A4013E
:105D400022082407A0002308253DA100A72E080053
:105D50002000A401A501AC2E201CAF2EB02EB42E25
:105D60002208A4072308A53D0130A235A30D890B05
:105D7000B52E0130A136A00C890BBA2E21082004C3
:105D8000031DC32EC42EAC2EC52E2508A101A107CC
:105D90002408A001A007CC2E08002000E000600825
:105DA000AE316226AE3120006D08860001308700DA
:105DB00001156D08860001308700811421006B08F1
:105DC000093E8600013087000108A7314627AE3121
:105DD0002000DF006D08053E8600013087005F0867
:105DE00081000800FF34FF34FF34003400340034F5
:105DF0000034003400340034003400340034003403
:105E000000340034003400340034003400340034F2
:105E100000340034003400340034003400340034E2
:105E20000034AA340034003400340034003420003C
:105E3000A10108302102031C1E2F1F2F212F3C2FF0
:105E40003C2F2100C21F252F262F292F20000E14A2
:105E50002B2F20000E108E1403102100C20D2000E5
:105E60008E100130A0002008A10708302102031C79
:105E70003A2F3B2F212F3C2F08002000A1002108A2
:105E8000013A031D442F452F4A2F3E30A000200821
:105E9000EF00622F2108023A031D4F2F502F552F7C
:105EA0004730A0002008EF00622F2108033A031DAD
:105EB0005A2F5B2F622F5030A0002008EF00622F76
:105EC000622F622F08002000A1002108013A031D63
