:04000000803116280D
:100008007E14803120007F08F7009A312B2280313E
:100018008431282480319831972077082000FF0008
:100028007E10090080311828F001F801F901FA0161
:10003800FB01EC01ED01EE01A030840000308500E9
:100048004A30A7317C278031203084000130850078
:100058003230A7317C278031A03084000130850000
:100068002530A7317C27803120308400023085007C
:100078004730A7317C2780314A3084009B30850087
:10008800C5308600013087002030A73176277E10E2
:1000980020009431312C20006E0886000230870041
:1000A800811E7C286E08033E8600023087000130DE
:1000B800810741310318810A6E08033E8600023029
:1000C8008700403FAD00413FAE0003302E02E830CC
:1000D80003192D02031C08006E08033E8600023037
:1000E80087000030C03FC13F003091311521080022
:1000F80020006E08860002308700011E432B6E0A1E
:100108008600023087000130810741310318810AD7
:100118006E0A860002308700403FAD00413FAE00C6
:1001280000302E02053003192D02031C08006E0A48
:100138008600023087000030C03FC13F6E0886004D
:100148000230870001126E08453E860002308700A3
:100158006E08443E8400023085000008AD006E0839
:10016800433E84000230850000082D070107AE00D9
:100178006E083E3E8600023087002E088100B101DD
:10018800B10A043031020318F7283135083E6E07EA
:10019800AD002D088600023087006E082E3E8400D0
:1001A80002308500403F80070131413F803D3F31AB
:1001B80031351A3E6E07AD002D08860002308700E3
:1001C8006E08303E840002308500403F80070131D0
:1001D800413F803D3F310130AD002D08B10704306B
:1001E8003102031CC9280330A0000030A1006E08AA
:1001F8002E3E860002308700403FA200413FA30008
:100208009E318C26803120006E082E3E86000230FA
:1002180087002008C03F2108C13F0330A0000030FC
:10022800A1006E08303E860002308700403FA200E1
:10023800413FA3009E318C26803120006E08303E5D
:100248008600023087002008C03F2108C13F6E08A1
:100258002E3E860002308700403FAD00413FAE0091
:100268006E08303E860002308700403FAF00413FB5
:10027800B0002E083002031D43292D082F02031851
:10028800C62A6E082E3E8600023087006E08303E71
:10029800840002308500003FAD00013FAE00AD098B
:1002A800AE09AD0A0319AE0A403F2D07AF00413F22
:1002B8002E3DB0006E082C3E8600023087002F08C5
:1002C800C03F3008C13F6E083A3E860002308700C2
:1002D800023001020318C0290130AD006E083A3E11
:1002E8008600023087002D0881076E083A3E860096
:1002F800023087000108013A031D8C296E08363E3A
:10030800860002308700F430C03F0130C13FC02969
:100318006E083A3E8600023087000108023A031D43
:10032800C0296E083E3E8600023087000108013A67
:10033800031DA8296E08363E860002308700423029
:10034800C03F0030C13FC0296E08063E860002301B
:100358008700403FAD00413FAE002D083A3EAF0058
:1003680000302E3DB0006E08363E86000230870011
:100378002F08C03F3008C13F6E08363E8600023065
:100388008700403FAD00413FAE006E082C3E86001E
:1003980002308700403FAF00413FB0002E083002D6
:1003A800031DD8292D082F02031C462A0130AD0051
:1003B8006E083C3E8600023087002D0881076E08D3
:1003C8003C3E86000230870003300102031CC62A27
:1003D8006E083C3E86000230870081010130913171
:1003E8001521803120006E082C3E860002308700DF
:1003F800403FAD00413FAE002E08AF006F08043EFD
:100408008600013087002F0881006E082C3E860088
:10041800023087000108AD006F08053E86000130F4
:1004280087002D0881006E08363E8600023087005E
:10043800403FAD00413FAE002E08AF006F08103EB0
:100448008600013087002F0881006E08363E86003E
:10045800023087000108AD006F08113E86000130A8
:1004680087002D0881006E083E3E86000230870016
:100478000108AD006F08083E8600013087002D088E
:100488008100C62A6E083C3E860002308700810142
:100498006E08423E8600023087000A3001020318C7
:1004A8005E2A0130AD006E08423E860002308700A9
:1004B8002D0881076E08423E8600023087000A3008
:1004C8000102031CC62A6E088600023087008115C7
:1004D800A201A20A01309931B121803120006E08B1
:1004E800463E860002308700011C8E2A6E08463E72
:1004F80086000230870001106E082C3E860002300C
:1005080087006E08063E840002308500403F803F29
:10051800413F813F6E08463E860002308700811CBD
:10052800C62A6E08463E86000230870081106E0893
:100538002C3E8600023087006E08063E840002309A
:100548008500403F803F413F813F6E083E3E860028
:10055800023087000108AD00AE012D08A0002E086A
:10056800A1004230A2000030A3009B310D2380314E
:1005780020006E08363E8600023087002008C03F03
:100588002108C13F9B31AE23803120006E082C3EEC
:10059800860002308700403FAD00413FAE002E0884
:1005A800AF006F08023E8600013087002F088100E7
:1005B8006E082C3E8600023087000108AD006F08E7
:1005C800033E8600013087002D0881006E083E3EFC
:1005D8008600023087000108AD006F08083E8600DB
:1005E800013087002D0881006E08063E8600023023
:1005F80087000108AD006F080A3E860001308700B9
:100608002D0881006E08363E860002308700403F84
:10061800AD00413FAE002E08AF006F08103E8600C7
:10062800013087002F0881006E08363E86000230B0
:1006380087000108AD006F08113E86000130870071
:100648002D0881006E08053E8600023087000108EB
:10065800AD006F08123E8600013087002D0881002A
:100668006E083A3E8600023087000108AD006F0828
:10067800133E8600013087002D08810008006E08AF
:10068800860002308700811C662B6E0886000230C7
:1006980087000119592B6E08860002308700011562
:1006A8006E088600023087008111A73190278031BB
:1006B800003A0319080020006E08860002308700FF
:1006C800011608006E08860002308700011D080028
:1006D8006E0886000230870001116E08860002301D
:1006E800870081156E083C3E860002308700810134
:1006F8006E083A3E86000230870081016E08063E89
:100708008600023087000030C03FC13F6E083F3E80
:1007180086000230870081016E08463E860002305E
:10072800870001106E08463E86000230870081105F
:100738006E082C3E8600023087000030C03FC13F63
:100748009B31AE2380312000A201A20A01309931E9
:10075800B121803120006E082C3E860002308700CF
:10076800403FAD00413FAE002E08AF006F08023E8B
:100778008600013087002F0881006E082C3E860015
:10078800023087000108AD006F08033E8600013083
:1007980087002D0881006E083F3E860002308700E2
:1007A8000108AD006F08083E8600013087002D085B
:1007B80081006E08063E8600023087000108AD0001
:1007C8006F080A3E8600013087002D0881006E08F8
:1007D800363E860002308700403FAD00413FAE0004
:1007E8002E08AF006F08103E8600013087002F08E2
:1007F80081006E08363E8600023087000108AD0091
:100808006F08113E8600013087002D0881006E08B0
:10081800053E8600023087000108AD006F08123ED1
:100828008600013087002D0881006E083A3E860058
:10083800023087000108AD006F08133E86000130C2
:1008480087002D08810008008B1E08000B1D08007A
:10085800A630200095000B1179088600013087002A
:10086800011CA62C0130F3007908033E86000130F4
:1008780087007308810721003908023E8600870136
:100888000108F300F401F309F409F30A0319F40A5F
:100898007908043E86000130870001087307F500D7
:1008A80074080318740AF6007908033E86000130BC
:1008B80087007608803A803C031D642C7508010285
:1008C800031C7F2D7908033E8600013087008101D3
:1008D800790886000130870001107908073E8600F4
:1008E8000130870001147908860001308700011F54
:1008F8007F2D20008C130D127908093E86000130E7
:100908008700011F7F2D7908093E86000130870086
:100918000113790886000130870001138C118E13AA
:100928002100390886008701011479080C3E8600E9
:10093800013087000114F101F10A01309D31C3250E
:1009480084317F2D7908093E860001308700811E99
:10095800CB2C0130F3007908033E86000130870074
:10096800730881077908033E860001308700143038
:100978000102031CCB2C7908033E86000130870056
:1009880081017908093E86000130870081127908C3
:10099800073E860001308700011C7F2D7908073E3D
:1009A8008600013087000110790886000130870031
:1009B800811C7F2D0130F300790A86000130870001
:1009C80073088107790A8600013087007908023E9A
:1009D80084000130850000080102031C7F2D790A7C
:1009E8008600013087008101790886000130870080
:1009F800811D342D7908860001308700011A1D2DCC
:100A08007908043E86000130870069300102031826
:100A1800172D0130F3007908043E86000130870065
:100A2800730881077F2D7908860001308700011639
:100A38007F2D7908043E8600013087001F300102AF
:100A4800031C2E2D7908043E8600013087000130F2
:100A580081027F2D790886000130870001127F2DE1
:100A68007908860001308700011D7A2D7908043E37
:100A78008600013087007908053E84000130850032
:100A8800000801020318522D0130F3007908043ED2
:100A980086000130870073088107672D7908053EB5
:100AA8008600013087007908043E84000130850003
:100AB800000801020318672D7908043E86000130FA
:100AC8008700013081027908053E860001308700E1
:100AD8007908043E84000130850000080106031DE2
:100AE8007F2D79088600013087000111790886007A
:100AF80001308700811021006A0A860087010130D1
:100B0800810741310318810A6A0A86008701403F3C
:100B1800C83A031D912D413F003A031D9E2D6A0AD4
:100B2800860087010030C03FC13F7D088600013044
:100B3800870081147808860001308700811C08002E
:100B4800780A860001308700013081074131031897
:100B5800810A08002000E8006D088600013087003F
:100B6800011C08006808A731F52785312000E70136
:100B7800E70A0C1F0C1AC42D0C1C8D18C42DE70194
:100B88006D0886000130870067088110031D8114F5
:100B98006D08860001308700811CA22E6D08860032
:100BA800013087000119F92D0130E5006D08023E7A
:100BB800860001308700650881076D08023E8600BF
:100BC8000130870005300102031C08006D08023E51
:100BD80086000130870081016D088600013087009A
:100BE8000115680892310822080020006D08860067
:100BF8000130870081192B2E6D08033E86000130D5
:100C080087000130810741310318810A6D08033ECE
:100C1800860001308700403FE500413FE600003094
:100C28006602963003196502031C08006D08033E2E
:100C38008600013087000030C03FC13F6D08860044
:100C480001308700811568089C313D240800200088
:100C58006D08860001308700011A6F2E6D08053E69
:100C68008600013087000130810741310318810A6D
:100C78006D08053E860001308700403FE500413F92
:100C8800E60000306602963003196502031C08006E
:100C98006D08053E8600013087000030C03FC13F27
:100CA8006D088600013087000116A201A20A0130F2
:100CB8009931462185317D08033E86000130870041
:100CC800811C080064302000A6000030A700023014
:100CD80097318927080020006D08860001308700B9
:100CE800811A08006D08073E860001308700013030
:100CF800810741310318810A6D08073E86000130DB
:100D08008700403FE500413FE600013066022C3095
:100D180003196502031C08006D08073E86000130B0
:100D280087000030C03FC13F6D0886000130870052
:100D38008116A201013099314621080020006D0872
:100D4800860001308700011D08000130E5006D08AC
:100D5800023E860001308700650881076D08023E63
:100D680086000130870005300102031C08006D0869
:100D7800023E86000130870081016D08860001303F
:100D8800870001116D08033E86000130870000309E
:100D9800C03FC13F6D0886000130870081116D0892
:100DA800053E8600013087000030C03FC13F6D0816
:100DB80086000130870001126D08073E8600013069
:100DC80087000030C03FC13F6D08860001308700B2
:100DD800811268089631A62685312000A2010130CB
:100DE80099314621080020003E08C4003F08C5008C
:100DF8004008C6000310450D460DC7004708CA0045
:100E08004108C4004208C5004308C6000310450D48
:100E1800460DC7004708C9004A0803191F2F49088B
:100E28004A020318262F4A03FF3A4907C40019301B
:100E38004402031C262F4108BE004208BF00430895
:100E4800C00008004908031908004A0849020318A5
:100E5800352F4903FF3A4A07C400193044020318E2
:100E680008000630C4004408C800C01BC817C31BCC
:100E78004817BF17FF30BE05FF30BF050030C0055B
:100E8800C217FF30C105FF30C2050030C30549084D
:100E98004A020318712F0130C135C20DC30D890BE9
:100EA800502F0130C90249084A0603196C2F013036
:100EB800C8024808073903196C2F4F2F0130C03674
:100EC800BF0CBE0C890B632F0130C4004408CA074D
:100ED8004A0849060319962F622F4A08490203183F
:100EE800962F0130BE35BF0DC00D890B762F01300E
:100EF800CA0249084A060319922F0130C802480855
:100F080007390319922F752F0130C336C20CC10C53
:100F1800890B892F0130C4004408C9074A084906CB
:100F2800031D882FC81FA82FFF30BE06FF30BF063D
:100F3800FF30C0060130BE07003003180130BF077C
:100F4800003003180130C007481FBA2FFF30C10610
:100F5800FF30C206FF30C3060130C1070030031856
:100F68000130C207003003180130C307C8013E082A
:100F7800C1073F08C23D4008C33DC31FD52FFF30FE
:100F8800C106FF30C206FF30C3060130C10700307A
:100F980003180130C207003003180130C307C80125
:100FA800C80A4108A0004208A1004308A2004A0854
:100FB800C4004408A3004808C5004508A4009331AC
:100FC800D02320002008BE002108BF002208C0004E
:100FD80008002000A40024089B318C2387312100BD
:100FE8003B088600870101142000A20124089331E0
:040FF8007223080058
:101002007830210099009A31A222883199311D212C
:101012008831A73197278831A731702788319931D4
:101022001021A0302000A1002108FC0008002000AF
:10103200E40064089831AF20883121003808860026
:101042008701811C08003808023E860087010130B2
:10105200810741310318810A3808023E8600870160
:10106200403F2000E200413FE30015306302E030E0
:1010720003196202031C080021003808023E8600A0
:1010820087010030C03FC13F01302000E200210053
:101092003808043E8600870120006208810721008B
:1010A2003808043E86008701380A8400850100085A
:1010B2000102031C08003808043E860087018101F2
:1010C20038088600870181102000A2016408993146
:1010D200632188312000A2016408993154218831AA
:1010E2002000DD01640895315C2588312000A201D1
:1010F200A20A64089931A12188312000A201640862
:1011020099319121883101308D31662588316430E1
:101112002000A6000030A70001309731892708007F
:1011220020004B08CF004C08D0004D08D10003101E
:10113200500D510DD2005208D800D808031DAA281C
:101142000030CE000030CD000030CC000030CB00AB
:1011520008004B08CF004C08D0004D08D1001730D2
:10116200D136D00CCF0C890BB1284F08D2005208CF
:10117200D300CC17FF30CB05FF30CC050030CD05B6
:101182004B08D4004C08D5004D08D600D7018E304C
:10119200D802D81FE8285808803A8F3E0318DA2868
:1011A2000030CE000030CD000030CC000030CB004B
:1011B20008000130D736D60CD50CD40C890BDB28AD
:1011C2000130CF004F08D80703190129DA28183057
:1011D2005802031CFE280030CE000030CD00003043
:1011E200CC000030CB0008000130D435D50DD60D2F
:1011F200D70D890BF6280130D802D808031DF5282F
:10120200530803190F29D409D509D609D709D40AD5
:101212000319D50A0319D60A0319D70A5708CE00AB
:101222005608CD005508CC005408CB000800200019
:10123200EA006A0898316A2089317B0886008701B2
:10124200011C08002000EB010C1F0C1A2C290C18A1
:101252002C298D1C33297B0886008701011B332929
:10126200EB01EB0A7B08860087016B088113031DE3
:1012720081177B0886008701811B6B297B0886000A
:101282008701811C50297B088600870181109431D7
:1012920093248931013091315F2189316F297B0893
:1012A2008600870101196F297B0886008701811951
:1012B2006F297B088600870181153630993181219B
:1012C200893134309931812189310130A731AE27FA
:1012D20089316F2901309C31632489317B08860072
:1012E2008701011D080001309C31632489317B088C
:1012F20086008701811A952901302000E9007B0AC6
:1013020086008701690881077B0A86008701010838
:10131200193A031D08007B0A8600870181017B08B8
:1013220086008701811608007B08860087018112EA
:101332007B088600870101119031442008002000BB
:10134200E30063089831BB20893121003C08860004
:1013520087010118E1293008803A031DBD292000C8
:10136200A301A30A210031082000E2006208A400C0
:10137200630893311623893121003C0886008701D6
:1013820001142000A201A20A630899316321893164
:101392002000A201A20A63089931A121893120000B
:1013A200A201A20A630899319121893121003C08E6
:1013B200860087010030011801302000DD001F2A5D
:1013C20021003008803A031DF7292000A301A30A57
:1013D200210031082000E2006208A4006308933172
:1013E200162389312000DD01DD0A1F2A21003C0875
:1013F2008600870101102000A20163089931632150
:1014020089312000A201A20A63089931A121893100
:1014120021003C08860087010030011801302000BD
:10142200A20063089931912189312000A301A4010E
:1014320063089331162389312000DD016308953159
:101442005C25893164302000A6000030A7000130FD
:1014520097318927893101308D31662508002000B6
:10146200A900AB01AA016E08860002308700011EA6
:101472000800C030A4002408A00029089A314122A3
:101482008A3120006E08323E860002308700200832
:10149200C03F2108C13FAB0105302B0203188A2A45
:1014A2006E08323E860002308700403FA400413F72
:1014B200A5002B35083E6E07A600260886000230DE
:1014C2008700403FA700413FA80025082802031DCE
:1014D2006C2A240827020318822A6E08323E8600EC
:1014E200023087002B35083E6E07A40024088400D2
:1014F20002308500403F803F413F813FAA01AA0A56
:101502008A2A0130A4002408AB0705302B02031CF1
:10151200512AAA08031D0800AB0105302B0203184B
:1015220008002B351A3E6E07A400240886000230FC
:101532008700403FA500413FA6006E08323E86006C
:1015420002308700403FA700413FA800260828023A
:10155200031DAD2A250827020318C12A6E08323E50
:101562008600023087002B351A3E6E07A40024083D
:10157200840002308500403F803F413F813F0800A8
:101582000130A4002408AB078E2A2000A6002608FA
:10159200A731EA278A3120002608A5002100390A4E
:1015A20086008701200025088100240803192F2BBB
:1015B2006C088600013087008116A201260893314B
:1015C20072238A3120008E1700309A3116228A3116
:1015D20020006C0886000130870081140330A500CA
:1015E2006C08023E860001308700250881006C08E5
:1015F200860001308700011B08006C08860001305C
:1016020087000117A001A00A26089E3125267C0822
:10161200223E86000130870081107C08233E86002E
:10162200013087000030C03FC13F20006C08053EFA
:101632008600013087000108A5006C08043E860080
:1016420001308700250881006930A5006C08043E3E
:101652008600013087002508810008006C0886009A
:101662000130870081126C08063E86000130870037
:101672000108A5006C08043E860001308700250899
:1016820081006C08093E86000130870001176C0852
:1016920086000130870081146C08860001308700C3
:1016A20081116C0886000130870001120330A50009
:1016B2006C08023E86000130870025088100080080
:1016C2007808860001308700811220008D1981166A
:1016D2007808860001308700811C08007808063EE1
:1016E200860001308700403F2000A000413FA1005A
:1016F200780A860001308700403FA200413FA300E4
:1017020021082302031D872B20082202031C080044
:10171200780A8600013087000030C03FC13F780858
:10172200860001308700811AFB2B7808033E860071
:10173200013087008108031DF42B780886000130F0
:101742008700811DC62B7808860001308700811131
:101752007808043E8600013087000108A00078085E
:10176200033E860001308700200881007808083E89
:101772008600013087007808063E8400013085002B
:10178200403F803F413F813F08007808860001309A
:101792008700011EEE2B78088600013087000112B7
:1017A2007808053E8600013087000108A00078080D
:1017B200033E8600013087002008810078080A3E37
:1017C2008600013087007808063E840001308500DB
:1017D200403F803F413F813F08007808860001304A
:1017E2008700811008007808860001308700811682
:1017F2008D150800780886000130870081128D114E
:101802007808033E8600013087000130810208001B
:1018120020003108B4003208B5003308B6000310C6
:10182200350D360DB7003708BC00BC08031D202C4F
:101832000030AE000030AF000030B00008002E08CB
:10184200B4002F08B5003008B6000310350D360D70
:10185200B7003708BD00BD08031D362C0030AE00AE
:101862000030AF000030B00008000030B900003096
:10187200BA000030BB0089303D07B4003408BC0216
:101882003108B4003208B5003308B6001030B6365D
:10189200B50CB40C890B482C3408B7003708BD00CE
:1018A2002E08B4002F08B5003008B6001030B63646
:1018B200B50CB40C890B582C3408B7003708BD0698
:1018C2008030B4003408BD05B217FF30B105FF30D7
:1018D200B2050030B305AF17FF30AE05FF30AF05DC
:1018E2000030B0051830B4003408B8000130B93502
:1018F200BA0DBB0D890B782C30083302031D872CDF
:101902002F083202031D872C2E083102031C902C53
:101912002E08B1022F08B23B3008B33B3914013014
:10192200B135B20DB30D890B912C0130B802031DF4
:10193200772C3908A0003A08A1003B08A2003C0815
:10194200B4003408A3003D08B5003508A400933163
:10195200D02320002008AE002108AF002208B000EA
:10196200080020002E08B4002F08B5003008B60089
:101972000310350D360DB7003708B800B808031D3F
:10198200C92C0030AE000030AF000030B0000800BB
:101992003108B4003208B5003308B6000310350D23
:1019A200360DB7003708BD00BD08031DDF2C00301F
:1019B200AE000030AF000030B00008003D087B3EB2
:1019C200B4003408B8072E08B4002F08B500300858
:1019D200B6001030B636B50CB40C890BEB2C3408BB
:1019E200B7003708BD003108B4003208B50033082B
:1019F200B6001030B636B50CB40C890BFB2C34088B
:101A0200B7003708BD068030B4003408BD05AF17F3
:101A1200B217FF30B105FF30B2050030B305003018
:101A2200B9000030BA000030BB000730B4003408FF
:101A3200BC002E1C222D3108B9073208BA3D3308EA
:101A4200BB3D0130B036AF0CAE0C890B232D0130FB
:101A5200B135B20DB30D890B292D0130BC02031D26
:101A62001A2D0930B4003408BC002E1C3E2D31085A
:101A7200B9073208BA3D3308BB3D0130B036AF0C6E
:101A8200AE0C890B3F2D0130BB36BA0CB90C890B59
:101A9200452D0130BC02031D362D3908A0003A083D
:101AA200A1003B08A2003808B4003408A3003D0896
:101AB200B5003508A4009331D02320002008AE00E1
:101AC2002108AF002208B00008002000A30023086C
:101AD20098316A208D317B0886008701011C08003D
:101AE2007B0886008701011908007B0886008701B0
:101AF200011563302000A20022082100A00002305C
:101B02002000A20022082100A10020006F08860008
:101B1200013087000130423F2100A20020006F08FF
:101B22008600013087000130433F2100A3002000DE
:101B32006F088600013087000130443F2100A40075
:101B420020006F088600013087000130453F2100E8
:101B5200A50020006F088600013087000130463F53
:101B62002100A60020006F088600013087000130A6
:101B7200473F2100A70020006F0886000130870040
:101B82000130483F2100A80020006F088600013084
:101B920087000130493F2100A90020006F0886001C
:101BA2000130870001304A3F2100AA0020006F085F
:101BB20086000130870001304B3F2100AB0020003E
:101BC2006F0886000130870001304C3F2100AC00D5
:101BD20020006F0886000130870001304D3F210050
:101BE200AD0020006F0886000130870001304E3FB3
:101BF2002100AE0020006F0886000130870001300E
:101C02004F3F2100AF0020006F088600013087009F
:101C12000130503F2100B00020006F0886000130E3
:101C220087000130513F2100B10020006F0886007B
:101C3200013087000130523F2100B20020006F08BE
:101C42008600013087000130533F2100B300B40108
:101C5200B40A08001F309A3189228E31AA3A031D34
:101C6200A32E00309A3189228E312000DD006F08C8
:101C72000C3E8600013087005D08810001309A31F8
:101C820089228E312000DD006F080D3E8600013072
:101C920087005D08810002309A3189228E3120004E
:101CA200DD006F080E3E8600013087005D0881006E
:101CB2006930903188208E312000DD005D08DE0021
:101CC2005E08DD006F08153E8600013087005D0862
:101CD20081005E08DD006F08163E86000130870035
:101CE2005D0881005E08DD006F08173E8600013046
:101CF20087005D0881006F080C3E86000130870076
:101D02000108FF3A031D08006F080D3E86000130EE
:101D120087000108FF3A031D08006F080E3E860087
:101D2200013087000108FF3A031D08007D08860084
:101D32000130870081167D08033E8600013087004E
:101D4200811408006930903188208E312000DD0036
:101D52005D08DE00FF30DD007C0886000130870070
:101D62005D088100FF30DD007C0A860001308700BB
:101D72005D088100FF30DD007C08023E86000130F4
:101D820087005D088100FF30DD007C08033E86008D
:101D9200013087005D088100FF30DD007C08043ED1
:101DA2008600013087005D088100FF30DD007C087D
:101DB200053E8600013087005D088100AA30DD0003
:101DC2007C081F3E8600013087005D0881005E08A6
:101DD200DD006F08153E8600013087005D08810036
:101DE2005E08DD006F08163E8600013087005D0840
:101DF20081005E08DD006F08173E86000130870013
:101E02005D0881008B139D3164258B177D08860048
:101E12000130870081167D08033E8600013087006D
:101E2200811408007A0886008701011C08007A08DC
:101E3200860087018119552F7A08063E86008701A0
:101E42000130810741310318810A7A08063E860073
:101E52008701403F2000AD00413FAE0002302E021C
:101E6200BC3003192D02031C0800983180208F31E9
:101E7200003A03194C2F7A08063E8600870100308B
:101E8200C03FC13F7A088600870181157A08860023
:101E92008701011108007A08063E86008701BC30DE
:101EA200C03F0230C13F08007A08063E8600870123
:101EB2000130810741310318810A7A08063E860003
:101EC2008701403F2000AD00413FAE0000302E02AE
:101ED200023003192D02031C08007A08063E860010
:101EE20087010030C03FC13F7A0886008701811117
:101EF2007A0886008701811CB42F7A0A860087013E
:101F0200403FAD00413FAE0001302E029130031937
:101F12002D020318EB2F7A0A86008701403FAD009D
:101F2200413FAE0000302E02C83003192D02031CBF
:101F3200EB2F0130AD007A08053E860087012D089F
:101F420081077A08053E8600870102300102031CE0
:101F5200F02F7A08053E86008701810100309E310C
:101F6200FE268F31F02F7A0A86008701403F20003B
:101F7200AD00413FAE0001302E02903003192D0218
:101F82000318D12F7A0A86008701403FAD00413FF6
:101F9200AE0000302E02D33003192D020318EB2FAE
:101FA2000130AD007A08053E860087012D088107C1
:101FB2007A08053E8600870102300102031CF02FD9
:101FC2007A08053E86008701810101309E31FE2696
:101FD2008F31F02F7A08053E8600870181017A0849
:101FE200860087018118F92F7A088600870101157A
:101FF2007A0A860087010030C03FC13F08002000F6
:10200200E4006408A731EA2790312000620803192E
:1020120015286C0886000130870081156C0886003F
:1020220001308700811408006C08860001308700A7
:10203200811D08006C0886000130870081106C0841
:102042008600013087008111A001A00A00309D3175
:10205200F425903120006C08043E86000130870090
:102062000108E3006C08053E860001308700630822
:102072008100DD01DD0A640895315C259031013073
:102082008D316625080020000E127F30A40024083E
:102092002100BF0020000E194B289A31572290319F
:1020A200210040082000A40024082100BF009A312A
:1020B200572290312000A50121004008200025026E
:1020C200031875282508A03E860087010108A40090
:1020D20024082100BF009A3157229031013020009C
:1020E200A4002408A5075D280E16353099318121F8
:1020F200903120000D1C7A280D187D283630993138
:10210200812190313B3099318121F0160800200065
:10211200D9000030DA009630DB004230DC000030BB
:10212200AE00C830AF004230B0005A08B1005B08C0
:10213200B2005C08B3008C310924903120002E08D3
:10214200DA002F08DB003008DC005908973EA800AF
:10215200FF3003180030A9009B316A239031200020
:102162002808B1002908B2002A08B3005A08AE00B4
:102172005B08AF005C08B0008C310924903120006C
:102182002E08CB002F08CC003008CD0088319120DA
:1021920020004B03FF3A643E08002000AB002B08EE
:1021A20098316A20903121002C082000AA006F0883
:1021B2000C3E8600013087002A08810021002D088C
:1021C2002000AA006F080D3E8600013087002A0811
:1021D200810021002E082000AA006F080E3E860012
:1021E200013087002A0881006430A6000030A70071
:1021F20001309731892790317B08860087010113CE
:102202007D08033E860001308700811C0E297C0870
:10221200223E86000130870001157C08223E86009E
:1022220001308700011408002000AC006E0886000F
:10223200023087002C088112031D81162C090139F6
:10224200AB006E08860002308700AB0DAB0DAB0D04
:1022520001082B06F7392B0681002C08AB006E080B
:10226200053E8600023087002B0881002C080319E6
:10227200452902309231612291312000A201A20A45
:10228200023093317223913120002C080A3EAB00B8
:102292002B08A200633093317223913120002C0964
:1022A200013999317221913120002C090139AB0099
:1022B2002B08A20001309C31B42408002000E80061
:1022C200680898316A2091317B0886008701011FD6
:1022D20076292100A008031D08002108643A031D85
:1022E200080001309031CE2008002100A008031D13
:1022F20008002108023A031D08002C08FF3A031DBA
:102302008C292D08FF3A031D8C292E08FF3A031D44
:102312008C290000080020006F080C3E8600013066
:10232200870021002C080106031D080020006F0809
:102332000D3E86000130870021002D080106031D95
:10234200080020006F080E3E860001308700210041
:102352002E080106031D080001309531C72508002B
:102362002000A5002508A731EA27913120006C083A
:10237200860001308700811E08006C08860001304B
:10238200870081106C0886000130870081116C087B
:1023920086000130870001126C0886000130870038
:1023A20001130330A4006C08023E8600013087004E
:1023B200240881006C08063E86000130870001086F
:1023C200A4006C08043E86000130870024088100C6
:1023D200210039088600870101142000A001A00A0B
:1023E20025089D31F42591312000A201A20A250879
:1023F2009331722391312000A20125089931632182
:1024020091312000A20125089931542108002000B1
:10241200E300E201E20A6208031908006D0886007F
:102422000130870081176430A6000030A700013018
:1024320097318927923120006D088600013087008C
:10244200011B4E2A6D088600013087000117A20188
:10245200A20A63089931542192312000A201A20AF2
:1024620063089931A12192312000A201A20A6308D6
:1024720099319121923120006D0886000130870048
:102482000030011B0130DD00630895315C2592317B
:1024920001308D3166252000080020006D0886007D
:1024A2000130870001136D0886000130870000307B
:1024B200011B0130A2006308993154212000080059
:1024C2002000AA002A08013A031D772A9831D32056
:1024D2009231003A03198F2A2C302000A6000130D5
:1024E200A7000A309731892792318F2A20002A08C3
:1024F200023A031D8A2A2C30A6000130A7000530BB
:102502009731892792312100390A86008701010813
:10251200902A20002A08033A031D932A01309131A0
:10252200B12192312000A20101309C31DE2492318E
:102532007D08033E860001308700011808007D08EF
:102542000E3E86000130870001107D080E3E860097
:102552000130870081107D080E3E86000130870021
:1025620001157D08083E8600013087000030C03F1B
:10257200C13F08002000DB000030DC009630DD00A7
:102582004230DE000030AE00C830AF004230B00052
:102592005C08B1005D08B2005E08B3008C3109240A
:1025A200923120002E08DC002F08DD003008DE000A
:1025B2005B08D900DA01D909DA09D90A0319DA0A5A
:1025C2005908643EA80000305A3DA9009B316A2395
:1025D200923120002808B1002908B2002A08B3006D
:1025E2005C08AE005D08AF005E08B0008C31B2241A
:1025F200923120002E08C1002F08C2003008C3000B
:102602000030BE00D230BF004230C0008631F72613
:10261200923120003E08CB003F08CC004008CD009C
:102622008831912020004B0808002000A7002708CD
:102632009831AF2093312100380886008701011CB0
:102642000800380886008701200023088110031D36
:10265200811423080319582B24089D313625933100
:102662002000A5002100380A8600870120002508E5
:1026720081000F302405A5002508053A0319452BD2
:1026820024080F39031D4B2B2630240203184B2B31
:1026920024084C2B0530A50027081A3E6F07A60018
:1026A200260886000130870025088100642BA308D4
:1026B200031D642B27081A3E6F07A5002508860014
:1026C20001308700810121003808023E860087011F
:1026D2000030C03FC13F3808043E860087018101B7
:1026E20008002000A30023089B318C239331200093
:1026F200A208031D8E2B2308013A031D822B8C1581
:1027020008002308023A031D882B8E1708002308AD
:10271200633A031D08008D1608002208013A031DC2
:10272200A42B2308013A031D982B8C1108002308BF
:10273200023A031D9E2B8E1308002308633A031DE1
:1027420008008D12080022080A3A031DC62B210038
:102752003B088600870181103B0A86008701003012
:10276200C03FC13F20002308013A031DBA2B8C153C
:1027720008002308023A031DC02B8E170800230805
:10278200633A031D08008D16080022080B3A031D48
:10279200080021003B088600870181140800200000
:1027A20023080319D92B220821042004031DEA2B34
:1027B2000030A0000030A1000030A200080001306B
:1027C200A5002508A3070130A236A10CA00C890B95
:1027D200E52BFE3022050319032CE02B0130A50066
:1027E2002508A3070130A007003003180130A10714
:1027F200003003180130A2070130A236A10CA00C50
:10280200890BFE2BFF3022050319102CEF2B013010
:10281200A3020130A035A10DA20D890B0B2CA11F23
:10282200082C23181A2CFF30A0057F30A105FF3099
:10283200A2050310A30C2308A500A601A7011030CE
:10284200A535A60DA70D890B212C2508A004260865
:10285200A1042708A204240803190800A2170800EB
:10286200A731CA2794318831012094318E312B2629
:1028720094319831EB209431A731D4279431993196
:1028820003219431A73149279431A7315B27943131
:102892009831C7209431A731B7279431A7316327E4
:1028A20094319A31012294317D08860001308700EB
:1028B200011C662C05308A313022943111309E3150
:1028C200C32694318B31612394317D088600013017
:1028D2008700811C552C7D088600013087008110FD
:1028E2009631362694317D08860001308700011C1E
:1028F200552C9F31BD2794319831F7209431803186
:102902004F209431A7314C279431A7318927943134
:10291200983166209431A73167279431A7315F2718
:102922009431552C20000D180D18952C3B309A31FE
:10293200D5229431210043080319E92C20000E12FC
:10294200FF30A40024082100BF0020000E19A62C8D
:102952009A31572294319A31F022943121003F0862
:102962002000A40024082100BE002000A5012100AF
:102972003E08200025020318D02C9A31F02294310F
:1029820021003F082000A4002508A03E8600870100
:10299200240881000130A4002408A507B82C9A312C
:1029A200F022943121003F082000A40024082100D5
:1029B200BD009A31F022943121003F082000A4008A
:1029C20024082100B70020000E162100B71B701545
:1029D20036309931812194313A30993181219431C3
:1029E2002000A20101309931382108002000A601FF
:1029F200203026020318142D26089A318922943198
:102A02002000A40026087C07A500250886000130C6
:102A12008700240881000130A4002408A607203082
:102A22002602031CFD2C6F080C3E86000130870035
:102A32000108A4007C088600013087002408810078
:102A42006F080D3E8600013087000108A4007C0A51
:102A5200860001308700240881006F080E3E860040
:102A6200013087000108A4007C08023E8600013084
:102A72008700240881007C08223E860001308700FE
:102A8200011D542D7C08223E860001308700011171
:102A92007D0886000130870081127D08033E860092
:102AA2000130870081108B139831DF2094319D31E2
:102AB20064258B1708002000E100E001E00A6108AC
:102AC200FF3E890A662D0310E00DFF3E031D642DB3
:102AD2006108DE006F080B3E8600013087005E0849
:102AE200810069309031882095312000DE00610834
:102AF200143E6F07DF005F088600013087005E0822
:102B020081006108143E6F07DE005E088600013016
:102B120087000108DF006F08093E86000130870048
:102B22005F08810061081A3E6F07DE005E088600BA
:102B3200013087000108DF006F08113E8600013076
:102B420087005F0881005D080319B72D6F080F3EEB
:102B520086000130870001086004DE006F080F3E26
:102B62008600013087005E08810008006F080F3E72
:102B720086000130870060090105DE006F080F3E04
:102B82008600013087005E08810008002000E7000F
:102B9200670898316A2095312100AF08031D082E7D
:102BA2002000A40101308A31C62295312000A20101
:102BB20001309931542195312000A201013099311F
:102BC2006321953120006F08093E8600013087009D
:102BD20081016F080B3E86000130870081016F087A
:102BE2000F3E86000130870081016F08113E86008A
:102BF2000130870081016430A6000030A700013057
:102C020097318927953101308D31662508002100E1
:102C12002F08203A031D242E20006F08093E86004B
:102C22000130870081016F080B3E8600013087006A
:102C320081016F08113E8600013087008101013059
:102C42008D316625080021002F08013A031D2D2E23
:102C520001308931A021080021002F08113A031DFB
:102C6200080001309F317D2708007D088600013071
:102C7200870001187B2E7D0A860001308700013013
:102C8200810741310318810A7D0A860001308700DD
:102C9200403F963A031D4F2E413F003A031D080064
:102CA2007D0A8600013087000030C03FC13F7D08A9
:102CB200860001308700011401309931C12196311B
:102CC20032302000A6000030A70003309731892758
:102CD20096317D08033E86000130870001140130E1
:102CE2009931722196312000A201A20A01309C3151
:102CF200B42408007D08063E8600013087000130BA
:102D0200810741310318810A7D08063E86000130A1
:102D12008700403F643A031D902E413F003A031D55
:102D220008007D08063E8600013087000030C03F63
:102D3200C13F7D08860001308700811908007D08A7
:102D4200860001308700811508002000E4006D082C
:102D5200860001308700811F08006D08860001305F
:102D6200870081136D08860001308700011FF22E53
:102D72006D0A860001308700011C08006D0A86007A
:102D8200013087000110A201A20A64089931F121E1
:102D920096312000A20164089931E1219631200088
:102DA20064081A3E6F07E20062088600013087005D
:102DB2000108E3006F08113E8600013087006308B6
:102DC20081006D088600013087000030011B013050
:102DD200DD00640895315C25963101308D31662520
:102DE20008002000A201A20A64089931A1219631AB
:102DF2002000A20164089931912196312000A3019B
:102E0200A401640893311623963120006D088600D0
:102E1200013087000030011B0130DD00640895316C
:102E22005C25963101308D31662508002000E600D0
:102E3200E501E50A6608A731EA27973120006C0808
:102E4200093E860001308700811C562F6508031950
:102E520008006C08093E860001308700011C442FDF
:102E62006C08093E8600013087008110A401A40A83
:102E720066088A31C62220006C080C3E86000130AA
:102E82008700011008006C08093E860001308700A7
:102E92008110A40166088A31C62220006C080C3E0B
:102EA200860001308700011008006C08093E860088
:102EB20001308700811D08006508031908006608B3
:102EC200A731EA27973120006C08093E86000130BD
:102ED200870081116C08093E860001308700011DC0
:102EE200822FE201E20A66089031002097316430B5
:102EF2002000A6000030A70001309731892720006A
:102F020008002000E201660890310020200008003D
:102F12002000A9001430A0000030A1002708A3015E
:102F2200A3072608A201A2079B310D239731200097
:102F32002108A701A7072008A601A607780886008E
:102F420001308700011C08007808860001308700E4
:102F52008118C42F7808860001308700811429085F
:102F6200A8007808033E8600013087002808810007
:102F72007808063E8600013087002608C03F2708F1
:102F8200C13F8D150800780886000130870081193D
:102F9200E22F780886000130870081152908A800F1
:102FA2007808043E860001308700280881007808EE
:102FB200083E8600013087002608C03F2708C13F2F
:102FC20008007808860001308700011A0800780896
:102FD20086000130870001162908A8007808053EFE
:102FE2008600013087002808810078080A3E8600A2
:102FF200013087002608C03F2708C13F080003347C
:10300200163417341E341F3420342A342B340B3434
:103012000C340D340E340F34103411341234133492
:1030220014340A34153421342234183419341A343D
:103032001B341C341D3423342434253426342934DF
:103042002C342D342E340034013402340734083445
:103052000934063404340534273428340734073459
:10306200303487346B34F8347F343F3409340034DD
:103072005C34A73462348634833403342234F83423
:1030820000344434B634103418341D341C34C7347C
:103092000034B234EA340A340034113459348834F6
:1030A20031340B342F342E340634043405340034D6
:1030B2003034D334913441340034FE34FE34FE349F
:1030C200FE34FE34FE34FE34FE3401308531AE254A
:1030D20008002000A1002108013A031D0800E73082
:1030E200A0002008FB0008002000A0006E08860057
:1030F2000230870020088110031D8114080020007F
:103102006E08860002308700010CA000A00C200C83
:1031120001390800F4007408A731C0277B08860033
:10312200870173088110031D811408000B1E08001B
:103132008B1C08008B100B12F301F30A013098313B
:103142008B2008003330993181219831E8302000FA
:10315200A0000330A1009C31172408002000A10028
:103162002108013A031D0800D330A00020082100E5
:10317200B80008002000A1002108013A031D080040
:10318200E930A00020082100BC00080030302000F7
:10319200A4002408F90001309D3109259831A73196
:1031A200822708002000A0017908860001308700EC
:1031B2000030011B0130A000200808002300151375
:1031C20030309200910115161515A731A52723005D
:1031D2001511080001308731ED279831023087310F
:1031E200ED27983163308731ED27080001309F3198
:1031F2003D27983102309F313D27983163309F310E
:103202003D27080020302000A2002208EE006E08B0
:1032120086000230870081159B31AE23080024000E
:103222000D110430270094000430950096018B158F
:103232000B100B178B170800CC302000A0002008C1
:103242002100EA009501A630200095008B168B170D
:103252000800C4302000A0002008FA007A08860086
:10326200870101147A0886008701011508002000F1
:10327200A300230898316A207B088600870120007A
:1032820022088111031D811508002000A3002308D4
:1032920098316A207B0886008701200022080113EA
:1032A200031D011708002000A30023089831BB204A
:1032B20021003C0886008701200022080110031D1E
:1032C200011408002000A3002308A731F5272000DD
:1032D2006D0886000130870022080113031D0117C3
:1032E20008002000A2000130A731F52720006D0858
:1032F20086000130870022080110031D0114080016
:103302002000A3000E122308A20022082100BF0001
:1033120020000E1989299A31572220000E16080022
:103322002000A3002308A731EA2720006C08093EE9
:1033320086000130870022080110031D01140800D5
:103342002000A3002308A731EA2720006C08093EC9
:1033520086000130870022088110031D81140800B5
:103362002000A3002308A731EA2720006C080C3EA6
:1033720086000130870022080110031D0114080095
:103382002000A0006E08860002308700200801108D
:10339200031D01146E0886000230870081100800A8
:1033A2002000A400A201A20A2408933172239931B9
:1033B2002000A201A20A2408013E933172230800D0
:1033C2002000A3002308A731EA2720006C08093E49
:1033D20086000130870022080111031D0115080033
:1033E2002000A3002308A731EA2720006C08093E29
:1033F20086000130870022088111031D8115080013
:103402009D3193259A319C318A249A319B312B2309
:103412009A31A73153279A31A7314F279A319831E0
:10342200A3209A31A731572708002000A1002108C4
:10343200A0006E083A3E8600023087002008810014
:103442002108A0006E08423E860002308700200854
:10345200810008008B1D08002700161D08001611A8
:103462000B107D08860001308700011C0800210036
:103472003908023E8600870181019B31F32308004F
:103482002000A300230821009D0020002008210025
:103492009E009D149D184B2A1C082000A101A10723
:1034A20021001B082000A001A00708002000A101A4
:1034B20008302102031808002100BF1F632A2000E0
:1034C2000E14652A20000E108E1403102100BF0D69
:1034D20020008E100130A0002008A107592A2000E8
:1034E200A4000E122408A30023082100BF0020001C
:1034F2000E19782A9A3157229A3120002208A30005
:1035020023082100BF009A31572220000E1608001E
:103512002000A200A30130302300920020002208E4
:10352200230091001513151414082000A000200890
:10353200A100230013082000A0002008A3002308F4
:103542000800773021008C0007308D000C308E008F
:1035520022008C0102308D008E01223023008C006B
:103562008D018E01773020008C0007308D000C30E9
:103572008E0008002100390886008701011C08001E
:1035820039088600870101109831D3209A3100381A
:10359200031D08000030983175207C08223E860009
:1035A20001308700811408002000A3000E122308B6
:1035B200C03EA20022082100BF0020000E19DE2A10
:1035C2009A3157229A319A31F02220000E162100A8
:1035D2003F082000A20022082100C30008002000AA
:1035E200A10108302102031808008E1403102100E3
:1035F200BF0D20000E1D002B21003F14062BFE30B4
:103602002000A00020082100BF0520008E100130FC
:10361200A0002008A107F22A2000A401A501201C75
:10362200162B2208A4072308A53D0130A235A30DBD
:10363200890B172B0130A136A00C890B1C2B2108FA
:103642002004031D102B2508A101A1072408A001B5
:10365200A00708002000A70108302702031808006D
:1036620027085E3E840098300318013E850000085A
:10367200A5002508A6002608A5002508A2003E30C0
:103682009A3170229B3101302000A5002508A7073E
:103692002D2B6334023400340034003400340034FF
:1036A20000340034003400340034FF34FF34FF347B
:1036B2000034003400340034003401340034003467
:1036C2000034003400340034003400340034003458
:1036D20000342000AD01A91F752BA809A909A80A69
:1036E2000319A90AAD01AD0A2808A0002908A10002
:1036F200A2018E30AB002B08A3002D08AC002C08D1
:10370200A4009331D02320002008A8002108A9009A
:103712002208AA0008002000A1002108013A031D86
:10372200982BDC30A00020082100BB0008002000FC
:103732002108023A031DA32BE030A000200821003B
:10374200BB00080020002108633A031D0800D8309E
:10375200A00020082100BB0008002000A1010530C4
:103762002102031808002135083E6E07A000200838
:103772008600023087000030C03FC13F21351A3E2B
:103782006E07A0002008860002308700FF30C03F8D
:10379200FF30C13F0130A0002008A107B02B20005C
:1037A200E0006008A731EA279B3120006C08860000
:1037B2000130870001156C088600013087008114F2
:1037C2006F08093E86000130870001089231BB2252
:1037D2002000DF006C08053E8600013087005F088C
:1037E20081000800FF302000950079088600013032
:1037F2008700011808007908093E86000130870019
:10380200811A0800790886000130870001147908BE
:10381200860001308700011F08008C170D167908F9
:10382200093E860001308700811608000130200021
:10383200A2000030A30021082302031D222C20082D
:10384200220203180800A401A5010030250202305B
:10385200031924020318382C0130A4070030A53DB7
:1038620000302502023003192402031C2D2C0130E2
:10387200A2070030A33D1C2C2000A4006D08860086
:1038820001308700811F08006D0A86000130870021
:1038920001146D088600013087000117A201A20AF7
:1038A2002408993154219C312000A201A20A240843
:1038B2009931F1219C312000A201A20A24089931F8
:1038C200E12108002000A400240898316A209C31DC
:1038D2007B0886008701811D08007B08860087011E
:1038E20081117B088600870181107B0A860087018F
:1038F20081017B088600870181123630993181214E
:103902009C313A30993181219C310030A731AE2768
:1039120008002000A8012F302802031808002808F8
:10392200003E840098300318013E85000008A5007F
:103932002508A60028082F3E840098300318013E6F
:1039420085000008A5002508A7002708A50025086E
:10395200A20026089A3170229C3101302000A50075
:103962002508A8078C2C2000A300230898316A2080
:103972009C317B0886008701200022080110031D6C
:1039820001147B088600870101137B0886008701EA
:1039920001117B088600870181117B08860087015F
:1039A20081107B0A8600870181017B0886008701DE
:1039B20081120030A731AE2708002000A30023089F
:1039C200A731EA2720006C08093E860001308700F3
:1039D20022088110031D81146C08093E8600013003
:1039E200870022080110031D01146C08093E86009D
:1039F2000130870022088111031D81156C08093EE0
:103A020086000130870022080111031D01150800FC
:103A12002000A3002308A731EA2720006C080C3EEF
:103A220086000130870001146930A2006C08053E4F
:103A3200860001308700220881001E30A2006C0837
:103A4200063E860001308700220881006C08053E90
:103A52008600013087000108A2006C08043E86003F
:103A6200013087002208810008002000A2000530F2
:103A7200A0002008A1002208053A031D422D0530AE
:103A82005F2D2208103A031D482D0A305F2D2208AF
:103A9200153A031D4E2D0F305F2D2208203A031DCB
:103AA200542D14305F2D2208253A031D5A2D19304A
:103AB2005F2D2208303A031D622D1E30A00020081F
:103AC200A100210808002300151330309200940150
:103AD2001512951615152000A10120302102031898
:103AE2008C2D210823009100200021087C07A000D2
:103AF2002008860001308700010823009300A731C7
:103B0200A5279D3101302000A0002008A107203008
:103B12002102031C722D23009512A731A527230031
:103B22001511080020008E100E100E160A30A0008B
:103B32000030A1009C3117249D3120000E120A3062
:103B4200A0000030A1009C3117249D3120000E16E8
:103B52002830A0000030A1009C3117249D312000A4
:103B62000E123030A60026082100BF0020000E19D8
:103B7200B72D9A3157229D3120000E19BD2D0E10FE
:103B82000E160800F20020006E08463E8600023043
:103B9200870071088110031D81146E08423E860061
:103BA20002308700023081027208013A031DDF2DC4
:103BB2006E08433E86000230870081017208023A95
:103BC200031DE92D6E08443E860002308700810104
:103BD2007208033A031D08006E08453E8600023053
:103BE2008700810108002000A1006E08463E860081
:103BF2000230870020088110031D81146E08423EA6
:103C0200860002308700023081022108013A031D3A
:103C1200102E6E08433E8600023087008101210883
:103C2200023A031D1A2E6E08443E860002308700B7
:103C320081012108033A031D08006E08453E8600F3
:103C420002308700810108002000A1006E08860072
:103C52000230870081146E08463E860002308700DB
:103C620020080110031D01142108013A031D402EF2
:103C72006E08433E8600023087008101810A2108D6
:103C8200023A031D4B2E6E08443E86000230870026
:103C92008101810A2108033A031D08006E08453E8E
:103CA2008600023087008101810A08002000E300BB
:103CB200653021002902031C642E64302000E100DB
:103CC20061082100A90029082000E1006F08093ECF
:103CD200860001308700610881006308E1006F08F7
:103CE2000B3E860001308700610881006F08093EA3
:103CF2008600013087000108E1006308143E6F0767
:103D0200E2006208860001308700610881006308D2
:103D12009B31D02308002000A501A6012108200420
:103D22000319BC2EA701A70AA11BA12E0130A035A1
:103D3200A10D890B982E0130A4002408A707952E07
:103D42000130A535A60D890BA22E21082302031DE1
:103D5200AC2E20082202031CB32E2008A202210846
:103D6200A33B25140130A136A00C890BB42E0130DF
:103D7200A702031DA12E2608A101A1072508A00163
:103D8200A00708002000A8007A0886008701811D8C
:103D92000800F030A4002408A00028089A3141222B
:103DA2009E317A08033E8600870120002008C03F2A
:103DB2002108C13F7A08033E86008701403FA400E4
:103DC200413FA5007A0A86008701403FA600413F95
:103DD200A70025082702031DF02E24082602031837
:103DE20008007A08033E860087017A0A840085016A
:103DF200403F803F413F813F08002000AC007A08ED
:103E0200860087012C088110031D81142C090139B9
:103E1200AB007A0886008701AB0DAB0D01082B06BB
:103E2200FB392B0681002C08013A031D232F033096
:103E3200923161229E312000A201A20A0230933106
:103E420072239E3120002C080A3EAB002B08A200F0
:103E52006330933172239E3120002C09013999314C
:103E620072219E3120002C090139AB002B08A200DF
:103E720001309C31B42408002000A40024089B31A6
:103E82008C239F3121003B0886008701811C08009A
:103E92003B0A860087010130810741310318810AFC
:103EA2003B0A86008701403F2000A200413FA30059
:103EB20000302302323003192202031C08002100C1
:103EC2003B0A860087010030C03FC13F2000240822
:103ED200013A031D6F2F08308C0608002408023AAD
:103EE200031D762F80308E0608002408633A031DD6
:103EF200080020308D0608002000E6006608983190
:103F0200BB209F3121003C0886008701011C952FB0
:103F12007C08223E860001308700011420006608DA
:103F22009E3157269F31A72F20006608143E6F0747
:103F3200E40064088600013087000108E5006F088C
:103F4200093E86000130870065088100200066086E
:103F52001A3E6F07E40064088600013087000108FA
:103F6200E5006F08113E8600013087006508810078
:103F720001308D31662508007C08223E8600013022
:103F82008700811C08007C08223E860001308700E1
:103F9200011CF92F7C08233E860001308700013086
:103FA200810741310318810A7C08233E86000130D3
:103FB2008700403F193A031DE02F413F003A031D9D
:103FC20008007C08233E8600013087000030C03F95
:103FD200C13F7C08223E86000130870001107C0828
:103FE200223E86000130870081109431F7240800B8
:0E3FF2007C08223E8600013087008110080006
:104E920099312A2108008F31132708003A309931BD
:104EA200812108003B309931812108003630993147
:104EB200812108000130A731DF2708000130883145
:104EC200182008000130A7319E27080001308931DF
:104ED2001821080020008E1A08008E166B2F24005D
:104EE2000D100B160B178B170800FE0012001E0088
:104EF200FE0B772F0034640080010131890B7D2F76
:104F02000034E4302000A00020082100B90008008D
:104F1200013097311727A7319A31BB2208007A084E
:104F220086008701010C890C01390800F23021004A
:104F32009E00C03022009700080015302000A0001B
:104F420020082100C0000800553023009600AA3036
:104F5200960095140000000008002000A0008B10AD
:104F6200201CB52F0B1608000B120800A7316B2767
:104F7200A73124008D1001309931D1210800F200AF
:104F82007208013A031D0800E730F1007108FB00C6
:104F92000800C5302000A0002008EF002030A0004B
:104FA2002008FD0008003D302000A0002008F80085
:104FB2007808860001308700011408002000A20052
:104FC20022089831AF202100380886008701011499
:104FD20008002000A1002108013A031D080030301A
:104FE200A0002008EC0008002000A1002108013ADE
:0E4FF200031D08004930A0002008ED00080053
:020000040001F9
:04000E00E4F9FDFF15
:00000001FF
