:04000000803117280C
:10000800803120007F08F500000000008331BC2308
:10001800803186313E26803186310326803175084D
:100028002000FF00090088018531282D2000DB0011
:100038005B0886317F268031760886008701011C9F
:10004800262827289F28760886008701811F2D28C3
:100058002E28332801308331F12380319F287608F8
:1000680086008701811C39283A28462876088600A8
:100078008701811082312122803101308131A12113
:1000880080319F28760886008701011D4C284D285D
:10009800832801308331F123803176088600870177
:1000A800811A57285828762801302000DA00760867
:1000B800013E860087015A0881077608013E8600BE
:1000C80087010108193A031D6A286B289F287608BA
:1000D800013E860087018101760886008701811626
:1000E8009F289F2876088600870181127608860057
:1000F800870101118231F52280319F289F287608D7
:1001080086008701811989288A289F287608860011
:100118008701811536308631182680313430863192
:100128001826803101308631B42680319F289F28D7
:100138009F289F289F28080020005D0886008701C7
:100148000118A728A828D4285D08013E8600870141
:100158000130810741310318810A5D08013E86009C
:100168008701403FDC3A031DBB28413F053A031D88
:10017800BE28BF2820295D08013E8600870100307F
:10018800C03F0030C13F5D08860087010114D901D6
:100198000314D90D01308431B52480312029202958
:1001A80020005D08053E8600870101308107413146
:1001B8000318810A5D08053E86008701403FE83A3A
:1001C800031DE828413F033A031DEB28EC282029AA
:1001D8005D08053E860087010030C03F0030C13F02
:1001E80001308C06F828F8285D080C3E8600870147
:1001F8000108003A03190129022920290130DB00EE
:100208003808403E8600013087005B0881073808BF
:10021800403E8600013087000108203A031D152959
:10022800162920293808403E8600013087008101C0
:1002380020292029202920290800200091112400A4
:1002480011082000D4003808413E8600013087009C
:10025800540881002400141D322933296D291513EF
:100268002000D60120305602031C3B293C293E2998
:10027800632963295608203E3807D40054088600AD
:100288000130870001082400910015164B29200031
:10029800911D4F2950294B29911152292400161BD1
:1002A800562957295229582901302000D4005408CA
:1002B800D60720305602031C622963293E292400F0
:1002C800151620003808423E8600013087000115C7
:1002D800A02915162000D60120305602031C7529C6
:1002E80076297929992999297929911D7C297D29A6
:1002F80079299111240011082000D40056083807E4
:10030800D500550886000130870054088100240074
:10031800151601302000D4005408D60720305602A4
:10032800031C97299829792999293808423E86007B
:10033800013087008114A02908002000D600560843
:10034800031DA729F8293808423E86000130870096
:10035800811AAF29B029202A3808423E8600013088
:1003680087008116D70115305702031CBC29BD2907
:10037800BF29DA29DA295708203E860087010108B3
:10038800D4005708203E3807D500550886000130AC
:100398008700540881000130D4005408D70715306D
:1003A8005702031CD829D929BF29DA293C08D400C7
:1003B8003808353E86000130870054088100390826
:1003C800D4003808363E8600013087005408810082
:1003D8003708D4003808373E8600013087005408B3
:1003E80081000E14202A202AD70115305702031C39
:1003F800FE29FF29012A1B2A1B2A57083807D4007F
:1004080054088600013087000108D5005708203EAF
:1004180086008701550881000130D4005408D707A9
:1004280015305702031C192A1A2A012A1B2A760892
:10043800860087010115202A080020000D1C252AA6
:10044800262A2E2A282A282A0D182B2A2C2A282A36
:100458002E2A2E2A3B308531A725823120003F08DD
:10046800031D372A7F2A8D12FF30D8005808BB0099
:100478003D2A8D19402A412A3D2A422A85314B2599
:10048800823185310325823120003B08D800580885
:10049800BA00D901602A85310325823120003B0842
:1004A800D8005908203E860087015808810001308D
:1004B800D8005808D907602A3A085902031C652A47
:1004C800662A4F2A672A85310325823120003B0896
:1004D800D8005808B90085310325823120003B082F
:1004E800D8005808B7008D16B71F7B2A7C2A7F2AA8
:1004F80070157F2A7F2A36308631182682313A30A5
:100508008631182682312000D601013086316126D5
:100518008231080000340334163417341E341F3473
:1005280020342A342B340B340C340D340E340F346D
:10053800103411341234133414340A341534213479
:100548002234183419341A341B341C341D3423341F
:1005580024342534263429342C342D342E340034D4
:1005680001340234073408340934063404340534B9
:100578002734283407340734303487346B34F8345C
:100588007F343F34093400345C34A7346234863411
:10059800833403342234F83400344434B634103409
:1005A80018341D341C34C7340034B234EA340A34E5
:1005B800003411345934883431340B342F342E3408
:1005C80006340434053400343034D334913441349F
:1005D8000034FE34FE34FE34FE34FE34FE34FE3481
:1005E800FE3420008D127F30D8005808BB00FC2A4A
:1005F8008D19FF2A002BFC2A012B85314B258231CE
:1006080020003C08D8005808BB0085314B258231B2
:100618002000D901202B5908203E860087010108B7
:10062800D8005808BB0085314B25823101302000A5
:10063800D8005808D907202B3C085902031C252B41
:10064800262B0F2B8D1635308631182682312C2B10
:1006580020000D1C302B312B2C2B332B332B0D185A
:10066800362B372B332B382B3630863118268231F0
:100678003B30863118268231F016080020003808F1
:10068800423E860001308700011C4B2B4C2B862BE9
:100698003808423E8600013087000110813121214F
:1006A80083312100911520003808423E8600013030
:1006B8008700011D602B612B6E2B3808423E860097
:1006C8000130870001110E103808423E86000130C3
:1006D800870081123808423E860001308700811C5D
:1006E800762B772B822B3808423E86000130870014
:1006F800811000308131A1218331822B023020000A
:100708008C06862B080020000D118D108D160A30DE
:10071800D4000030D50084312524833120008D1287
:100728000A30D4000030D5008431252483312000DC
:100738008D162830D4000030D5008431252483312B
:1007480020008D123030DA005A08BB00AB2B8D190F
:10075800AE2BAF2BAB2BB02B85314B258331B42B74
:1007680020008D19B82BB92BB42B8D108D160800CD
:100778002100111CC02BC12BF02B2000111CC52BF4
:10078800C62BF02BFD3097004430960011107808E6
:10079800013E860087010130810741310318810A33
:1007A8007808013E86008701403F143A031DDE2B7E
:1007B800413F003A031DE12BE22BF02B7808013E64
:1007C800860087010030C03F0030C13F5D088600C9
:1007D80087010115F02BF02B08002000D8005808DD
:1007E80086317F2683317608860087018119FD2BA3
:1007F800FE2B062C760886008701811C042C052C0C
:10080800242C062C7608860087018111760886003C
:10081800870181107608013E8600870181017608EC
:1008280086008701811236308631182683313A30A6
:1008380086311826833100308631B4268331242C42
:10084800080001302000D6000030D7004A2CD8011B
:10085800D90100305902023003195802031C352C03
:10086800362C382C462C462C0130D8070030D93D80
:1008780000305902023003195802031C442C452C3D
:10088800382C462C0130D6070030D73D5508570282
:10089800031D502C54085602031C532C542C2B2C8B
:1008A800552C080086317026843186312B268431F8
:1008B8008631E42684318531C2258431632C2000B9
:1008C8005D0886008701011D6A2C6B2C632C5D086E
:1008D8008600870101118031A020843120005D0845
:1008E80086008701011C792C7A2C632C8631D0264E
:1008F8008431833142238431632C632C632C632C31
:10090800803117282000DC012F305C02031C8D2C5D
:100918008E2C902CB42CB42C5C088F3E82310A00AB
:100928008431D9005908DA005C08BE3E82310A00D9
:100938008431D9005908DB005B08D9005908D60072
:100948005A0885318C25843101302000D900590896
:10095800DC072F305C02031CB22CB32C902CB42C77
:1009680008002000DA005A0886317F2684312000EA
:100978005908031DC02CC52C760886008701011470
:10098800DB2C76088600870101107608860087012F
:100998000113701236308631182684313B30863187
:1009A8001826843101308331F1238431DB2C08008F
:1009B8002000DB0108305B02031CE32CE42CE62C4E
:1009C800022D022D5B08ED3E82310A008431D900E8
:1009D8005908DA005A08D9005908D6003E3085313E
:1009E8008C25843101302000D9005908DB070830F4
:1009F8005B02031C002D012DE62C022D08002000AF
:100A0800D50108305502031C0A2D0B2D0D2D272D5D
:100A1800272D0D150310BB0D8D1D132D142D162D0F
:100A28003B141B2DFE30D4005408BB051B2D0D11A3
:100A38000130D4005408D50708305502031C252D71
:100A4800262D0D2D272D0800F001F601F701F801DC
:100A5800203084000030850034308631BE26853150
:100A6800203084000130850043308631BE26853130
:100A78006C30840085308500A03086000030870007
:100A880020308631C426853120008431562C200040
:100A9800D50108305502031C522D532D552D6B2DB1
:100AA8006B2DBB1F582D592D5B2D8D145C2D8D1072
:100AB8000D150310BB0D0D110130D4005408D507D6
:100AC80008305502031C692D6A2D552D6B2D080021
:100AD8006334023400340034003400340034003409
:100AE8000034003400340034FF34FF34FF34003461
:100AF800003400340034003400340034003400344E
:100B0800003400340034003400340034003400343D
:100B18002000D8008D125808D7005708BB00942D24
:100B28008D19972D982D942D992D85314B2585312B
:100B380020005608D7005708BB0085314B25853162
:100B480020008D1608002000D7008D125708C03EDF
:100B5800D6005608BB00B02D8D19B32DB42DB02D7D
:100B6800B52D85314B25853185310325853120000B
:100B78008D163B08D6005608BF000800833187232E
:100B880085318431862485318431DC248531863170
:100B9800DF2685318631DA26853186318D26853105
:100BA8008631D5268531080020302000D40054082D
:100BB800B8001030240092008030940080309600F5
:100BC80026309500161497101710210091150B1751
:100BD8008B17080021008C0119308D0018308E0009
:100BE80022008C018D018E0123008C018D018E0164
:100BF80020008C0119308D0018308E00080021006B
:100C0800911D072E082E172E2000911D0C2E0D2E3B
:100C1800172E2100911120003808423E860001302D
:100C280087000114172E08002000D7008D125708DE
:100C3800D6005608BB00202E8D19232E242E202ED8
:100C4800252E85314B25863120008D1608007830F9
:100C5800210099008531EE25863100008631512624
:100C6800863100008631E926863100008531D82595
:100C7800863108000B1E412E422E502E8B1C452E0D
:100C8800462E502E8B100B12F3010314F30D013076
:100C980086319A268631502E08004F302000D40025
:100CA8005408F80041309800FD3097004430960011
:100CB800210011140B178B1708002000D7005708C4
:100CC80086317F26863176088600870120005608FF
:100CD8008111031D8115080040302000D4005408FC
:100CE800DD005D080D3E860087010114A030D400A8
:100CF8005408F90008002000D5005508013A031DE2
:100D0800862E872E8C2E5230D4005408F6008C2E56
:100D180008003330863118268631E8302000D400A8
:100D28000330D5008431252486310800F400740886
:100D38008631A726863176088600870173088110D8
:100D4800031D81140800F2007208013A031DAD2E3C
:100D5800AE2EB32E5230F1007108F600B32E080003
:100D68002000D4008B105418BA2EBC2E0B16BD2EA2
:100D78000B120800640080010131890BBF2E00347A
:100D8800FE0012001E00FE0BC52E00341530200098
:100D9800D4005408BC000800013080311A20863184
:100DA8000800363086311826863108003A308631F8
:100DB8001826863108003B3086311826863108000F
:100DC80001308631CA268631080024000D100B1721
:040DD8008B1708006D
:020000040001F9
:04000E00E4FFFEFF0E
:00000001FF
