:04000000803116280D
:100008007E14803120007F08F7009931C0218031AB
:1000180084312F248031A531E32577082000FF00A3
:100028007E10090080311828F001F801F901FA0161
:10003800FB01FC01EC01ED01EE01A0308400003071
:1000480085004A30A5311C258031203084000130DC
:1000580085004030A5311C258031A0308400013056
:1000680085002530A5311C258031203084000230E0
:1000780085004730A5311C25803117308400993020
:100088008500C5308600013087002030A53116254F
:100098007E10200093315D2B20006E088600023010
:1000A8008700811E7D286E08033E86000230870087
:1000B8000130810741310318810A6E08033E86002A
:1000C80002308700403FAD00413FAE0003302E02B2
:1000D800E83003192D02031C08006E08033E860051
:1000E800023087000030C03FC13F00309F310627F3
:1000F800080020006E08860002308700011E442B8D
:100108006E0A8600023087000130810741310318EA
:10011800810A6E0A860002308700403FAD00413FE9
:10012800AE0000302E02053003192D02031C080012
:100138006E0A8600023087000030C03FC13F6E085B
:1001480086000230870001126E08453E86000230A4
:1001580087006E08443E8400023085000008AD0028
:100168006E08433E84000230850000082D07010711
:10017800AE006E083E3E8600023087002E088100E1
:10018800B101B10A043031020318F8283135083EAC
:100198006E07AD002D088600023087006E082E3EDF
:1001A800840002308500403F80070131413F803D97
:1001B8003F3131351A3E6E07AD002D0886000230FA
:1001C80087006E08303E840002308500403F80077B
:1001D8000131413F803D3F310130AD002D08B1076D
:1001E80004303102031CCA280330A0000030A100EB
:1001F8006E082E3E860002308700403FA200413F35
:10020800A3009C313024803120006E082E3E8600E9
:10021800023087002008C03F2108C13F0330A000FA
:100228000030A1006E08303E860002308700403F53
:10023800A200413FA3009C313024803120006E0889
:10024800303E8600023087002008C03F2108C13FA9
:100258006E082E3E860002308700403FAD00413FC9
:10026800AE006E08303E860002308700403FAF0087
:10027800413FB0002E083002031D44292D082F02EB
:100288000318C72A6E082E3E8600023087006E08C3
:10029800303E840002308500003FAD00013FAE00D3
:1002A800AD09AE09AD0A0319AE0A403F2D07AF00EC
:1002B800413F2E3DB0006E082C3E8600023087007C
:1002C8002F08C03F3008C13F6E083A3E8600023012
:1002D8008700023001020318C1290130AD006E0801
:1002E8003A3E8600023087002D0881076E083A3EA4
:1002F8008600023087000108013A031D8D296E0827
:10030800363E860002308700F430C03F0130C13FDE
:10031800C1296E083A3E8600023087000108023A79
:10032800031DC1296E083E3E860002308700010881
:10033800013A031DA9296E08363E8600023087005F
:100348004230C03F0030C13FC1296E08063E8600DA
:1003580002308700403FAD00413FAE002D083A3ED5
:10036800AF0000302E3DB0006E08363E86000230E9
:1003780087002F08C03F3008C13F6E08363E860010
:1003880002308700403FAD00413FAE006E082C3E72
:10039800860002308700403FAF00413FB0002E0882
:1003A8003002031DD9292D082F02031C472A0130CA
:1003B800AD006E083C3E8600023087002D0881079C
:1003C8006E083C3E86000230870003300102031CA1
:1003D800C72A6E083C3E8600023087008101013042
:1003E8009F310627803120006E082C3E860002309F
:1003F8008700403FAD00413FAE002E08AF006F08B8
:10040800043E8600013087002F0881006E082C3ECC
:100418008600023087000108AD006F08053E86009F
:10042800013087002D0881006E08363E86000230B4
:100438008700403FAD00413FAE002E08AF006F0877
:10044800103E8600013087002F0881006E08363E76
:100458008600023087000108AD006F08113E860053
:10046800013087002D0881006E083E3E860002306C
:1004780087000108AD006F08083E8600013087003C
:100488002D088100C72A6E083C3E8600023087008E
:1004980081016E08423E8600023087000A30010260
:1004A80003185F2A0130AD006E08423E8600023014
:1004B80087002D0881076E08423E860002308700BB
:1004C8000A300102031CC72A6E0886000230870022
:1004D8008115A201A20A0130A7310C278031200022
:1004E8006E08463E860002308700011C8F2A6E087F
:1004F800463E86000230870001106E082C3E8600BA
:10050800023087006E08063E840002308500403FB6
:10051800803F413F813F6E08463E8600023087009B
:10052800811CC72A6E08463E86000230870081106B
:100538006E082C3E8600023087006E08063E840056
:1005480002308500403F803F413F813F6E083E3E7C
:100558008600023087000108AD00AE012D08A0001A
:100568002E08A1004230A2000030A3009831DA2002
:10057800803120006E08363E860002308700200851
:10058800C03F2108C13F99317B21803120006E088E
:100598002C3E860002308700403FAD00413FAE0050
:1005A8002E08AF006F08023E8600013087002F0832
:1005B80081006E082C3E8600023087000108AD00DD
:1005C8006F08033E8600013087002D0881006E0801
:1005D8003E3E8600023087000108AD006F08083EE5
:1005E8008600013087002D0881006E08063E8600CF
:1005F800023087000108AD006F080A3E860001300E
:1006080087002D0881006E08363E8600023087007C
:10061800403FAD00413FAE002E08AF006F08103ECE
:100628008600013087002F0881006E08363E86005C
:10063800023087000108AD006F08113E86000130C6
:1006480087002D0881006E08053E8600023087006D
:100658000108AD006F08123E8600013087002D08A2
:1006680081006E083A3E8600023087000108AD001E
:100678006F08133E8600013087002D0881000800AE
:100688006E08860002308700811C6D2B6E0886007C
:100698000230870001195A2B6E0886000230870045
:1006A80001156E088600023087008111A5313725B3
:1006B8008031003A03190800A53130258031003A0D
:1006C8000319080020006E08860002308700011612
:1006D80008006E08860002308700011D08006E08B9
:1006E80086000230870001116E08860002308700FC
:1006F80081156E083C3E86000230870081016E0835
:100708003A3E86000230870081016E08063E860068
:10071800023087000030C03FC13F6E083F3E860070
:100728000230870081016E08463E8600023087004D
:1007380001106E08463E86000230870081106E0860
:100748002C3E8600023087000030C03FC13F9931FF
:100758007B2180312000A201A20A0130A7310C2799
:10076800803120006E082C3E860002308700403F12
:10077800AD00413FAE002E08AF006F08023E860074
:10078800013087002F0881006E082C3E8600023059
:1007980087000108AD006F08033E8600013087001E
:1007A8002D0881006E083F3E860002308700010850
:1007B800AD006F08083E8600013087002D088100D3
:1007C8006E08063E8600023087000108AD006F08FB
:1007D8000A3E8600013087002D0881006E08363EEB
:1007E800860002308700403FAD00413FAE002E0832
:1007F800AF006F08103E8600013087002F08810087
:100808006E08363E8600023087000108AD006F088A
:10081800113E8600013087002D0881006E08053ED4
:100828008600023087000108AD006F08123E86007E
:10083800013087002D0881006E083A3E860002309C
:1008480087000108AD006F08133E8600013087005D
:100858002D08810008008B1E08000B1D0800A6301B
:10086800200095000B117908860001308700011CD3
:10087800882C0130F3007908033E86000130870098
:100888007308810721003908023E860087010108A4
:10089800F300F401F309F409F30A0319F40A7908D7
:1008A800043E86000130870001087307F5007408CC
:1008B8000318740AF6007908033E860001308700A1
:1008C8007608803A803C031D6B2C75080102031CD6
:1008D800C42D7908033E860001308700810179081C
:1008E80086000130870001107908073E8600013034
:1008F800870001147908860001308700011FC42D84
:1009080020008C170D16C42D7908073E860001308B
:100918008700011C8E2D7908073E8600013087006C
:1009280001107908860001308700811C8E2D013066
:10093800F300790A86000130870073088107790A75
:100948008600013087007908023E84000130850066
:1009580000080102031C8E2D790A860001308700E9
:1009680081017908860001308700811DF12C790802
:10097800860001308700011AD82C7908043E8600C9
:100988000130870044300102031CD22C7908043E50
:10099800860001308700013081028E2D790886009B
:1009A8000130870001168E2D7908043E860001303B
:1009B8008700783001020318EB2C0130F300790826
:1009C800043E860001308700730881078E2D790860
:1009D80086000130870001128E2D790886000130CB
:1009E8008700011D382D7908053E860001308700F3
:1009F8007908043E840001308500000801020318CC
:100A08000D2D7908043E86000130870001308102EF
:100A1800242D7908043E8600013087007908053EB8
:100A2800840001308500000801020318242D0130DC
:100A3800F3007908043E86000130870073088107B7
:100A48007908053E8600013087007908043E840055
:100A58000130850000080106031D8E2D79088600E7
:100A6800013087000111532D790886000130870075
:100A7800811E592D7908043E860001308700013017
:100A880081027908053E8600013087007908043E16
:100A980084000130850000080102031C8E2D7908AE
:100AA80086000130870081108E2D0130F30079080F
:100AB800043E860001308700730881077908043EE8
:100AC8008600013087007908063E840001308500E1
:100AD80000080102031C8E2D79088600013087006A
:100AE80081107908860001308700011379080C3ECF
:100AF800860001308700011421003908860087012B
:100B0800011420008C118E13F101F10A01309B3180
:100B18003623843120008C1FC42D0130F30079085E
:100B2800083E860001308700730881077908043E73
:100B38008600013087000108F300F401F309F40985
:100B4800F30A0319F40A7308783EF5000030743D7F
:100B5800F6007908083E8600013087007608803A5A
:100B6800803C031DB92D75080102031CC42D7908AA
:100B7800083E860001308700810120008C130D1289
:100B880021006B0A86008701013081074131031873
:100B9800810A6B0A86008701403FC83A031DD62D9B
:100BA800413F003A031DE32D6B0A860087010030A0
:100BB800C03FC13F7D088600013087008114780856
:100BC800860001308700811C0800780A8600013001
:100BD80087000130810741310318810A080020008D
:100BE800E8006D08860001308700011C08006808CD
:100BF800A531952585312000E701E70A0C1F0C1A5D
:100C0800092E0C1C8D18092EE7016D08860001308D
:100C1800870067088110031D81146D088600013064
:100C28008700811CE72E6D088600013087000119B6
:100C38003E2E0130E5006D08023E86000130870037
:100C4800650881076D08023E86000130870005307F
:100C58000102031C08006D08023E8600013087006F
:100C680081016D08860001308700011568089F31F1
:100C7800A727080020006D08860001308700811929
:100C8800702E6D08033E8600013087000130810711
:100C980041310318810A6D08033E86000130870040
:100CA800403FE500413FE6000030660296300319F8
:100CB8006502031C08006D08033E860001308700AA
:100CC8000030C03FC13F6D088600013087008115A4
:100CD80068089A310A22080020006D088600013051
:100CE8008700011AB42E6D08053E86000130870082
:100CF8000130810741310318810A6D08053E8600DD
:100D080001308700403FE500413FE60000306602C1
:100D1800963003196502031C08006D08053E86001D
:100D2800013087000030C03FC13F6D0886000130A8
:100D380087000116A201A20A0130A6319226853148
:100D48007D08033E860001308700811C080064305E
:100D58002000A6000030A700023095318925080040
:100D680020006D08860001308700811A08006D0890
:100D7800073E8600013087000130810741310318A2
:100D8800810A6D08073E860001308700403FE50074
:100D9800413FE600013066022C3003196502031C4E
:100DA80008006D08073E8600013087000030C03F0C
:100DB800C13F6D088600013087008116A20101300D
:100DC800A6319226080020006D08860001308700B1
:100DD800011D08000130E5006D08023E8600013063
:100DE8008700650881076D08023E8600013087008C
:100DF80005300102031C08006D08023E8600013020
:100E0800870081016D0886000130870001116D0897
:100E1800033E8600013087000030C03FC13F6D08A7
:100E280086000130870081116D08053E860001307B
:100E380087000030C03FC13F6D0886000130870041
:100E480001126D08073E8600013087000030C03F60
:100E5800C13F6D088600013087008112680894310F
:100E6800A62485312000A2010130A631922608006F
:100E780020002E08B4002F08B5003008B600031073
:100E8800350D360DB7003708B800B808031D532FC5
:100E98000030AE000030AF000030B000080031086C
:100EA800B4003208B5003308B6000310350D360D0E
:100EB800B7003708BD00BD08031D692F0030AE001C
:100EC8000030AF000030B00008003D087B3EB400A1
:100ED8003408B8072E08B4002F08B5003008B6004B
:100EE8001030B636B50CB40C890B752F3408B70022
:100EF8003708BD003108B4003208B5003308B60021
:100F08001030B636B50CB40C890B852F3408B700F1
:100F18003708BD068030B4003408BD05AF17B217D6
:100F2800FF30B105FF30B2050030B3050030B9001D
:100F38000030BA000030BB000730B4003408BC00F1
:100F48002E1CAC2F3108B9073208BA3D3308BB3D17
:100F58000130B036AF0CAE0C890BAD2F0130B13576
:100F6800B20DB30D890BB32F0130BC02031DA42FA2
:100F78000930B4003408BC002E1CC82F3108B9074A
:100F88003208BA3D3308BB3D0130B036AF0CAE0C69
:100F9800890BC92F0130BB36BA0CB90C890BCF2F7E
:100FA8000130BC02031DC02F3908A0003A08A10077
:100FB8003B08A2003808B4003408A3003D08B50077
:100FC8003508A4009131C12120002008AE00210875
:100FD800AF002208B00008002000A3002308A531B4
:100FE8008A2520006C08093E860001308700220807
:080FF8008111031D81150800A1
:101002002000A3002308A5318A2520006C08093E90
:1010120086000130870022088110031D81146C08AC
:10102200093E86000130870022080110031D0114C9
:101032006C08093E86000130870022088111031DD9
:1010420081156C08093E86000130870022080111D3
:10105200031D011508002000E3006308A6310726DE
:10106200883121003C088600870101186D2830086C
:10107200803A031D49282000A301A30A2100310858
:101082002000E2006208A400630891310721883140
:1010920021003C088600870101142000A201A20A57
:1010A2006308A631BE2688312000A201A20A630885
:1010B200A631FC2688312000A201A20A6308A631CB
:1010C200EC26883121003C08860087010030011897
:1010D20001302000DD00AB2821003008803A031DDA
:1010E20083282000A301A30A210031082000E20086
:1010F2006208A40063089131072188312000DD01D4
:10110200DD0AAB2821003C0886008701011020007F
:10111200A2016308A631BE2688312000A201A20ADC
:101122006308A631FC26883121003C08860087012D
:101132000030011801302000A2006308A631EC261D
:1011420088312000A301A40163089131072188316D
:101152002000DD016308923186228831643020004C
:10116200A6000030A7000130953189258831013071
:101172008B31392308002000A6002608A5318A25D4
:10118200883120002608A5002100390A860087013F
:101192002000250881002408031926296C088600EE
:1011A200013087008116A20126089131632188311E
:1011B20020008E170030A7317227883120006C087A
:1011C20086000130870081140330A5006C08023EBE
:1011D200860001308700250881006C0886000130F6
:1011E2008700011B08006C08860001308700011788
:1011F200A001A00A26089B31C92321006A08223EC9
:1012020086000130870081106A08233E8600013083
:1012120087000030C03FC13F20006C08053E8600B9
:10122200013087000108A5006C08043E86000130E9
:101232008700250881004330A5006C08043E860023
:10124200013087002508810008006C088600013003
:10125200870081126C08063E860001308700010873
:10126200A5006C08043E8600013087002508810035
:101272006C0886000130870081146C0886000130FA
:10128200870081116C08860001308700011203304B
:10129200A5006C08023E8600013087002508810007
:1012A20008002000A900AB01AA016E0886000230E6
:1012B2008700011E0800C030A4002408A0002908ED
:1012C200A7318727893120006E08323E860002301E
:1012D20087002008C03F2108C13FAB0105302B0227
:1012E2000318AC296E08323E860002308700403F68
:1012F200A400413FA5002B35083E6E07A600260834
:10130200860002308700403FA700413FA800250821
:101312002802031D8E29240827020318A4296E0817
:10132200323E8600023087002B35083E6E07A4004D
:101332002408840002308500403F803F413F813FC6
:10134200AA01AA0AAC290130A4002408AB0705307F
:101352002B02031C7329AA08031D0800AB010530E8
:101362002B02031808002B351A3E6E07A40024082E
:10137200860002308700403FA500413FA6006E086C
:10138200323E860002308700403FA700413FA8005E
:1013920026082802031DCF29250827020318E3295E
:1013A2006E08323E8600023087002B351A3E6E07E9
:1013B200A4002408840002308500403F803F413F62
:1013C200813F08000130A4002408AB07B029780847
:1013D200860001308700811220008D19811678085D
:1013E200860001308700811C08007808063E8600CE
:1013F20001308700403F2000A000413FA100780A51
:10140200860001308700403FA200413FA30021082F
:101412002302031D0E2A20082202031C0800780A58
:101422008600013087000030C03FC13F7808860047
:1014320001308700811A822A7808033E8600013033
:1014420087008108031D7B2A780886000130870007
:10145200811D4D2A780886000130870081117808A5
:10146200043E8600013087000108A0007808033E90
:10147200860001308700200881007808083E860037
:10148200013087007808063E840001308500403F25
:10149200803F413F813F0800780886000130870085
:1014A200011E752A7808860001308700011278082B
:1014B200053E8600013087000108A0007808033E3F
:1014C2008600013087002008810078080A3E8600E5
:1014D200013087007808063E840001308500403FD5
:1014E200803F413F813F0800780886000130870035
:1014F20081100800780886000130870081168D155A
:101502000800780886000130870081128D11780862
:10151200033E86000130870001308102080020006E
:101522003108B4003208B5003308B6000310350D97
:10153200360DB7003708BC00BC08031DA72A0030CF
:10154200AE000030AF000030B00008002E08B4003A
:101552002F08B5003008B6000310350D360DB70060
:101562003708BD00BD08031DBD2A0030AE000030A3
:10157200AF000030B00008000030B9000030BA00FF
:101582000030BB0089303D07B4003408BC0231088A
:10159200B4003208B5003308B6001030B636B50CC8
:1015A200B40C890BCF2A3408B7003708BD002E08C7
:1015B200B4002F08B5003008B6001030B636B50CAE
:1015C200B40C890BDF2A3408B7003708BD06803017
:1015D200B4003408BD05B217FF30B105FF30B205C3
:1015E2000030B305AF17FF30AE05FF30AF05003056
:1015F200B0051830B4003408B8000130B935BA0D5E
:10160200BB0D890BFF2A30083302031D0E2B2F0856
:101612003202031D0E2B2E083102031C172B2E083B
:10162200B1022F08B23B3008B33B39140130B13557
:10163200B20DB30D890B182B0130B802031DFE2A1F
:101642003908A0003A08A1003B08A2003C08B400F7
:101652003408A3003D08B5003508A4009131C1212A
:1016620020002008AE002108AF002208B0000800C8
:101672002000A3002308A531A0258B317B0886001A
:101682008701011C08007B088600870101190800F8
:101692007B0886008701011563302000A200220822
:1016A2002100A00002302000A20022082100A10097
:1016B20020006F088600013087000130423F210080
:1016C200A20020006F088600013087000130433FEE
:1016D2002100A30020006F0886000130870001303E
:1016E200443F2100A40020006F08860001308700DB
:1016F2000130453F2100A50020006F08860001301F
:1017020087000130463F2100A60020006F088600B6
:10171200013087000130473F2100A70020006F08F9
:101722008600013087000130483F2100A8002000D8
:101732006F088600013087000130493F2100A9006F
:1017420020006F0886000130870001304A3F2100E7
:10175200AA0020006F0886000130870001304B3F4D
:101762002100AB0020006F088600013087000130A5
:101772004C3F2100AC0020006F088600013087003A
:1017820001304D3F2100AD0020006F08860001307E
:10179200870001304E3F2100AE0020006F08860016
:1017A2000130870001304F3F2100AF0020006F0859
:1017B2008600013087000130503F2100B000200038
:1017C2006F088600013087000130513F2100B100CF
:1017D20020006F088600013087000130523F21004F
:1017E200B20020006F088600013087000130533FAD
:1017F2002100B300B401B40A08007A088600870108
:10180200011C08007A08860087018119462C7A0893
:10181200063E860087010130810741310318810AA3
:101822007A08063E86008701403F2000AD00413F16
:10183200AE0002302E02BC3003192D02031C080038
:10184200A531C1258B31003A03193D2CA53137252D
:101852008B31003A03193D2C7A08063E8600870137
:101862000030C03FC13F7A088600870181157A089F
:1018720086008701011108007A08063E860087016A
:10188200BC30C03F0230C13F08007A08063E8600E5
:1018920087010130810741310318810A7A08063E27
:1018A20086008701403F2000AD00413FAE0000307E
:1018B2002E02023003192D02031C08007A08063E8C
:1018C200860087010030C03FC13F7A088600870149
:1018D20081117A0886008701811CA52C7A0A86006C
:1018E2008701403FAD00413FAE0001302E029130F2
:1018F20003192D020318DC2C7A0A86008701403F67
:10190200AD00413FAE0000302E02C83003192D0257
:10191200031CDC2C0130AD007A08053E86008701ED
:101922002D0881077A08053E8600870102300102F0
:10193200031CE12C7A08053E8600870181010030F4
:101942009C31A2248B31E12C7A0A86008701403F28
:101952002000AD00413FAE0001302E02903003194D
:101962002D020318C22C7A0A86008701403FAD007F
:10197200413FAE0000302E02D33003192D0203186E
:10198200DC2C0130AD007A08053E860087012D0867
:1019920081077A08053E8600870102300102031C96
:1019A200E12C7A08053E86008701810101309C31D5
:1019B200A2248B31E12C7A08053E86008701810141
:1019C2007A08860087018118EA2C7A088600870146
:1019D20001157A0A860087010030C03FC13F080026
:1019E2001F30A731E7278C31AA3A031D692D003039
:1019F200A731E7278C312000DD006F080C3E8600FE
:101A0200013087005D0881000130A731E7278C3162
:101A12002000DD006F080D3E8600013087005D0862
:101A220081000230A731E7278C312000DD006F08EA
:101A32000E3E8600013087005D08810043309E31F2
:101A42002E268C312000DD005D08DE005E08DD0000
:101A52006F08153E8600013087005D0881005E0830
:101A6200DD006F08163E8600013087005D088100A8
:101A72005E08DD006F08173E8600013087005D08B2
:101A820081006F080C3E8600013087000108FF3A92
:101A9200031D08006F080D3E860001308700010813
:101AA200FF3A031D08006F080E3E860001308700D2
:101AB2000108FF3A031D08007D08860001308700F7
:101AC20081167D08033E86000130870081140800DC
:101AD20043309E312E268C312000DD005D08DE0071
:101AE200FF30DD0021006A088600013087002000F7
:101AF2005D088100FF30DD0021006A0A86000130A6
:101B0200870020005D088100FF30DD0021006A08A7
:101B1200023E86000130870020005D088100FF3010
:101B2200DD0021006A08033E8600013087002000A4
:101B32005D088100FF30DD0021006A08043E860056
:101B42000130870020005D088100FF30DD002100A8
:101B52006A08053E86000130870020005D0881008A
:101B6200AA30DD0021006A081F3E8600013087008E
:101B720020005D0881005E08DD006F08153E8600CA
:101B8200013087005D0881005E08DD006F08163EA7
:101B92008600013087005D0881005E08DD006F0865
:101BA200173E8600013087005D0881008B139B3150
:101BB20098238B177D0886000130870081167D08E7
:101BC200033E8600013087008114080020003E0891
:101BD200C4003F08C5004008C6000310450D460D6D
:101BE200C7004708CA004108C4004208C5004308AC
:101BF200C6000310450D460DC7004708C9004A0834
:101C020003190F2E49084A020318162E4A03FF3AF7
:101C12004907C40019304402031C162E4108BE00B5
:101C22004208BF004308C000080049080319080021
:101C32004A0849020318252E4903FF3A4A07C400FD
:101C420019304402031808000630C4004408C800D2
:101C5200C01BC817C31B4817BF17FF30BE05FF3094
:101C6200BF050030C005C217FF30C105FF30C205F5
:101C72000030C30549084A020318612E0130C135FC
:101C8200C20DC30D890B402E0130C90249084A0614
:101C920003195C2E0130C8024808073903195C2E6B
:101CA2003F2E0130C036BF0CBE0C890B532E0130C3
:101CB200C4004408CA074A0849060319862E522E50
:101CC2004A0849020318862E0130BE35BF0DC00DE9
:101CD200890B662E0130CA0249084A060319822E70
:101CE2000130C802480807390319822E652E0130D7
:101CF200C336C20CC10C890B792E0130C4004408D2
:101D0200C9074A084906031D782EC81F982EFF30BE
:101D1200BE06FF30BF06FF30C0060130BE070030EE
:101D220003180130BF07003003180130C007481FF5
:101D3200AA2EFF30C106FF30C206FF30C3060130B3
:101D4200C107003003180130C20700300318013008
:101D5200C307C8013E08C1073F08C23D4008C33D52
:101D6200C31FC52EFF30C106FF30C206FF30C306B7
:101D72000130C107003003180130C20700300318D8
:101D82000130C307C801C80A4108A0004208A100E7
:101D92004308A2004A08C4004408A3004808C5003A
:101DA2004508A4009131C12120002008BE0021086D
:101DB200BF002208C00008007C08860001308700AE
:101DC200011C08007C088600013087000119292FB8
:101DD2007C0A8600013087000130810741310318F7
:101DE200810A7C0A860001308700403F2000AD0056
:101DF200413FAE0001302E02F43003192D02031CC4
:101E02000800A531C1258E31003A0319202FA531D2
:101E120030258E31003A0319202F7C0A86000130CA
:101E220087000030C03FC13F7C0886000130870038
:101E320001157C08860001308700011208007C0A27
:101E4200860001308700E830C03F0330C13F080000
:101E52007C0A860001308700013081074131031876
:101E6200810A7C0A860001308700403F2000AD00D5
:101E7200413FAE0000302E02043003192D02031C34
:101E820008007C0A8600013087000030C03FC13F55
:101E92007C0886000130870001117C08083E86001C
:101EA200013087007C08043E840001308500403FF9
:101EB200803F413F813F7C08860001308700811CC2
:101EC2008F2F7C08043E860001308700403FAD0022
:101ED200413FAE0002302E02583003192D02031C7E
:101EE200BD2F0130AD007C08033E86000130870023
:101EF2002D0881077C08033E8600013087000330ED
:101F02000102031CC32F7C08033E860001308700B8
:101F1200810100309E31BD268E31C32F7C08043EE4
:101F2200860001308700403F2000AD00413FAE00F7
:101F320002302E02273003192D020318BD2F013063
:101F4200AD007C08033E8600013087002D08810722
:101F52007C08033E86000130870003300102031C27
:101F6200C32F7C08033E86000130870081010130C7
:101F72009E31BD268E31C32F7C08033E8600013080
:101F8200870081017C088600013087008118CE2FEE
:101F92007C0886000130870001167C08043E86001A
:101FA20001308700403F2000AD00413FAE002E08C7
:101FB200AF006F08183E8600013087002F088100AD
:101FC2007C08043E8600013087000108AD006F08DE
:101FD200193E8600013087002D0881007C08063EEC
:101FE2008600013087000030C03FC13F7C08083EB8
:101FF2008600013087000030C03FC13F080020004A
:10200200E8006808A531A02590317B088600870189
:10201200011F17282100A008031D08002108643AA7
:10202200031D080001309E31742608002100A0081B
:10203200031D08002108023A031D08002C08FF3A7C
:10204200031D2D282D08FF3A031D2D282E08FF3AC7
:10205200031D2D280000080020006F080C3E86009A
:102062000130870021002C080106031D0800200012
:102072006F080D3E86000130870021002D08010601
:10208200031D080020006F080E3E86000130870005
:1020920021002E080106031D080001309431372467
:1020A20008002000AA002A08013A031D6828A63168
:1020B2001F269031003A031980282C302000A600F8
:1020C2000130A7000A3095318925903180282000FF
:1020D2002A08023A031D7B282C30A6000130A700F3
:1020E20005309531892590312100390A8600870112
:1020F2000108812820002A08033A031D84280130A0
:102102009F31502790312000A201013088310120F7
:1021120090317D08033E86000130870001180800D7
:102122007D080E3E86000130870001107D080E3EBC
:1021320086000130870081107D080E3E8600013046
:10214200870001157D08083E8600013087000030B7
:10215200C03FC13F08002000DB000030DC005430EB
:10216200DD004230DE000030AE00C830AF00423049
:10217200B0005C08B1005D08B2005E08B3008A31AD
:102182009022903120002E08DC002F08DD0030085C
:10219200DE005B08D900DA01D909DA09D90A031984
:1021A200DA0A5908643EA80000305A3DA900993164
:1021B2003721903120002808B1002908B2002A08EE
:1021C200B3005C08AE005D08AF005E08B000873166
:1021D2003C27903120002E08C1002F08C200300891
:1021E200C3000030BE008630BF004230C0008D31D7
:1021F200E725903120003E08CB003F08CC00400884
:10220200CD009631F12620004B0808002000A700DF
:102212002708A531FB259131210038088600870166
:10222200011C08003808860087012000230881105D
:10223200031D811423080319492924089A31D8223D
:1022420091312000A5002100380A86008701200074
:10225200250881000F302405A5002508053A031939
:10226200362924080F39031D3C292630240203187D
:102272003C2924083D290530A50027081A3E6F078E
:10228200A60026088600013087002508810055290E
:10229200A308031D552927081A3E6F07A500250824
:1022A200860001308700810121003808023E860045
:1022B20087010030C03FC13F3808043E86008701D5
:1022C200810108002000A30023089931592191318E
:1022D2002000A208031D7F292308013A031D732948
:1022E2008C1508002308023A031D79298E1708006D
:1022F2002308633A031D08008D1608002208013ADC
:10230200031D95292308013A031D89298C11080010
:102312002308023A031D8F298E1308002308633A0B
:10232200031D08008D12080022080A3A031DB7296E
:1023320021003B088600870181103B0A8600870145
:102342000030C03FC13F20002308013A031DAB29E2
:102352008C1508002308023A031DB1298E170800C4
:102362002308633A031D08008D16080022080B3A61
:10237200031D080021003B08860087018114080024
:10238200200023080319CA29220821042004031D5E
:10239200DB290030A0000030A1000030A2000800BC
:1023A2000130A5002508A3070130A236A10CA00C1C
:1023B200890BD629FE3022050319F429D1290130CF
:1023C200A5002508A3070130A0070030031801303B
:1023D200A107003003180130A2070130A236A10C78
:1023E200A00C890BEF29FF3022050319012AE029ED
:1023F2000130A3020130A035A10DA20D890BFC29E9
:10240200A11FF92923180B2AFF30A0057F30A1054F
:10241200FF30A2050310A30C2308A500A601A70103
:102422001030A535A60DA70D890B122A2508A00488
:102432002608A1042708A204240803190800A217E9
:10244200080020000D180D18242A3B309831A220D4
:102452009231210043080319782A20000E12FF301E
:10246200A40024082100BF0020000E19352AA7313C
:10247200B52792319831BD20923121003F082000CA
:10248200A40024082100BE002000A50121003E086E
:102492002000250203185F2A9831BD2092312100C5
:1024A2003F082000A4002508A03E860087012408DA
:1024B20081000130A4002408A507472A9831BD20D5
:1024C200923121003F082000A40024082100BD0011
:1024D2009831BD20923121003F082000A400240839
:1024E2002100B70020000E162100B71B70153630F0
:1024F200A631DC2692313A30A631DC269231200018
:10250200A2010130A631842608002000E100E0018A
:10251200E00A6108FF3E890A902A0310E00DFF3E9F
:10252200031D8E2A6108DE006F080B3E8600013013
:1025320087005E08810043309E312E2692312000B2
:10254200DE006108143E6F07DF005F08860001307D
:1025520087005E0881006108143E6F07DE005E0896
:102562008600013087000108DF006F08093E8600FF
:10257200013087005F08810061081A3E6F07DE00A4
:102582005E088600013087000108DF006F08113EF7
:102592008600013087005F0881005D080319E12A87
:1025A2006F080F3E86000130870001086004DE00DC
:1025B2006F080F3E8600013087005E088100080028
:1025C2006F080F3E86000130870060090105DE00BA
:1025D2006F080F3E8600013087005E088100080008
:1025E2002000A8007C08860001308700011D080039
:1025F200F030A4002408A0002808A73187279231D0
:102602007C080A3E86000130870020002008C03F77
:102612002108C13F7C080A3E860001308700403F06
:10262200A400413FA5007C08063E860001308700D9
:10263200403FA600413FA70025082702031D232B88
:10264200240826020318342B7C080A3E8600013037
:1026520087007C08063E840001308500403F803FB1
:10266200413F813F08007C080A3E86000130870016
:10267200403FA400413FA5007C08083E860001308F
:102682008700403FA600413FA70025082702031DFF
:102692004C2B24082602031808007C080A3E8600F8
:1026A200013087007C08083E840001308500403FED
:1026B200803F413F813F0800A5316A259331A73110
:1026C2009D2793318C31F1249331A63137269331F2
:1026D200A53174259331A431E5249331A6314F26D7
:1026E2009331A431DF249331A431F7249331A631FD
:1026F20013269331A53157259331A431FF24933109
:10270200A7315D2793317D08860001308700011CC7
:10271200992B053089315221933109309231F122BE
:10272200933111309C31672493318931E8219331FF
:102732007D08860001308700811C842B7D0886007D
:102742000130870081109631002693317D08860082
:1027520001308700011C842B9D31E9259331A6317C
:1027620043269331A431E8249331803150209331B0
:10277200A431E2249331A53129259331A5310725CE
:102782009331A53103259331A431FB249331842B5A
:102792002000A601203026020318E82B2608A731C4
:1027A200E72793312000A400260821006A072000B1
:1027B200A500250886000130870024088100013029
:1027C200A4002408A60720302602031CCF2B6F0882
:1027D2000C3E8600013087000108A40021006A082F
:1027E2008600013087002000240881006F080D3E1A
:1027F2008600013087000108A40021006A0A8600D1
:10280200013087002000240881006F080E3E8600F8
:10281200013087000108A40021006A08023E8600F8
:102822000130870020002408810021006A08223E2E
:10283200860001308700011D2F2C6A08223E860087
:102842000130870001117D08860001308700811266
:102852007D08033E86000130870081108B13A6316C
:102862002B2693319B3198238B1708002000E70019
:102872006708A531A02594312100AF08031D782CEB
:102882002000A40101308831BC2094312000A20133
:102892000130A631AF2694312000A2010130A631C9
:1028A200BE26943120006F08093E86000130870061
:1028B20081016F080B3E86000130870081016F089D
:1028C2000F3E86000130870081016F08113E8600AD
:1028D2000130870081016430A6000030A70001307A
:1028E20095318925943101308B313923080021003B
:1028F2002F08203A031D942C20006F08093E860001
:102902000130870081016F080B3E8600013087008D
:1029120081016F08113E860001308700810101307C
:102922008B313923080021002F08013A031D9D2C09
:10293200013088312C20080021002F08113A031D94
:10294200080001309D31212508002000E4006D08B7
:10295200860001308700811F08006D088600013063
:10296200870081136D08860001308700011FF22C59
:102972006D0A860001308700011C08006D0A86007E
:10298200013087000110A201A20A64088731F027F2
:1029920094312000A2016408A7313C279431200021
:1029A20064081A3E6F07E200620886000130870061
:1029B2000108E3006F08113E8600013087006308BA
:1029C20081006D088600013087000030011B013054
:1029D200DD00640892318622943101308B31392333
:1029E20008002000A201A20A6408A631FC26943144
:1029F2002000A2016408A631EC2694312000A30134
:102A0200A401640891310721943120006D088600E9
:102A1200013087000030011B0130DD006408923173
:102A22008622943101308B31392308002000E600E0
:102A3200E501E50A6608A5318A25953120006C0872
:102A4200093E860001308700811C562D6508031956
:102A520008006C08093E860001308700011C442DE5
:102A62006C08093E8600013087008110A401A40A87
:102A720066088831BC2020006C080C3E86000130BC
:102A82008700011008006C08093E860001308700AB
:102A92008110A40166088831BC2020006C080C3E1D
:102AA200860001308700011008006C08093E86008C
:102AB20001308700811D08006508031908006608B7
:102AC200A5318A25953120006C08093E8600013027
:102AD200870081116C08093E860001308700011DC4
:102AE200822DE201E20A66089D316125953164304A
:102AF2002000A6000030A700013095318925200072
:102B020008002000E20166089D31612520000800CE
:102B12002000A9001430A0000030A1002708A30162
:102B2200A3072608A201A2079831DA2095312000D6
:102B32002108A701A7072008A601A6077808860092
:102B420001308700011C08007808860001308700E8
:102B52008118C42D78088600013087008114290865
:102B6200A8007808033E860001308700280881000B
:102B72007808063E8600013087002608C03F2708F5
:102B8200C13F8D1508007808860001308700811941
:102B9200E22D780886000130870081152908A800F7
:102BA2007808043E860001308700280881007808F2
:102BB200083E8600013087002608C03F2708C13F33
:102BC20008007808860001308700011A080078089A
:102BD20086000130870001162908A8007808053E02
:102BE2008600013087002808810078080A3E8600A6
:102BF200013087002608C03F2708C13F08007D0832
:102C02008600013087000118492E7D0A86000130B6
:102C120087000130810741310318810A7D0A86004D
:102C220001308700403F963A031D192E413F003A7A
:102C3200031D08007D0A8600013087000030C03F76
:102C4200C13F7D0886000130870001140130A531A3
:102C5200B62596310130A7311C279631323020003B
:102C6200A6000030A70003309531892596317D08F2
:102C7200033E86000130870001140130A631CD26C3
:102C820096312000A201A20A01309A318122080065
:102C92007D08063E86000130870001308107413100
:102CA2000318810A7D08063E860001308700403FF6
:102CB200643A031D5E2E413F003A031D08007D0861
:102CC200063E8600013087000030C03FC13F013020
:102CD2008B31392396317D088600013087008119B6
:102CE20008007D0886000130870081150800200059
:102CF200E4006408A531FB259631210038088600DE
:102D02008701811C08003808023E860087010130D5
:102D1200810741310318810A3808023E8600870183
:102D2200403F2000E200413FE30015306302E03003
:102D320003196202031C080021003808023E8600C3
:102D420087010030C03FC13F01302000E200210076
:102D52003808043E860087012000620881072100AE
:102D62003808043E86008701380A8400850100087D
:102D72000102031C08003808043E86008701810115
:102D820038088600870181102000A2016408A6315C
:102D9200BE2696312000A2016408A631AF269631E4
:102DA2002000DD0164089231862296312000A201C2
:102DB200A20A6408A631FC2696312000A20164080A
:102DC200A631EC26963101308B31392396316430AD
:102DD2002000A6000030A7000130953189250800A7
:102DE20020004B08CF004C08D0004D08D100031042
:102DF200500D510DD2005208D800D808031D0A2FD9
:102E02000030CE000030CD000030CC000030CB00CE
:102E120008004B08CF004C08D0004D08D1001730F5
:102E2200D136D00CCF0C890B112F4F08D20052088B
:102E3200D300CC17FF30CB05FF30CC050030CD05D9
:102E42004B08D4004C08D5004D08D600D7018E306F
:102E5200D802D81F482F5808803A8F3E03183A2FBD
:102E62000030CE000030CD000030CC000030CB006E
:102E720008000130D736D60CD50CD40C890B3B2F69
:102E82000130CF004F08D8070319612F3A2F1830AD
:102E92005802031C5E2F0030CE000030CD000030FF
:102EA200CC000030CB0008000130D435D50DD60D52
:102EB200D70D890B562F0130D802D808031D552F84
:102EC200530803196F2FD409D509D609D709D40A93
:102ED2000319D50A0319D60A0319D70A5708CE00CF
:102EE2005608CD005508CC005408CB00080020003D
:102EF200EA006A08A531A02597317B088600870180
:102F0200011C08002000EB010C1F0C1A8C2F0C185E
:102F12008C2F8D1C932F7B0886008701011B932F1A
:102F2200EB01EB0A7B08860087016B088113031D06
:102F320081177B0886008701811BCB2F7B088600C7
:102F42008701811CB02F7B08860087018110923196
:102F5200222297310130903100209731CF2F7B0808
:102F6200860087010119CF2F7B088600870181190E
:102F7200CF2F7B088600870181153630A631DC26EB
:102F820097313430A631DC2697310130A5314E25F8
:102F92009731CF2F01309A31302297317B0886004A
:102FA2008701011D080001309A31302297317B08D8
:102FB20086008701811AF52F01302000E9007B0A83
:102FC20086008701690881077B0A8600870101085C
:102FD200193A031D08007B0A8600870181017B08DC
:102FE20086008701811608007B088600870181120E
:102FF2007B088600870101119D31A5250800033455
:10300200163417341E341F3420342A342B340B3434
:103012000C340D340E340F34103411341234133492
:1030220014340A34153421342234183419341A343D
:103032001B341C341D3423342434253426342934DF
:103042002C342D342E340034013402340734083445
:103052000934063404340534273428340734073459
:10306200303487346B34F8347F343F3409340034DD
:103072005C34A73462348634833403342234F83423
:1030820000344434B634103418341D341C34C7347C
:103092000034B234EA340A340034113459348834F6
:1030A20031340B342F342E340634043405340034D6
:1030B2003034D334913441340034FE34FE34FE349F
:0A30C200FE34FE34FE34FE34FE340A
:1030CE0015302000A00020082100C0000800773035
:1030DE0021008C0007308D000C308E0022008C01F8
:1030EE0002308D008E01223023008C008D018E0166
:1030FE00773020008C0007308D000C308E000800D9
:10310E002100390886008701011C08003908860055
:10311E0087010110A6311F2698310038031D0800C3
:10312E000030A531AB2521006A08223E8600013011
:10313E008700811408002000A3000E122308C03E51
:10314E00A20022082100BF0020000E19AB28A731D3
:10315E00B52798319831BD2020000E1621003F086A
:10316E002000A20022082100C30008002000A101B7
:10317E0008302102031808008E1403102100BF0D21
:10318E0020000E1DCD2821003F14D328FE30200034
:10319E00A00020082100BF0520008E100130A000E5
:1031AE002008A107BF282000A401A501201CE328A8
:1031BE002208A4072308A53D0130A235A30D890BD3
:1031CE00E4280130A136A00C890BE928210820043F
:1031DE00031DDD282508A101A1072408A001A007D1
:1031EE0008002000A701083027020318080027084E
:1031FE005E3E840098300318013E85000008A5004D
:10320E002508A6002608A5002508A2003E30A731F5
:10321E00CE27983101302000A5002508A707FA28EF
:10322E00633402340034003400340034003400348B
:10323E000034003400340034FF34FF34FF340034E3
:10324E0000340034003400340134003400340034CF
:10325E0000340034003400340034003400340034C0
:10326E002000AD01A91F4229A809A909A80A03191E
:10327E00A90AAD01AD0A2808A0002908A100A201E3
:10328E008E30AB002B08A3002D08AC002C08A40038
:10329E009131C12120002008A8002108A900220890
:1032AE00AA0008002000A1002108013A031D65298B
:1032BE00DC30A00020082100BB00080020002108FF
:1032CE00023A031D7029E030A00020082100BB0047
:1032DE00080020002108633A031D0800D830A00022
:1032EE0020082100BB0008002000A10105302102AA
:1032FE00031808002135083E6E07A000200886003E
:10330E00023087000030C03FC13F21351A3E6E07A4
:10331E00A0002008860002308700FF30C03FFF303B
:10332E00C13F0130A0002008A1077D292000E00048
:10333E006008A5318A25993120006C08860001307D
:10334E00870001156C0886000130870081146F0814
:10335E00093E86000130870001089031AC20200024
:10336E00DF006C08053E8600013087005F08810093
:10337E0008008B1D08002700161D080016110B10E3
:10338E007D08860001308700011C0800A631A026AA
:10339E00993120000D1DDA2921003908023E8600E0
:1033AE008701810108000830F10021003908023E32
:1033BE008600870171088100080001302000A200FC
:1033CE000030A30021082302031DEF29200822024A
:1033DE0003180800A401A5010030250202300319CC
:1033EE0024020318052A0130A4070030A53D003041
:1033FE002502023003192402031CFA290130A20708
:10340E000030A33DE9292000A4006D08860001309C
:10341E008700811F08006D0A8600013087000114A5
:10342E006D088600013087000117A201A20A240848
:10343E00A631AF269A312000A201A20A24088731B4
:10344E00F0279A312000A201A20A2408A7313C27B6
:10345E0008002000A4002408A531A0259A317B087D
:10346E0086008701811D08007B0886008701811177
:10347E007B088600870181107B0A86008701810107
:10348E007B088600870181123630A631DC269A3100
:10349E003A30A631DC269A310030A5314E2508008F
:1034AE002000A8012F302802031808002808003E2B
:1034BE00840098300318013E85000008A5002508F9
:1034CE00A60028082F3E840098300318013E850080
:1034DE000008A5002508A7002708A5002508A200BA
:1034EE002608A731CE279A3101302000A5002508E5
:1034FE00A807592A2000A3002308A531A0259A3138
:10350E007B0886008701200022080110031D01148C
:10351E007B088600870101137B0886008701011155
:10352E007B088600870181117B0886008701811048
:10353E007B0A8600870181017B0886008701811244
:10354E000030A5314E2508002000A3002308A53128
:10355E008A2520006C080C3E86000130870001147D
:10356E004330A2006C08053E860001308700220819
:10357E0081007830A2006C08063E8600013087007C
:10358E00220881006C08063E860001308700010883
:10359E00A2006C08043E86000130870022088100DC
:1035AE0008002000A2000530A0002008A10022087B
:1035BE00053A031DE42A0530012B2208103A031D9B
:1035CE00EA2A0A30012B2208153A031DF02A0F3081
:1035DE00012B2208203A031DF62A1430012B220853
:1035EE00253A031DFC2A1930012B2208303A031DFF
:1035FE00042B1E30A0002008A10021080800200086
:10360E008E100E100E160A30A0000030A100993157
:10361E00E4219B3120000E120A30A0000030A100E0
:10362E009931E4219B3120000E162830A000003085
:10363E00A1009931E4219B3120000E123030A600FA
:10364E0026082100BF0020000E192A2BA731B5270E
:10365E009B3120000E19302B0E100E160800F200B2
:10366E0020006E08463E86000230870071088110E9
:10367E00031D81146E08423E860002308700023020
:10368E0081027208013A031D522B6E08433E8600DA
:10369E000230870081017208023A031D5C2B6E080E
:1036AE00443E86000230870081017208033A031DF2
:1036BE0008006E08453E8600023087008101080032
:1036CE002000A1006E08463E8600023087002008CA
:1036DE008110031D81146E08423E86000230870061
:1036EE00023081022108013A031D832B6E08433EEE
:1036FE0086000230870081012108023A031D8D2BBE
:10370E006E08443E86000230870081012108033A8C
:10371E00031D08006E08453E8600023087008101B9
:10372E0008002300151330309200940115129516DF
:10373E0015152000A101203021020318C22B2108EB
:10374E00230091002000210821006A072000A0001C
:10375E002008860001308700010823009300A53160
:10376E0045259B3101302000A0002008A107203004
:10377E002102031CA62B23009512A53145252300FB
:10378E00151108002000A1006E0886000230870087
:10379E0081146E08463E8600023087002008011014
:1037AE00031D01142108013A031DE42B6E08433E4C
:1037BE008600023087008101810A2108023A031D2A
:1037CE00EF2B6E08443E8600023087008101810A8D
:1037DE002108033A031D08006E08453E860002309C
:1037EE0087008101810A08002000E3006530210076
:1037FE002902031C082C64302000E100610821001E
:10380E00A90029082000E1006F08093E860001305A
:10381E008700610881006308E1006F080B3E860097
:10382E0001308700610881006F08093E8600013073
:10383E0087000108E1006308143E6F07E20062088A
:10384E0086000130870061088100630899319D214F
:10385E0008002000A501A601210820040319602CF0
:10386E00A701A70AA11B452C0130A035A10D890B7C
:10387E003C2C0130A4002408A707392C0130A535B3
:10388E00A60D890B462C21082302031D502C20085F
:10389E002202031C572C2008A2022108A33B251448
:1038AE000130A136A00C890B582C0130A702031D44
:1038BE00452C2608A101A1072508A001A007080094
:1038CE002000A8007A0886008701811D0800F030CC
:1038DE00A4002408A0002808A73187279C317A0865
:1038EE00033E8600870120002008C03F2108C13F0B
:1038FE007A08033E86008701403FA400413FA500A1
:10390E007A0A86008701403FA600413FA70025089E
:10391E002702031D942C24082602031808007A0897
:10392E00033E860087017A0A84008501403F803F6E
:10393E00413F813F08002000AC007A0886008701D5
:10394E002C088110031D81142C090139AB007A0853
:10395E0086008701AB0DAB0D01082B06FB392B063C
:10396E0081002C08013A031DC72C033090315220E0
:10397E009C312000A201A20A0230913163219C31B8
:10398E0020002C080A3EAB002B08A20063309131B8
:10399E0063219C3120002C090139A631CD269C31A2
:1039AE0020002C090139AB002B08A20001309A31FE
:1039BE00812208002000A4002408993159219C314D
:1039CE0021003B0886008701811C08003B0A860007
:1039DE0087010130810741310318810A3B0A8600B5
:1039EE008701403F2000A200413FA3000030230288
:1039FE00323003192202031C080021003B0A860004
:103A0E0087010030C03FC13F20002408013A031D4A
:103A1E00132D08308C0608002408023A031D1A2DB7
:103A2E0080308E0608002408633A031D08002030FB
:103A3E008D0608002000E6006608A63107269D3197
:103A4E0021003C0886008701011C392D6A08223EA0
:103A5E008600013087000114200066089B31FB238D
:103A6E009D314B2D20006608143E6F07E40064085C
:103A7E008600013087000108E5006F08093E8600C8
:103A8E000130870065088100200066081A3E6F0726
:103A9E00E40064088600013087000108E5006F0825
:103AAE00113E8600013087006508810001308B31A0
:103ABE00392308002000E4006408A5318A259D31D1
:103ACE00200062080319762D6C08860001308700ED
:103ADE0081156C08860001308700811408006C087F
:103AEE00860001308700811D08006C0886000130B9
:103AFE00870081106C088600013087008111A001BB
:103B0E00A00A00309B3167239D3120006C08043ED3
:103B1E008600013087000108E3006C08053E860030
:103B2E000130870063088100DD01DD0A64089231EF
:103B3E0086229D3101308B313923080020000E1270
:103B4E007F30A40024082100BF0020000E19AC2DE8
:103B5E00A731B5279D31210040082000A40024087C
:103B6E002100BF00A731B5279D312000A5012100FE
:103B7E004008200025020318D62D2508A03E8600F9
:103B8E0087010108A40024082100BF00A731B52732
:103B9E009D3101302000A4002408A507BE2D0E166D
:103BAE003530A631DC269D3120000D1CDB2D0D1885
:103BBE00DE2D3630A631DC269D313B30A631DC269B
:103BCE00F016080021006A08223E860001308700A8
:103BDE00811C08006A08223E860001308700011C05
:103BEE00262E6A08233E86000130870001308107A9
:103BFE0041310318810A6A08233E8600013087008E
:103C0E00403F193A031D0D2E413F003A031D080097
:103C1E006A08233E8600013087000030C03FC13F56
:103C2E006A08223E86000130870001106A08223E93
:103C3E0086000130870081109331C92308002100CE
:103C4E006A08223E8600013087008110080020009D
:103C5E00D9000030DA005430DB004230DC00003096
:103C6E00AE00C830AF004230B0005A08B1005B0859
:103C7E00B2005C08B3008A3190229E3120002E08DB
:103C8E00DA002F08DB003008DC005908BD3EA80022
:103C9E00FF3003180030A900993137219E312000E2
:103CAE002808B1002908B2002A08B3005A08AE004D
:103CBE005B08AF005C08B0008A3190229E31200074
:103CCE002E08CB002F08CC003008CD009631F126FF
:103CDE0020004B03FF3A643E08002000AB002B0887
:103CEE00A531A0259E3121002C082000AA006F08C6
:103CFE000C3E8600013087002A08810021002D0825
:103D0E002000AA006F080D3E8600013087002A08A9
:103D1E00810021002E082000AA006F080E3E8600AA
:103D2E00013087002A0881006430A6000030A70009
:103D3E000130953189259E317B088600870101135C
:103D4E007D08033E860001308700811CB52E2100C0
:103D5E006A08223E860001308700011521006A089C
:103D6E00223E860001308700011408002000AC00BE
:103D7E007C088600013087002C088110031D8114F9
:103D8E002C090139AB007C08860001308700AB0E90
:103D9E0001082B06EF392B0681002C080319E32EA0
:103DAE000130903152209E312000A201A20A023031
:103DBE00913163219E31EC2E64302000A60000303C
:103DCE00A7000230953189259E3120002C080A3E2D
:103DDE00AB002B08A2006330913163219E3120008D
:103DEE002C090139A631CD269E3120002C0901392E
:103DFE00AB002B08A20001309A318122080020006E
:103E0E00AC006E088600023087002C088112031D5C
:103E1E0081162C090139AB006E088600023087002E
:103E2E00AB0DAB0DAB0D01082B06F7392B06810040
:103E3E002C08AB006E08053E8600023087002B086A
:103E4E0081002C080319362F0230903152209F31F9
:103E5E002000A201A20A0230913163219F3120007D
:103E6E002C080A3EAB002B08A2006330913163216F
:103E7E009F3120002C090139A631CD269F3120001B
:103E8E002C090139AB002B08A20001309A31812296
:103E9E0008002000A5002508A5318A259F312000A5
:103EAE006C08860001308700811E08006C088600B1
:103EBE000130870081106C08860001308700811167
:103ECE006C0886000130870001126C0886000130F4
:103EDE00870001130330A4006C08023E86000130F7
:103EEE008700240881006C08063E8600013087009A
:103EFE000108A4006C08043E8600013087002408E7
:103F0E008100210039088600870101142000A001DC
:103F1E00A00A25089B3167239F312000A201A20A27
:103F2E002508913163219F312000A2012508A63179
:103F3E00BE269F312000A2012508A631AF2608001B
:103F4E002000E300E201E20A6208031908006D088E
:103F5E0086000130870081176430A6000030A7006C
:103F6E000130953189259F3120006D088600013082
:103F7E008700011BED2F6D088600013087000117A9
:103F8E00A201A20A6308A631AF269F312000A2012A
:103F9E00A20A6308A631FC269F312000A201A20AC4
:103FAE006308A631EC269F3120006D088600013093
:103FBE0087000030011B0130DD006308923186223C
:103FCE009F3101308B3139232000080020006D080D
:103FDE0086000130870001136D08860001308700CE
:103FEE000030011B0130A2006308A631AF2620006D
:023FFE000800B9
:1049BE00A631762608008B31FE230800A531CC25C2
:1049CE0008008E31DD2608003A30A631DC260800BC
:1049DE003B30A631DC2608003630A631DC26080036
:1049EE000130A5317F250800013096317826080068
:1049FE000130983167200800013097317827080080
:104A0E0001308531F325080020008E1A08008E161D
:104A1E000B2D24000D100B160B178B170800FE0024
:104A2E0012001E00FE0B172D0034640080010131B0
:104A3E00890B1D2D0034E4302000A0002008210039
:104A4E00B9000800013095311725A531983187201E
:104A5E0008007A0886008701010C890C01390800CC
:104A6E007C08860001308700010E01390800F23003
:104A7E0021009E00C0302200970008005530230010
:104A8E009600AA3096009514000000000800200041
:104A9E00A0008B10201C552D0B1608000B120800C1
:104AAE00A5310B25A53124008D100130A7312C27FF
:104ABE000800F2007208013A031D0800E730F10009
:104ACE007108FB000800C5302000A0002008EF0090
:104ADE002030A0002008FD0008004B302000A00070
:104AEE002008F800780886000130870001140800BD
:104AFE002000A2002208A531FB25210038088600DF
:104B0E008701011408002000A1002108013A031DAD
:104B1E0008003E30A0002008EC0008002000A10094
:104B2E002108013A031D08005730A0002008ED00AF
:104B3E0008002000A1002108013A031D0800E730FB
:104B4E00A0002008FB0008002000A0006E088600D0
:104B5E000230870020088110031D811408002000F8
:104B6E00A0007C0886000130870020080110031D7C
:104B7E000114080020006E08860002308700010C28
:104B8E00A000A00C200C0139080030302000A0003D
:104B9E002008FC007C088600013087000116080002
:104BAE00F4007408A53160257B0886008701730820
:104BBE008110031D811408000B1E08008B1C0800B9
:104BCE008B100B12F301F30A0130A531D725080023
:104BDE003330A631DC26A531E8302000A0000330AA
:104BEE00A1009931E42108002000A1002108013A1A
:104BFE00031D0800D330A00020082100B8000800D3
:104C0E002000A1002108013A031D0800E930A00090
:104C1E0020082100BC0008003E302000A40024081B
:104C2E00F90001309A31AB22A631A53122250800B8
:104C3E002000A00179088600013087000030011B9A
:104C4E000130A00020080800230015133030920018
:104C5E00910115161515A5314525230015110800CE
:104C6E000130A7314C27A6310230A7314C27A6318F
:104C7E006330A7314C27080001309C31E124A63166
:104C8E0002309C31E124A63163309C31E1240800CE
:104C9E0020302000A2002208EE006E0886000230AE
:104CAE008700811599317B21080024000D110430F5
:104CBE00270094000430950096018B150B100B17EE
:104CCE008B170800CC302000A00020082100EB003C
:104CDE009501A630200095008B168B170800C43066
:104CEE002000A0002008FA007A088600870101142F
:104CFE007A0886008701011508002000A30023080A
:104D0E00A531A0257B08860087012000220881118D
:104D1E00031D811508002000A3002308A531A0253E
:104D2E007B0886008701200022080113031D01174E
:104D3E000800FF30200095007908860001308700BA
:104D4E000118080079088600013087000114080058
:104D5E002000A3002308A631072621003C08860068
:104D6E008701200022080110031D011408002000F5
:104D7E00A3002308A531952520006D08860001307B
:104D8E00870022080113031D011708002000A2004E
:104D9E000130A531952520006D0886000130870071
:104DAE0022080110031D011408002000A3000E129A
:104DBE002308A20022082100BF0020000E19E42EB5
:104DCE00A731B52720000E1608002000A3002308E7
:104DDE00A5318A2520006C08093E86000130870027
:104DEE0022080110031D011408002000A30023084F
:104DFE00A5318A2520006C08093E86000130870007
:104E0E0022088110031D811408002000A30023082E
:104E1E00A5318A2520006C080C3E860001308700E3
:104E2E0022080110031D011408002000A0006E08C6
:104E3E0086000230870020080110031D01146E0841
:104E4E00860002308700811008002000A400A20115
:104E5E00A20A240891316321A7312000A201A20ADF
:104E6E002408013E9131632108002000A30023088D
:104E7E00A5318A2520006C08093E86000130870086
:104E8E0022080111031D011508002000A4002408AA
:104E9E0099315921A73121003B0886008701011461
:104EAE002000A20124089131632108009B310623C2
:104EBE00A7319A315722A7319831F820A731A43162
:104ECE00EF24A731A431EB24A731A531EF25A7316B
:104EDE00A431F32408002000A1002108A0006E08D0
:104EEE003A3E860002308700200881002108A0008B
:104EFE006E08423E860002308700200881000800BE
:104F0E002000A300230821009D002000200821007E
:104F1E009E009D149D18912F1C082000A101A10731
:104F2E0021001B082000A001A007080078302100F6
:104F3E00990098316E20A731A6316926A731A53187
:104F4E003E25A731A5311025A731A6315C26A0300C
:104F5E002000A10021082100EA0008002000A10184
:104F6E0008302102031808002100BF1FC12F2000A6
:104F7E000E14C32F20000E108E1403102100BF0D2F
:104F8E0020008E100130A0002008A107B72F2000AE
:104F9E00A4000E122408A30023082100BF00200045
:104FAE000E19D62FA731B527A73120002208A3004E
:104FBE0023082100BF00A731B52720000E160800D8
:104FCE002000A200A301303023009200200022080E
:104FDE00230091001513151414082000A0002008BA
:104FEE00A100230013082000A0002008A30023081E
:024FFE000800A9
:020000040001F9
:04000E00E4F9FDFF15
:00000001FF
