:04000000803115280E
:10000800803120007F08F5009E31EB268031803159
:10001800182080319E314126803175082000FF006C
:10002800090088019231962A8B1E1B281C28C0299A
:100038000B1D1F282028C029A630200095000B1171
:100048006B08860001308700011C2B282C288F287C
:100058000130F1006B08033E86000130870071080B
:1000680081076B08033E8600013087006B08043E59
:1000780084000130850000080102031C442845283B
:1000880098296B08033E86000130870081016B08C0
:1000980086000130870001106B08073E860001309A
:1000A800870001146B08860001308700011F5D2856
:1000B8005E2898290D126B080A3E860001308700D9
:1000C800011C6728682898296B080A3E86000130B9
:1000D800870001106B08860001308700011375281E
:1000E8008E138E1B7828792874287C287C288C11FC
:1000F8008C197F2880287B288C136A08093E860083
:100108000130870001176908860087018115982941
:100118009829982998296B08093E8600013087009C
:10012800811F97289828B9280130F1006B08033EF1
:10013800860001308700710881076B08033E86003E
:100148000130870028300102031CAB28AC28B928ED
:100158006B08033E86000130870081016B08093E69
:100168008600013087008113B9286B08073E860096
:1001780001308700011CC128C22898296B08073E56
:1001880086000130870001106B0886000130870067
:10019800811CCF28D02898290130F1006B08013E36
:1001A800860001308700710881076B08013E8600D0
:1001B800013087006B08023E84000130850000088A
:1001C8000102031CE828E92898296B08013E8600EB
:1001D8000130870081016B08860001308700811D8E
:1001E800F628F72836296B08860001308700011A9F
:1001F800FE28FF281B296B08043E86000130870073
:1002080069300102031809290A2914290130F1006B
:100218006B08043E86000130870071088107982921
:100228006B088600013087000116982998296B0809
:10023800043E8600013087001F300102031C252977
:1002480026292E296B08043E8600013087000130DC
:10025800810298296B0886000130870001129829CD
:10026800982998296B08860001308700011D3D29CF
:100278003E298D296B08043E8600013087006B08F3
:10028800053E8400013085000008010203184D294D
:100298004E2958290130F1006B08043E86000130D0
:1002A80087007108810771296B08053E86000130B7
:1002B80087006B08043E84000130850000080102B5
:1002C80003186729682971296B08043E86000130E4
:1002D800870001308102712971296B08053E86006B
:1002E800013087006B08043E840001308500000857
:1002F8000106031D8029812998296B088600013091
:10030800870001116B088600013087008110982949
:1003180098296B0886000130870081109829982950
:10032800982998299829982921006B08013E860068
:1003380087010130810741310318810A6B08013EAA
:1003480086008701403FC83A031DAC29413F003A67
:10035800031DAF29B029C0296B08013E860087011B
:100368000030C03F0030C13F20006F0886000130D8
:1003780087008114C029C02908002000B200320873
:100388008731F22781312000B1010314B10D0C1817
:10039800CE29CF29DD298D18D229D329DD290C1B97
:1003A800D629D729DD290C1ADA29DB29DD29B1015B
:1003B800DD2979088600870131088110031D811421
:1003C800790886008701011CEA29EB29132B790893
:1003D80086008701811CF129F229BE2A7908860046
:1003E80087010119F829F9291A2A0130AF0079087B
:1003F800023E860087012F0881077908023E8600A1
:1004080087010A300102031C0A2A0B2A132B7908D8
:10041800023E86008701810179088600870101155F
:100428003208963183268131132B132B79088600E5
:1004380087018119202A212A4E2A7908033E86003D
:1004480087010130810741310318810A7908033E89
:1004580086008701403F2000AF00413FB0000030D8
:100468003002963003192F02031C3B2A3C2A132B17
:100478007908033E860087010030C03F0030C13F45
:1004880079088600870181153208913176218131FA
:10049800132B132B790886008701011A542A552A31
:1004A800852A7908053E8600870101308107413198
:1004B8000318810A7908053E86008701403F20001D
:1004C800AF00413FB00000303002963003192F02D0
:1004D800031C6F2A702A132B7908053E86008701B2
:1004E8000030C03F0030C13F7908860087010116FF
:1004F800A2010314A20D01309D317B258131132BFC
:10050800132B790886008701811A8B2A8C2A132BD2
:100518007908073E860087010130810741310318B9
:10052800810A7908073E86008701403F2000AF0016
:10053800413FB000013030022C3003192F02031C58
:10054800A62AA72A132B7908073E860087010030C0
:10055800C03F0030C13F7908860087018116A2019B
:1005680001309D317B258131132B132B132B132B3A
:10057800132B132B790886008701011DC42AC52A6D
:10058800132B01302000AF007908023E8600870156
:100598002F0881077908023E860087010A30010288
:1005A800031CD72AD82A132B7908023E8600870114
:1005B800810179088600870101117908033E8600C8
:1005C80087010030C03F0030C13F790886008701AD
:1005D80081117908053E860087010030C03F003050
:1005E800C13F79088600870101127908073E860015
:1005F80087010030C03F0030C13F7908860087017D
:100608008112A20101309D317B2581312000320801
:100618008A312D228131132B132B132B132B080016
:1006280020004C08D2004D08D3004E08D400031017
:10063800530D540DD5005508D8004F08D200500866
:10064800D3005108D4000310530D540DD50055089C
:10065800D7005808031D312B422B5708580203189E
:10066800362B372B4A2B5803FF3A5707D20019303D
:100678005202031C402B412B4A2B422B4F08CC0023
:100688005008CD005108CE00432C432C5708031DB9
:100698004E2B5E2B580857020318532B542B5F2BF5
:1006A8005703FF3A5807D20019305202031C5D2B3A
:1006B8005E2B5F2B432C0630D2005208D600CE1F8B
:1006C800662B672B682BD617D11F6B2B6C2B6D2BCA
:1006D8005617CD17FF30CC05FF30CD050030CE05BD
:1006E800D017FF30CF05FF30D0050030D1055708AF
:1006F80058020318802B812BAE2B822B0130CF356B
:10070800D00DD10D890B832B0130D702570858061D
:1007180003198F2B902BA62B0130D60256080739C8
:10072800031D972B982B822BA62BA62BA62B0130CB
:10073800CE36CD0CCC0C890B9C2B0130D200520844
:10074800D807A62B58085706031DAB2BAC2B9B2BA1
:10075800E12BE12B580857020318B32BB42BE12BDC
:10076800B52B0130CC35CD0DCE0D890BB62B013014
:10077800D802570858060319C22BC32BD92B0130AE
:10078800D60256080739031DCA2BCB2BB52BD92BFC
:10079800D92BD92B0130D136D00CCF0C890BCF2BCC
:1007A8000130D2005208D707D92B58085706031D25
:1007B800DE2BDF2BCE2BE12BE12BD61FE42BE52BF9
:1007C800F62BFF30CC06FF30CD06FF30CE060130C9
:1007D800CC07003003180130CD0700300318013072
:1007E800CE07F62B561FF92BFA2B0B2CFF30CF0612
:1007F800FF30D006FF30D1060130CF070030031894
:100808000130D007003003180130D1070B2CD60176
:100818004C08CF074D08D03D4E08D13DD11F152CAF
:10082800162C2A2CFF30CF06FF30D006FF30D10619
:100838000130CF07003003180130D007003003180B
:100848000130D107D6010314D60D2A2C4F08A00079
:100858005008A1005108A2005808D2005208A3006D
:100868005608D3005308A4008831CB2083312000D8
:100878002008CC002108CD002208CE00432C080017
:100888002000A60026089C31F9248431200026087F
:10089800013A031D502C512C612C00308D19013068
:1008A800A2007608860001308700A20EA20D01087A
:1008B8002206DF3922068100612C76088600013085
:1008C8008700811C682C692C2D2D7608013E860036
:1008D800013087000130810741310318810A760809
:1008E800063E860001308700403FA200413FA3003A
:1008F8007608013E860001308700403FA400413F52
:10090800A50023082502031D8B2C22082402031CA2
:100918008E2C8F2C2D2D7608013E86000130870005
:100928000030C03F0030C13F7608860001308700A4
:10093800811A9F2CA02C162D7608033E86000130C4
:1009480087008108031DA92CAA2C0E2D7608860085
:1009580001308700811DB12CB22CD82C7608860076
:100968000130870081117608043E86000130870037
:100978000108A2007608033E86000130870022089D
:1009880081007608083E860001308700403FA200BB
:10099800413FA3007608063E860001308700220802
:1009A800C03F2308C13F2D2D7608860001308700FF
:1009B800011EDF2CE02C062D76088600013087000A
:1009C80001127608053E8600013087000108A20062
:1009D8007608033E860001308700220881007608E9
:1009E8000A3E860001308700403FA200413FA30035
:1009F8007608063E8600013087002208C03F23089B
:100A0800C13F2D2D760886000130870081102D2DDD
:100A18002D2D2D2D760886000130870081168D1525
:100A28002D2D2D2D7608860001308700811226088D
:100A3800013A031D202D212D232D8D11232D7608FC
:100A4800033E860001308700013081022D2D2D2DB7
:100A58002D2D080020003C08C2003D08C3003E08B8
:100A6800C4000310430D440DC5004508C600C60860
:100A7800031D3F2D402D482D0030BC000030BD0027
:100A88000030BE00F72DF72D3F08C2004008C30014
:100A98004108C4000310430D440DC5004508CB00B0
:100AA800CB08031D582D592D612D0030BC00003096
:100AB800BD000030BE00F72DF72D4B087B3EC2006D
:100AC8004208C6073C08C2003D08C3003E08C400EF
:100AD8001030C436C30CC20C890B6D2D4208C500FA
:100AE8004508CB003F08C2004008C3004108C400C5
:100AF8001030C436C30CC20C890B7D2D4208C500CA
:100B08004508CB068030C2004208CB05BD17C01788
:100B1800FF30BF05FF30C0050030C1050030C700F9
:100B28000030C8000030C9000730C2004208CA00BF
:100B38009D2D3C1CA02DA12DA82D3F08C7074008BE
:100B4800C83D4108C93DA82D0130BE36BD0CBC0CBE
:100B5800890BA92D0130BF35C00DC10D890BAF2DF3
:100B68000130CA02031DB92DBA2D9D2DBB2D0930A8
:100B7800C2004208CA00C02D3C1CC32DC42DCB2D79
:100B88003F08C7074008C83D4108C93DCB2D013083
:100B9800BE36BD0CBC0C890BCC2D0130C936C80C37
:100BA800C70C890BD22D0130CA02031DDC2DDD2DA7
:100BB800C02DDE2D4708A0004808A1004908A20062
:100BC8004608C2004208A3004B08C3004308A4001B
:100BD8008831CB20853120002008BC002108BD00C9
:100BE8002208BE00F72D080020003F08C200400878
:100BF800C3004108C4000310430D440DC500450857
:100C0800CA00CA08031D092E0A2E122E0030BC0085
:100C18000030BD000030BE00AF2EAF2E3C08C20031
:100C28003D08C3003E08C4000310430D440DC50031
:100C38004508CB00CB08031D222E232E2B2E003077
:100C4800BC000030BD000030BE00AF2EAF2E00301B
:100C5800C7000030C8000030C90089304B07C20007
:100C68004208CA023F08C2004008C3004108C40045
:100C78001030C436C30CC20C890B3D2E4208C50087
:100C88004508CB003C08C2003D08C3003E08C4002C
:100C98001030C436C30CC20C890B4D2E4208C50057
:100CA8004508CB068030C2004208CB05C017FF308C
:100CB800BF05FF30C0050030C105BD17FF30BC05BA
:100CC800FF30BD050030BE051830C2004208C6001E
:100CD8006D2E0130C735C80DC90D890B6E2E3E0823
:100CE8004102031D7D2E3D084002031D7D2E3C0858
:100CF8003F02031C802E812E892E3C08BF023D082E
:100D0800C03B3E08C13B4714892E0130BF35C00D9A
:100D1800C10D890B8A2E0130C602031D942E952E13
:100D28006D2E962E4708A0004808A1004908A20089
:100D38004A08C2004208A3004B08C3004308A400A5
:100D48008831CB20853120002008BC002108BD0057
:100D58002208BE00AF2E08001F309F3105278631BC
:100D6800AA3A031DB82EB92E1E2F00309F31052731
:100D780086312000D0006E080C3E860001308700C6
:100D88005008810001309F31052786312000D000AE
:100D98006E080D3E86000130870050088100023041
:100DA8009F31052786312000D0006E080E3E860050
:100DB800013087005008810003309F3105278631B4
:100DC8002000D0006E08153E8600013087005008CC
:100DD800810004309F31052786312000D0006E083D
:100DE800163E8600013087005008810005309F318B
:100DF800052786312000D0006E08173E8600013096
:100E08008700500881001E309F3105278631013A3E
:100E1800031D0F2F102F622F20006F08860001304E
:100E2800870081126F08033E860001308700811019
:100E3800622F622F69309331C22386312000D0009F
:100E48005008D1005108D0006D08033E86000130DB
:100E58008700500881005108D0006D08043E8600C4
:100E680001308700500881005108D0006D08053E08
:100E7800860001308700500881005108D0006E08B4
:100E8800153E860001308700500881005108D000C7
:100E98006E08163E86000130870050088100510810
:100EA800D0006E08173E8600013087005008810088
:100EB8008B139231CB2286318B17622F08002000CA
:100EC800AD002D089C31F92487310A302000A0009C
:100ED8000030A1002B08A301A3072A08A201A2073A
:100EE80088315E20873120002108AB01AB0720083C
:100EF800AA01AA077608860001308700011C852F01
:100F0800862FF12F760886000130870081188D2FF3
:100F18008E2FAE2F760886000130870081142908AD
:100F2800AC007608033E8600013087002C0881005B
:100F38007608063E8600013087002A08C03F2B0845
:100F4800C13F2D08013A031DAA2FAB2FF12F8D1594
:100F5800F12FF12F76088600013087008119B52F0F
:100F6800B62FCE2F76088600013087008115290814
:100F7800AC007608043E8600013087002C0881000A
:100F88007608083E8600013087002A08C03F2B08F3
:100F9800C13FF12F7608860001308700011AD52F4E
:100FA800D62FF12F76088600013087000116290810
:100FB800AC007608053E8600013087002C088100C9
:100FC80076080A3E8600013087002A08C03F2B08B1
:100FD800C13FF12FF12FF12FF12F08002000A100C0
:100FE8002108013A031DF92FFA2FFF2FC030A00066
:100FF8002008F900FF2F08002000A400A301031413
:10100800A30D2408FF3E890A0B280310A30DFF3EF9
:10101800031D09282408A1006E080B3E8600013034
:101028008700210881002408143E6E07A1002108CA
:101038008600013087000108A2006E08093E86007C
:10104800013087002208810024081A3E6E07A1009B
:1010580021088600013087000108A2006E08113EB1
:10106800860001308700220881002008031D3D28E2
:101078004D286E080F3E86000130870001082304C2
:10108800A1006E080F3E860001308700210881000C
:101098005D286E080F3E8600013087002309010590
:1010A800A1006E080F3E86000130870021088100EC
:1010B8005D2808002000A601A11F632864286D2868
:1010C800A009A109A00A0319A10AA6010314A60DE3
:1010D8006D28A31F702871287B28A209A309A20ADA
:1010E8000319A30A0130A4002408A6067B28A70137
:1010F800A80121082004031982288328B928A501FA
:101108000314A50D91280130A035A10D890B88285D
:101118000130A4002408A5079128A11F9428952828
:101128008728972897280130A735A80D890B982874
:1011380021082302031DA22820082202031CA52837
:10114800A628AC282008A2022108A33B2714AC2813
:101158000130A136A00C890BAD280130A502031D72
:10116800B628B7289728B928B9282608031DBD2806
:10117800C328A709A809A70A0319A80AC328280881
:10118800A101A1072708A001A007CA28080020007C
:101198002308031DD028D828220821042004031D71
:1011A800D628D728EC28D8280030A0000030A10085
:1011B8000030A2003E293E29EC280130A500250870
:1011C800A3070130A236A10CA00C890BE628EC2855
:1011D800FE302205031DF128F228E12808290829F4
:1011E8000130A5002508A3070130A0070030031827
:1011F8000130A107003003180130A2070130A236E0
:10120800A10CA00C890B0329FF302205031D0D2911
:101218000E29F428192919290130A3020130A03513
:10122800A10DA20D890B13291929A11F1C291D29FC
:1012380010292318202921292729FF30A0057F30CC
:10124800A105FF30A2050310A30C2308A500A601E1
:10125800A7011030A535A60DA70D890B2E29250845
:10126800A0042608A1042708A2042408031D3D2978
:101278003E29A217080020000D1C432944294C29A7
:10128800462946290D1849294A2946294C294C2915
:101298003B309F313A27893121003F08031D5529EA
:1012A800A62920000E12FF30A4002408EC005C29B7
:1012B8000E195F2960295C2961299F3174278931BA
:1012C8009F31B627893120006C08A400240821002A
:1012D800BB002000A50181299F31B6278931200054
:1012E8006C08A4002508A03E860087012408810018
:1012F8000130A4002408A507812921003B0820000B
:101308002502031C8829892970298A299F31B62733
:10131800893120006C08A40024082100BA009F31FC
:10132800B627893120006C08A40024082100B700E2
:1013380020000E162100B71FA229A329A62970157F
:10134800A629A62936309E31542689313A309E3155
:10135800542689312000A20101309D314E25893162
:1013680008002100E70067089D3131258931780898
:1013780086008701011FC129C229D4292100A0089C
:10138800031DC729C8292C2A2108643A031DCD2921
:10139800CE292C2A01309431532489312C2A2C2A25
:1013A8002100A008031DD929DA292C2A2108023A8C
:1013B800031DDF29E0292C2A2C08FF3A031DE52903
:1013C800E629F4292D08FF3A031DEB29EC29F42915
:1013D8002E08FF3A031DF129F229F42900002C2ACE
:1013E80020006E080C3E86000130870021002C0882
:1013F8000106031D002A012A2C2A20006E080D3E32
:1014080086000130870021002D080106031D0D2AE2
:101418000E2A2C2A20006E080E3E86000130870016
:1014280021002E080106031D1A2A1B2A2C2A013026
:101438008B31282389312C2A2C2A2C2A2C2A2C2A35
:101448002C2A2C2A2C2A2C2A2C2A2C2A2C2A2C2AE4
:1014580008002000A900790886008701811F352A25
:10146800362AA52A7908860087018113790886001B
:101478008701011F402A412A7E2A7908013E8600F9
:101488008701011C482A492AA52A7908013E8600B5
:1014980087010110A2010314A20D29089E311F26FD
:1014A8008A312000A20129089E310E268A312000A7
:1014B80029081A3E6E07A700270886000130870012
:1014C8000108A8006E08113E860001308700280830
:1014D80081007908860087010030011B0130A000D7
:1014E8002908883100208A3101309431A0248A31BA
:1014F800A52AA52A2000A2010314A20D29089D31BE
:10150800B9258A312000A20129089D31CA258A31CE
:101518007908860087010030011B01302000A000F7
:101528002908883100208A312000A301A401290854
:1015380093317D238A3101309431A0248A31A52A40
:10154800A52A08002000B00030089D3107258A31FF
:101558002000680886008701811CB32AB42A272B3B
:101568006808023E8600870101308107413103186F
:10157800810A6808023E86008701403FAE00413F6D
:10158800AF0015302F02E03003192E02031CCD2ABC
:10159800CE2A272B6808023E860087010030C03F0C
:1015A8000030C13F0130AE006808043E8600870164
:1015B8002E0881076808043E860087016808013EF6
:1015C8008400850100080102031CEB2AEC2A272B62
:1015D8006808043E86008701810168088600870143
:1015E8008110A20130089D315D258A312000A201B9
:1015F80030089D31A9258A312000A00130088831A2
:1016080000208A312000A2010314A20D30089D3168
:10161800B9258A312000A20130089D31CA258A31B6
:1016280001309431A0248A312000A9010314A90DA6
:101638006430AA000030AB000130873163278A315B
:10164800272B272B272B08002000E70067089D3150
:1016580031258B312100AF08031D332B342B6F2B21
:101668002000A4010130973197278B312000A20177
:1016780001309D31A9258B312000A20101309D3117
:101688005D258B3120006E08093E860001308700F9
:1016980081016E080B3E86000130870081016E08CB
:1016A8000F3E86000130870081016E08113E8600DA
:1016B800013087008101A9010314A90D6430AA0033
:1016C8000030AB000130873163278B310130943112
:1016D800A0248B31A92B21002F08203A031D752B3C
:1016E800762B8E2B20006E08093E8600013087007D
:1016F80081016E080B3E86000130870081016E086B
:10170800113E860001308700810101309431A02408
:101718008B31A92B21002F08013A031D942B952BFF
:101728009A2B01308E31A3268B31A92B21002F084B
:10173800113A031DA02BA12BA92B013093313A2379
:101748008B31A92BA92BA92BA92B08002000A300BA
:10175800230890318B208B312000A208031DB52B64
:10176800B62BD12B2308013A031DBB2BBC2BBE2B58
:101778008E172D2C2308023A031DC32BC42BC62B0E
:101788008C152D2C2308633A031DCB2BCC2B2D2C29
:101798008D162D2C2D2C2D2C2D2C2208013A031DB5
:1017A800D62BD72BF22B2308013A031DDC2BDD2B7C
:1017B800DF2B8E132D2C2308023A031DE42BE52B77
:1017C800E72B8C112D2C2308633A031DEC2BED2BF2
:1017D8002D2C8D122D2C2D2C2D2C2D2C22080A3A37
:1017E800031DF72BF82B1F2C770886008701811023
:1017F8007708013E860087010030C03F0030C13FB6
:101808002308013A031D092C0A2C0C2C8E172D2CA9
:101818002308023A031D112C122C142C8C152D2C84
:101828002308633A031D192C1A2C2D2C8D162D2CE8
:101838002D2C2D2C2D2C22080B3A031D242C252C65
:101848002D2C77088600870181142D2C2D2C2D2C0A
:101858002D2C080020006F08860001308700011831
:10186800362C372C822C6F08013E86000130870009
:101878000130810741310318810A6F08013E860053
:1018880001308700403F963A031D4C2C413F003AF7
:10189800031D4F2C502CBB2C6F08013E86000130D5
:1018A80087000030C03F0030C13F6F08860001301C
:1018B800870001140330AE002E08A9003230AA00B8
:1018C8000030AB000130873163278C3120006F086E
:1018D800033E8600013087000114A2010314A20D03
:1018E80001309D318A258C312000A5010314A50DF6
:1018F80001309031FF208C31BB2CBB2C20006F08AD
:10190800063E860001308700013081074131031807
:10191800810A6F08063E860001308700403F643A1E
:10192800031D982C413F003A031D9B2C9C2CBB2C7B
:101938006F08063E8600013087000030C03F003047
:10194800C13F6F08860001308700811DAC2CAD2C8B
:10195800B32C6F088600013087008111BB2C6F08FB
:101968008600013087008115BB2CBB2CBB2C0800DE
:1019780020002808AC002908AD002A08AE00031092
:101988002D0D2E0DAF002F08B500B508031DCD2C69
:10199800CE2CD82C0030AB000030AA000030A900B3
:1019A8000030A8005A2D5A2D2808AC002908AD008F
:1019B8002A08AE001730AE36AD0CAC0C890BDF2C04
:1019C8002C08AF002F08B000A917FF30A805FF307A
:1019D800A9050030AA052808B1002908B2002A087C
:1019E800B300B4018E30B502B51FFB2CFC2C1F2DA3
:1019F8003508803A8F3E0318022D032D0E2D003036
:101A0800AB000030AA000030A9000030A8005A2D11
:101A18005A2D0E2D0130B436B30CB20CB10C890B13
:101A28000F2D0130AC002C08B507031D1C2D1D2DF2
:101A38000E2D412D412D18303502031C242D252D46
:101A48003A2D0030AB000030AA000030A900003069
:101A5800A8005A2D5A2D3A2D0130B135B20DB30DCB
:101A6800B40D890B312D0130B5023A2DB508031D8F
:101A78003E2D3F2D302D412D412D3008031D452D84
:101A8800512DB109B209B309B409B10A0319B20A4F
:101A98000319B30A0319B40A512D3408AB003308EB
:101AA800AA003208A9003108A8005A2D0800200011
:101AB800A60120302602031C622D632D652D7F2D83
:101AC8007F2D26089F3105278D312000A400260888
:101AD8006D07A500250886000130870024088100CD
:101AE8000130A4002408A60720302602031C7D2DFF
:101AF8007E2D652D7F2D6E080C3E860001308700F7
:101B08000108A4006D0886000130870024088100C0
:101B18006E080D3E8600013087000108A4006D089C
:101B2800013E860001308700240881006E080E3EC1
:101B38008600013087000108A4006D08023E860077
:101B480001308700240881006E08153E86000130A8
:101B580087000108A4006D08033E86000130870055
:101B6800240881006E08163E8600013087000108AF
:101B7800A4006D08043E8600013087002408810017
:101B88006E08173E8600013087000108A4006D0822
:101B9800053E860001308700240881006D08223E3A
:101BA800860001308700011DDA2DDB2DF52D6D082B
:101BB800223E86000130870001116F08860001303F
:101BC800870081126F08033E86000130870081106C
:101BD8006D081E3E86000130870081010314810DC7
:101BE800F52D8B139C31DF248D319231CB228D3131
:101BF8008B1708002000D600D4010314D40DD5019A
:101C08000314D50D56089D3115258D3120006A081D
:101C1800093E860001308700811C132E142E5D2E8C
:101C28005408031D182EA22E6A08093E86000130AA
:101C38008700011C202E212E422E5508031D252E1B
:101C4800A22E6A08093E8600013087008110A20191
:101C580056089D31EC258D312000A2010314A20DF8
:101C680056089D31FD258D312000A4010314A40DD3
:101C78005608973197278D31A22EA22E20006A0888
:101C8800093E8600013087008110A20156089D3167
:101C9800EC258D312000A20156089D31FD258D319E
:101CA8002000A4015608973197278D31A22EA22E25
:101CB800A22E20006A08093E860001308700811D97
:101CC800662E672EA22E913126218D310038031DF4
:101CD8006E2E6F2EA22E200056089D3115258D31AF
:101CE80020006A08093E86000130870081116A08D1
:101CF800093E860001308700011D832E842E982E10
:101D0800D0010314D00D5608973137278D312000A4
:101D1800A9010314A90D6430AA000030AB000130FA
:101D2800873163278D31A22E2000D00156089731C4
:101D380037278D31A22EA22EA22EA22E0800200017
:101D4800B00030089D313F258E3121003008803A9F
:101D5800031DAF2EB02ECD2E2000A3010314A30D1A
:101D6800210031082000AE002E08A400300893316D
:101D78007D238E31210031082000AE0030081A3E44
:101D88006E07AF002F088600013087002E088100FB
:101D9800CD2E21003908860087010118D42ED52EB2
:101DA800FF2E39088600870101142000A2010314C0
:101DB800A20D30089D315D258E312000A20103144B
:101DC800A20D30089D31B9258E312000A2010314DF
:101DD800A20D30089D31CA258E31210039088600B0
:101DE80087010030011801302000A0003008883138
:101DF80000208E313E2F21003008803A031D052F28
:101E0800062F0F2F2000A0010314A00D30088831E1
:101E180000208E313E2F21003908860087010110ED
:101E28002000A20130089D315D258E312000A201DD
:101E38000314A20D30089D31B9258E3121003908CF
:101E4800860087010030011801302000A200300808
:101E58009D31CA258E312000A0013008883100202C
:101E68008E312000A301A401300893317D238E31E7
:101E78003E2F3E2F2000A9010314A90D6430AA00AB
:101E88000030AB000130873163278E310130943147
:101E9800A0248E3108002100E90069089D31312510
:101EA8008F31780886008701011C5B2F5C2FFF2F7C
:101EB8002100EA0120000C18622F632F702F8D1863
:101EC800662F672F702F0C1B6A2F6B2F702F0C1E1D
:101ED8006E2F6F2F7C2F702F780886008701011BCB
:101EE800762F772F7C2F2100EA010314EA0D7C2F2F
:101EF80078088600870121006A088113031D81176D
:101F0800780886008701811F8A2F8B2F902F013038
:101F180092312D228F31FF2F780886008701811C8E
:101F2800962F972FA62F7808860087018110893170
:101F38003F218F3101308931B5218F312030200088
:101F48008D06FF2F780886008701011DAC2FAD2F65
:101F5800E32F013092312D228F31780886008701D6
:101F6800811AB72FB82FD62F01302100E800780842
:101F7800013E86008701680881077808013E8600CF
:101F880087010108193A031DCA2FCB2FFF2F7808A4
:101F9800013E860087018101780886008701811645
:101FA800FF2FFF2F780886008701811278088600A6
:101FB8008701011195318D258F31FF2FFF2F78086B
:101FC800860087018119E92FEA2FFF2F78088600FC
:101FD8008701811536309E3154268F3134309E3139
:101FE80054268F3101309C3175248F31FF2FFF2FFC
:101FF800FF2FFF2FFF2F0800003403341634173447
:102008001E341F3420342A342B340B340C340D3452
:102018000E340F34103411341234133414340A3497
:10202800153421342234183419341A341B341C342E
:102038001D34233424342534263429342C342D34C7
:102048002E34003401340234073408340934063499
:1020580004340534273428340734073430348734BB
:102068006B34F8347F343F34093400345C34A7349B
:1020780062348634833403342234F83400344434EC
:10208800B634103418341D341C34C7340034B23418
:10209800EA340A34003411345934883431340B3476
:1020A8002F342E3406340434053400343034D33419
:1020B800913441340034FE34FE34FE34FE34FE34B0
:1020C800FE34FE34FE342000E00060089D31152502
:1020D800903120006A0886000130870001156A08DF
:1020E80086000130870081146E08093E86000130A1
:1020F800870001089631DA2690312000DF006A084F
:10210800053E8600013087005F0881000800200036
:10211800A1002108013A031D922893289828D93054
:10212800A0002008F700B0282108023A031D9D28C6
:102138009E28A328DD30A0002008F700B028210839
:10214800633A031DA828A928B028D530A000200884
:10215800F700B028B028B02808002000A401A30187
:102168000314A30DA501CE282508013E9D31152590
:10217800903120006A08860001308700011FC528B9
:10218800C628CA28A4010314A40DCA280130A20035
:102198002208A50723082502031CD328D428B82819
:1021A800D5282408D72808002000A70108302702CE
:1021B800031CDF28E028E228FE28FE2827085F3EC7
:1021C80090310A009031A5002508A6002608A50030
:1021D8002508A2003E309F311F2790310130200092
:1021E800A5002508A70708302702031CFC28FD289E
:1021F800E228FE2808002000A60026089D31312587
:10220800903120002508031D0A290F297808860027
:1022180087010114252978088600870101107808AC
:10222800860087010113701236309E315426903192
:102238003B309E3154269031013092312D2290311D
:10224800252908002000A401A3010314A30DA5015A
:1022580044292508013E9D311525913120006A0841
:10226800093E860001308700811C3B293C29402912
:10227800A4010314A40D40290130A2002208A507D7
:1022880023082502031C49294A292D294B292408FA
:102298004D2908002000BB01B71F532954295D2987
:1022A800B609B709B60A0319B70ABB010314BB0D6F
:1022B8005D293608A0003708A100A2018E30B900B8
:1022C8003908A3003B08BA003A08A4008831CB209B
:1022D800913120002008B6002108B7002208B80074
:1022E800752908002000A400790886008701811F4D
:1022F8007E297F29A0297908013E860087010114DB
:102308007908860087010117A2010314A20D240889
:102318009D31A92591312000A2010314A20D2408A2
:102328009E311F2691312000A2010314A20D24081A
:102338009E310E269131A0290800FF30200095001B
:102348006B088600013087000118AB29AC29CC291D
:102358006B08093E860001308700811BB429B52926
:10236800CC296B0886000130870001146B088600B1
:1023780001308700011FC129C229CC290D168C17ED
:102388006B08093E8600013087008117CC29CC29CB
:1023980008002000A8012F302802031CD429D529C1
:1023A800D729FB29FB292808013E90310A009131E1
:1023B800A5002508A6002808303E90310A00913172
:1023C800A5002508A7002708A5002508A2002608BB
:1023D8009F311F27913101302000A5002508A8074B
:1023E8002F302802031CF929FA29D729FB290800CC
:1023F80001302000A2000030A300212AA401A50179
:1024080000302502023003192402031C0C2A0D2A6D
:102418000F2A1D2A1D2A0130A4070030A53D0030CF
:102428002502023003192402031C1B2A1C2A0F2A26
:102438001D2A0130A2070030A33D21082302031DF5
:10244800272A20082202031C2A2A2B2A022A2C2A9D
:1024580008002000A40024089D3131259231780815
:10246800860087018119392A3A2A422A7808860083
:102478008701811C402A412A602A422A780886005E
:102488008701811178088600870181107808013E4C
:10249800860087018101780886008701811236301D
:1024A8009E31542692313A309E3154269231003072
:1024B8009C3175249231602A080020008E100E107D
:1024C8000E160A30A0000030A1009131FC21923193
:1024D80020000E120A30A0000030A1009131FC212A
:1024E800923120000E162830A0000030A100913152
:1024F800FC21923120000E123030A6002608EC0094
:10250800852A0E19882A892A852A8A2A9F317427BA
:1025180092318E2A20000E19922A932A8E2A0E10A2
:102528000E160800F001F601F701F801F901E801BB
:10253800E901EA01EB01EC01A030840000308500DC
:1025480047309C313E249231203084000130850090
:1025580027309C313E249231563084009F308500CC
:1025680047308600013087001E309C313824923174
:10257800DB3084009F308500A03086000130870062
:1025880025309C3138249231200096312D2E23009D
:102598001513303092009401151295161515200068
:1025A800A10120302102031CDA2ADB2ADD2AF92ABC
:1025B800F92A210823009100200021086D07A000B6
:1025C80020088600013087000108230093009C3111
:1025D8006324923101302000A0002008A107203098
:1025E8002102031CF82AF92ADD2A230095129C31BE
:1025F800632492312300151108002000E3006530A0
:1026080021002902031C092B0A2B112B64302000FE
:10261800E10061082100A900112B29082000E10030
:102628006E08093E86000130870061088100630852
:10263800E1006E080B3E86000130870061088100CA
:102648006E08093E8600013087000108E100630832
:10265800143E6E07E20062088600013087006108B8
:102668008100630890316720933108002000E6005C
:1026780066089D313F25933121003908860087017E
:10268800011C472B482B542B20006D08223E860046
:102698000130870001146608933101239331662BBA
:1026A80020006608143E6E07E400640886000130C6
:1026B80087000108E5006E08093E860001308700A2
:1026C80065088100200066081A3E6E07E400640869
:1026D8008600013087000108E5006E08113E86007B
:1026E800013087006508810001309431A0249331BE
:1026F80008002000A60026089D31072593312000F8
:10270800680886008701011C8A2B8B2BC12B68085F
:102718008600870123088110031D81142308031DE7
:10272800962BA32B24089431EE2493312000A50086
:102738006808013E8600870125088100B32BA3089D
:10274800031DA72BA82BB32B26081A3E6E07A5003E
:1027580025088600013087008101B32BB32B680858
:10276800023E860087010030C03F0030C13F680844
:10277800043E860087018101C12B08002000CC009F
:102788000030CD009630CE004230CF000030BC0083
:10279800C830BD004230BE004D08BF004E08C00022
:1027A8004F08C1008531F825933120003C08CD0041
:1027B8003D08CE003E08CF004C08973EB600FF30DB
:1027C80003180030B70091314E21933120003608AC
:1027D800BF003708C0003808C1004D08BC004E08CB
:1027E800BD004F08BE008531F825933120003C0814
:1027F800A8003D08A9003E08AA008C31BC249331EA
:1028080020002803FF3A643E092C08002000E1005C
:1028180061089D311525943169302000DF006A0870
:10282800053E8600013087005F0881001E30DF000A
:102838006A08063E8600013087005F0881006A0842
:10284800093E86000130870081166A08093E860025
:102858000130870001176A08053E860001308700AD
:102868000108DF006A08043E8600013087005F081F
:1028780081006108143E6E07DF005F0886000130A2
:10288800870001089631DA2694312000E0006A08B2
:10289800053E86000130870060088100080020009E
:1028A800AF002F089D313125943121002C082000DC
:1028B800AE006E080C3E8600013087002E088100AD
:1028C80021002D082000AE006E080D3E8600013064
:1028D80087002E08810021002E082000AE006E0817
:1028E8000E3E8600013087002E088100A9010314DE
:1028F800A90D6430AA000030AB000130873163278E
:102908009431780886008701011320006F08033E80
:10291800860001308700811C922C932C992C6D081D
:10292800223E86000130870001156D08223E860090
:1029380001308700011408002000A40024089D31FC
:1029480031259431780886008701011CAC2CAD2C08
:10295800ED2C7808860087010119B32CB42CED2CD6
:10296800780886008701011563302000A20022083C
:102978002100A00002302000A20022082100A100AE
:1029880002302000A2002208A50015302502031CF1
:10299800CE2CCF2CD12CED2CED2C25086E07A200C7
:1029A80022088600013087000108A3002508A03E00
:1029B80086008701230881000130A2002208A507AC
:1029C80015302502031CE92CEA2CD12CED2CED2C1A
:1029D800ED2C08002000A2000530A0002008A1006E
:1029E8002208053A031DF92CFA2CFF2C0530A0000B
:1029F8002008A1003A2D2208103A031D042D052DA8
:102A08000A2D0A30A0002008A1003A2D2208153A04
:102A1800031D0F2D102D152D0F30A0002008A1002B
:102A28003A2D2208203A031D1A2D1B2D202D143073
:102A3800A0002008A1003A2D2208253A031D252DC3
:102A4800262D2B2D1930A0002008A1003A2D220890
:102A5800303A031D302D312D3A2D1E30A0002008AC
:102A6800A1003A2D3A2D3A2D3A2D3A2D21083C2D28
:102A780008002000A400240890318B2095317708A5
:102A880086008701811C492D4A2D8C2D7708013E2F
:102A9800860087010130810741310318810A7708D0
:102AA800013E86008701403F2000A200413FA3006D
:102AB80001302302F43003192202031C642D652D12
:102AC8008C2D7708013E860087010030C03F00301A
:102AD800C13F2408013A031D722D732D762D8030D5
:102AE8008E068C2D2408023A031D7B2D7C2D7F2D0C
:102AF80008308C068C2D2408633A031D842D852DFF
:102B08008C2D20308D068C2D8C2D8C2D8C2D8C2D84
:102B1800080020000E127F30A4002408EC00942D39
:102B28000E19972D982D942D992D9F317427953135
:102B380021003C082000A4002408EC009F317427E1
:102B480095312000A501B92D2508A03E86008701F2
:102B58000108A4002408EC009F3174279531013046
:102B68002000A4002408A507B92D21003C08200056
:102B78002502031CC02DC12DA82D0E1635309E31FF
:102B880054269531C72D20000D1CCB2DCC2DC72DDB
:102B9800CE2DCE2D0D18D12DD22DCE2DD32D3630B4
:102BA8009E31542695313B309E3154269531F0168E
:102BB800080020006D08223E860001308700811C35
:102BC800E62DE72D2C2E6D08223E86000130870069
:102BD800011CEF2DF02D232E6D08233E86000130B9
:102BE80087000130810741310318810A6D08233EAF
:102BF800860001308700403F323A031D052E413FD1
:102C0800003A031D082E092E2C2E6D08233E86003F
:102C1800013087000030C03F0030C13F6D08223EC0
:102C280086000130870001106D08223E86000130C1
:102C3800870081108D315B2595312C2E2C2E20009C
:102C48006D08223E86000130870081102C2E2C2E24
:102C580008009E318F2696319E31BA2696318631EC
:102C6800B02696319C31EC2496319C31242496313F
:102C78009C311F2496319C31892496319C317F24C4
:102C880096319C31062496319E31A42696314E2EDB
:102C98004E2E4E2E20006F08860001308700811CC2
:102CA800562E572E4E2E6F08860001308700811051
:102CB8008C312E24963120006F0886000130870061
:102CC800011C672E682E4E2E9531DD2596319C31DC
:102CD8000B2496319C31D22496319C315224963162
:102CE8009C312E2496319C31332496319C312924F1
:102CF80096314E2E4E2E4E2E4E2E80311528200007
:102D0800AE007908860087018117A9010314A90D6F
:102D18006430AA000030AB00013087316327963158
:102D2800790886008701011B9A2E9B2EC82E7908E8
:102D38008600870101172000A2010314A20D2E08A6
:102D48009D31A92596312000A2010314A20D2E0859
:102D58009D31B92596312000A2010314A20D2E0839
:102D68009D31CA2596317908860087010030011BFC
:102D780001302000A0002E08883100209631013053
:102D88009431A0249631D92E790886008701011341
:102D98007908860087010030011B01302000A2005D
:102DA8002E089D31A9259631D92E08002000DB0078
:102DB8000030DC009630DD004230DE000030BC0020
:102DC800C830BD004230BE005C08BF005D08C000CE
:102DD8005E08C1008531F825963120003C08DC00EA
:102DE8003D08DD003E08DE005B08D900DA01D9099C
:102DF800DA09D90A0319DA0A5908643EB60000301C
:102E08005A3DB70091314E21963120003608BF0057
:102E18003708C0003808C1005C08BC005D08BD0068
:102E28005E08BE0085312E25963120003C08CF0073
:102E38003D08D0003E08D1000030CC00D230CD0093
:102E48004230CE0083311423963120004C08A8006C
:102E58004D08A9004E08AA008C31BC2496312000E8
:102E68002808362F08002000D30053089D31152567
:102E7800973120005008031D422F4D2F6A08860005
:102E88000130870081156A088600013087008114A7
:102E9800962F6A08860001308700811D542F552F10
:102EA800962F6A0886000130870081106A0886001C
:102EB8000130870081116A08043E860001308700CE
:102EC8000108D1006A08053E8600013087005108D4
:102ED8008100A0010314A00D530888310020973108
:102EE80001309431A024973120006D08223E8600DD
:102EF8000130870001146A08053E8600013087000A
:102F080001089331C22397312000D1005308143EA1
:102F18006E07D200520886000130870051088100F0
:102F2800962F962F08002000A60026089D3115250B
:102F3800973120002608A5006908013E8600870110
:102F4800250881002408031DAA2FDA2F6A088600A5
:102F5800013087008116A20126088B31AA239731F8
:102F680020008C156A088600013087008114033020
:102F7800A5006A08023E8600013087002508810006
:102F88006A08860001308700011BCB2FCC2FFF2F4A
:102F98006A088600013087000117A2010314A20DF8
:102FA80001309D316C259731FF2FFF2F20006A08D3
:102FB80086000130870081126A080A3E86000130C7
:102FC800870001146A0886000130870081146A08A6
:102FD80086000130870081116A0886000130870069
:102FE80001120330A5006A08023E860001308700FE
:082FF80025088100FF2F0800ED
:1038020024000D100B178B17080001309C314B243C
:103812009C3108000130843144249C3108003B3043
:103822009E3154269C3108003A309E3154269C31F8
:10383200080036309E3154269C31080001309C31FC
:103842009F249C31080001309C316C249C3108007B
:1038520001308A31A6229C31080001308131C12118
:103862009C31080001308F314F279C310800FE0047
:1038720012001E00FE0B392C00346400800101315D
:10388200890B3F2C0034F23021009E00C030220010
:103892009700080015302000A00020082100BC007D
:1038A200080001308D31FE259C319F3195279C31D6
:1038B20008005C2C8E1620008E1E602C612C5B2C66
:1038C200622C0800553023009600AA309600951409
:1038D2000000000008002000A2010314A20D013024
:1038E2009D3199259C3108002000A0008B102018E2
:1038F2007B2C7D2C0B167E2C0B1208009C315A243B
:103902009C3124008D1001309E3167269C310800C5
:103912003C302000E2006208EB00013094310A24BE
:103922009C31080024000D112700940104309500F9
:1039320096018B150B100B178B1708002000A200A5
:1039420022089D3107259C312000680886008701E6
:1039520001140800F2007208013A031DB12CB22CC6
:10396200B72CE430F1007108F800B72C0800F4001D
:1039720074089C31AB249C31780886008701730857
:103982008110031D8114080033309E3154269C316E
:10399200E8302000A0000330A1009131FC219C31CD
:1039A2000800013095313D259C31023095313D258D
:1039B2009C31633095313D259C310800230015135D
:1039C200303092009101151615159C3163249C31FB
:1039D20023001511080001309E3130269C3102303F
:1039E2009E3130269C3163309E3130269C31080056
:1039F2002000A1002108013A031D002D012D062DF2
:103A02003030A0002008F600062D08002000A1009A
:103A12002108013A031D0E2D0F2D142DD030A000C8
:103A22002008E800142D08002000A1002108013A16
:103A3200031D1C2D1D2D222D3C30A0002008EA0064
:103A4200222D08002000A1002108013A031D2A2D81
:103A52002B2D302DE130A0002008E900302D080088
:103A62002000A1002108013A031D382D392D3E2DD9
:103A7200E430A0002008F8003E2D08002000A1003C
:103A82002108013A031D462D472D4D2DE630A00099
:103A920020082100B9004D2D08002000A3002308B2
:103AA2009D3131259D31780886008701200022084A
:103AB2008111031D811508002000A300230887310E
:103AC200F2279D3179088600870120002208011320
:103AD200031D011708002000A30023089D312325A0
:103AE2009D31200069088600870122088111031D8B
:103AF200811508002000A30023089D3131259D3146
:103B0200780886008701200022080113031D01178F
:103B120008002000A30023088731F2279D3179088D
:103B220086008701200022080110031D01140800ED
:103B32002000A30023089C31F9249D3176088600D9
:103B420001308700200022080110031D0114080023
:103B52002000A30023089D313F259D312100390813
:103B620086008701200022080110031D01140800AD
:103B72002000A30023089D3115259D3120006A08ED
:103B8200093E86000130870022088110031D81143E
:103B920008002000A30023089D3115259D31200037
:103BA2006A08093E86000130870022080110031DC1
:103BB200011408002000A30023089D3123259D3114
:103BC2002000690886008701010CA200A20C220CC9
:103BD2000139EB2D08002000A30023089D31152593
:103BE2009D3120006A08093E8600013087002208C4
:103BF2008112031D811608002000A30023089D31B5
:103C020015259D3120006A08093E86000130870093
:103C120022080113031D011708002000A300230836
:103C22009D3115259E3120006A08093E860001302B
:103C3200870022080111031D011508002000A300BE
:103C420023089D3115259E3120006A08093E860011
:103C52000130870022088111031D81150800200010
:103C6200A400240890318B209E31770886008701BA
:103C720001142000A20124088B31AA239E310800DE
:103C82000B1E442E452E532E8B1C482E492E532E8E
:103C92008B100B12F3010314F30D01309C31B82485
:103CA2009E31532E08002000A3000E122308A2000A
:103CB2002208EC005C2E0E195F2E602E5C2E612E07
:103CC2009F3174279E3120000E1608002000A400A8
:103CD200A2010314A20D24088B31AA239E312000D5
:103CE200A2010314A20D2408013E8B31AA239E31A6
:103CF2000800C9302000A00020082100EB006B085A
:103D0200053E860087019E30C03F0030C13F9501CD
:103D1200A630200095008B168B1708004730200034
:103D2200A0002008EE002030A0002008EF006F085D
:103D320086000130870081166F08033E860001303D
:103D4200870081140800923161229E319131CD2188
:103D52009E319031D8209E319C3110249E319C316D
:103D620015249E319C31C5249E319C311A249E31EA
:103D720008007830210099009E31D2269E319E3172
:103D82007A269E319C3144249E319C3101249E31FD
:103D92009C3193249E31A0302000A1002108ED0027
:103DA2000800773021008C0007308D000C308E0027
:103DB20022008C0102308D008E01223023008C0003
:103DC2008D018E01773020008C0007308D000C3081
:103DD2008E0008008B1DEE2EEF2E042F2700161DDD
:103DE200F32EF42E042F16110B1020006F088600FC
:103DF20001308700011CFE2EFF2E042F9131A121DC
:103E02009E31042F042F08002000A200A3013030AD
:103E1200230092002000220823009100151315149C
:103E220014082000A0002008A1002300130820008D
:103E3200A0002008A30023081E2F08002000A400D1
:103E42000E122408A3002308EC00272F0E192A2F94
:103E52002B2F272F2C2F9F3174279F3120002208D0
:103E6200A3002308EC009F3174279F3120000E1617
:103E720008002000A3000E122308C03EA200220860
:103E8200EC00432F0E19462F472F432F482F9F3107
:103E920074279F319F31B6279F3120000E166C0880
:103EA200A20022082100BF0008006334023400345B
:103EB2000034003400340034003400340034003460
:103EC2000034FF34FF34FF34003400340034003453
:103ED200003401340034003400340034003400343F
:103EE2000034003400342000A10108302102031CF8
:103EF2007B2F7C2F7E2F942F942FEC1F812F822FCC
:103F0200842F0E14852F0E108E140310EC0D8E10BC
:103F12000130A0002008A10708302102031C922FC3
:103F2200932F7E2F942F080001309D31DB259F3186
:103F3200003A03199D2F9E2FB52F2000A2010130B8
:103F42009D316C259F319031B1209F310038031D86
:103F5200AB2FAC2FB52F20006D08223E860001301A
:103F620087008114B52FB52F08002000A101083069
:103F72002102031CBD2FBE2FC02FDA2FDA2F8E1481
:103F82000310EC0D0E1DC62FC72FC92F6C14CE2F98
:103F9200FE30A0002008EC05CE2F8E100130A000CC
:103FA2002008A10708302102031CD82FD92FC02FC7
:103FB200DA2F0800FF34FF34FF34003400340034B9
:103FC200003400340034003400340034003400344F
:103FD200003400340034003400340034003400343F
:103FE200003400340034003400340034003400342F
:0E3FF2000034AA3400340034003400340034AB
:020000040001F9
:04000E00E4F9FEFF14
:00000001FF
