:040000008A11112828
:10000800FE00030EF2000408F3000A08F40083124D
:1000180003137F08F5008A15BC2E8A11B42F3230DD
:1000280083120313D6005608FB003C3083160313D3
:100038009000AF30850001308600870107308316B5
:100048000317850001308600AF3083120313850043
:1000580001308600870100004A3083120313D6005E
:100068005608A00041309000FD308F00DA308E0035
:10007800831603130C140B178B17000070308316AC
:1000880003139F000000213083120313D600560883
:10009800F70077088400831300141230D60077081D
:1000A8000E3E840056088000AF30D60077080F3E19
:1000B80084005608800077080F3E84000008D600A8
:1000C8007708083E8400560880007708840080106E
:1000D8004630D6005608F8007808840000147528C1
:1000E8008616861E7828792874287C287C28061687
:1000F800061E7F2880287B28832883288615861D4E
:1001080086288728822888284130D6005608FA0091
:100118007A088400831300143B30D6005608F60092
:10012800760884000014A030D6005608F900790833
:10013800840000140A30D60079082B3E8400560843
:1001480080007908253E840058308000840A0230F7
:100158008000AF280616061EB228B328AE288612DD
:10016800B5287B0884008313001DBB28BC28B5284C
:100178007B08840000117B08013E84000130800761
:10018800840A0318800A7B08033E84000130800734
:10019800840A0318800A7B0884000018D428D5280C
:1001A800F6287B08013E8400000883120313D6005A
:1001B800840A0008D70003305706031DE528E830F5
:1001C8005606031DE828E92813297B08013E840008
:1001D80000308000840A003080007B08840000140E
:1001E800132913297B08013E840000088312031396
:1001F800D600840A0008D70003305706031D0629D5
:10020800E8305606031D09290A2913297B08013EEF
:10021800840000308000840A0030800013297B08A5
:10022800033E84000008D600840A0008D700033083
:100238005706031D2129E8305606031D24292529C0
:100248002D297B08033E840000308000840A00309A
:10025800800078088400801C322933294B2901301A
:10026800D6007808013E8400560880077808013EC9
:1002780084000008963A031D422943294B2978082F
:10028800013E84008001203086064B294B297808DE
:100298008400001D5029512969290130D6007808A9
:1002A800023E8400560880077808023E8400000851
:1002B800963A031D6029612969297808023E84005D
:1002C8008001103086066929692978088400801D14
:1002D8006E296F2987290130D6007808033E8400EB
:1002E800560880077808033E84000008963A031DE4
:1002F8007E297F2987297808033E840080010830F9
:100308008606872987297A088400001C8C298D296C
:10031800562A7A08013E840001308007840A0318AF
:10032800800A7A08013E84000008D600840A000882
:10033800D70013305706031DA32988305606031D1E
:10034800A629A729562A7A08013E84000030800091
:10035800840A003080007030831603139F00113028
:10036800831203139F009F14B9299F18BC29BD2924
:10037800B929BE291E08D6007A08033E840056080B
:10038800831380007A0884008018CB29CC29222A7C
:100398007A08033E84006C3000020318D429D5295A
:1003A8001C2A0130D6007A08043E840056088007CB
:1003B8007A08043E84000008033A031DE429E5296D
:1003C800562A7A08043E840080017A088400801442
:1003D8007608013E840080017908043E840080018B
:1003E80077080A3E8400801077080A3E84000011CE
:1003F80077080A3E84008011AF30D6007708083E9F
:1004080084005608800006110A2A8616861E0D2AC0
:100418000E2A092A112A112A0616061E142A152A36
:10042800102A162A7808840083130015562A562A9B
:100438007A08043E84008001562A562A7A08033E28
:1004480084007D300002031C2A2A2B2A4F2A0130FF
:10045800D6007A08043E8400560880077A08043ECD
:1004680084000008033A031D3A2A3B2A562A7A08D0
:10047800043E840080017A0884008010442A06160D
:10048800061E472A482A432A492A780884008313E3
:100498000011562A562A7A08043E84008001562AFA
:1004A800562A562A76088400001C5B2A5C2AF92AF8
:1004B8000130D6007608013E840056088007760889
:1004C800013E84000008643A031D6B2A6C2AF92A4D
:1004D8007608013E840080017608053E840080018C
:1004E8000314800D7030831603139F00313083127C
:1004F80003139F009F14802A9F18832A842A802A26
:10050800852A1E08D6007608043E84005608831300
:10051800800009309F009F14912A9F18942A952AD9
:10052800912A962A1E08D6007608033E84005608AB
:10053800831380007608053E8400800176088400D5
:10054800801476088400801CAA2AAB2AF92A760827
:10055800840080107608023E84000018B42AB52A68
:10056800D42A7608033E84000008D83ED600FF301F
:1005780003180030D7007608043E84005708803AF4
:10058800803C031DC92A56080002031CCC2ACD2A28
:10059800F92A7608023E840083130014F92AF92AFE
:1005A8007608033E84000008883E83120313D600B1
:1005B800FF3003180030D7007608043E840057083F
:1005C800803AD80080305802031DEC2A00085602F1
:1005D800031CEF2AF02AF92A7608023E84008313C6
:1005E8000010F92AF92AF92AF92A790884008313CC
:1005F800001CFF2A002BB528013083120313D600F4
:100608007908043E8400560880077908043E84006F
:100618000008643A031D112B122BB5287908043EF3
:1006280084008001790884008014703083160313D5
:100638009F000530831203139F009F14232B9F18DC
:10064800262B272B232B282B3330CD000030CE0030
:100658001E08D600D7015608CF005708D0008A15C3
:1006680046268A11831203134D08D8007908013EE3
:1006780084005808831380000D309F009F14442B7A
:100688009F18472B482B442B492B1E08D600790866
:10069800033E840056088313800079088400801084
:1006A8007908203E840000147908013E84008008FF
:1006B800031D5F2B602B692B7908253E8400583079
:1006C8008000840A02308000B52B7908013E84003E
:1006D8000008013A031D712B722B7B2B7908253EEC
:1006E8008400B8308000840A0B308000B52B79086C
:1006F800013E84000008023A031D832B842B8D2BB6
:100708007908253E840070308000840A1730800004
:10071800B52B7908013E84000008033A031D952B88
:10072800962B9F2B7908253E840028308000840A68
:1007380023308000B52B7908013E84000430000284
:10074800031CA72BA82BB52B7908253E8400E03085
:100758008000840A2E308000B52BB52BB52BB52B25
:10076800B52B7908033E84000008D6007908053EB9
:1007780084000008083E7907D70057088400560807
:100788008000DA010A305A02031CCB2BCC2BCE2B6B
:10079800F02BF02B5A08083E7907D600560884003B
:1007A8000008D700D8017908123E8400570880074E
:1007B800840F00080318000AFF0058087F0780000C
:1007C80084030130D6005608DA070A305A02031C9F
:1007D800EE2BEF2BCE2BF02B0A30CD000030CE00C5
:1007E8007908123E84000008CF00840A0008D0006F
:1007F8008A15F6258A11831203134D08D600790845
:10080800063E840083130008143E7907D700570872
:100818008400560880007908123E84000030800069
:10082800840A00308000DA010A305A02031C1D2CA9
:100838001E2C202C422C422C5A08143E7907D60034
:10084800560884000008D700D80179081E3E8400A5
:1008580057088007840F00080318000AFF0058088B
:100868007F07800084030130D6005608DA070A3073
:100878005A02031C402C412C202C422C0A30CD005B
:100888000030CE0079081E3E84000008CF00840A9C
:100898000008D0008A15F6258A11831203134D0823
:1008A800D6007908073E840056088313800079082B
:1008B8001E3E840000308000840A003080007908E1
:1008C800053E84000A30000203186B2C6C2C742C33
:1008D8000130D6007908053E8400560880078E2C22
:1008E8007908053E840080017908063E84000A30B4
:1008F80000020318802C812C892C0130D60079083D
:10090800063E8400560880078E2C7908063E84002F
:1009180080018E2C7908203E84000019942C952C97
:10092800BA2C7608023E8400001C9B2C9C2C2F2D90
:100938007908203E84008018A22CA32CAB2CA62C6E
:10094800A62C0616061EA92CAA2CA52CAB2C8612A2
:100958007908203E8400831300150A30D6007908F0
:100968002B3E8400560880002F2D2F2D7608023E3E
:1009780084000018C02CC12C2F2D7908203E84003B
:100988000011C72C8616861ECA2CCB2CC62CCE2C42
:10099800CE2C0616061ED12CD22CCD2CD32C7708A3
:1009A8000A3E840083138018DA2CDB2CE32C7708AA
:1009B8000A3E8400801DE12CE22C2F2DE32C7708C1
:1009C8000A3E8400801077080A3E840000147708E5
:1009D8000A3E8400801DF12CF22C012DAF30D60088
:1009E80077080F3E8400560880000430D600770848
:1009F800073E8400560880002F2D0230D600770865
:100A0800073E8400560880007908203E84000019BB
:100A18000E2D0F2D1B2D77080A3E84008015AF3050
:100A2800D60077080F3E8400560880002F2D8130AD
:100A3800D60077080F3E8400560880002F2D2F2DF2
:100A48002F2D0430D6007708073E84005608800012
:100A58002F2D2F2D2F2D7908203E8400801C352D19
:100A6800362D802F7908203E8400001C3C2D3D2D1A
:100A7800B5287908203E840000107908203E8400BB
:100A8800001D472D482DB5287A08840080184D2D63
:100A98004E2DB5287908283E8400643000020318DA
:100AA800562D572D5F2D0130D6007908283E840039
:100AB80056088007F22D7908283E840080017908BD
:100AC8002A3E84005A300002031C6B2D6C2D9C2D8D
:100AD80079082A3E840080017908293E8400800133
:100AE80079082C3E8400800179082B3E8400000898
:100AF8000A3A031D802D812D892D1930D6007908D9
:100B08002B3E840056088000F22D79082B3E840085
:100B18000008193A031D912D922DF22D2D30D60083
:100B280079082B3E840056088000F22DF22DF22D14
:100B380079082A3E84000008D60079082C3E8400F3
:100B48005608800779082A3E840080017908293EE2
:100B58008400063000020318B22DB32DBB2D0130DE
:100B6800D6007908293E840056088007F22D7908B6
:100B7800293E8400800179082C3E84000B30000255
:100B88000318C72DC82DF22D79082B3E84000008C4
:100B98002D3A031DD02DD12DD92D1930D600790825
:100BA8002B3E840056088000EA2D79082B3E8400ED
:100BB8000008193A031DE12DE22DEA2D0A30D6006E
:100BC80079082B3E840056088000EA2D79082C3ECF
:100BD80084008001F22DF22DF22DF22D79082B3EA2
:100BE80084000008D600D701D609D709D60A031908
:100BF800D70A7908073E840000085607D800570826
:100C08000318570AD9007908033E84005908803A26
:100C1800803C031D112E58080002031C142E152EAB
:100C2800D52E79082B3E8400831300088312031302
:100C3800D6007908073E840000085607D700D80177
:100C4800D80D7908033E84005808803AD9008030CE
:100C58005902031D312E00085702031C342E352E6D
:100C6800D52E7908213E8400003083138000840A41
:100C780000308000402E861683120313861E452EF0
:100C8800462E3F2E492E492E0616061E4C2E4D2E58
:100C9800482E4E2E7908233E8400013083138007A6
:100CA800840A0318800A7908253E84000008D600C3
:100CB800840A0008D7007908233E84000008D80079
:100CC800840A0008D90057085906031D6D2E5608D6
:100CD8005806031D702E712EB5287908233E84000E
:100CE80000308000840A0030800077080A3E8400C3
:100CF80080187F2E802E882E77080A3E8400801D5B
:100D0800862E872EB528882E77080A3E8400801004
:100D180077080A3E8400001477080A3E8400801D84
:100D2800962E972EA62EAF30D60077080F3E840059
:100D3800560880000430D6007708073E840056081D
:100D48008000B5280230D6007708073E8400560890
:100D580080007908203E84000019B32EB42EC02EDE
:100D680077080A3E84008015AF30D60077080F3E1A
:100D7800840056088000B5288130D60077080F3ED9
:100D8800840056088000B528B528B5280430D60058
:100D98007708073E840056088000B528B528B5288E
:100DA800B528013083120313D60079082A3E84003F
:100DB8005608831380077908213E84000130800794
:100DC800840A0318800A7908213E84000008D600A6
:100DD800840A0008D700023056065704031DF52E72
:100DE800F62E222F7908213E840000308000840AE4
:100DF800003080007908233E840000308000840A97
:100E08000030800077080A3E840080180C2F0D2FD0
:100E1800222F77080A3E8400801477080A3E84004F
:100E280000147708073E840080010314800D1C2FEE
:100E380077080A3E84000015222F222F79082B3EBE
:100E480084000008D600D701D609D709D60A0319A5
:100E5800D70A7908073E840000085607D8005708C3
:100E68000318570AD9007908033E84005908803AC4
:100E7800803C031D412F580800020318442F452FBA
:100E8800502F482F482F061683120313061E4D2F86
:100E98004E2F472F8612B52879082B3E84008313DE
:100EA800000883120313D6007908073E840000085F
:100EB8005607D700D801D80D7908033E8400580892
:100EC800803AD90080305902031D6C2F0008570260
:100ED80003186F2F702FB528732F732F8616831260
:100EE8000313861E782F792F722F0612B528B5287E
:100EF800B528B528B528B5287908213E84000130E1
:100F080083138007840A0318800A7908213E840025
:100F18000008D600840A0008D700FA30560657049D
:100F2800031D972F982FB5287908213E840000309B
:100F38008000840A003080007908203E84008014F4
:100F4800A62F8616861EA92FAA2FA52FB528B52845
:100F5800B528B528B528B528B528B5288A11112887
:100F6800F601F701F801F901FA0183132030840032
:100F78004D308A11C9278A11A0308400CD308A11DA
:100F8800C9278A1183018A11132864008001840A01
:0A0F98000406031900340406CA2FF2
:101BEC0083120313D301D4014E084D040319FF2DA6
:101BFC00002E3E2ED2010314D20D102E01300310F4
:101C0C00CD0DCE0DFF3E031D052E0130D100510828
:101C1C00D207102ECE1F132E142E042E162E162E77
:101C2C0001300310D30DD40DFF3E031D172E4E08AB
:101C3C005002031D232E4D084F02031C262E272E67
:101C4C002F2E4D08CF024E08031CD003D002531484
:101C5C002F2E01300310CE0CCD0CFF3E031D302E69
:101C6C000130D202031D3B2E3C2E162E3E2E3E2E54
:101C7C005408CE01CE075308CD01CD07452E0800E0
:101C8C0083120313D301CE1F4C2E4D2E562ECD098D
:101C9C00CE09CD0A0319CE0AD3010314D30D562E47
:101CAC00D01F592E5A2E642ECF09D009CF0A0319F2
:101CBC00D00A0130D1005108D306642ED401D501CD
:101CCC004E084D0403196B2E6C2EAA2ED201031450
:101CDC00D20D7C2E01300310CD0DCE0DFF3E031D19
:101CEC00712E0130D1005108D2077C2ECE1F7F2ED1
:101CFC00802E702E822E822E01300310D40DD50D25
:101D0C00FF3E031D832E4E085002031D8F2E4D08DF
:101D1C004F02031C922E932E9B2E4D08CF024E0881
:101D2C00031CD003D00254149B2E01300310CE0C94
:101D3C00CD0CFF3E031D9C2E0130D202031DA72E9D
:101D4C00A82E822EAA2EAA2E5308031DAE2EB42E18
:101D5C00D409D509D40A0319D50AB42E5508CE01D5
:101D6C00CE075408CD01CD07BB2E0800000083160A
:101D7C0003130C1CC22EC32EF22F831203130C1C44
:101D8C00C82EC92EF22FFD308F00DA308E000C10C9
:101D9C007B0884008313001CD42ED52ECE2F01304B
:101DAC00F0007708093E840070088007851FDF2E3D
:101DBC00E02EFC2E7708053E84000018E62EE72E58
:101DCC00172F7708053E840000147708093E84001D
:101DDC0080017A0884008018F42EF52E172F7708CE
:101DEC00053E84000015172F172F172F7708053E77
:101DFC008400001C022F032F172F7708053E840048
:101E0C0000107708093E840080017A08840080184D
:101E1C00102F112F172F7708053E84000015172F50
:101E2C00172F7708053E8400001D1D2F1E2F412FF4
:101E3C007708083E84000008F0007708093E84000B
:101E4C000008F10070087102031C2D2F2E2FCE2FCD
:101E5C007708093E840080017708053E8400001154
:101E6C0077080A3E8400001D3C2F3D2FCE2F06150F
:101E7C00CE2FCE2FCE2F061D442F452FCE2F061141
:101E8C0077080A3E8400001C4C2F4D2FCE2F0130BA
:101E9C00F0007708063E8400700880077708073E3C
:101EAC0084000008F0007708063E840000087006E5
:101EBC00031D612F622FCE2F7708063E8400800110
:101ECC0077080A3E8400801C6C2F6D2F912F7708A9
:101EDC00083E84000130800277080E3E8400000822
:101EEC00F0007708083E840000087006031D7F2F61
:101EFC00802F842F77080A3E8400001077080A3E52
:101F0C008400801D8A2F8B2FCE2F77080A3E8400E9
:101F1C008011CE2FCE2F0130F0007708083E8400C0
:101F2C007008800777080F3E84000008F0007708DF
:101F3C00083E840000087006031DA52FA62FCE2F87
:101F4C0077080A3E84000010B02F77080A3E840000
:101F5C000011CE2F77080A3E84008019B62FB72FB8
:101F6C00BC2F77080A3E84008015CE2F77080A3ED6
:101F7C008400001177080A3E84008011CE2FCE2FEA
:101F8C00CE2FCE2FCE2FCE2FCE2FCE2FCE2FCE2F5D
:101F9C002008013E840001308007840A0318800A5F
:101FAC002008013E84000008F000840A0008F100BB
:101FBC00143070067104031DE42FE52FF22F200856
:101FCC00013E840000308000840A003080007B08D1
:101FDC0084000015F22FF22F0000750883120313F2
:101FEC00FF0074088A0073088400720E8300FE0ED2
:041FFC007E0E09004C
:04400E00F4FFFFFFBD
:00000001FF
