:04000000803116280D
:100008007E14803120007F08F70099310C2180315F
:10001800803159208031A431C12477082000FF00A5
:100028007E10090080311828F001F801F901FA0161
:10003800FB01FC01FD01EC01ED01EE01A0308400A3
:10004800003085004830A331EC2380312030840013
:10005800013085004E30A331EC238031C03084005C
:10006800013085001030A331EC238031203084002A
:10007800023085002530A331EC238031A030840084
:10008800023085004730A331EC238031E030840012
:10009800A7308500A0308600013087002030A331CA
:1000A800E6237E1020009331542B8B1E08000B1D75
:1000B8000800A630200095000B1179088600013051
:1000C8008700011CB1280130F3007908033E86003F
:1000D800013087007308810721003908023E860035
:1000E80087010108F300F401F309F409F30A03197D
:1000F800F40A7908043E8600013087000108730776
:10010800F50074080318740AF6007908033E86009F
:10011800013087007608803A803C031D95287508D1
:100128000102031CEB297908033E86000130870091
:100138008101790886000130870001107908073E9F
:100148008600013087000114790886000130870095
:10015800011FEB2920008C17EB297908073E860040
:1001680001308700011CB6297908073E8600013056
:10017800870001107908860001308700811CB629A4
:100188000130F300790A860001308700730881077F
:10019800790A8600013087007908023E8400013020
:1001A800850000080102031CB629790A860001307F
:1001B800870081017908860001308700811D1A298E
:1001C8007908860001308700011A01297908043E60
:1001D80086000130870010300102031CFB287908D3
:1001E800043E86000130870001308102B629790873
:1001F8008600013087000116B6297908043E86007A
:10020800013087007F300102031814290130F30000
:100218007908043E86000130870073088107B629F3
:1002280079088600013087000112B629790886000E
:1002380001308700011D61297908053E86000130DB
:1002480087007908043E8400013085000008010217
:10025800031836297908043E8600013087000130EA
:1002680081024D297908043E86000130870079080B
:10027800053E8400013085000008010203184D295D
:100288000130F3007908043E8600013087007308C6
:1002980081077908053E8600013087007908043E09
:1002A80084000130850000080106031DB62979087D
:1002B80086000130870001117C2979088600013009
:1002C8008700811E82297908043E86000130870054
:1002D800013081027908053E8600013087007908DF
:1002E800043E84000130850000080102031CB62981
:1002F80079088600013087008110B6290130F300A3
:100308007908043E86000130870073088107790860
:10031800043E8600013087007908063E84000130DB
:10032800850000080102031CB629790886000130FF
:100338008700811079088600013087000113790849
:100348000C3E860001308700011421003908860020
:100358008701011420008C11F101F10A01309A3152
:100368005A22803120008C1FEB290130F3007908D4
:10037800083E860001308700730881077908043E2B
:100388008600013087000108F300F401F309F4093D
:10039800F30A0319F40A7308783EF5000030743D37
:1003A800F6007908083E8600013087007608803A12
:1003B800803C031DE12975080102031CEB2979081B
:1003C800083E860001308700810120008C137A08DE
:1003D800860001308700011C3B2A0130F3007A08AF
:1003E800033E860001308700730881072100390821
:1003F800023E860087010108F300F401F309F409BD
:10040800F30A0319F40A7A08043E860001308700CB
:1004180001087307F50074080318740AF6007A08CF
:10042800033E8600013087007608803A803C031D31
:100438001F2A75080102031C752B7A08033E8600E3
:100448000130870081017A08860001308700011099
:100458007A08073E86000130870001147A08860072
:1004680001308700011F752B20000D16752B7A08A7
:10047800073E860001308700011C402B7A08073EA2
:1004880086000130870001107A0886000130870055
:10049800811C402B0130F3007A0A86000130870066
:1004A800730881077A0A8600013087007A08023EBD
:1004B80084000130850000080102031C402B7A0AE1
:1004C80086000130870081017A08860001308700A4
:1004D800811DA42A7A08860001308700011A8B2A18
:1004E8007A08043E86000130870010300102031CA0
:1004F800852A7A08043E860001308700013081028F
:10050800402B7A088600013087000116402B7A08B4
:10051800043E8600013087007F30010203189E2ABE
:100528000130F3007A08043E860001308700730822
:100538008107402B7A088600013087000112402B82
:100548007A08860001308700011DEB2A7A08053EEB
:100558008600013087007A08043E84000130850057
:10056800000801020318C02A7A08043E86000130F8
:10057800870001308102D72A7A08043E86000130BC
:1005880087007A08053E84000130850000080102D2
:100598000318D72A0130F3007A08043E8600013098
:1005A8008700730881077A08053E860001308700B6
:1005B8007A08043E84000130850000080106031D06
:1005C800402B7A088600013087000111062B7A0833
:1005D800860001308700811E0C2B7A08043E8600B5
:1005E80001308700013081027A08053E860001301B
:1005F80087007A08043E8400013085000008010263
:10060800031C402B7A088600013087008110402B9C
:100618000130F3007A08043E860001308700730831
:1006280081077A08043E8600013087007A08063E72
:1006380084000130850000080102031C402B7A0861
:1006480086000130870081107A0886000130870013
:1006580001137A080C3E860001308700011421003E
:10066800390886008701011420008E13F101F10A70
:1006780002309A315A22803120000D1E752B01302C
:10068800F3007A08083E8600013087007308810766
:100698007A08043E8600013087000108F300F4015F
:1006A800F309F409F30A0319F40A7308783EF5000C
:1006B8000030743DF6007A08083E86000130870055
:1006C8007608803A803C031D6B2B75080102031CD9
:1006D800752B7A08083E86000130870081012000CA
:1006E8000D1221006A0A8600870101308107413115
:1006F8000318810A6A0A86008701403FC83A031D29
:10070800872B413F003A031D942B6A0A8600870114
:100718000030C03FC13F690886000130870081145E
:100728007808860001308700811C0800780A860056
:10073800013087000130810741310318810A080020
:1007480020006E08860002308700811ED12B6E08BB
:10075800033E8600023087000130810741310318CB
:10076800810A6E08033E860002308700403FAD00D4
:10077800413FAE0003302E02E83003192D02031C5E
:1007880008006E08033E8600023087000030C03F34
:10079800C13F00309D310A25080020006E08860000
:1007A80002308700011ED72D6E0A860002308700AE
:1007B8000130810741310318810A6E0A8600023030
:1007C8008700403FAD00413FAE0000302E020530AB
:1007D80003192D02031C08006E0A860002308700E8
:1007E8000030C03FC13F6E0886000230870001120A
:1007F8006E08453E8600023087006E08443E84003D
:10080800023085000008AD006E08433E84000230C7
:10081800850000082D070107AE006E083E3E8600E1
:10082800023087002E088100B101B10A043031027C
:1008380003184C2C3135083E6E07AD002D08860094
:10084800023087006E082E3E840002308500403F4B
:1008580080070131413F803D3F3131351A3E6E07F7
:10086800AD002D088600023087006E08303E8400F7
:1008780002308500403F80070131413F803D3F31D4
:100888000130AD002D08B10704303102031C1E2CC5
:100898000330A0000030A1006E082E3E8600023012
:1008A8008700403FA200413FA3009B31542383317E
:1008B80020006E082E3E8600023087002008C03FC8
:1008C8002108C13F0330A0000030A1006E08303E6F
:1008D800860002308700403FA200413FA3009B31C1
:1008E8005423833120006E08303E86000230870092
:1008F8002008C03F2108C13F6E082E3E8600023006
:100908008700403FAD00413FAE006E08303E860094
:1009180002308700403FAF00413FB0002E08300250
:10092800031D982C2D082F020318D42D6E082E3E77
:100938008600023087006E08303E84000230850051
:10094800003FAD00013FAE00AD09AE09AD0A031985
:10095800AE0A403F2D07AF00413F2E3DB0006E0864
:100968002C3E8600023087002F08C03F3008C13F68
:100978006E083A3E860002308700023001020318F2
:10098800152D0130AD006E083A3E86000230870012
:100998002D0881076E083A3E86000230870001085C
:1009A800013A031DE12C6E08363E860002308700AE
:1009B800F430C03F0130C13F152D6E083A3E860025
:1009C800023087000108023A031D152D6E083E3ECD
:1009D8008600023087000108013A031DFD2C6E08CD
:1009E800363E8600023087003230C03F0030C13FBB
:1009F800152D6E08063E860002308700403FAD0088
:100A0800413FAE002D082A3EAF0000302E3DB00019
:100A18006E08363E8600023087002F08C03F300837
:100A2800C13F6E08363E860002308700403FAD0069
:100A3800413FAE006E082C3E860002308700403FE2
:100A4800AF00413FB0002E083002031D2D2D2D08A8
:100A58002F02031C4C2D0130AD006E083C3E860071
:100A6800023087002D0881076E083C3E8600023060
:100A7800870003300102031CD42D6E083C3E86001B
:100A880002308700810101309D310A258331D42D40
:100A980020006E083C3E86000230870081016E0807
:100AA800423E8600023087000A3001020318652D95
:100AB8000130AD006E08423E8600023087002D08E6
:100AC80081076E08423E8600023087000A30010224
:100AD800031CD42D6E088600023087008115A20100
:100AE800A20A0130A5319B2583312000A201A20A68
:100AF8000230A5319B25833120006E08463E8600D2
:100B080002308700011C9C2D6E08463E860002308C
:100B1800870001106E082C3E8600023087006E08A0
:100B2800063E840002308500403F803F413F813FC0
:100B38006E08463E860002308700811CD42D6E0860
:100B4800463E86000230870081106E082C3E8600E3
:100B5800023087006E08063E840002308500403F60
:100B6800803F413F813F6E083E3E8600023087004D
:100B78000108AD00AE012D08A0002E08A1003230FA
:100B8800A2000030A300A731A327833120006E08FC
:100B9800363E8600023087002008C03F2108C13F4A
:100BA8009831C720080020006E08860002308700B0
:100BB800811C012E6E088600023087000119EE2D77
:100BC8006E0886000230870001156E088600023024
:100BD80087008111A331F9238331003A03190800F2
:100BE800A4311E248331003A0319080020006E083E
:100BF800860002308700011608006E088600023061
:100C08008700011D08006E08860002308700011168
:100C18006E0886000230870081156E083C3E86000B
:100C28000230870081016E083A3E86000230870054
:100C380081016E08063E8600023087000030C03F02
:100C4800C13F6E083F3E86000230870081016E0872
:100C5800463E86000230870001106E08463E860038
:100C68000230870081106E082C3E86000230870013
:100C78000030C03FC13F9831C72083312000A20116
:100C8800A20A0130A5319B2583312000A201A20AC6
:100C98000230A5319B2508002000B0006D088600B1
:100CA80001308700011C08003008A6310F26863164
:100CB80020003008013A031D6D2EAE01AE0A0C1F4C
:100CC8000C1A672EAE016D088600013087002E08C9
:100CD8007C2E3008023A031D7F2EAF01AF0A0C1C90
:100CE8008D18772EAF016D088600013087002F0818
:100CF8008110031D81146D08860001308700811C56
:100D0800562F6D088600013087000119AC2E01307E
:100D1800AC006D08023E8600013087002C08810770
:100D28006D08023E86000130870005300102031C71
:100D380008006D08023E86000130870081016D08B9
:100D4800860001308700011530089231E52208003D
:100D580020006D088600013087008119DE2E6D089D
:100D6800033E8600013087000130810741310318B6
:100D7800810A6D08033E860001308700403FAC00C1
:100D8800413FAD0000302D02963003192C02031CA0
:100D980008006D08033E8600013087000030C03F20
:100DA800C13F6D08860001308700811530089931F0
:100DB8005721080020006D08860001308700011ABD
:100DC800232F6D08053E860001308700013081071A
:100DD80041310318810A6D08053E860001308700FD
:100DE800403FAC00413FAD0000302D029630031962
:100DF8002C02031C08006D08053E860001308700A0
:100E08000030C03FC13F6D088600013087000116E1
:100E1800A201A20A0130A5313F25863121006908C7
:100E2800033E860001308700811C080064302000E2
:100E3800A6000030A70002309331C3230800200029
:100E48006D08860001308700811A08006D08073E8A
:100E58008600013087000130810741310318810A7B
:100E68006D08073E860001308700403FAC00413FD7
:100E7800AD0001302D022C3003192C02031C080090
:100E88006D08073E8600013087000030C03FC13F33
:100E98006D088600013087008116A2010130A53156
:100EA8003F25080020006D08860001308700011DDD
:100EB80008000130AC006D08023E86000130870052
:100EC8002C0881076D08023E860001308700053036
:100ED8000102031C08006D08023E860001308700ED
:100EE80081016D0886000130870001116D08033EFD
:100EF8008600013087000030C03FC13F6D08860082
:100F08000130870081116D08053E86000130870099
:100F18000030C03FC13F6D088600013087000112D4
:100F28006D08073E8600013087000030C03FC13F92
:100F38006D0886000130870081123008883105204D
:100F480086312000A2010130A5313F25080020008C
:100F5800E8006808A431682487317C088600870186
:100F6800011FC22F2100A008031D08002108643AB0
:100F7800031D080001309E31602608002100A008EA
:100F8800031D08002108023A031D08002C08FF3A37
:100F9800031DD82F2D08FF3A031DD82F2E08FF3A1E
:100FA800031DD82F0000080020006F080C3E8600A3
:100FB8000130870021002C080106031D08002000CD
:100FC8006F080D3E86000130870021002D080106BC
:100FD800031D080020006F080E3E860001308700C0
:100FE80021002E080106031D080001309631D7267E
:100FF80008008E31DD26080020008E1A08008E16A3
:1010080000282000AA006D08860001308700811F93
:1010180008006D0886000130870081136D0886007E
:1010280001308700011F51286D0A860001308700B2
:10103800011C08006D0A8600013087000110A2011A
:10104800A20A2A08A531DB2588312000A2012A0836
:10105800A531CB25883120002A081A3E6F07A80041
:1010680028088600013087000108A9006F08113E92
:10107800860001308700290881006D08860001304C
:1010880087000030011B0130A0002A089F314A2741
:10109800883101308B31142308002000A201A20AF4
:1010A8002A08A5318B2588312000A2012A08A531FC
:1010B8007B2588312000A301A4012A08903127202C
:1010C800883120006D088600013087000030011B40
:1010D8000130A0002A089F314A27883101308B311E
:1010E800142308002000A6002608A531FC25883115
:1010F80020002608A5002100390A86008701200063
:101108002508810024080319D5286C0886000130B9
:1011180087008116A201260890318320883100308B
:10112800A6314D26883120006C08860001308700E2
:1011380081140330A5006C08023E86000130870048
:10114800250881006C08860001308700011B080013
:101158006C088600013087000117A001A00A260844
:101168009A31ED2221006808223E8600023087006D
:1011780081106808233E8600023087000030C03F97
:10118800C13F20006C08053E860001308700010839
:10119800A5006C08043E8600013087002508810000
:1011A80008006C0886000130870081126C08063E32
:1011B8008600013087000108A5006C08043E8600FF
:1011C80001308700250881006C08860001308700FF
:1011D80081146C0886000130870081116C08860034
:1011E8000130870001120330A5006C08023E86001A
:1011F80001308700250881006C08053E8600013013
:1012080087000108A5006C08043E860001308700AD
:1012180025088100080078088600013087008112BF
:1012280020008D1981167808860001308700811CFE
:1012380008007808063E860001308700403F2000FD
:10124800A000413FA100780A860001308700403F96
:10125800A200413FA30021082302031D35292008CD
:101268002202031C0800780A86000130870000303B
:10127800C03FC13F7808860001308700811AA9293C
:101288007808033E8600013087008108031DA229E3
:101298007808860001308700811D74297808860047
:1012A8000130870081117808043E860001308700EC
:1012B8000108A0007808033E860001308700200856
:1012C80081007808083E8600013087007808063ECD
:1012D800840001308500403F803F413F813F080046
:1012E8007808860001308700011E9C29780886004E
:1012F8000130870001127808053E8600013087001A
:101308000108A0007808033E860001308700200805
:10131800810078080A3E8600013087007808063E7A
:10132800840001308500403F803F413F813F0800F5
:101338007808860001308700811008007808860048
:101348000130870081168D15080078088600013065
:10135800870081128D117808033E860001308700CE
:1013680001308102080020003108B4003208B500BD
:101378003308B6000310350D360DB7003708BC002A
:10138800BC08031DCE290030AE000030AF0000308D
:10139800B00008002E08B4002F08B5003008B600C9
:1013A8000310350D360DB7003708BD00BD08031D05
:1013B800E4290030AE000030AF000030B000080073
:1013C8000030B9000030BA000030BB0089303D075A
:1013D800B4003408BC023108B4003208B500330840
:1013E800B6001030B636B50CB40C890BF6293408A3
:1013F800B7003708BD002E08B4002F08B500300824
:10140800B6001030B636B50CB40C890B062A340871
:10141800B7003708BD068030B4003408BD05B217E0
:10142800FF30B105FF30B2050030B305AF17FF300C
:10143800AE05FF30AF050030B0051830B4003408F1
:10144800B8000130B935BA0DBB0D890B262A300812
:101458003302031D352A2F083202031D352A2E08B0
:101468003102031C3E2A2E08B1022F08B23B300875
:10147800B33B39140130B135B20DB30D890B3F2A96
:101488000130B802031D252A3908A0003A08A10036
:101498003B08A2003C08B4003408A3003D08B5008E
:1014A8003508A4009031E12020002008AE00210872
:1014B800AF002208B000080020002E08B4002F0852
:1014C800B5003008B6000310350D360DB7003708E3
:1014D800B800B808031D772A0030AE000030AF000E
:1014E8000030B00008003108B4003208B5003308F5
:1014F800B6000310350D360DB7003708BD00BD081E
:10150800031D8D2A0030AE000030AF000030B0005F
:1015180008003D087B3EB4003408B8072E08B40024
:101528002F08B5003008B6001030B636B50CB40C2C
:10153800890B992A3408B7003708BD003108B40070
:101548003208B5003308B6001030B636B50CB40C06
:10155800890BA92A3408B7003708BD068030B400C3
:101568003408BD05AF17B217FF30B105FF30B2051B
:101578000030B3050030B9000030BA000030BB00BD
:101588000730B4003408BC002E1CD02A3108B90733
:101598003208BA3D3308BB3D0130B036AF0CAE0C53
:1015A800890BD12A0130B135B20DB30D890BD72A79
:1015B8000130BC02031DC82A0930B4003408BC003D
:1015C8002E1CEC2A3108B9073208BA3D3308BB3D56
:1015D8000130B036AF0CAE0C890BED2A0130BB36AA
:1015E800BA0CB90C890BF32A0130BC02031DE42A9A
:1015F8003908A0003A08A1003B08A2003808B40046
:101608003408A3003D08B5003508A4009031E12056
:1016180020002008AE002108AF002208B000080012
:101628002000A3002308A43168248B317C0886009D
:101638008701011C08007C08860087010119080041
:101648007C0886008701011563302000A20022086B
:101658002100A00002302000A20022082100A100E1
:1016680020006F088600013087000130423F2100CA
:10167800A20020006F088600013087000130433F38
:101688002100A30020006F08860001308700013088
:10169800443F2100A40020006F0886000130870025
:1016A8000130453F2100A50020006F088600013069
:1016B80087000130463F2100A60020006F08860001
:1016C800013087000130473F2100A70020006F0844
:1016D8008600013087000130483F2100A800200023
:1016E8006F088600013087000130493F2100A900BA
:1016F80020006F0886000130870001304A3F210032
:10170800AA0020006F0886000130870001304B3F97
:101718002100AB0020006F088600013087000130EF
:101728004C3F2100AC0020006F0886000130870084
:1017380001304D3F2100AD0020006F0886000130C8
:10174800870001304E3F2100AE0020006F08860060
:101758000130870001304F3F2100AF0020006F08A3
:101768008600013087000130503F2100B000200082
:101778006F088600013087000130513F2100B10019
:1017880020006F088600013087000130523F210099
:10179800B20020006F088600013087000130533FF7
:1017A8002100B30002302000A20022082100B4006A
:1017B800080020003E08C4003F08C5004008C600D5
:1017C8000310450D460DC7004708CA004108C4006C
:1017D8004208C5004308C6000310450D460DC70062
:1017E8004708C9004A080319052C49084A02031882
:1017F8000C2C4A03FF3A4907C40019304402031C61
:101808000C2C4108BE004208BF004308C000080075
:101818004908031908004A08490203181B2C490300
:10182800FF3A4A07C400193044020318080006307A
:10183800C4004408C800C01BC817C31B4817BF17FB
:10184800FF30BE05FF30BF050030C005C217FF30AE
:10185800C105FF30C2050030C30549084A02031814
:10186800572C0130C135C20DC30D890B362C013000
:10187800C90249084A060319522C0130C80248080F
:1018880007390319522C352C0130C036BF0CBE0C59
:10189800890B492C0130C4004408CA074A08490684
:1018A80003197C2C482C4A08490203187C2C013067
:1018B800BE35BF0DC00D890B5C2C0130CA0249082A
:1018C8004A060319782C0130C80248080739031959
:1018D800782C5B2C0130C336C20CC10C890B6F2CE1
:1018E8000130C4004408C9074A084906031D6E2C84
:1018F800C81F8E2CFF30BE06FF30BF06FF30C00663
:101908000130BE07003003180130BF07003003184C
:101918000130C007481FA02CFF30C106FF30C206A7
:10192800FF30C3060130C107003003180130C20779
:10193800003003180130C307C8013E08C1073F083B
:10194800C23D4008C33DC31FBB2CFF30C106FF305A
:10195800C206FF30C3060130C1070030031801304A
:10196800C207003003180130C307C801C80A41087C
:10197800A0004208A1004308A2004A08C400440885
:10198800A3004808C5004508A4009031E1202000C4
:101998002008BE002108BF002208C00008001F3030
:1019A800A73105278C31AA3A031D502D0030A731E5
:1019B80005278C312000DD006F080C3E86000130C1
:1019C80087005D0881000130A73105278C31200090
:1019D800DD006F080D3E8600013087005D0881003C
:1019E8000230A73105278C312000DD006F080E3E3C
:1019F8008600013087005D0881000330A731052784
:101A08008C312000DD006F08153E8600013087000C
:101A18005D0881000430A73105278C312000DD00E6
:101A28006F08163E8600013087005D08810005308A
:101A3800A73105278C312000DD006F08173E86008E
:101A4800013087005D0881006F080C3E8600013078
:101A580087000108FF3A031D08006F080D3E860045
:101A6800013087000108FF3A031D08006F080E3E89
:101A78008600013087000108FF3A031D0800210095
:101A8800690886000130870081166908033E8600D0
:101A980001308700811408000F309E311A268C31DE
:101AA8002000DD005D08DE00FF30DD002100680851
:101AB80086000230870020005D088100FF30DD00CD
:101AC8002100680A86000230870020005D08810036
:101AD800FF30DD0021006808023E860002308700E2
:101AE80020005D088100FF30DD0021006808033E0A
:101AF80086000230870020005D088100FF30DD008D
:101B080021006808043E86000230870020005D0836
:101B18008100FF30DD0021006808053E86000230A4
:101B2800870020005D088100AA30DD0021006808D8
:101B38001F3E86000230870020005D0881005E0895
:101B4800DD006F08153E8600013087005D088100C2
:101B58005E08DD006F08163E8600013087005D08CC
:101B680081005E08DD006F08173E8600013087009F
:101B78005D0881008B139A31BC228B1721006908FC
:101B880086000130870081166908033E860001300F
:101B98008700811408007B08860001308700011C3B
:101BA80008007B0886000130870081191F2E7B08FA
:101BB800063E860001308700013081074131031855
:101BC800810A7B08063E860001308700403F2000DE
:101BD800AD00413FAE0002302E02BC3003192D0289
:101BE800031C0800A4319F248D31003A0319152ED7
:101BF800A331F9238D31003A0319152E7B08063ECF
:101C08008600013087000030C03FC13F7B08860056
:101C18000130870081157B0886000130870001119B
:101C280008007B08063E860001308700BC30C03FB4
:101C38000230C13F08007B08063E8600013087005D
:101C48000130810741310318810A7B08063E86006E
:101C580001308700403F2000AD00413FAE0000301A
:101C68002E02023003192D02031C08007B08063ED1
:101C78008600013087000030C03FC13F7B088600E6
:101C88000130870081117B08860001308700811CA4
:101C9800882E7B0A860001308700403FAD00413F17
:101CA800AE0001302E02913003192D020318C42E04
:101CB8007B0A860001308700403FAD00413FAE00FF
:101CC80000302E02C83003192D02031CC42E013027
:101CD800AD007B08053E8600013087002D0881078E
:101CE8007B08053E86000130870002300102031C94
:101CF800CA2E7B08053E860001308700810100302E
:101D08009B318B238D31CA2E7B0A860001308700D8
:101D1800403F2000AD00413FAE0001302E02903020
:101D280003192D020318A72E7B0A860001308700AD
:101D3800403FAD00413FAE0000302E02D3300319C2
:101D48002D020318C42E0130AD007B08053E860025
:101D5800013087002D0881077B08053E8600013089
:101D6800870002300102031CCA2E7B08053E86004C
:101D780001308700810101309B318B238D31CA2EC0
:101D88007B08053E86000130870081017B088600BC
:101D9800013087008118D52E7B0886000130870026
:101DA80001157B0A8600013087000030C03FC13F23
:101DB80008007D08860001308700011C08007D08A6
:101DC8008600013087000119292F7D0A860001301D
:101DD80087000130810741310318810A7D0A860096
:101DE80001308700403F2000AD00413FAE00013088
:101DF8002E02F43003192D02031C0800A4319F247D
:101E08008E31003A0319202FA4311E248E31003A56
:101E18000319202F7D0A8600013087000030C03F5B
:101E2800C13F7D0886000130870001157D088600C6
:101E380001308700011208007D0A86000130870002
:101E4800E830C03F0330C13F08007D0A86000130FA
:101E580087000130810741310318810A7D0A860015
:101E680001308700403F2000AD00413FAE00003008
:101E78002E02043003192D02031C08007D0A860077
:101E8800013087000030C03FC13F7D088600013027
:101E9800870001117D08083E8600013087007D0813
:101EA800043E840001308500403F803F413F813F30
:101EB8007D08860001308700811C8F2F7D08043E35
:101EC800860001308700403FAD00413FAE00023040
:101ED8002E021C3003192D02031CBD2F0130AD004A
:101EE8007D08033E8600013087002D0881077D08A4
:101EF800033E86000130870003300102031CC32F14
:101F08007D08033E860001308700810100309C3146
:101F1800C8248E31C32F7D08043E86000130870017
:101F2800403F2000AD00413FAE0001302E02DC30C2
:101F380003192D020318BD2F0130AD007D08033EA3
:101F48008600013087002D0881077D08033E860042
:101F58000130870003300102031CC32F7D08033EB4
:101F6800860001308700810101309C31C8248E3100
:101F7800C32F7D08033E86000130870081017D085C
:101F88008600013087008118CE2F7D088600013039
:101F9800870001167D08043E860001308700403F17
:101FA8002000AD00413FAE002E08AF006F08183E7C
:101FB8008600013087002F0881007D08043E8600D6
:101FC800013087000108AD006F08193E8600013016
:101FD80087002D0881007D08063E860001308700B5
:101FE8000030C03FC13F7D08083E860001308700B1
:101FF8000030C03FC13F08002000A4002408A431DD
:10200800682490317C0886008701811D08007C08BF
:102018008600870181117C088600870181107C0A6F
:102028008600870181017C0886008701811236308D
:10203800A5316B2590313A30A5316B2590310030B0
:10204800A4313F2408002000A7002708A631A426B1
:1020580090312100380886008701011C08003808E3
:1020680086008701200023088110031D811423089E
:102078000319692824089931FC2190312000A50012
:102088002100380A860087012000250881000F30CA
:102098002405A5002508053A0319562824080F39F0
:1020A800031D5C282630240203185C2824085D28B8
:1020B8000530A50027081A3E6F07A60026088600E7
:1020C80001308700250881007528A308031D75289D
:1020D80027081A3E6F07A5002508860001308700EB
:1020E800810121003808023E860087010030C03F88
:1020F800C13F3808043E860087018101080020009E
:10210800A30023089831A52090312000A208031DC0
:102118009F282308013A031D93288C1508002308DB
:10212800023A031D99288E1708002308633A031DF5
:1021380008008D1608002208013A031DB528230857
:10214800013A031DA9288C1108002308023A031D2F
:10215800AF288E1308002308633A031D08008D1268
:10216800080022080A3A031DD72821003B088600E8
:10217800870181103B0A860087010030C03FC13FBC
:1021880020002308013A031DCB288C1508002308DA
:10219800023A031DD1288E1708002308633A031D4D
:1021A80008008D16080022080B3A031D08002100BC
:1021B8003B088600870181140800200023080319C2
:1021C800EA28220821042004031DFB280030A0006F
:1021D8000030A1000030A20008000130A500250849
:1021E800A3070130A236A10CA00C890BF628FE30FB
:1021F800220503191429F1280130A5002508A30791
:102208000130A007003003180130A107003003187F
:102218000130A2070130A236A10CA00C890B0F29AE
:10222800FF3022050319212900290130A3020130BA
:10223800A035A10DA20D890B1C29A11F192923184E
:102248002B29FF30A0057F30A105FF30A205031020
:10225800A30C2308A500A601A7011030A535A60DDB
:10226800A70D890B32292508A0042608A1042708F0
:10227800A204240803190800A217080020000D185A
:102288000D1844293B30A7316C27913121004308B0
:102298000319982920000E12FF30A40024082100F9
:1022A800BF0020000E195529A631D3269131983147
:1022B8006620913121003F082000A4002408210055
:1022C800BE002000A50121003E08200025020318B9
:1022D8007F2998316620913121003F082000A40011
:1022E8002508A03E86008701240881000130A4004B
:1022F8002408A507672998316620913121003F08F5
:102308002000A40024082100BD00983166209131E6
:1023180021003F082000A40024082100B700200065
:102328000E162100B71B70153630A5316B2591317B
:102338003A30A5316B2591312000A2010130A53139
:10234800312508002000AA002A08013A031DBC29EB
:10235800A63178269131003A0319D4292C3020006F
:10236800A6000130A7000A309331C3239131D42944
:1023780020002A08023A031DCF292C30A60001307C
:10238800A70005309331C32391312100390A860013
:1023980087010108D92920002A08033A031DDC29EE
:1023A80001309E31F326913102309E31F32691316E
:1023B8002000A20101309931D12191312000A201E0
:1023C80002309931D121913121006908033E8600FC
:1023D800013087000118080069080E3E86000130A8
:1023E8008700011069080E3E8600013087008110C1
:1023F80069080E3E86000130870001156908083E0D
:102408008600013087000030C03FC13F080020002F
:10241800A8007D08860001308700011D0800F03003
:10242800A4002408A0002808A6318E2692317D0831
:102438000A3E86000130870020002008C03F21089E
:10244800C13F7D080A3E860001308700403FA40056
:10245800413FA5007D08063E860001308700403FC9
:10246800A600413FA70025082702031D3D2A24088E
:10247800260203184E2A7D080A3E8600013087008E
:102488007D08063E840001308500403F803F413F83
:10249800813F08007D080A3E860001308700403FE2
:1024A800A400413FA5007D08083E86000130870052
:1024B800403FA600413FA70025082702031D662AC2
:1024C80024082602031808007D080A3E8600013009
:1024D80087007D08083E840001308500403F803F2A
:1024E800413F813F08002000A60120302602031842
:1024F800962A2608A731052792312000A40026082D
:10250800210068072000A500250886000230870002
:10251800240881000130A4002408A60720302602E0
:10252800031C7D2A6F080C3E8600013087000108D5
:10253800A4002100680886000230870020002408D3
:1025480081006F080D3E8600013087000108A40055
:102558002100680A860002308700200024088100D4
:102568006F080E3E8600013087000108A400210094
:102578006808023E86000230870020002408810097
:1025880021006808223E860002308700011DDD2AEE
:102598006808223E8600023087000111690886001B
:1025A8000130870081126908033E860001308700E8
:1025B80081108B13A431D92492319A31BC228B1704
:1025C80008002000AB00AA01AA0A2B08013A031D43
:1025D800EF2A7A08F42A2B08023A031DFF2A790801
:1025E800093E8600013087000310011D03140030E6
:1025F80003180130AA002A08031908006D0886008C
:102608000130870081176430A6000030A700013030
:102618009331C323923120006D0886000130870072
:10262800011B412B6D088600013087000117A201AC
:10263800A20A2B08A5314D2592312000A201A20A39
:102648002B08A5318B2592312000A201A20A2B0864
:10265800A5317B25923120006D0886000130870066
:102668000030011B0130A0002B089F314A2792310E
:1026780001308B3114232000080020006D088600EB
:102688000130870001136D08860001308700003093
:10269800011B0130A2002B08A5314D2520000800A0
:1026A800A43194249331A631BB2693318C31D324A1
:1026B8009331A431E5249331A43152249331A331C9
:1026C800C9239331A431FD249331A331C32393311A
:1026D800A4310E249331A63138269331A53124250F
:1026E8009331A331D8239331A63123269331210086
:1026F8006908860001308700011C912B053097314D
:102708006A279331093092310B22933111309C3171
:102718004524933189310F219331210069088600BE
:1027280001308700811C7B2B6908860001308700F7
:1027380081109E31A8269331210069088600013056
:102748008700011C7B2B9D31D5259331A431F124C1
:1027580093318731FD2793318331A4239331A331FA
:10276800C6239331A4317E249331A4312E2493318E
:10277800A331DC239331A431162493317B2B200021
:10278800A9001430A0000030A1002708A301A30766
:102798002608A201A207A731A32793312000210808
:1027A800A701A7072008A601A60778088600013018
:1027B8008700011C0800780886000130870081180E
:1027C800FE2B780886000130870081142908A800AC
:1027D8007808033E860001308700280881007808C1
:1027E800063E8600013087002608C03F2708C13F03
:1027F8008D150800780886000130870081191C2C87
:10280800780886000130870081152908A800780813
:10281800043E860001308700280881007808083EB9
:102828008600013087002608C03F2708C13F0800FE
:102838007808860001308700011A080078088600A9
:102848000130870001162908A8007808053E86008F
:10285800013087002808810078080A3E8600013088
:1028680087002608C03F2708C13F08002000AC00A9
:102878002C08A631A4269431210038088600870147
:10288800811C08003808023E860087010130810754
:1028980041310318810A3808023E86008701403F0B
:1028A8002000AA00413FAB0016302B02123003195A
:1028B8002A02031C080021003808023E860087010E
:1028C8000030C03FC13F01302000AA002100380875
:1028D800043E8600870120002A0881072100380865
:1028E800043E86008701380A840085010008010239
:1028F800031C08003808043E860087018101380857
:102908008600870181102000A2012C08A5315C25D2
:1029180094312000A2012C08A5314D2594312000C6
:10292800A0012C089F314A2794312000A201A20A55
:102938002C08A5318B2594312000A2012C08A53143
:102948007B25943101308B3114239431643020007D
:10295800A6000030A70001309331C32308002000EF
:10296800AB00AA01AA0A2B08A531FC259431200046
:102978002B08013A031DC22C7A08C72C2B08023AEF
:10298800031DCF2C79080C3E8600013087000030EB
:1029980001180130AA006C08093E86000130870042
:1029A800811C052D2A08031908006C08093E8600B9
:1029B80001308700011CF32C6C08093E86000130A9
:1029C80087008110A401A40A2B08883176202000F2
:1029D8006C080C3E860001308700011008006C0866
:1029E800093E8600013087008110A4012B08883138
:1029F800762020006C080C3E86000130870001100C
:102A080008006C08093E860001308700811D080017
:102A18002A08031908002B08A531FC259431200049
:102A28006C08093E86000130870081116C08093E58
:102A3800860001308700011D312DA501A50A2B084C
:102A48009D314D25943164302000A6000030A70048
:102A580001309331C323200008002000A5012B0872
:102A68009D314D252000080020004B08CF004C0860
:102A7800D0004D08D1000310500D510DD20052085E
:102A8800D800D808031D512D0030CE000030CD00ED
:102A98000030CC000030CB0008004B08CF004C08B9
:102AA800D0004D08D1001730D136D00CCF0C890B8F
:102AB800582D4F08D2005208D300CC17FF30CB0551
:102AC800FF30CC050030CD054B08D4004C08D500AC
:102AD8004D08D600D7018E30D802D81F8F2D580840
:102AE800803A8F3E0318812D0030CE000030CD0093
:102AF8000030CC000030CB0008000130D736D60CAF
:102B0800D50CD40C890B822D0130CF004F08D80783
:102B18000319A82D812D18305802031CA52D00304B
:102B2800CE000030CD000030CC000030CB000800D3
:102B38000130D435D50DD60DD70D890B9D2D01301B
:102B4800D802D808031D9C2D53080319B62DD409A3
:102B5800D509D609D709D40A0319D50A0319D60AFB
:102B68000319D70A5708CE005608CD005508CC00DF
:102B78005408CB0008002000EA006A08A431682441
:102B880095317C0886008701011C08002000EB01B4
:102B98000C1F0C1AD32D0C18D32D8D1CDA2D7C0884
:102BA80086008701011BDA2DEB01EB0A7C08860001
:102BB80087016B088113031D81177C088600870134
:102BC800811B122E7C0886008701811CF72D7C084A
:102BD800860087018110913142219531013087317A
:102BE800AB279531162E7C08860087010119162E11
:102BF8007C08860087018119162E7C0886008701CB
:102C080081153630A5316B2595313430A5316B25CA
:102C180095310130A4313F249531162E0130903181
:102C2800002095317C0886008701011D08000130CD
:102C38009031002095317C0886008701811A3C2E4E
:102C480001302000E9007C0A8600870169088107B5
:102C58007C0A860087010108193A031D08007C0ACE
:102C68008600870181017C0886008701811608009B
:102C78007C088600870181127C0886008701011183
:102C88009D31912508002000AB002B08A631622653
:102C9800963121003C08860087010118882E3008EB
:102CA800803A031D642E2000A301A30A21003108E5
:102CB8002000AA002A08A4002B089031272096316A
:102CC80021003C088600870101142000A201A20A05
:102CD8002B08A5315C2596312000A201A20A2B08F9
:102CE800A5318B2596312000A201A20A2B08A53117
:102CF8007B25963121003C088600870100300118A9
:102D080001302000A000C62E21003008803A031DA3
:102D18009E2E2000A301A30A210031082000AA004A
:102D28002A08A4002B089031272096312000A00102
:102D3800A00AC62E21003C08860087010110200049
:102D4800A2012B08A5315C2596312000A201A20A18
:102D58002B08A5318B25963121003C088600870178
:102D68000030011801302000A2002B08A5317B2576
:102D780096312000A301A4012B0890312720963119
:102D88002000A0012B089F314A279631643020008B
:102D9800A6000030A70001309331C32396310130DB
:102DA8008B31142308002000E7006708A431682449
:102DB80096312100AF08031D2A2F2000A4010130FD
:102DC8008831762096312000A2010130A5314D25A9
:102DD80096312000A2010130A5315C2596312000F2
:102DE800A40102308831762096312000A2010230F9
:102DF800A5314D2596312000A2010230A5315C2570
:102E0800963120006F08093E860001308700810155
:102E18006F080B3E86000130870081016F080F3E66
:102E280086000130870081016F08113E860001305D
:102E3800870081016430A6000030A700013093317B
:102E4800C323963101308B311423080021002F0849
:102E5800203A031D462F20006F08093E86000130E6
:102E6800870081016F080B3E8600013087008101D1
:102E78006F08113E860001308700810101308B31D7
:102E88001423080021002F08013A031D4F2F013099
:102E980096314726080021002F08113A031D582FA4
:102EA80001309C310524080021002F08023A031D37
:102EB800612F023096314726080021002F08213A59
:102EC800031D080002309C31052408002000A900D9
:102ED800AB01AA016E08860002308700011E0800B7
:102EE800C030A4002408A0002908A6318E269731F6
:102EF80020006E08323E8600023087002008C03F5E
:102F08002108C13FAB0105302B020318C42F6E08FE
:102F1800323E860002308700403FA400413FA500B2
:102F28002B35083E6E07A60026088600023087006B
:102F3800403FA700413FA80025082802031DA62FEF
:102F4800240827020318BC2F6E08323E8600023080
:102F580087002B35083E6E07A40024088400023041
:102F68008500403F803F413F813FAA01AA0AC42F04
:102F78000130A4002408AB0705302B02031C8B2F5B
:102F8800AA08031D0800AB0105302B02031808002E
:102F98002B351A3E6E07A4002408860002308700ED
:102FA800403FA500413FA6006E08323E8600023031
:102FB8008700403FA700413FA80026082802031DBC
:102FC800E72F250827020318FB2F6E08323E8600DC
:102FD800023087002B351A3E6E07A40024088400AF
:102FE80002308500403F803F413F813F080001306B
:102FF800A4002408AB07C82F0334163417341E3432
:103008001F3420342A342B340B340C340D340E3452
:103018000F34103411341234133414340A34153480
:1030280021342234183419341A341B341C341D3416
:10303800233424342534263429342C342D342E34A6
:1030480000340134023407340834093406340434B3
:1030580005342734283407340734303487346B3444
:10306800F8347F343F34093400345C34A734623494
:103078008634833403342234F83400344434B63488
:10308800103418341D341C34C7340034B234EA34D4
:103098000A34003411345934883431340B342F3421
:1030A8002E3406340434053400343034D3349134A7
:1030B80041340034FE34FE34FE34FE34FE34FE3433
:1030C800FE34FE342000A101083021020318080054
:1030D8008E1403102100BF0D20000E1D762821003C
:1030E8003F147C28FE302000A00020082100BF05E6
:1030F80020008E100130A0002008A10768282000B9
:10310800AD01A91F8E28A809A909A80A0319A90AA7
:10311800AD01AD0A2808A0002908A100A2018E303F
:10312800AB002B08A3002D08AC002C08A40090319C
:10313800E12020002008A8002108A9002208AA00F0
:1031480008002000A1002108013A031DB128D93048
:10315800A00020082100BB00080020002108023A36
:10316800031DBC28DD30A00020082100BB0008009A
:1031780020002108633A031D0800D530A00020086C
:103188002100BB0008002000A1010530210203181E
:1031980008002135083E6E07A0002008860002308E
:1031A80087000030C03FC13F21351A3E6E07A0009E
:1031B8002008860002308700FF30C03FFF30C13F43
:1031C8000130A0002008A107C9282000E0006008FD
:1031D800A531FC25983120006C0886000130870055
:1031E80001156C0886000130870081146F08093EBC
:1031F80086000130870001089F31A5272000DF00E5
:103208006C08053E8600013087005F0881000800D1
:103218008B1D08002700161D080016110B10210031
:103228006908860001308700011C0800A73137278C
:10323800993120000D1D272921003908023E8600FA
:103248008701810108000830F10021003908023E99
:103258008600870171088100080001302000A20063
:103268000030A30021082302031D3C292008220264
:1032780003180800A401A501003025020230031933
:103288002402031852290130A4070030A53D00305C
:103298002502023003192402031C47290130A20722
:1032A8000030A33D36292000A4006D0886000130B7
:1032B8008700811F08006D0A86000130870001140D
:1032C8006D088600013087000117A201A20A2408B0
:1032D800A5314D2599312000A201A20A2408A53163
:1032E800DB2599312000A201A20A2408A531CB25AB
:1032F80008002000A8012F30280203180800280819
:10330800003E840098300318013E85000008A5009F
:103318002508A60028082F3E840098300318013E8F
:1033280085000008A5002508A7002708A50025088E
:10333800A2002608A631EC26993101302000A5000C
:103348002508A8077F292000A3002308A4316824A2
:1033580099317C0886008701200022080110031D8E
:1033680001147C088600870101137C088600870108
:1033780001117C088600870181117C08860087017D
:1033880081107C0A8600870181017C0886008701FC
:1033980081120030A4313F2408002000A300230834
:1033A800A531FC2520006C08093E86000130870005
:1033B80022088110031D81146C08093E8600013023
:1033C800870022080110031D01146C08093E8600BD
:1033D8000130870022088111031D81156C08093E00
:1033E80086000130870022080111031D011508001D
:1033F8002000A2000530A0002008A1002208053AFC
:10340800031D082A0530252A2208103A031D0E2A12
:103418000A30252A2208153A031D142A0F30252AB6
:103428002208203A031D1A2A1430252A2208253A90
:10343800031D202A1930252A2208303A031D282A7C
:103448001E30A0002008A1002108080020008E10CE
:103458000E100E160A30A0000030A100993131215B
:103468009A3120000E120A30A0000030A1009931D4
:1034780031219A3120000E162830A0000030A1001A
:10348800993131219A3120000E123030A6002608D9
:103498002100BF0020000E194E2AA631D3269A31EA
:1034A80020000E19542A0E100E160800F2002000F3
:1034B8006E08463E86000230870071088110031DA1
:1034C80081146E08423E8600023087000230810275
:1034D8007208013A031D762A6E08433E86000230C0
:1034E800870081017208023A031D802A6E08443E53
:1034F80086000230870081017208033A031D080024
:103508006E08453E860002308700810108002000D1
:10351800A1006E08463E8600023087002008811010
:10352800031D81146E08423E860002308700023077
:1035380081022108013A031DA72A6E08433E86002E
:103548000230870081012108023A031DB12A6E0862
:10355800443E86000230870081012108033A031D9A
:1035680008006E08453E8600023087008101080089
:103578002300151330309200940115129516151575
:103588002000A101203021020318E62A2108230087
:10359800910020002108210068072000A0002008D1
:1035A800860002308700010823009300A4313624E6
:1035B8009A3101302000A0002008A1072030210204
:1035C800031CCA2A23009512A4313624230015119E
:1035D80008002000A1006E088600023087008114D0
:1035E8006E08463E86000230870020080110031D41
:1035F80001142108013A031D082B6E08433E86007A
:10360800023087008101810A2108023A031D132B29
:103618006E08443E8600023087008101810A210835
:10362800033A031D08006E08453E860002308700F5
:103638008101810A08002000E30065302100290289
:10364800031C2C2B64302000E10061082100A90034
:1036580029082000E1006F08093E86000130870034
:10366800610881006308E1006F080B3E86000130A5
:103678008700610881006F08093E860001308700D5
:103688000108E1006308143E6F07E2006208860043
:10369800013087006108810063089831E92008003B
:1036A8002000A501A601210820040319842BA701E5
:1036B800A70AA11B692B0130A035A10D890B602B2E
:1036C8000130A4002408A7075D2B0130A535A60DFD
:1036D800890B6A2B21082302031D742B2008220260
:1036E800031C7B2B2008A2022108A33B25140130D0
:1036F800A136A00C890B7C2B0130A702031D692B76
:103708002608A101A1072508A001A007080020009C
:10371800AC007B088600013087002C088110031D4F
:1037280081142C090139AB007B0886000130870021
:10373800AB0DAB0D01082B06FB392B0681002C08BD
:10374800013A031DAB2B03309131A6219B31200098
:103758002C080A3EAB002B08A2006330903183206E
:103768009B3120002C090139A73187279B31200084
:103778002C090139AB002B08A20001309931A7218F
:1037880008002000A40024089831A5209B312100BE
:103798003B0886008701811C08003B0A86008701D8
:1037A8000130810741310318810A3B0A86008701ED
:1037B800403F2000A200413FA300003023023230E6
:1037C80003192202031C080021003B0A8600870116
:1037D8000030C03FC13F20002408013A031DF72BE9
:1037E80008308C0608002408023A031DFE2B80309E
:1037F8008E0608002408633A031D080020308D0651
:1038080008002000E6006608A63162269C312100E7
:103818003C0886008701011C1D2C6808223E860092
:10382800023087000114200066089B311F239C3159
:103838002F2C20006608143E6F07E40064088600F9
:10384800013087000108E5006F08093E8600013055
:10385800870065088100200066081A3E6F07E400AB
:1038680064088600013087000108E5006F08113EF2
:103878008600013087006508810001308B311423F0
:1038880008002000A8007B08860001308700811D01
:103898000800F030A4002408A0002808A6318E26CD
:1038A8009C317B08033E86000130870020002008F9
:1038B800C03F2108C13F7B08033E860001308700D6
:1038C800403FA400413FA5007B0A860001308700E5
:1038D800403FA600413FA70025082702031D762C7C
:1038E80024082602031808007B08033E86000130DE
:1038F80087007B0A840001308500403F803F413FBC
:10390800813F08002000E1006108A531FC259C31B9
:103918000F302000DF006C08053E8600013087006C
:103928005F0881007F30DF006C08063E86000130AA
:1039380087005F0881006C080C3E86000130870014
:1039480001146C08063E8600013087000108DF007C
:103958006C08043E8600013087005F08810061081A
:10396800143E6F07DF005F088600013087000108FA
:103978009F31A5272000E0006C08053E8600013035
:1039880087006008810008002000AC007D088600E0
:10399800013087002C088110031D81142C0901397E
:1039A800AB007D08860001308700AB0E01082B06AE
:1039B800EF392B0681002C080319E72C01309131CF
:1039C800A6219C31F02C64302000A6000030A7000E
:1039D80002309331C3239C3120002C080A3EAB00EF
:1039E8002B08A2006330903183209C3120002C09E1
:1039F8000139A73187279C3120002C090139AB00F8
:103A08002B08A20001309931A72108002000AC0042
:103A18006E088600023087002C088112031D81166B
:103A28002C090139AB006E08860002308700AB0D07
:103A3800AB0DAB0D01082B06F7392B0681002C08BE
:103A4800AB006E08053E8600023087002B08810017
:103A58002C080319332D02309131A6219D31200005
:103A68002C080A3EAB002B08A2006330903183205B
:103A78009D3120002C090139A73187279D3120006D
:103A88002C090139AB002B08A20001309931A7217C
:103A980008002000A7002708A531FC259D3120003B
:103AA80025080319622D6C088600013087008115EE
:103AB8006C08860001308700811408006C088600B5
:103AC80001308700811D08006C08860001308700DE
:103AD80081106C088600013087008111A001A00ABE
:103AE80000309A318B229D3120006C08043E8600FC
:103AF800013087000108A6006C08053E86000130E9
:103B0800870026088100A001A00A27089F314A27BC
:103B18009D3101308B311423080020000E127F30B4
:103B2800A40024082100BF0020000E19982DA631FA
:103B3800D3269D31210040082000A400240821003C
:103B4800BF00A631D3269D312000A50121004008E1
:103B5800200025020318C22D2508A03E86008701F3
:103B68000108A40024082100BF00A631D3269D31F6
:103B780001302000A4002408A507AA2D0E16353010
:103B8800A5316B259D3120000D1CC72D0D18CA2DA0
:103B98003630A5316B259D313B30A5316B25F016AC
:103BA800080021006808223E860002308700811C38
:103BB80008006808223E860002308700011C122E89
:103BC8006808233E860002308700013081074131B2
:103BD8000318810A6808233E860002308700403FA8
:103BE800193A031DF92D413F003A031D08006808E2
:103BF800233E8600023087000030C03FC13F68087E
:103C0800223E86000230870001106808223E8600A6
:103C1800023087008110923177220800210068085D
:103C2800223E860002308700811008002000D9005B
:103C38000030DA00E030DB004230DC000030AE005B
:103C4800C830AF004230B0005A08B1005B08B2007B
:103C58005C08B3008931B7219E3120002E08DA00B4
:103C68002F08DB003008DC005908F13EA800FF30BF
:103C780003180030A900983183209E3120002808BD
:103C8800B1002908B2002A08B3005A08AE005B0840
:103C9800AF005C08B0008931B7219E3120002E08A2
:103CA800CB002F08CC003008CD00953138252000F6
:103CB8004B03FF3A643E08002000AB002B08A431F8
:103CC80068249E3121002C082000AA006F080C3EB1
:103CD8008600013087002A08810021002D08200075
:103CE800AA006F080D3E8600013087002A0881006F
:103CF80021002E082000AA006F080E3E8600013021
:103D080087002A0881006430A6000030A70001302F
:103D18009331C3239E317C0886008701011321005B
:103D28006908033E860001308700811CA12E6808BF
:103D3800223E86000230870001156808223E860070
:103D4800023087000114080021006908860001304C
:103D5800870001180800690A8600013087000130D1
:103D6800810741310318810A690A860001308700FA
:103D7800403F963A031DC22E413F003A031D0800FA
:103D8800690A8600013087000030C03FC13F6908DA
:103D980086000130870001140130A43189249E3146
:103DA8000130A531AB259E3132302000A60000300D
:103DB800A70003309331C3239E3121006908033ED5
:103DC80086000130870001140130A73187279E3112
:103DD8002000A201A20A01309931A7210800200081
:103DE800A5002508A531FC259E3120006C08860019
:103DF80001308700811E08006C08860001308700AA
:103E080081106C0886000130870081116C088600DB
:103E18000130870001126C08860001308700011309
:103E28000330A4006C08023E860001308700240895
:103E380081006C08063E8600013087000108A40056
:103E48006C08043E860001308700240881002100A8
:103E580039088600870101142000A001A00A25085E
:103E68009A318B229E312000A201A20A25089031A6
:103E780083209E312000A2012508A5315C259E31B2
:103E88002000A2012508A5314D2508002000A40026
:103E9800A301A30A2408FF3E890A542F0310A30D87
:103EA800FF3E031D522F2408A1006F080B3E860019
:103EB80001308700210881002408143E6F07A10003
:103EC80021088600013087000108A2006F08093E1A
:103ED8008600013087002208810024081A3E6F07F7
:103EE800A10021088600013087000108A2006F08A0
:103EF800113E86000130870022088100200803193E
:103F0800952F6F080F3E86000130870001082304B3
:103F1800A1006F080F3E860001308700210881004C
:103F280008006F080F3E860001308700230901054D
:103F3800A1006F080F3E860001308700210881002C
:103F480008002000DB000030DC00E030DD004230FB
:103F5800DE000030AE00C830AF004230B0005C0870
:103F6800B1005D08B2005E08B3008931B7219F3106
:103F780020002E08DC002F08DD003008DE005B087A
:103F8800D900DA01D909DA09D90A0319DA0A59086C
:103F9800643EA80000305A3DA900983183209F3123
:103FA80020002808B1002908B2002A08B3005C08DC
:103FB800AE005D08AF005E08B0008A3160229F3114
:103FC80020002E08C1002F08C2003008C3000030AE
:103FD800BE007030BF004130C0008B31DD239F31FF
:103FE80020003E08CB003F08CC004008CD009531AA
:083FF800382520004B080800E9
:10478600A531BB2508008D31CF250800A431AA2408
:1047960008003A30A5316B2508003B30A5316B2562
:1047A60008003630A5316B2508000130A4310724F6
:1047B600080001309531BF25080024000D100B16A6
:1047C6000B178B170800FE0012001E00FE0BE72BCE
:1047D6000034640080010131890BED2B0034E13097
:1047E6002000A00020082100B90008007D088600EE
:1047F60001308700010E01390800F23021009E00C9
:10480600C03022009700080015302000A0002008C4
:104816002100C00008000130A4315D24A43102301B
:10482600A4315D240800013094313A24A4310230C9
:1048360094313A2408007B08860001308700010C79
:10484600890C013908002000A400A201A20A24084C
:10485600903183200800013086315026A431023081
:10486600863150260800553023009600AA3096005F
:1048760095140000000008002000A0008B10201CEA
:10488600462C0B1608000B120800F2007208013ABB
:10489600031D0800E430F1007108FC0008004830F0
:1048A6002000A0002008F800780886000130870064
:1048B600011408002000A2002208A631A426210027
:1048C600380886008701011408002000A10021088D
:1048D600013A031D0800E430A0002008FC0008008F
:1048E6002000A0006E088600023087002008811094
:1048F600031D8114080001309431B324A431023021
:104906009431B324A431A731512708002000A00018
:104916007D0886000130870020080110031D011460
:104926000800A0302000A0002008EF00C030A00042
:1049360020082100E900080020006E0886000230E9
:104946008700010CA000A00C200C013908002030C3
:104956002000A0002008FD007D08860001308700A9
:1049660001160800F4007408A43148247C08860067
:10497600870173088110031D811408000B1E0800AF
:104986008B1C08008B100B12F301F30A0130A431C3
:10499600B52408003330A5316B25A431E83020005A
:1049A600A0000330A100993131210800230015131E
:1049B60030309200910115161515A43136242300C6
:1049C600151108000130A531EB25A4310230A531BF
:1049D600EB25A4316330A531EB25080001309B316E
:1049E600C523A43102309B31C523A43163309B31EA
:1049F600C5230800A0302000A2002208EE006E08A1
:104A060086000230870081159831C72008002400EF
:104A16000D110430270094000430950096018B1583
:104A26000B100B178B170800C4302000A0002008BD
:104A36002100EA009501A630200095008B168B1701
:104A4600080088310020A53124008D100130A431E2
:104A56002624A5310230A431262408002000A30014
:104A66002308A43168247C088600870120002208D8
:104A76008111031D811508002000A3002308A4311D
:104A860068247C0886008701200022080113031D84
:104A9600011708002000A3002308A6316226210082
:104AA6003C0886008701200022080110031D01141E
:104AB60008002000A3002308A6310F2620006D0859
:104AC60086000130870022080113031D0117080024
:104AD6002000A3000E122308A20022082100BF0016
:104AE60020000E19732DA631D32620000E160800BD
:104AF6002000A3002308A531FC2520006C08093EF0
:104B060086000130870022080110031D01140800E9
:104B16002000A3002308A531FC2520006C08093ECF
:104B260086000130870022088110031D81140800C9
:104B36002000A3002308A531FC2520006C080C3EAC
:104B460086000130870022080110031D01140800A9
:104B56002000A0006E0886000230870020080110A1
:104B6600031D01146E0886000230870081100800BC
:104B760066302000A0002008FB007B08860001307C
:104B8600870001147B0886000130870001150800A4
:104B96002000A3002308A531FC2520006C08093E4F
:104BA60086000130870022080111031D0115080047
:104BB6002000A3002308A531FC2520006C08093E2F
:104BC60086000130870022088111031D8115080027
:104BD6002000A40024089831A520A53121003B0817
:104BE6008600870101142000A20124089031832049
:104BF60008002000A1002108013A031D062E2E30D0
:104C0600A0002008EC002108023A031D08003B30F2
:104C1600A0002008EC0008002000A1002108013AAD
:104C2600031D1A2E5430A0002008ED0008002108AC
:104C3600023A031D08005D30A0002008ED000800C0
:104C46009A312A22A63199317D21A631A731C12771
:104C5600A631A331D023A631A331CC23A631A4316A
:104C6600CD24A631A331D42308002E302000E20043
:104C76006208F90001309C318624A6313B302000C1
:104C8600E2006208FA0002309C318624A631A33184
:104C9600F22308002000A1002108A0006E083A3E79
:104CA600860002308700200881002108A0006E08D7
:104CB600423E86000230870020088100080020005E
:104CC600A1002108013A031D6D2EE630A000200840
:104CD6002100BC0020002108023A031D0800E7302D
:104CE600A00020082100BC0008002000A101A201AC
:104CF600A20A7908860001308700011B882E7A08EF
:104D0600860001308700011FA2012208A0002008AA
:104D1600A100210808002000A300230821009D000F
:104D26002000200821009E009D149D18982E1C0826
:104D36002000A101A10721001B082000A001A00757
:104D460008002000A1002108013A031DB02ECB3037
:104D5600A00020082100B800080020002108023A1F
:104D6600031D0800D030A00020082100B80008006C
:104D7600783021009900A7311E27A631A5311725C5
:104D8600A631A4310024A631A331E023A631A531F2
:104D96000A2520302000A10021082100E800080093
:104DA6002000A10108302102031808002100BF1FBE
:104DB600DF2E20000E14E12E20000E108E1403109C
:104DC6002100BF0D20008E100130A0002008A10791
:104DD600D52E2000A4000E122408A30023082100CB
:104DE600BF0020000E19F42EA631D326A6312000CE
:104DF6002208A30023082100BF00A631D3262000E5
:104E06000E1608002000A200A301303023009200F5
:104E16002000220823009100151315141408200001
:104E2600A0002008A100230013082000A0002008ED
:104E3600A30023080800773021008C0007308D007E
:104E46000C308E0022008C0102308D008E01223043
:104E560023008C008D018E01773020008C000730F6
:104E66008D000C308E000800FF3020009500790878
:104E76008600013087000118452F79088600013029
:104E8600870001147A08860001308700011808009F
:104E96007A088600013087000114080021003908CD
:104EA60086008701011C0800390886008701011069
:104EB600A6317826A7310038031D08000030A4313A
:104EC600732421006808223E860002308700811480
:104ED60008002000A3000E122308C03EA2002208EC
:104EE6002100BF0020000E19752FA631D326A73149
:104EF6009831662020000E1621003F082000A200EF
:104F060022082100C30008002000A2000130A631BB
:104F16000F26A73120006D08860001308700220881
:104F26000110031D01140230A6310F2620006D0862
:104F360086000130870022080110031D01140800B5
:104F46002000A401A501201CAC2F2208A4072308D9
:104F5600A53D0130A235A30D890BAD2F0130A13639
:104F6600A00C890BB22F21082004031DA62F2508AB
:104F7600A101A1072408A001A00708002000A7019D
:104F8600083027020318080027085E3E8400983080
:104F96000318013E85000008A5002508A60026087E
:104FA600A5002508A2003E30A631EC26A731013027
:104FB6002000A5002508A707C32F63340234003458
:104FC600003400340034003400340034003400343B
:104FD6000034FF34FF34FF3400340034003400342E
:104FE6000034023400340034003400340034003419
:0A4FF60000340034003400340034AD
:020000040001F9
:04000E00E4F9FDFF15
:00000001FF
