:04000000803116280D
:100008007E14803120007F08F900A7316A278031EB
:1000180080315A208031A231552279082000FF0012
:100028007E10090080311828FA01FB01FC01FD014E
:10003800ED01EE01EF01A0308400003085004B3067
:10004800A131C821803120308400013085004E3034
:10005800A131C8218031BE308400013085001030C4
:10006800A131C8218031A03084000230850047309A
:10007800A131C821803142308400A6308500A030EB
:100088008600013087001E30A131C22180318F30B7
:100098008400A73085002030860002308700253094
:1000A800A131C2217E10200094310B2C8B1E080038
:1000B8000B1D0800A630200095000B117B08860058
:1000C80001308700011CB2280130F5007B08033E8F
:1000D8008600013087007508810721003A08023E32
:1000E800860087010108F500F601F509F609F50A09
:1000F8000319F60A7B08043E8600013087000108D0
:100108007507F70076080318760AF8007B08033E9F
:100118008600013087007808803A803C031D9628C5
:1001280077080102031CEE297B08033E8600013094
:10013800870081017B0886000130870001107B0859
:10014800073E86000130870001147B0886000130D5
:100158008700011FEE2920000D16EE297B08073EB7
:10016800860001308700011CB9297B08073E8600FC
:100178000130870001107B08860001308700811C50
:10018800B9290130F5007B0A86000130870075081F
:1001980081077B0A8600013087007B08023E8400C5
:1001A8000130850000080102031CB9297B0A86007A
:1001B8000130870081017B08860001308700811D9E
:1001C8001B297B08860001308700011A02297B0859
:1001D800043E8600013087003D300102031CFC28E4
:1001E8007B08043E86000130870001308102B9296E
:1001F8007B088600013087000116B9297B08043E78
:100208008600013087007830010203181529013073
:10021800F5007B08043E86000130870075088107D9
:10022800B9297B088600013087000112B9297B08AB
:10023800860001308700011D62297B08053E860083
:10024800013087007B08043E8400013085000008E7
:100258000102031837297B08043E86000130870015
:10026800013081024E297B08043E86000130870058
:100278007B08053E84000130850000080102031850
:100288004E290130F5007B08043E860001308700C6
:10029800750881077B08053E8600013087007B08CA
:1002A800043E84000130850000080106031DB929B9
:1002B8007B0886000130870001117D297B088600B4
:1002C80001308700811E83297B08043E86000130A7
:1002D8008700013081027B08053E860001308700D7
:1002E8007B08043E84000130850000080102031CDD
:1002F800B9297B088600013087008110B9290130AF
:10030800F5007B08043E86000130870075088107E8
:100318007B08043E8600013087007B08063E840087
:100328000130850000080102031CB9297B088600FA
:100338000130870081107B08860001308700011397
:100348007B080C3E860001308700011421003A0822
:1003580086008701811520008E13F201F20AF3014D
:10036800F30A013099311C21803120000D1EEE293D
:100378000130F5007B08083E8600013087007508CB
:1003880081077B08043E8600013087000108F500DC
:10039800F601F509F609F50A0319F60A7508783E13
:1003A800F7000030763DF8007B08083E86000130F3
:1003B80087007808803A803C031DE4297708010209
:1003C800031CEE297B08083E860001308700810166
:1003D80020000D127C08860001308700011C3E2A8F
:1003E8000130F5007C08033E86000130870075085F
:1003F800810721003A08023E860087010108F500BE
:10040800F601F509F609F50A0319F60A7C08043E0F
:1004180086000130870001087507F7007608031881
:10042800760AF8007C08033E8600013087007808C9
:10043800803A803C031D222A77080102031C7C2B8A
:100448007C08033E86000130870081017C08860015
:100458000130870001107C08073E860001308700C4
:1004680001147C08860001308700011F7C2B2000C6
:100478008C177C2B7C08073E860001308700011C06
:10048800472B7C08073E86000130870001107C0856
:10049800860001308700811C472B0130F5007C0A5B
:1004A800860001308700750881077C0A86000130C4
:1004B80087007C08023E84000130850000080102A4
:1004C800031C472B7C0A86000130870081017C08C9
:1004D800860001308700811DA72A7C08860001302C
:1004E8008700011A8E2A7C08043E860001308700A6
:1004F8003D300102031C882A7C08043E8600013036
:10050800870001308102472B7C0886000130870074
:100518000116472B7C08043E86000130870078309E
:1005280001020318A12A0130F5007C08043E860068
:100538000130870075088107472B7C088600013049
:1005480087000112472B7C08860001308700011DB7
:10055800EE2A7C08053E8600013087007C08043EB0
:10056800840001308500000801020318C32A7C08B2
:10057800043E86000130870001308102DA2A7C08B7
:10058800043E8600013087007C08053E8400013067
:100598008500000801020318DA2A0130F5007C08FA
:1005A800043E860001308700750881077C08053EF7
:1005B8008600013087007C08043E840001308500F5
:1005C80000080106031D472B7C08860001308700C0
:1005D8000111092B7C08860001308700811E0F2B32
:1005E8007C08043E860001308700013081027C08C7
:1005F800053E8600013087007C08043E84000130F7
:10060800850000080102031C472B7C088600013086
:1006180087008110472B0130F5007C08043E8600D6
:1006280001308700750881077C08043E8600013088
:1006380087007C08063E840001308500000801021E
:10064800031C472B7C0886000130870081107C083A
:1006580086000130870001137C080C3E86000130BB
:100668008700011421003A088600870181152000BF
:100678008C110230F5007508F200F301F30A01301D
:1006880099311C21803120008C1F7C2B0130F50012
:100698007C08083E860001308700750881077C08C1
:1006A800043E8600013087000108F500F601F509CF
:1006B800F609F50A0319F60A7508783EF7000030BE
:1006C800763DF8007C08083E8600013087007808EF
:1006D800803A803C031D722B77080102031C7C2B97
:1006E8007C08083E860001308700810120008C13B9
:1006F80021006E0A86008701013081074131031805
:10070800810A6E0A86008701403FC83A031D8E2B76
:10071800413F003A031D9B2B6E0A8600870100307B
:10072800C03FC13F6D08860001308700811437083B
:10073800860001308700811C0800370A86000130D6
:1007480087000130810741310318810A0800200021
:10075800B3003308A2313422833120006F088600A9
:1007680002308700811EDF2B6F08033E86000230AF
:1007780087000130810741310318810A6F08033E61
:10078800860002308700403FAF00413FB000033091
:100798003002E83003192F02031C08006F08033EDB
:1007A8008600023087000030C03FC13FAC013308EB
:1007B80092319E22080020006F08860002308700D0
:1007C800011E062E6F08453E8600023087006F081E
:1007D800443E8400023085000008AF006F08433EA5
:1007E80084000230850000082F070107B0006F0859
:1007F8003E3E860002308700300881006F0A86007E
:10080800023087000130810741310318810A6F0ADD
:10081800860002308700403FAF00413FB000003003
:100828003002043003192F02031C08006F0A8600E7
:10083800023087000030C03FC13F6F088600023099
:10084800870001120330A0000030A1006F08103E9D
:100858008600023087006F080C3E84000230850055
:10086800003FAF00013FB0006F080E3E8400023029
:100878008500003F2F07B100013F303DB200403FE7
:100888003107A200413F323DA3009A31062283314D
:1008980020006F082E3E8600023087002008C03FE7
:1008A8002108C13F0330A0000030A1006F08223E9C
:1008B8008600023087006F081E3E840002308500E3
:1008C800003FAF00013FB0006F08203E84000230B7
:1008D8008500003F2F07B100013F303DB200403F87
:1008E8003107A200413F323DA3009A3106228331ED
:1008F80020006F08303E8600023087002008C03F85
:100908002108C13F6F082E3E860002308700403F15
:10091800AF00413FB0006F08303E860002308700CC
:10092800403FB100413FB20030083202031D9E2C07
:100938002F0831020318012E6F082E3E8600023060
:1009480087006F08303E840002308500003FAF000A
:10095800013FB000AF09B009AF0A0319B00A403F20
:100968002F07B100413F303DB2006F082C3E860092
:10097800023087003108C03F3208C13F6F083A3E55
:100988008600023087000A30010203181A2D013050
:10099800AF006F083A3E8600023087002F088107B3
:1009A8006F083A3E8600023087000108013A031DAD
:1009B800E62C6F08363E860002308700FF30C03FC5
:1009C8000030C13F6F083A3E8600023087000108B8
:1009D800033A031D1A2D6F083E3E86000230870039
:1009E8000108013A031D022D6F08363E86000230C9
:1009F8008700FF30C03FFF30C13F1A2D6F08063E09
:100A0800860002308700403FAF00413FB0002F080A
:100A1800FF3EB100FF30303DB2006F08363E860021
:100A2800023087003108C03F3208C13F6F08363EA8
:100A3800860002308700403FAF00413FB0006F089A
:100A48002C3E860002308700403FB100413FB20093
:100A580030083202031D322D2F083102031C532D9A
:100A68000130AF006F083C3E8600023087002F0837
:100A780081076F083C3E8600023087000330010280
:100A8800031C012E6F083C3E86000230870081015E
:100A9800AC01AC0A330892319E228331012E20002A
:100AA8006F083C3E86000230870081016F083A3E9D
:100AB80086000230870006300102031C012E6F08F1
:100AC800423E860002308700063001020318752D69
:100AD8000130AF006F08423E8600023087002F08C1
:100AE80081076F08423E860002308700023001020B
:100AF800031CC82D6F08463E860002308700011C83
:100B0800B62D6F08463E86000230870001106F0838
:100B18002C3E8600023087006F08063E84000230B3
:100B28008500403F803F413F813F6F083E3E860041
:100B3800023087000108AF00B0012F08A00030087C
:100B4800A100FF30A200FF30A300A6312426833184
:100B580020006F08363E8600023087002008C03F1C
:100B68002108C13F6F088600023087008115A20165
:100B7800A20A0130A431232483312000A201A20A51
:100B88000230A4312324833120006F08463E8600BA
:100B980002308700811C012E6F08463E8600023015
:100BA800870081106F082C3E8600023087006F088E
:100BB800063E840002308500403F803F413F813F30
:100BC8006F083E3E8600023087000108AF00B00182
:100BD8002F08A0003008A100FF30A200FF30A300BA
:100BE800A6312426833120006F08363E8600023065
:100BF80087002008C03F2108C13F20003308A731E3
:100C08002427080020006F08860002308700811C16
:100C1800322E6F0886000230870001191D2E6F08DA
:100C280086000230870001156F08860002308700B1
:100C380081110130A231B5228331003A031908002D
:100C48000130983166208331003A031908002000EA
:100C58006F08860002308700011608006F088600BA
:100C680002308700011D08006F08860002308700E7
:100C780001116F0886000230870081156F083C3E1D
:100C880086000230870081016F083A3E86000230F4
:100C9800870081016F08063E860002308700003019
:100CA800C03FC13F6F083F3E860002308700810188
:100CB8006F08463E86000230870001106F08463EE6
:100CC80086000230870081100130A7312427833144
:100CD8002000A201A20A0130A4312324833120007C
:100CE800A201A20A0230A431232408002000AF0088
:100CF8002F08A431AA24863120002F08013A031DA9
:100D0800912EAD01AD0A0C1C8D188B2EAD016E080D
:100D18008600013087002D08A02E2F08023A031DF7
:100D2800A32EAE01AE0A0C1F0C1A9B2EAE016E0844
:100D38008600013087002E088110031D81146E087B
:100D4800860001308700011C08006E08860001300B
:100D58008700811C7A2F6E088600013087000119F0
:100D6800E12E0130AB006E08023E8600013087009C
:100D78002B0881076E08023E860001308700053087
:100D88000102031C08006E08023E8600013087003D
:100D980081016E088600013087000115A601A60AA8
:100DA8006430A7000030A80001309531AB258631AA
:100DB80020002F089C319624080020006E08860029
:100DC800013087008119132F6E08033E8600013019
:100DD80087000130810741310318810A6E08033EFC
:100DE800860001308700403FAB00413FAC00003037
:100DF8002C02963003192B02031C08006E08033ED0
:100E08008600013087000030C03FC13F6E08860071
:100E18000130870081152F089831742008002000C0
:100E28006E08860001308700011A472F6E08053EBC
:100E38008600013087000130810741310318810A9B
:100E48006E08053E860001308700403FAB00413FF9
:100E5800AC0000302C02963003192B02031C08004A
:100E68006E08053E8600013087000030C03FC13F54
:100E78006E088600013087000116A201A20A01301F
:100E8800A3319523080020006E08860001308700F2
:100E9800811A08006E08073E86000130870001307D
:100EA800810741310318810A6E08073E8600013028
:100EB8008700403FAB00413FAC0001302C022C3092
:100EC80003192B02031C08006E08073E8600013038
:100ED80087000030C03FC13F6E08860001308700A0
:100EE8008116A2010130A3319523080020006E0865
:100EF800860001308700011D08000130AB006E0834
:100F0800023E8600013087002B0881076E08023EEA
:100F180086000130870005300102031C08006E08B6
:100F2800023E86000130870081016E08860001308C
:100F3800870001116E08033E8600013087000030EB
:100F4800C03FC13F6E0886000130870081116E08DE
:100F5800053E8600013087000030C03FC13F6E0863
:100F680086000130870001126E08073E86000130B6
:100F780087000030C03FC13F6E08860001308700FF
:100F88008112A2010130A3319523863120002F0858
:100F98009231292208002300151330309200940161
:100FA8001512951615152000A101203021020318ED
:100FB800F92F2108230091002000210821006B0748
:100FC8002000A000200886000230870001082300C6
:100FD8009300A2310A22873101302000A0002008A6
:100FE800A10720302102031CDD2F23009512A23116
:100FF8000A222300151108002000A0008B10201CD5
:1010080007280B1608000B12080020004B08CF0019
:101018004C08D0004D08D1000310500D510DD200DE
:101028005208D800D808031D22280030CE0000300E
:10103800CD000030CC000030CB0008004B08CF00BA
:101048004C08D0004D08D1001730D136D00CCF0C49
:10105800890B29284F08D2005208D300CC17FF303B
:10106800CB05FF30CC050030CD054B08D4004C082B
:10107800D5004D08D600D7018E30D802D81F602879
:101088005808803A8F3E031852280030CE000030AE
:10109800CD000030CC000030CB0008000130D7363E
:1010A800D60CD50CD40C890B53280130CF004F082F
:1010B800D80703197928522818305802031C7628B3
:1010C8000030CE000030CD000030CC000030CB0026
:1010D80008000130D435D50DD60DD70D890B6E28F3
:1010E8000130D802D808031D6D2853080319872832
:1010F800D409D509D609D709D40A0319D50A031979
:10110800D60A0319D70A5708CE005608CD00550845
:10111800CC005408CB0008002000AA00AC01AB01A9
:101128002A08A2313422883120006F088600023054
:101138008700011E0800C030A5002508A00024086B
:10114800A5311125883120006F08323E8600023013
:1011580087002008C03F2108C13FAC0105302C02A0
:101168000318EF286F08323E860002308700403FA0
:10117800A500413FA6002C35083E6F07A7002708A9
:10118800860002308700403FA800413FA90026089A
:101198002902031DD128250828020318E7286F080B
:1011A800323E8600023087002C35083E6F07A500C6
:1011B8002508840002308500403F803F413F813F41
:1011C800AB01AB0AEF280130A5002508AC070530B4
:1011D8002C02031CB628AB08031D0800AC0105301F
:1011E8002C02031808002C351A3E6F07A5002508A5
:1011F800860002308700403FA600413FA7006F08E5
:10120800323E860002308700403FA800413FA900D7
:1012180027082902031D122926082802031826294F
:101228006F08323E8600023087002C351A3E6F0761
:10123800A5002508840002308500403F803F413FDB
:10124800813F08000130A5002508AC07F3282000DD
:10125800AD002D08A431FB24893121003008803AE3
:10126800031D53292000A301A30A210031082000EF
:10127800AB002B08A4002D089A31FA2289312100ED
:1012880031082000AB002D081A3E21006C07200011
:10129800AC002C088600013087002B088100210053
:1012A8003F0886008701011880293F0886008701CA
:1012B80001142000A201A20A2D08A3311D2389319F
:1012C8002000A201A20A2D08A331E32389312000BE
:1012D800A201A20A2D08A331D323893121003F0896
:1012E800860087010030011801302000A0002D0879
:1012F8009031D8208931B92921003008803A031D5E
:101308008D292000A001A00A2D089031D82089310C
:10131800B92921003F088600870101102000A20199
:101328002D08A3311D2389312000A201A20A2D080E
:10133800A331E323893121003F088600870100306B
:10134800011801302000A2002D08A331D3238931D0
:101358002000A0012D089031D82089312000A30158
:10136800A4012D089A31FA2289312000A601A60A83
:101378006430A7000030A80001309531AB258931D1
:1013880001309A317A22080020003108B40032086E
:10139800B5003308B6000310350D360DB700370811
:1013A800BC00BC08031DDF290030AE000030AF00D0
:1013B8000030B00008002E08B4002F08B50030082F
:1013C800B6000310350D360DB7003708BD00BD084F
:1013D800031DF5290030AE000030AF000030B0002A
:1013E80008000030B9000030BA000030BB00893076
:1013F8003D07B4003408BC023108B4003208B50017
:101408003308B6001030B636B50CB40C890B072A71
:101418003408B7003708BD002E08B4002F08B500FF
:101428003008B6001030B636B50CB40C890B172A44
:101438003408B7003708BD068030B4003408BD054D
:10144800B217FF30B105FF30B2050030B305AF1752
:10145800FF30AE05FF30AF050030B0051830B400DE
:101468003408B8000130B935BA0DBB0D890B372ADD
:1014780030083302031D462A2F083202031D462A6C
:101488002E083102031C4F2A2E08B1022F08B23B46
:101498003008B33B39140130B135B20DB30D890BA7
:1014A800502A0130B802031D362A3908A0003A082C
:1014B800A1003B08A2003C08B4003408A3003D0882
:1014C800B5003508A4009E31D72620002008AE00BC
:1014D8002108AF002208B000080020002E08B40040
:1014E8002F08B5003008B6000310350D360DB700CB
:1014F8003708B800B808031D882A0030AE0000304D
:10150800AF000030B00008003108B4003208B50060
:101518003308B6000310350D360DB7003708BD0087
:10152800BD08031D9E2A0030AE000030AF00003019
:10153800B00008003D087B3EB4003408B8072E0808
:10154800B4002F08B5003008B6001030B636B50C18
:10155800B40C890BAA2A3408B7003708BD00310833
:10156800B4003208B5003308B6001030B636B50CF2
:10157800B40C890BBA2A3408B7003708BD06803086
:10158800B4003408BD05AF17B217FF30B105FF30FE
:10159800B2050030B3050030B9000030BA000030A1
:1015A800BB000730B4003408BC002E1CE12A310807
:1015B800B9073208BA3D3308BB3D0130B036AF0C2D
:1015C800AE0C890BE22A0130B135B20DB30D890B8F
:1015D800E82A0130BC02031DD92A0930B4003408B6
:1015E800BC002E1CFD2A3108B9073208BA3D330861
:1015F800BB3D0130B036AF0CAE0C890BFE2A013072
:10160800BB36BA0CB90C890B042B0130BC02031D84
:10161800F52A3908A0003A08A1003B08A2003808BA
:10162800B4003408A3003D08B5003508A4009E3175
:10163800D72620002008AE002108AF002208B000FD
:1016480008001F30A531A0258B31AA3A031D962B1F
:101658000030A531A0258B312000DD0021006C0869
:101668000C3E86000130870020005D0881000130B3
:10167800A531A0258B312000DD0021006C080D3E2E
:1016880086000130870020005D0881000230A53106
:10169800A0258B312000DD0021006C080E3E86005D
:1016A8000130870020005D0881003C309C3108240F
:1016B8008B312000DD005D08DE005E08DD002100C2
:1016C8006C08153E86000130870020005D08810007
:1016D8005E08DD0021006C08163E86000130870098
:1016E80020005D0881005E08DD0021006C08173EBF
:1016F80086000130870020005D0881001E30A5317A
:10170800A0258B31013A031D080021006D088600D1
:101718000130870081126D08033E86000130870082
:10172800811008003C309C3108248B312000DD00FA
:101738005D08DE005E08DD0021006B08033E8600C0
:101748000230870020005D0881005E08DD0021006E
:101758006B08043E86000230870020005D08810087
:101768005E08DD0021006B08053E86000230870018
:1017780020005D0881005E08DD0021006C08153E30
:1017880086000130870020005D0881005E08DD00CA
:1017980021006C08163E86000130870020005D0895
:1017A80081005E08DD0021006C08173E86000130CC
:1017B800870020005D0881008B138731CF278B17A6
:1017C80008002000A6002608A23161228B312000E3
:1017D8002608013A031DF92B21003708860001303D
:1017E8008700811220008D19811621003708860094
:1017F80001308700811C08003708063E860001304A
:101808008700403F2000A200413FA3002100370A83
:10181800860001308700403F2000A400413FA5001A
:1018280023082502031D1A2C22082402031C080081
:101838002100370A8600013087000030C03FC13FD1
:101848003708860001308700811A982C3708033E34
:101858008600013087008108031D902C3708860018
:1018680001308700811D5E2C370886000130870013
:1018780081113708043E86000130870001082000E6
:10188800A20021003708033E8600013087002000AF
:101898002208810021003708083E860001308700B1
:1018A8003708063E840001308500403F803F413FB5
:1018B800813F08003708860001308700011E8A2C06
:1018C800370886000130870001123708053E860078
:1018D8000130870001082000A20021003708033EDC
:1018E8008600013087002000220881002100370887
:1018F8000A3E8600013087003708063E8400013022
:101908008500403F803F413F813F080037088600FF
:1019180001308700811008003708860001308700F1
:10192800811620008D150800210037088600013037
:101938008700811220002608013A03198D11210021
:101948003708033E86000130870001308102080015
:1019580020003E08C4003F08C5004008C600031028
:10196800450D460DC7004708CA004108C400420893
:10197800C5004308C6000310450D460DC7004708BB
:10198800C9004A080319D42C49084A020318DB2C59
:101998004A03FF3A4907C40019304402031CDB2CF0
:1019A8004108BE004208BF004308C00008004908BB
:1019B800031908004A0849020318EA2C4903FF3AA8
:1019C8004A07C40019304402031808000630C4004E
:1019D8004408C800C01BC817C31B4817BF17FF30EF
:1019E800BE05FF30BF050030C005C217FF30C10576
:1019F800FF30C2050030C30549084A020318262DE6
:101A08000130C135C20DC30D890B052D0130C90246
:101A180049084A060319212D0130C8024808073928
:101A28000319212D042D0130C036BF0CBE0C890BC3
:101A3800182D0130C4004408CA074A08490603198A
:101A48004B2D172D4A08490203184B2D0130BE357E
:101A5800BF0DC00D890B2B2D0130CA0249084A065B
:101A68000319472D0130C802480807390319472DC3
:101A78002A2D0130C336C20CC10C890B3E2D013012
:101A8800C4004408C9074A084906031D3D2DC81F5C
:101A98005D2DFF30BE06FF30BF06FF30C0060130A7
:101AA800BE07003003180130BF07003003180130AB
:101AB800C007481F6F2DFF30C106FF30C206FF3038
:101AC800C3060130C107003003180130C2070030D7
:101AD80003180130C307C8013E08C1073F08C23DCB
:101AE8004008C33DC31F8A2DFF30C106FF30C20620
:101AF800FF30C3060130C107003003180130C207A8
:101B0800003003180130C307C801C80A4108A00003
:101B18004208A1004308A2004A08C4004408A300E0
:101B28004808C5004508A4009E31D7262000200893
:101B3800BE002108BF002208C00008002000B10034
:101B48003108A131D5218D3121003D0886000130B1
:101B58008700011C08003D088600013087008119B4
:101B6800FD2D3D08063E86000130870001308107C3
:101B780041310318810A3D08063E8600013087007E
:101B8800403F2000AF00413FB00002303002BC307F
:101B980003192F02031C08000130A43133248D31AE
:101BA800003A0319F22D0130A231B5228D31003AE5
:101BB8000319F22D21003D08063E860001308700FA
:101BC8000030C03FC13F3D088600013087008115C5
:101BD8003D088600013087000111080021003D08FA
:101BE800063E860001308700BC30C03F0230C13F4E
:101BF80008003D08063E8600013087000130810755
:101C080041310318810A3D08063E860001308700ED
:101C1800403F2000AF00413FB000003030020230AA
:101C280003192F02031C080021003D08063E860008
:101C3800013087000030C03FC13F3D0886000130B9
:101C4800870081113D08860001308700811C6F2EB6
:101C58003D0A860001308700403F2000AF00413F29
:101C6800B00001303002913003192F020318B32E4F
:101C780021003D0A860001308700403F2000AF0068
:101C8800413FB00000303002C83003192F02031C56
:101C9800B32E0130AF0021003D08053E860001301B
:101CA800870020002F08810721003D08053E860097
:101CB8000130870002300102031CBA2E3D08053EA0
:101CC80086000130870081012000AC01013090318D
:101CD80070208D31BA2E3D0A860001308700403FC2
:101CE8002000AF00413FB0000130300290300319AE
:101CF8002F020318902E21003D0A8600013087002C
:101D0800403F2000AF00413FB00000303002D330E8
:101D180003192F020318B32E0130AF0021003D082C
:101D2800053E86000130870020002F08810721002A
:101D38003D08053E86000130870002300102031C81
:101D4800BA2E3D08053E860001308700810120003B
:101D5800AC01AC0A0130903170208D31BA2E2100CF
:101D68003D08053E860001308700810121003D08BD
:101D78008600013087008118C62E3D088600013094
:101D8800870001153D0A8600013087000030C03FFA
:101D9800C13F08002000B2003208A131BC218E31B9
:101DA8007D08860001308700011C08007D08860038
:101DB800013087000119222F7D0A86000130870033
:101DC8000130810741310318810A7D0A86000130FC
:101DD8008700403F2000AF00413FB0000130300293
:101DE800F43003192F02031C08000130A4313324F6
:101DF8008E31003A0319192F0130983166208E313F
:101E0800003A0319192F7D0A860001308700003037
:101E1800C03FC13F7D0886000130870001157D085D
:101E2800860001308700011208007D0A8600013013
:101E38008700E830C03F0330C13F08007D0A8600B4
:101E4800013087000130810741310318810A7D0A7A
:101E5800860001308700403F2000AF00413FB000BE
:101E680000303002043003192F02031C08007D0AD9
:101E78008600013087000030C03FC13F7D088600E2
:101E88000130870001117D08083E86000130870077
:101E98007D08043E840001308500403F803F413F7B
:101EA800813F7D08860001308700811C892F7D08CD
:101EB800043E860001308700403FAF00413FB0003C
:101EC800023030021C3003192F02031CB92F0130D5
:101ED800AF007D08033E8600013087002F08810788
:101EE8007D08033E86000130870003300102031C91
:101EF800BF2F7D08033E8600013087008101AC01B9
:101F0800013090310C208E31BF2F7D08043E8600B1
:101F180001308700403F2000AF00413FB000013052
:101F28003002DC3003192F020318B92F0130AF003B
:101F38007D08033E8600013087002F0881077D0851
:101F4800033E86000130870003300102031CBF2FC7
:101F58007D08033E8600013087008101AC01AC0A90
:101F6800013090310C208E31BF2F7D08033E860052
:101F78000130870081017D088600013087008118C3
:101F8800CA2F7D0886000130870001167D08043EAF
:101F9800860001308700403F2000AF00413FB0007D
:101FA8003008B10021006C08183E86000130870017
:101FB8002000310881007D08043E8600013087003A
:101FC8000108AF0021006C08193E86000130870027
:101FD80020002F0881007D08063E8600013087001A
:101FE8000030C03FC13F7D08083E860001308700B1
:101FF8000030C03FC13F08002000A2002208A231E3
:10200800852221003A0886008701010C0139080061
:102018002000AE002E08A131BC21903120002C08F0
:1020280003193F287D088600013087008114A2012A
:10203800A20A0130A331A42390319131B621903105
:102048000B302000AD002D08A20063309E317926A8
:1020580090312000A2010130A33159239031200092
:10206800A2010230A331592390312000A50101308B
:10207800A731DA2708002000AC08031D08007D08F6
:102088008600013087008110A2010130A331A4230A
:1020980090317D0886000130870001160A30200043
:1020A800AD002D08A20063309E31792690312000C2
:1020B800A201A20A0130A331592390312000A201C4
:1020C800A20A0230A331592390312000A501A50AA4
:1020D8000130A731DA2708002000AE002E08A13110
:1020E800D521903120002C08013A031DA628210093
:1020F8003D0886000130870081142000A201A20A51
:102108000130A331772390319131B62190310B30D2
:102118002000AD002D08A20063309E317926903151
:102128002000A2010130A331592390312000A201DF
:102138000230A331592390312000A5010130A73185
:10214800DA27080021003D08860001308700811049
:102158003D0886000130870001152000A2010130EA
:10216800A331772390319131B62190310A30200084
:10217800AD002D08A20063309E31792690312000F1
:10218800A201A20A0130A331592390312000A201F3
:10219800A20A0230A331592390312000A501A50AD3
:1021A8000130A731DA2708002000A400A301A30A00
:1021B8002408FF3E890AE2280310A30DFF3E031DF1
:1021C800E0282408A10021006C080B3E860001309D
:1021D80087002000210881002408143E21006C0794
:1021E8002000A10021088600013087000108A20014
:1021F80021006C08093E8600013087002000220873
:10220800810024081A3E21006C072000A100210843
:102218008600013087000108A20021006C08113EE9
:102228008600013087002000220881002008031959
:10223800312921006C080F3E860001308700010813
:1022480020002304A10021006C080F3E8600013005
:102258008700200021088100080021006C080F3E3B
:10226800860001308700200023090105A100210014
:102278006C080F3E8600013087002000210881008D
:1022880008002000A9002908A131BC2191317D084E
:10229800860001308700011D0800F0302000A500ED
:1022A8002508A0002408A531112591317D080A3E92
:1022B80086000130870020002008C03F2108C13F68
:1022C8007D080A3E860001308700403FA500413F57
:1022D800A6007D08063E860001308700403FA70023
:1022E800413FA80026082802031D7C29250827024B
:1022F80003188D297D080A3E8600013087007D0875
:10230800063E840001308500403F803F413F813FC9
:1023180008007D080A3E860001308700403FA5007E
:10232800413FA6007D08083E860001308700403FF7
:10233800A700413FA80026082802031DA529250853
:102348002702031808007D080A3E8600013087002E
:102358007D08083E840001308500403F803F413FB2
:10236800813F08000130903100209131003A031973
:10237800D129A6317F269131003A0319F2290A3072
:102388002000AB002B08A6002C30A7000130A800C5
:1023980001309531AB259131F2290130A231C122AA
:1023A8009131003A0319EB2905302000AB002B08C6
:1023B800A6002C30A7000130A80001309531AB25CC
:1023C800913121003A0A860087010108F729013076
:1023D800A231DA229131003A0319FA2901309D31EC
:1023E800C925913102309D31C92591312000A201C2
:1023F80001309831C42091312000A2010230983177
:10240800C420913121006D08033E86000130870009
:10241800011808006D080E3E860001308700011083
:102428006D080E3E86000130870081106D080E3E53
:1024380086000130870001156D08083E86000130CE
:1024480087000030C03FC13F08002000A9006E0887
:10245800860001308700811F08006E088600013061
:10246800870081136E08860001308700011F792AD2
:102478006E0A860001308700011C08006E0A86007B
:10248800013087000110A201A20A2908A4315324AF
:1024980092312000A2012908A4314324923120005E
:1024A80029081A3E21006C072000A700270886008B
:1024B800013087000108A80021006C08113E860041
:1024C800013087002000280881006E08860001304E
:1024D80087000030011B0130A00029089031D82066
:1024E800923101309A317A2208002000A201A20A12
:1024F8002908A331E32392312000A2012908A3313E
:10250800D323923120006E08860001308700003006
:10251800011B0130A00029089031D82092312000F9
:10252800A301A40129089A31FA22923101309A3183
:102538007A2208002000AE002E08A23134229231FF
:1025480020002C080319DE2AA201A20A0130A331B7
:102558004A23923120006F088600023087008116D6
:102568006F08053E8600023087008101810A6F08E6
:1025780086000230870081119131B62192310B30EB
:102588002000AD002D08A20063309E3179269231DB
:102598002000A2010130A331592392312000A20169
:1025A8000230A331592392312000A5010130A7310F
:1025B800DA2708002000AC08031D0800A20101303A
:1025C800A3314A23923120006F0886000230870029
:1025D80081126F08053E86000230870081016F086E
:1025E80086000230870081150A30AD002D08A20050
:1025F80063309E31792692312000A201A20A01306F
:10260800A331592392312000A201A20A0230A3313A
:10261800592392312000A501A50A0130A731DA27F4
:1026280008002000AD002D08A53127259331210091
:10263800390886008701811C08003908023E860097
:1026480087010130810741310318810A3908023EA8
:1026580086008701403F2000AB00413FAC001530A9
:102668002C02183003192B02031C0800210039081A
:10267800023E860087010030C03FC13F0130200084
:10268800AB0021003908043E8600870120002B0892
:10269800810721003908043E86008701390A840031
:1026A800850100080102031C08003908043E860061
:1026B8008701810139088600870181102000A20165
:1026C8002D08A3311D2393312000A2012D08A33129
:1026D8000E2393312000A0012D089031D82093318A
:1026E8002000A201A20A2D08A331E3239331200080
:1026F800A2012D08A331D323933101309A317A22D4
:1027080093312000A601A60A6430A7000030A80073
:1027180001309531AB2508002000A60120302602A3
:102728000318AF2B2608A531A02593312000A4005B
:10273800260821006B072000A50025088600023026
:102748008700240881000130A4002408A60720304F
:102758002602031C962B21006C080C3E86000130D3
:10276800870001082000A40021006B0886000230C1
:10277800870020002408810021006C080D3E860097
:102788000130870001082000A40021006B0A8600A0
:102798000230870020002408810021006C080E3ECA
:1027A80086000130870001082000A40021006B0882
:1027B800023E8600023087002000240881002100A4
:1027C8006B08223E860002308700011D032C6B082F
:1027D800223E86000230870001116D088600013014
:1027E800870081126D08033E860001308700811042
:1027F8006B081E3E8600023087008101810A8B1318
:10280800A231912293318731CF278B170800A53148
:102818003E259431A531562594318B3125239431A9
:10282800A2319D229431A1317E219431A131AA2176
:102838009431A13192219431A1319A219431A1315D
:10284800EA219431A43185249431A33101239431B0
:10285800A131A2219431A431E624943121006D08DC
:10286800860001308700011C572C05302000EC0041
:102878006C08A40001308831902094310930200080
:10288800EC006C08A40001309131452194311130DD
:102898002000EC006C08A40001309D312C259431F7
:1028A800A1318221943121006D0886000130870012
:1028B800811C322C6D088600013087008110973109
:1028C8006927943121006D08860001308700011CBA
:1028D800322C9B31C3239431A231A9229431A131E6
:1028E800AE219431A13196219431A1319E219431A8
:1028F800A2313F229431A23102229431A131A62182
:102908009431A131F2219431322C2000E200E1010E
:10291800E10A6208A4319724943120006D08093E29
:10292800860001308700811CDF2C6208013A031DF4
:102938009F2C7C08A42C6208023A031DAA2C7B0851
:102948000C3E860001308700011CE1016108031973
:1029580008006D08093E860001308700011CCD2C57
:102968006D08093E86000130870081106D080C3E15
:102978008600013087000110A601A60A6208963178
:10298800D22620006D080C3E860001308700011019
:1029980008006D08093E8600013087008110A601F5
:1029A80062089631D22620006D080C3E8600013060
:1029B8008700011008006D08093E86000130870075
:1029C800811D0800A631BF26943100380319EE2C6A
:1029D8002000080020006208A431972494312000C8
:1029E8006D08093E86000130870081116D08093E97
:1029F800860001308700011D132DDD01DD0A620804
:102A08009F31382794312000A601A60A6430A70018
:102A18000030A80001309531AB25200008002000C7
:102A2800DD0162089F313827200008002000EA00F5
:102A38006A08A2317922953121003E088600870173
:102A4800011C08002000EB010C1C8D182F2D0C1BFD
:102A58002F2D0C1E382D21003E0886008701011BF2
:102A6800382D2000EB01EB0A21003E088600870183
:102A780020006B088113031D811721003E08860082
:102A88008701811F4B2D01309831EF20080021006C
:102A98003E0886008701811C5F2D3E08860087015D
:102AA80081109F319C27953101309C31DF242030E3
:102AB80020008D06080021003E0886008701011DC0
:102AC800952D01309831EF20953121003E08860080
:102AD8008701811A8A2D01302000E90021003E0A71
:102AE8008600870120006908810721003E0A8600C8
:102AF80087010108193A031D08003E0A860087016C
:102B080081013E0886008701811608003E0886007C
:102B1800870181123E088600870101119B317F23BE
:102B2800080021003E0886008701811908003E0838
:102B38008600870181153630A331C323953134309F
:102B4800A331C323953101308831002008002000CB
:102B5800AA002A08A2316122953114302000A00071
:102B68000030A1002808A301A3072708A201A20793
:102B7800A6312426953120002108A801A80720089D
:102B8800A701A70721003708860001308700011C2C
:102B9800080037088600013087008118F52D3708AE
:102BA800860001308700811420002608A900210032
:102BB8003708033E8600013087002000290881007D
:102BC80021003708063E86000130870020002708CC
:102BD800C03F2808C13F2A08013A031D08008D1587
:102BE8000800210037088600013087008119192E56
:102BF8003708860001308700811520002608A900C3
:102C080021003708043E860001308700200029088B
:102C1800810021003708083E860001308700200027
:102C28002708C03F2808C13F080021003708860050
:102C380001308700011A0800370886000130870034
:102C4800011620002608A90021003708053E860045
:102C580001308700200029088100210037080A3E3A
:102C680086000130870020002708C03F2808C13FA0
:102C780008002000E7006708A23179229631210078
:102C8800AF08031D932E2000A60101309631D226ED
:102C980096312000A2010130A3310E239631200085
:102CA800A2010130A3311D2396312000A601023074
:102CB8009631D22696312000A2010230A3310E238C
:102CC80096312000A2010230A3311D239631210044
:102CD8006C08093E86000130870081016C080B3EB4
:102CE80086000130870081016C080F3E86000130A4
:102CF800870081016C08113E860001308700810140
:102D08002000A601A60A6430A7000030A800013000
:102D18009531AB25963101309A317A22080021008D
:102D28002F08203A031DAE2E6C08093E860001309C
:102D3800870081016C080B3E860001308700810105
:102D48006C08113E860001308700810101309A31FC
:102D58007A22080021002F08013A031DB72E0130FE
:102D680089312B21080021002F08113A031DC02E9C
:102D780001309C314E24080021002F08023A031D1F
:102D8800C92E023089312B21080021002F08213A51
:102D9800031D080002309C314E2408002000A800C2
:102DA8002808A4319724963120002808A70021007C
:102DB8003A0A86008701200027088100260803199F
:102DC8003D2F6D088600013087008116A201280872
:102DD8009E31792696312000A201A20A0130A43141
:102DE800032496312000A0010130A431BE2496317D
:102DF80020006D0886000130870081140330A70089
:102E08006D08023E860001308700270881006D08A2
:102E1800860001308700011B08006D08860001301C
:102E280087000117A201A20A0130A3312C23963191
:102E38002000A201A20A0130A3313B2396312000D1
:102E48002808A7002708A200A301A30A0130993186
:102E5800782120006D08053E8600013087000108B2
:102E6800A7006D08043E860001308700270881000E
:102E780008006D0886000130870081126D08063E43
:102E88008600013087000108A7006D08043E86000F
:102E980001308700270881006D088600013087000F
:102EA80081146D0886000130870081116D08860045
:102EB8000130870001120330A7006D08023E86002A
:102EC8000130870027088100080021006D0886006E
:102ED800013087000118C82F6D0A8600013087006D
:102EE8000130810741310318810A6D0A86000130DB
:102EF8008700403F963A031D832F413F003A031D48
:102F080008006D0A8600013087000030C03FC13FCD
:102F18006D0886000130870001142000A101A10A74
:102F28000130A331682397312000A201A20A0130A1
:102F3800A431D224973103302000AB002B08A6001F
:102F48003230A7000030A80001309531AB25973109
:102F580021006D08033E860001308700011420001F
:102F6800A201A20A0130A331592397312000A201FE
:102F7800A20A0230A331592397312000A501A50ADE
:102F88000130A731DA27080021006D08063E8600C7
:102F9800013087000130810741310318810A6D082B
:102FA800063E860001308700403F643A031DDE2F4D
:102FB800413F003A031D08006D08063E86000130B7
:102FC80087000030C03FC13F203020008D0621001F
:102FD8006D08860001308700811908006D08860099
:102FE8000130870081150B302000AB002B08A200B0
:102FF80063309E31792608000334163417341E34A2
:103008001F3420342A342B340B340C340D340E3452
:103018000F34103411341234133414340A34153480
:1030280021342234183419341A341B341C341D3416
:10303800233424342534263429342C342D342E34A6
:1030480000340134023407340834093406340434B3
:1030580005342734283407340734303487346B3444
:10306800F8347F343F34093400345C34A734623494
:103078008634833403342234F83400344434B63488
:10308800103418341D341C34C7340034B234EA34D4
:103098000A34003411345934883431340B342F3421
:1030A8002E3406340434053400343034D3349134A7
:1030B80041340034FE34FE34FE34FE34FE34FE3433
:1030C800FE34FE342000A1002108A131D5212100C1
:1030D8003D08860001308700010C890C0139080081
:1030E8002000A4006E08860001308700811F0800B8
:1030F8006E0A86000130870001146E0886000130D0
:1031080087000117A201A20A2408A3310E239831CF
:103118002000A201A20A2408A431532498312000D7
:10312800A201A20A2408A431432408002000A8010F
:103138002F302802031808002808003E8400983021
:103148000318013E85000008A5002508A6002808E8
:103158002F3E840098300318013E85000008A50022
:103168002508A7002708A5002508A2002608A531DC
:103178008725983101302000A5002508A8079C283C
:103188002000A3002308A431972420006D08093EDD
:1031980086000130870022088110031D81146D0804
:1031A800093E86000130870022080110031D011422
:1031B8006D08093E86000130870022088111031D31
:1031C80081156D08093E860001308700220801112B
:1031D800031D011508002000A4002408A23179224B
:1031E800983121003E0886008701811900293E0890
:1031F80086008701811C08003E088600870181112E
:103208003E088600870181103E0A860087018101F9
:103218003E088600870181123630A331C3239831D6
:103228003A30A331C3239831003088310020080098
:10323800F4007408A2311E22993120006F08463E1E
:1032480086000230870073088110031D81147208FC
:10325800013A031D35296F08433E86000230870076
:1032680081017208023A031D3F296F08443E860017
:103278000230870081017208033A031D08006F08B5
:10328800453E860002308700810108002000A20028
:103298000530A0002008A1002208053A031D562980
:1032A800053073292208103A031D5C290A30732956
:1032B8002208153A031D62290F3073292208203A83
:1032C800031D6829143073292208253A031D6E2925
:1032D800193073292208303A031D76291E30A000C0
:1032E8002008A100210808002000A5002508A23117
:1032F8003422993120002208013A031D8C29230821
:10330800A4006F08433E860002308700240881002D
:103318002208023A031D99292308A4006F08443E95
:10332800860002308700240881002208033A031D22
:1033380008002308A4006F08453E86000230870075
:103348002408810008002000A4002408A2313422A7
:10335800993120006F08463E860002308700230816
:103368008110031D81142208013A031DC1296F0829
:10337800433E86000230870081012208023A031D7D
:10338800CB296F08443E860002308700810122085D
:10339800033A031D08006F08453E86000230870087
:1033A8008101080020008E100E100E160A30A000B1
:1033B8000030A100A731B427993120000E120A303D
:1033C800A0000030A100A731B427993120000E16C3
:1033D8002830A0000030A100A731B427993120007F
:1033E8000E123030A60026082100C20020000E1957
:1033F800FA29A5316E25993120000E19002A0E10E0
:103408000E1608002000A501A601210820040319B2
:10341800362AA701A70AA11B1B2A0130A035A10D36
:10342800890B122A0130A4002408A7070F2A0130AB
:10343800A535A60D890B1C2A21082302031D262A5F
:1034480020082202031C2D2A2008A2022108A33BDF
:1034580025140130A136A00C890B2E2A0130A702B1
:10346800031D1B2A2608A101A1072508A001A00702
:1034780008002000E300653021002902031C4A2AC5
:1034880064302000E10061082100A900290820001B
:10349800E10021006C08093E860001308700200009
:1034A800610881006308E10021006C080B3E86007A
:1034B8000130870020006108810021006C08093E66
:1034C80086000130870001082000E1006308143EEF
:1034D80021006C072000E2006208860001308700A6
:1034E800610881006308A731462708002000A4006E
:1034F8002408A23179229A3121003E0886008701EA
:10350800011C08003E0886008701011908003E08D2
:1035180086008701011563302000A20022082100DF
:10352800A00002302000A20022082100A1000230E1
:103538002000A2002208A500153025020318080063
:10354800250821006C072000A2002208860001300F
:1035580087000108A3002508A03E860087012308EC
:1035680081000130A2002208A507A02A2000A4009B
:103578002408A73102279A3121003C0886008701D8
:10358800811C08003C0A860087010130810741310F
:103598000318810A3C0A86008701403F2000A200E8
:1035A800413FA30001302302F43003192202031C17
:1035B800080021003C0A860087010030C03FC13F57
:1035C80020002408013A031DEC2A80308E060800EA
:1035D8002408023A031DF32A08308C060800240840
:1035E800633A031D080020308D0608002000A6005D
:1035F8002608A53127259A31210039088600870138
:10360800011C080039088600870120002308811062
:10361800031D8114230803191F2B240899314A21FB
:103628009A312000A5002100390A86008701200070
:10363800250881002D2BA308031D2D2B26081A3ED3
:1036480021006C072000A5002508860001308700AE
:10365800810121003908023E860087010030C03F01
:10366800C13F3908043E8600870181010800200017
:10367800E1006108A43197249B313C302000DF0031
:103688006D08053E8600013087005F0881007830AC
:10369800DF006D08063E8600013087005F08810064
:1036A8006D080C3E86000130870001146D08063E47
:1036B8008600013087000108DF006D08043E86009F
:1036C800013087005F0881006108143E21006C0703
:1036D8002000DF005F0886000130870001089E3166
:1036E8001E262000E0006D08053E86000130870098
:1036F80060088100080020000E127F30A400240812
:103708002100C20020000E19862BA5316E259B31A1
:10371800210043082000A40024082100C200A5318C
:103728006E259B312000A5012100430820002502B9
:103738000318B02B2508A03E860087010108A400C5
:1037480024082100C200A5316E259B3101302000DC
:10375800A4002408A507982B0E163530A331C323DF
:103768009B3120000D1CB52B0D18B82B3630A3311A
:10377800C3239B313B30A331C323FA160800210031
:103788006B08223E860002308700811C08006B0807
:10379800223E860002308700011C002C6B08233E65
:1037A8008600023087000130810741310318810A01
:1037B8006B08233E860002308700403F323A031DE3
:1037C800E72B413F003A031D08006B08233E8600A3
:1037D800023087000030C03FC13F6B08223E8600A0
:1037E8000230870001106B08223E860002308700F5
:1037F800811093319023080021006B08223E860037
:1038080002308700811008002000D9000030DA005B
:103818007030DB004230DC000030AE00C830AF0052
:103828004230B0005A08B1005B08B2005C08B3002F
:103838008931C8219C3120002E08DA002F08DB00CE
:103848003008DC005908C43EA800FF3003180030D7
:10385800A900A631E0269C3120002808B1002908DB
:10386800B2002A08B3005A08AE005B08AF005C0833
:10387800B0008931C8219C3120002E08CB002F08C8
:10388800CC003008CD008831092020004B03FF3AD6
:10389800643E08002000E6006608A431FB249C3141
:1038A80021003F0886008701011C662C6B08223E18
:1038B8008600023087000114200066089A313D22F4
:1038C8009C317C2C20006608143E21006C072000E7
:1038D800E40064088600013087000108E500210043
:1038E8006C08093E860001308700200065088100C9
:1038F800200066081A3E21006C072000E4006408D6
:103908008600013087000108E50021006C08113E9F
:1039180086000130870020006508810001309A3157
:103928007A2208002000A6006E0886000130870071
:1039380081176E08860001308700011BCD2C6E08A8
:103948008600013087000117A201A20A2608A331C8
:103958000E239C312000A201A20A2608A331E323EA
:103968009C312000A201A20A2608A331D3239C314E
:1039780020006E088600013087000030011B0130EE
:10398800A00026089031D8209C3101309A317A2243
:10399800080020006E0886000130870001136E08B9
:1039A8008600013087000030011B0130A200260884
:1039B800A3310E2308002000E8006808A23179220C
:1039C8009C3121003E0886008701011FF62CA008C3
:1039D800031D08002108643A031D080001309D31C9
:1039E800792508002100A008031D08002108023AD3
:1039F800031D08002C08FF3A031D0C2D2D08FF3A63
:103A0800031D0C2D2E08FF3A031D0C2D0000080085
:103A180021006C080C3E8600013087002C08010646
:103A2800031D08006C080D3E8600013087002D0834
:103A38000106031D08006C080E3E86000130870051
:103A48002E080106031D0800013096313D260800A6
:103A58002000A9002908A131D5219D3121003D0868
:103A6800860001308700811D0800F0302000A50085
:103A78002508A0002408A53111259D3121003D0805
:103A8800033E86000130870020002008C03F21083F
:103A9800C13F21003D08033E860001308700403FBA
:103AA8002000A500413FA60021003D0A8600013004
:103AB8008700403F2000A700413FA80026082802B1
:103AC800031D682D250827020318080021003D085A
:103AD800033E8600013087003D0A840001308500DE
:103AE800403F803F413F813F08002000AC002C0848
:103AF800A23179229D3121002C082000AB00210041
:103B08006C080C3E86000130870020002B088100DD
:103B180021002D082000AB0021006C080D3E860016
:103B28000130870020002B08810021002E0820008A
:103B3800AB0021006C080E3E860001308700200093
:103B48002B088100A601A60A6430A7000030A8004F
:103B580001309531AB259D3121003E088600870153
:103B680001136D08033E860001308700811CC22DB9
:103B78006B08223E86000230870001156B08223E42
:103B8800860002308700011408002000A6002608DD
:103B9800A43197249D3120006D08860001308700EC
:103BA800811E08006D0886000130870081106D08AD
:103BB80086000130870081116D088600013087007A
:103BC80001126D0886000130870001130330A5003B
:103BD8006D08023E860001308700250881006D08C7
:103BE800063E8600013087000108A5006D08043EE6
:103BF800860001308700250881002608A5002508D1
:103C0800A200A301A30A01309931A7219D31200008
:103C1800A201A20A26089E3179269D312000A20120
:103C28002608A3311D239D312000A2012608A331B7
:103C38000E2308002000DB000030DC007030DD00BF
:103C48004230DE000030AE00C830AF004230B00075
:103C58005C08B1005D08B2005E08B3008931C82174
:103C68009E3120002E08DC002F08DD003008DE0021
:103C78005B08D900DA01D909DA09D90A0319DA0A7D
:103C88005908643EA80000305A3DA900A631E02634
:103C98009E3120002808B1002908B2002A08B30084
:103CA8005C08AE005D08AF005E08B0008A31712282
:103CB8009E3120002E08C1002F08C2003008C30022
:103CC8000030BE007030BF004230C0008C31AC24E0
:103CD8009E3120003E08CB003F08CC004008CD00B4
:103CE8008831092020004B0808002000A300230881
:103CF800A73102279E312000A208031D952E230814
:103D0800013A031D892E8E1708002308023A031D65
:103D18008F2E8C1508002308633A031D08008D16A2
:103D280008002208013A031DAB2E2308013A031D9F
:103D38009F2E8E1308002308023A031DA52E8C110E
:103D480008002308633A031D08008D1208002208A2
:103D58000A3A031DCD2E21003C08860087018110F8
:103D68003C0A860087010030C03FC13F200023087D
:103D7800013A031DC12E8E1708002308023A031DBD
:103D8800C72E8C1508002308633A031D08008D16FA
:103D9800080022080B3A031D080021003C08860091
:103DA800870181140800200023080319E02E220847
:103DB80021042004031DF12E0030A0000030A100D2
:103DC8000030A20008000130A5002508A307013033
:103DD800A236A10CA00C890BEC2EFE30220503198B
:103DE8000A2FE72E0130A5002508A3070130A007F8
:103DF800003003180130A107003003180130A20772
:103E08000130A236A10CA00C890B052FFF3022052A
:103E18000319172FF62E0130A3020130A035A10D8A
:103E2800A20D890B122FA11F0F2F2318212FFF304E
:103E3800A0057F30A105FF30A2050310A30C2308BD
:103E4800A500A601A7011030A535A60DA70D890B61
:103E5800282F2508A0042608A1042708A20424085E
:103E680003190800A21708002000E0006008A43128
:103E780097249F3120005D0803194D2F6D08860097
:103E88000130870081156D08860001308700811494
:103E980008006D08860001308700811D08006D0844
:103EA80086000130870081106D0886000130870088
:103EB8008111A201A301A30A01309931A7219F31E1
:103EC80020006D08043E8600013087000108DE00EE
:103ED8006D08053E8600013087005E088100A0015C
:103EE800A00A60089031D8209F3101309A317A2297
:103EF8009F3121006B08223E8600023087000114A2
:103F080020006D08053E86000130870001089C31BD
:103F180008242000DE006008143E21006C07200001
:103F2800DF005F088600013087005E088100080016
:103F380020000D180D189E2F3B30A531EC259F3120
:103F4800210046080319F22F20000E12FF30A400AA
:103F580024082100C20020000E19AF2FA5316E25BC
:103F68009F31A63107269F31210042082000A40076
:103F780024082100C1002000A501210041082000DB
:103F880025020318D92FA63107269F3121004208A0
:103F98002000A4002508A03E86008701240881008F
:103FA8000130A4002408A507C12FA63107269F3198
:103FB800210042082000A40024082100C000A631E6
:103FC80007269F31210042082000A4002408210070
:103FD800B80020000E162100B81B7A153630A33120
:103FE800C3239F313A30A331C3239F312000A2015C
:083FF8000130A331862308000B
:1042FC000130A131CE21080001308B31E5230800BB
:10430C003A30A331C32308003B30A331C323080048
:10431C003630A331C32308000130A4311324080024
:10432C0001308331AB2308000130A4317424080020
:10433C0001308D31A22508000130A131E3210800A4
:10434C00013095311A2508000130A2314A220800AB
:10435C0001308E31CE26080024000D100B178B1760
:10436C00080020008E1A08008E16B7292030200075
:10437C00A0002008FD000800FE0012001E00FE0B2D
:10438C00C3290034640080010131890BC929003430
:10439C002000A201A20A0130A331B3230800663029
:1043AC002000A00020082100BD000800F2302100F0
:1043BC009E00C03022009700080015302000A0009D
:1043CC0020082100C30008000130A2312922A131AC
:1043DC000230A23129220800013093311523A1317A
:1043EC0002309331152308002000A400A201A20A78
:1043FC0024089E3179260800013086317A26A231B4
:10440C00023086317A260800553023009600AA30F7
:10441C0096009514000000000800F1007108013AA4
:10442C00031D0800E730F00070082100BE000800F2
:10443C00F1007108013A031D0800A030F00070086B
:10444C002000EF0008002000A2002208A53127253B
:10445C002100390886008701011408002000A10002
:10446C002108013A031D0800A030A0002008EF002D
:10447C000800013094318924A2310230943189240E
:10448C00A231A6319F2608002000A1002108A131ED
:10449C00BC217D08860001308700011608000B1E28
:1044AC0008008B1C08008B100B12F201F20A013071
:1044BC00A231CD2208002000A1002108013A031DE1
:1044CC0008004830A00020082100B7000800333055
:1044DC00A331C323A231E8302000A0000330A10097
:1044EC00A731B42708002000A1002108013A031DC0
:1044FC000800E730A00020082100BE0008002000C2
:10450C00A1002108013A031D0800E430A000200896
:10451C002100BA00080023001513303092009101DD
:10452C0015161515A2310A222300151108000130A9
:10453C00A4316324A2310230A4316324A23163304C
:10454C00A4316324080001309A31BA22A23102301E
:10455C009A31BA22A23163309A31BA220800200073
:10456C00A1002108A131BC217D0886000130870003
:10457C00010E013908002000A2002208A231852278
:10458C0021003A0886008701010801390800F30070
:10459C007308A231132221003E088600870172089D
:1045AC008110031D811408002000A2002208A231F2
:1045BC00852221003A0886008701010C890C0139FB
:1045CC00080024000D1104302700940004309500DD
:1045DC0096018B150B100B178B170800C73020009A
:1045EC00A00020082100EE009501A63020009500C7
:1045FC008B168B170800A131B721A33124008D1025
:10460C000130A131FA21A3310230A131FA21080085
:10461C002000A3002308A431FB2421003F088600BE
:10462C008701200022080110031D0114080020003E
:10463C00A3002308A431AA2420006E0886000130B0
:10464C00870022080113031D011708002000A30096
:10465C002308A231852221003A0886008701200018
:10466C0022088111031D811508002000A3002308D6
:10467C00A231342220006F08860002308700220805
:10468C008110031D811408002000A3002308A2310F
:10469C00852221003A08860087012000220801109B
:1046AC00031D011408002000A3002308A431AA2430
:1046BC0020006E0886000130870022080110031DBF
:1046CC00011408002000A2002208A131BC217D08A1
:1046DC00860001308700200021080110031D011401
:1046EC0008002000A3002308A231852221003A08EB
:1046FC0086008701200022080111031D0115080006
:10470C002000A3002308A231792221003E08860054
:10471C008701200022088111031D8115080020004B
:10472C00A3002308A231792221003E0886008701CC
:10473C00200022080113031D011708002000A3000C
:10474C002308A231852221003A0886008701200027
:10475C0022088110031D811408002000A3002308E7
:10476C00A231612221003708860001308700200029
:10477C0022080110031D011408002000A3000E12D2
:10478C002308A20022082100C20020000E19CB2B06
:10479C00A5316E2520000E1608002000A30023086A
:1047AC00A431972420006D08093E86000130870053
:1047BC0022080110031D011408002000A300230887
:1047CC00A431972420006D08093E86000130870033
:1047DC0022088110031D811408002000A300230867
:1047EC00A231852221003A0886008701010C2000A5
:1047FC00A200A20C220C013908002000A3002308FF
:10480C00A231342220006F08463E86000230870019
:10481C0022080110031D011408002000A200220828
:10482C00A2313422A43120006F08860002308700A8
:10483C0081152208A731242708002000A300230893
:10484C00A431972420006D080C3E860001308700AF
:10485C0022080110031D011408002000A3002308E6
:10486C00A231342220006F08860002308700010C30
:10487C00A200A20C220C013908002000A30023087E
:10488C00A431972420006D08093E86000130870072
:10489C0022080111031D011508002000A3002308A4
:1048AC00A431972420006D08093E86000130870052
:1048BC0022088111031D811508002000A400240882
:1048CC00A7310227A43121003C088600870101147E
:1048DC002000A20124089E31792608002000A100A6
:1048EC002108A131D52121003D0886000130870027
:1048FC0001143D08860001308700011508002E3098
:10490C002000E2006208FB0001309B313B23A43104
:10491C003B302000E2006208FC0002309B313B235C
:10492C0008002000A1002108013A031DA12C2E3003
:10493C00A0002008ED002108023A031D08003B30BE
:10494C00A0002008ED0008002000A1002108013A79
:10495C00031DB52C5430A0002008EE0008002108DF
:10496C00023A031D08005D30A0002008EE0008008C
:10497C0020002008A1006F083A3E86000230870014
:10498C00210881002008A1006F08423E86000230F9
:10499C0087002108810008002000A3002308A23111
:1049AC00342220006F088600023087002208011094
:1049BC00031D01146F088600023087008110080067
:1049CC009931D621A43198319A20A431A631602690
:1049DC00A431A1318A21A431A1318621A431A23183
:1049EC006D22A431A1318E2108002000A1002108E4
:1049FC00013A031D062DE930A00020082100BF005C
:104A0C0020002108023A031D0800EA30A00020080B
:104A1C002100BF0008002000A300230821009D00F6
:104A2C002000200821009E009D149D181B2D1C08A1
:104A3C002000A101A10721001B082000A001A00754
:104A4C0008002000A1002108013A031D332DCE30AF
:104A5C00A00020082100B900080020002108023A1B
:104A6C00031D0800D330A00020082100B900080065
:104A7C00A0302000A00020082100EC00BE30200057
:104A8C00A00020082100ED006D0886000130870091
:104A9C0081166D08033E86000130870081140800E2
:104AAC00783021009900A531B925A531A231F42225
:104ABC00A531A131DC21A531A131B221A531A23121
:104ACC00E72220302000A10021082100EB00080083
:104ADC002000A10108302102031808002100C21F88
:104AEC007A2D20000E147C2D20000E108E14031035
:104AFC002100C20D20008E100130A0002008A1075B
:104B0C00702D2000A4000E122408A30023082100FD
:104B1C00C20020000E198F2DA5316E25A531200065
:104B2C002208A30023082100C200A5316E25200015
:104B3C000E1608002000A200A301303023009200C2
:104B4C0020002208230091001513151414082000CE
:104B5C00A0002008A100230013082000A0002008BA
:104B6C00A30023080800773021008C0007308D004B
:104B7C000C308E0022008C0102308D008E01223010
:104B8C0023008C008D018E01773020008C000730C3
:104B9C008D000C308E000800FF30200095007B0843
:104BAC008600013087000118E02D7B08860001305B
:104BBC00870001147C08860001308700011808006A
:104BCC007C08860001308700011408002000A30037
:104BDC000E122308C03EA20022082100C2002000B1
:104BEC000E19F52DA5316E25A531A631072620000D
:104BFC000E16210042082000A20022082100C60047
:104C0C0008002000A10108302102031808008E14AE
:104C1C0003102100C20D20000E1D172E210042147E
:104C2C001D2EFE302000A00020082100C20520000F
:104C3C008E100130A0002008A107092E2000A4012D
:104C4C00A501201C2D2E2208A4072308A53D013008
:104C5C00A235A30D890B2E2E0130A136A00C890B89
:104C6C00332E21082004031D272E2508A101A1079E
:104C7C002408A001A0070800633402340034003477
:104C8C000034003400340034003400340034003478
:104C9C00FF34FF34FF34003400340034003400346B
:104CAC000234003400340034003400340034003456
:104CBC00003400342000A701083027020318080034
:104CCC0027085E3E840098300318013E85000008DA
:104CDC00A5002508A6002608A5002508A2003E3040
:104CEC00A5318725A63101302000A5002508A7078E
:104CFC00622E2000A4010230A2002208A300A5010C
:104D0C002308250203189D2E2508013EA431972463
:104D1C00A63120006D08860001308700011F982EF7
:104D2C00A401A40A0130A2002208A507862E24089B
:104D3C0008000130A331F323A631003A031908000F
:104D4C002000A2010130A3312C23A631A6317F26ED
:104D5C00A6310038031D08002000A2010130A33148
:104D6C003B2321006B08223E860002308700811411
:104D7C0008002000A4010230A2002208A300A50113
:104D8C00230825020318DE2E2508013EA4319724A2
:104D9C00A63120006D08093E860001308700811C79
:104DAC00D92EA401A40A0130A2002208A507C62E00
:104DBC00240808002000AD01A91FEB2EA809A909A1
:104DCC00A80A0319A90AAD01AD0A2808A0002908F0
:104DDC00A100A2018E30AB002B08A3002D08AC0063
:104DEC002C08A4009E31D72620002008A8002108FA
:104DFC00A9002208AA0008002000A1002108013AFD
:104E0C00031D0E2FDC30A00020082100BC00080080
:104E1C0020002108023A031D192FE030A0002008C1
:104E2C002100BC00080020002108633A031D080083
:104E3C00D830A00020082100BC0008002000A101EF
:104E4C0005302102031808002135083E6F07A00029
:104E5C0020088600023087000030C03FC13F21355A
:104E6C001A3E6F07A0002008860002308700FF3032
:104E7C00C03FFF30C13F0130A0002008A107262F02
:104E8C002000E0006008A4319724A73120006D08B1
:104E9C0086000130870001156D08860001308700FF
:104EAC00811421006C08093E86000130870001083E
:104EBC009E311E262000DF006D08053E8600013065
:104ECC0087005F08810008008B1D08002700161D55
:104EDC00080016110B1021006D08860001308700A8
:104EEC00011C0800A531D225A73120000D1D852FEE
:104EFC0021003A08023E8600870181010800083033
:104F0C00F00021003A08023E8600870170088100FB
:104F1C000800FF34FF34FF34003400340034003414
:104F2C0000340034003400340034003400340034D5
:104F3C0000340034003400340034003400340034C5
:104F4C0000340034003400340034003400340034B5
:104F5C00AA34003400340034003400340130200012
:104F6C00A2000030A30021082302031DBF2F20083C
:104F7C00220203180800A401A5010030250202300A
:104F8C00031924020318D52F0130A4070030A53DC6
:104F9C0000302502023003192402031CCA2F0130F1
:104FAC00A2070030A33DB92F2000A6002608A2318D
:104FBC007922A731200025080319EA2F21003E0889
:104FCC00860087010114080021003E088600870135
:104FDC0001103E088600870101137A123630A33186
:104FEC00C323A7313B30A331C323A7310130983100
:044FFC00EF2008009A
:020000040001F9
:04000E00E4F9FEFF14
:00000001FF
