:04000000803116280D
:100008007E14803120007F08F700A731DB2780317C
:10001800843146248031A431182477082000FF0059
:100028007E10090080311828F001F801F901FA0161
:10003800FB01FC01FD01EC01ED01EE01A0308400A3
:10004800003085004830A3314E23803120308400B1
:10005800013085004E30A3314E238031C0308400FA
:10006800013085001030A3314E23803120308400C8
:10007800023085002530A3314E238031A030840022
:10008800023085004730A3314E238031553084003B
:10009800A7308500A0308600013087002030A331CA
:1000A80048237E1020008731912F20006E0886009B
:1000B80002308700811E86286E08033E86000230C3
:1000C80087000130810741310318810A6E08033E19
:1000D800860002308700403FAD00413FAE0003304C
:1000E8002E02E83003192D02031C08006E08033E97
:1000F8008600023087000030C03FC13F00309C318D
:10010800F424080020006E08860002308700011ED3
:10011800542B6E0A86000230870001308107413176
:100128000318810A6E0A860002308700403FAD003E
:10013800413FAE0000302E02053003192D02031C8A
:1001480008006E0A8600023087000030C03FC13FB9
:100158006E0886000230870001126E08453E860050
:10016800023087006E08443E840002308500000893
:10017800AD006E08433E84000230850000082D075C
:100188000107AE006E083E3E8600023087002E084A
:100198008100B101B10A0430310203180129313557
:1001A800083E6E07AD002D088600023087006E08F5
:1001B8002E3E840002308500403F80070131413FD8
:1001C800803D3F3131351A3E6E07AD002D0886005F
:1001D800023087006E08303E840002308500403FC0
:1001E80080070131413F803D3F310130AD002D088E
:1001F800B10704303102031CD3280330A0000030BB
:10020800A1006E082E3E860002308700403FA20003
:10021800413FA3009A31CE22803120006E082E3E45
:100228008600023087002008C03F2108C13F033004
:10023800A0000030A1006E08303E86000230870022
:10024800403FA200413FA3009A31CE2280312000D6
:100258006E08303E8600023087002008C03F210823
:10026800C13F6E082E3E860002308700403FAD0039
:10027800413FAE006E08303E860002308700403FA6
:10028800AF00413FB0002E083002031D4D292D0854
:100298002F020318D72A6E082E3E860002308700E8
:1002A8006E08303E840002308500003FAD00013FFB
:1002B800AE00AD09AE09AD0A0319AE0A403F2D07DD
:1002C800AF00413F2E3DB0006E082C3E8600023044
:1002D80087002F08C03F3008C13F6E083A3E8600AD
:1002E80002308700023001020318CA290130AD002C
:1002F8006E083A3E8600023087002D0881076E0896
:100308003A3E8600023087000108013A031D96290B
:100318006E08363E860002308700F430C03F013058
:10032800C13FCA296E083A3E86000230870001089C
:10033800023A031DCA296E083E3E86000230870035
:100348000108013A031DB2296E08363E86000230C4
:1003580087002E30C03F0030C13FCA296E08063ED4
:10036800860002308700403FAD00413FAE002D08B7
:100378002E3EAF0000302E3DB0006E08363E86009F
:10038800023087002F08C03F3008C13F6E08363E54
:10039800860002308700403FAD00413FAE006E0846
:1003A8002C3E860002308700403FAF00413FB0003E
:1003B8002E083002031DE2292D082F02031C502AA3
:1003C8000130AD006E083C3E8600023087002D08E3
:1003D80081076E083C3E8600023087000330010228
:1003E800031CD72A6E083C3E860002308700810134
:1003F80001309C31F424803120006E082C3E8600A8
:1004080002308700403FAD00413FAE002E08AF00EC
:100418006F08043E8600013087002F0881006E08AF
:100428002C3E8600023087000108AD006F08053EAB
:100438008600013087002D0881006E08363E860050
:1004480002308700403FAD00413FAE002E08AF00AC
:100458006F08103E8600013087002F0881006E0863
:10046800363E8600023087000108AD006F08113E55
:100478008600013087002D0881006E083E3E860008
:10048800023087000108AD006F08083E8600013081
:1004980087002D088100D72A6E083C3E860002306E
:1004A800870081016E08423E8600023087000A30CC
:1004B80001020318682A0130AD006E08423E86002A
:1004C800023087002D0881076E08423E8600023000
:1004D80087000A300102031CD72A6E088600023002
:1004E80087008115A201A20A0130A431F2248031CB
:1004F8002000A201A20A0230A431F2248031200097
:100508006E08463E860002308700011C9F2A6E084E
:10051800463E86000230870001106E082C3E860099
:10052800023087006E08063E840002308500403F96
:10053800803F413F813F6E08463E8600023087007B
:10054800811CD72A6E08463E86000230870081103B
:100558006E082C3E8600023087006E08063E840036
:1005680002308500403F803F413F813F6E083E3E5C
:100578008600023087000108AD00AE012D08A000FA
:100588002E08A1002E30A2000030A300A7311827A2
:10059800803120006E08363E860002308700200831
:1005A800C03F2108C13FA731B927803120006E081C
:1005B8002C3E860002308700403FAD00413FAE0030
:1005C8002E08AF006F08023E8600013087002F0812
:1005D80081006E082C3E8600023087000108AD00BD
:1005E8006F08033E8600013087002D0881006E08E1
:1005F8003E3E8600023087000108AD006F08083EC5
:100608008600013087002D0881006E08063E8600AE
:10061800023087000108AD006F080A3E86000130ED
:1006280087002D0881006E08363E8600023087005C
:10063800403FAD00413FAE002E08AF006F08103EAE
:100648008600013087002F0881006E08363E86003C
:10065800023087000108AD006F08113E86000130A6
:1006680087002D0881006E08053E8600023087004D
:100678000108AD006F08123E8600013087002D0882
:1006880081006E083A3E8600023087000108AD00FE
:100698006F08133E8600013087002D08810008008E
:1006A8006E08860002308700811C7D2B6E0886004C
:1006B8000230870001196A2B6E0886000230870015
:1006C80001156E088600023087008111A3315B2373
:1006D8008031003A03190800A33180238031003AA1
:1006E8000319080020006E088600023087000116F2
:1006F80008006E08860002308700011D08006E0899
:1007080086000230870001116E08860002308700DB
:1007180081156E083C3E86000230870081016E0814
:100728003A3E86000230870081016E08063E860048
:10073800023087000030C03FC13F6E083F3E860050
:100748000230870081016E08463E8600023087002D
:1007580001106E08463E86000230870081106E0840
:100768002C3E8600023087000030C03FC13FA731D1
:10077800B92780312000A201A20A0130A431F22455
:1007880080312000A201A20A0230A431F224803173
:1007980020006E082C3E860002308700403FAD00E6
:1007A800413FAE002E08AF006F08023E86000130C0
:1007B80087002F0881006E082C3E860002308700D3
:1007C8000108AD006F08033E8600013087002D0840
:1007D80081006E083F3E8600023087000108AD00A8
:1007E8006F08083E8600013087002D0881006E08DA
:1007F800063E8600023087000108AD006F080A3EF9
:100808008600013087002D0881006E08363E86007C
:1008180002308700403FAD00413FAE002E08AF00D8
:100828006F08103E8600013087002F0881006E088F
:10083800363E8600023087000108AD006F08113E81
:100848008600013087002D0881006E08053E86006D
:10085800023087000108AD006F08123E86000130A3
:1008680087002D0881006E083A3E86000230870016
:100878000108AD006F08133E8600013087002D087F
:10088800810008008B1E08000B1D0800A630200000
:1008980095000B117908860001308700011C9E2CF9
:1008A8000130F3007908033E8600013087007308A1
:1008B800810721003908023E860087010108F300FC
:1008C800F401F309F409F30A0319F40A7908043E58
:1008D80086000130870001087307F50074080318C3
:1008E800740AF6007908033E86000130870076080E
:1008F800803A803C031D822C75080102031CD82D08
:100908007908033E86000130870081017908860056
:100918000130870001107908073E86000130870002
:1009280001147908860001308700011FD82D2000A6
:100938000D16D82D7908073E860001308700011C66
:10094800A32D7908073E8600013087000110790839
:10095800860001308700811CA32D0130F300790A3D
:1009680086000130870073088107790A8600013004
:1009780087007908023E84000130850000080102E2
:10098800031CA32D790A86000130870081017908AC
:10099800860001308700811D072D79088600013007
:1009A8008700011AEE2C7908043E86000130870082
:1009B8003D300102031CE82C7908043E8600013012
:1009C800870001308102A32D790886000130870055
:1009D8000116A32D7908043E86000130870078307F
:1009E80001020318012D0130F3007908043E860046
:1009F8000130870073088107A32D7908860001302C
:100A080087000112A32D7908860001308700011D97
:100A18004E2D7908053E8600013087007908043E8E
:100A2800840001308500000801020318232D79088D
:100A3800043E860001308700013081023A2D790892
:100A4800043E8600013087007908053E84000130A5
:100A580085000008010203183A2D0130F3007908D7
:100A6800043E860001308700730881077908053E37
:100A78008600013087007908043E84000130850033
:100A880000080106031DA32D7908860001308700A0
:100A98000111692D7908860001308700811E6F2DAC
:100AA8007908043E86000130870001308102790808
:100AB800053E8600013087007908043E8400013035
:100AC800850000080102031CA32D79088600013067
:100AD80087008110A32D0130F3007908043E8600B9
:100AE80001308700730881077908043E86000130C9
:100AF80087007908063E840001308500000801025D
:100B0800031CA32D7908860001308700811079081D
:100B1800860001308700011379080C3E86000130F9
:100B2800870001142100390886008701011420007C
:100B38008E13F101F10A01309931D421843120005A
:100B48000D1ED82D0130F3007908083E86000130CB
:100B58008700730881077908043E86000130870002
:100B68000108F300F401F309F409F30A0319F40A7C
:100B78007308783EF5000030743DF6007908083EA9
:100B88008600013087007608803A803C031DCE2D10
:100B980075080102031CD82D7908083E860001302B
:100BA8008700810120000D127A0886000130870035
:100BB800011C282E0130F3007A08033E860001301C
:100BC80087007308810721003908023E86008701E3
:100BD8000108F300F401F309F409F30A0319F40A0C
:100BE8007A08043E86000130870001087307F50083
:100BF80074080318740AF6007A08033E8600013068
:100C080087007608803A803C031D0C2E7508010287
:100C1800031C622F7A08033E860001308700810199
:100C28007A0886000130870001107A08073E86009E
:100C38000130870001147A08860001308700011FFF
:100C4800622F20008C17622F7A08073E8600013039
:100C58008700011C2D2F7A08073E86000130870087
:100C680001107A08860001308700811C2D2F013081
:100C7800F3007A0A860001308700730881077A0A30
:100C88008600013087007A08023E84000130850022
:100C980000080102031C2D2F7A0A86000130870004
:100CA80081017A08860001308700811D912E7A081B
:100CB800860001308700011A782E7A08043E8600E3
:100CC800013087003D300102031C722E7A08043E71
:100CD800860001308700013081022D2F7A088600B6
:100CE8000130870001162D2F7A08043E8600013056
:100CF80087007830010203188B2E0130F3007A0840
:100D0800043E860001308700730881072D2F7A087A
:100D180086000130870001122D2F7A0886000130E5
:100D28008700011DD82E7A08053E8600013087000D
:100D38007A08043E84000130850000080102031887
:100D4800AD2E7A08043E860001308700013081020A
:100D5800C42E7A08043E8600013087007A08053ED2
:100D6800840001308500000801020318C42E0130F8
:100D7800F3007A08043E8600013087007308810773
:100D88007A08053E8600013087007A08043E840010
:100D98000130850000080106031D2D2F7A08860002
:100DA800013087000111F32E7A0886000130870090
:100DB800811EF92E7A08043E860001308700013032
:100DC80081027A08053E8600013087007A08043ED1
:100DD80084000130850000080102031C2D2F7A08C9
:100DE80086000130870081102D2F0130F3007A082A
:100DF800043E860001308700730881077A08043EA4
:100E08008600013087007A08063E8400013085009C
:100E180000080102031C2D2F7A0886000130870084
:100E280081107A0886000130870001137A080C3E89
:100E380086000130870001142100390886008701E7
:100E4800011420008C11F101F10A02309931D421EA
:100E5800843120008C1F622F0130F3007A08083E8D
:100E6800860001308700730881077A08043E8600EF
:100E7800013087000108F300F401F309F409F30ACB
:100E88000319F40A7308783EF5000030743DF60043
:100E98007A08083E8600013087007608803A803C50
:100EA800031D582F75080102031C622F7A08083E9B
:100EB800860001308700810120008C1321006A0A16
:100EC800860087010130810741310318810A6A0AC7
:100ED80086008701403FC83A031D742F413F003AFE
:100EE800031D812F6A0A860087010030C03FC13F79
:100EF800690886000130870081147808860001306F
:100F08008700811C0800780A8600013087000130BC
:100F1800810741310318810A0800A531D02587319E
:100F2800A631132687318A31AE228731A4313C2479
:100F38008731A331B4238731A33124238731A431E6
:100F480054248731A3311E238731A331702387317D
:100F5800A531A5258731A4317B248731A3313623D8
:100F68008731A53190258731210069088600013035
:100F78008700011CCE2F053097316A278731093049
:100F880092310C22873111309C317124873188319C
:100F9800A920873121006908860001308700811C5B
:100FA800B82F690886000130870081109431CA245F
:100FB800873121006908860001308700011CB82F9D
:100FC8009E3153268731A43148248731A331272302
:100FD8008731803159208731A33121238731A331CB
:100FE800E0238731A33190238731A3313A23873116
:100FF800A33178238731B82F2000A3002308A53117
:10100800552520006C08093E86000130870022081B
:101018008111031D811508002000AC002C08A531A2
:10102800BA25883121003008803A031D362820006F
:10103800A301A30A210031082000AA002A08A4005D
:101048002C089B31B2238831210031082000AA00E6
:101058002C081A3E6F07AB002B088600013087006A
:101068002A08810021003C088600870101186328AE
:101078003C088600870101142000A201A20A2C085E
:10108800A431B32488312000A201A20A2C08A4317B
:10109800E22488312000A201A20A2C08A431D2241B
:1010A800883121003C088600870100300118013092
:1010B8002000A0002C089F314A2788319C28210055
:1010C8003008803A031D70282000A001A00A2C08CF
:1010D8009F314A2788319C2821003C0886008701D7
:1010E80001102000A2012C08A431B324883120006B
:1010F800A201A20A2C08A431E224883121003C086C
:10110800860087010030011801302000A2002C0859
:10111800A431D22488312000A0012C089F314A270D
:1011280088312000A301A4012C089B31B223883107
:1011380064302000A6000030A700013093315E2300
:10114800883101309931482108007808860001303B
:101158008700811220008D198116780886000130D9
:101168008700811C08007808063E86000130870049
:10117800403F2000A000413FA100780A86000130CE
:101188008700403FA200413FA30021082302031D1E
:10119800CF2820082202031C0800780A86000130A4
:1011A80087000030C03FC13F7808860001308700C3
:1011B800811A43297808033E860001308700810898
:1011C800031D3C297808860001308700811D0E29FF
:1011D800780886000130870081117808043E86006F
:1011E800013087000108A0007808033E860001301E
:1011F8008700200881007808083E860001308700B3
:101208007808063E840001308500403F803F413F1A
:10121800813F08007808860001308700011E3629C2
:10122800780886000130870001127808053E86009C
:10123800013087000108A0007808033E86000130CD
:1012480087002008810078080A3E86000130870060
:101258007808063E840001308500403F803F413FCA
:10126800813F080078088600013087008110080057
:10127800780886000130870081168D1508007808E7
:1012880086000130870081128D117808033E8600A0
:101298000130870001308102080020003108B400C5
:1012A8003208B5003308B6000310350D360DB70007
:1012B8003708BC00BC08031D68290030AE000030A8
:1012C800AF000030B00008002E08B4002F08B500A9
:1012D8003008B6000310350D360DB7003708BD00CD
:1012E800BD08031D7E290030AE000030AF0000307D
:1012F800B00008000030B9000030BA000030BB0070
:1013080089303D07B4003408BC023108B400320803
:10131800B5003308B6001030B636B50CB40C890BDE
:1013280090293408B7003708BD002E08B4002F08EC
:10133800B5003008B6001030B636B50CB40C890BC1
:10134800A0293408B7003708BD068030B400340837
:10135800BD05B217FF30B105FF30B2050030B30547
:10136800AF17FF30AE05FF30AF050030B0051830BD
:10137800B4003408B8000130B935BA0DBB0D890B7B
:10138800C02930083302031DCF292F083202031D5C
:10139800CF292E083102031CD8292E08B1022F08A4
:1013A800B23B3008B33B39140130B135B20DB30D3F
:1013B800890BD9290130B802031DBF293908A000BB
:1013C8003A08A1003B08A2003C08B4003408A30076
:1013D8003D08B5003508A400903181202000200880
:1013E800AE002108AF002208B000080020002E0837
:1013F800B4002F08B5003008B6000310350D360DBF
:10140800B7003708B800B808031D112A0030AE002D
:101418000030AF000030B00008003108B4003208D6
:10142800B5003308B6000310350D360DB700370880
:10143800BD00BD08031D272A0030AE000030AF00F4
:101448000030B00008003D087B3EB4003408B807FF
:101458002E08B4002F08B5003008B6001030B63694
:10146800B50CB40C890B332A3408B7003708BD0013
:101478003108B4003208B5003308B6001030B6366B
:10148800B50CB40C890B432A3408B7003708BD06DD
:101498008030B4003408BD05AF17B217FF30B1056E
:1014A800FF30B2050030B3050030B9000030BA0093
:1014B8000030BB000730B4003408BC002E1C6A2A78
:1014C8003108B9073208BA3D3308BB3D0130B036A0
:1014D800AF0CAE0C890B6B2A0130B135B20DB30DD0
:1014E800890B712A0130BC02031D622A0930B4003D
:1014F8003408BC002E1C862A3108B9073208BA3DC8
:101508003308BB3D0130B036AF0CAE0C890B872ACF
:101518000130BB36BA0CB90C890B8D2A0130BC02DC
:10152800031D7E2A3908A0003A08A1003B08A20042
:101538003808B4003408A3003D08B5003508A400F5
:101548009031812020002008AE002108AF00220839
:10155800B00008001F30A6315D268A31AA3A031D63
:10156800132B0030A6315D268A312000DD006F087C
:101578000C3E8600013087005D0881000130A631ED
:101588005D268A312000DD006F080D3E860001309F
:1015980087005D0881000230A6315D268A3120006F
:1015A800DD006F080E3E8600013087005D0881006F
:1015B8003C309D317C258A312000DD005D08DE004D
:1015C8005E08DD006F08153E8600013087005D0863
:1015D80081005E08DD006F08163E86000130870036
:1015E8005D0881005E08DD006F08173E8600013047
:1015F80087005D0881001E30A6315D268A31013AD8
:10160800031D080021006908860001308700811247
:101618006908033E860001308700811008003C30CD
:101628009D317C258A312000DD005D08DE00FF3019
:10163800DD002100680886000230870020005D0870
:101648008100FF30DD002100680A86000230870033
:1016580020005D088100FF30DD0021006808023E9F
:1016680086000230870020005D088100FF30DD0021
:1016780021006808033E86000230870020005D08CC
:101688008100FF30DD0021006808043E860002303A
:10169800870020005D088100FF30DD002100680818
:1016A800053E86000230870020005D088100AA30D0
:1016B800DD00210068081F3E8600023087002000F8
:1016C8005D0881005E08DD006F08153E8600013068
:1016D80087005D0881005E08DD006F08163E860001
:1016E800013087005D0881005E08DD006F08173E45
:1016F8008600013087005D0881008B139A313622FD
:101708008B17080020003E08C4003F08C5004008A9
:10171800C6000310450D460DC7004708CA0041081A
:10172800C4004208C5004308C6000310450D460D15
:10173800C7004708C9004A080319AE2B49084A02DE
:101748000318B52B4A03FF3A4907C400193044026D
:10175800031CB52B4108BE004208BF004308C00067
:1017680008004908031908004A0849020318C42B4D
:101778004903FF3A4A07C400193044020318080015
:101788000630C4004408C800C01BC817C31B48174C
:10179800BF17FF30BE05FF30BF050030C005C217B8
:1017A800FF30C105FF30C2050030C30549084A02B1
:1017B8000318002C0130C135C20DC30D890BDF2B76
:1017C8000130C90249084A060319FB2B0130C80237
:1017D800480807390319FB2BDE2B0130C036BF0C34
:1017E800BE0C890BF22B0130C4004408CA074A0812
:1017F80049060319252CF12B4A0849020318252C00
:101808000130BE35BF0DC00D890B052C0130CA0251
:1018180049084A060319212C0130C802480807392B
:101828000319212C042C0130C336C20CC10C890BBE
:10183800182C0130C4004408C9074A084906031D8A
:10184800172CC81F372CFF30BE06FF30BF06FF30ED
:10185800C0060130BE07003003180130BF07003052
:1018680003180130C007481F492CFF30C106FF305C
:10187800C206FF30C3060130C1070030031801302B
:10188800C207003003180130C307C8013E08C1076A
:101898003F08C23D4008C33DC31F642CFF30C1064A
:1018A800FF30C206FF30C3060130C10700300318FD
:1018B8000130C207003003180130C307C801C80A45
:1018C8004108A0004208A1004308A2004A08C40039
:1018D8004408A3004808C5004508A40090318120A9
:1018E80020002008BE002108BF002208C000080010
:1018F8007B08860001308700011C08007B088600F1
:10190800013087008119CC2C7B08063E8600013007
:1019180087000130810741310318810A7B08063EA0
:10192800860001308700403F2000AD00413FAE00F7
:1019380002302E02BC3003192D02031C0800A3310B
:10194800F6238C31003A0319C22CA3315B238C3166
:10195800003A0319C22C7B08063E86000130870036
:101968000030C03FC13F7B088600013087008115E9
:101978007B08860001308700011108007B08063EBD
:10198800860001308700BC30C03F0230C13F0800EC
:101998007B08063E8600013087000130810741310F
:1019A8000318810A7B08063E860001308700403F05
:1019B8002000AD00413FAE0000302E020230031976
:1019C8002D02031C08007B08063E860001308700B4
:1019D8000030C03FC13F7B0886000130870081117D
:1019E8007B08860001308700811C352D7B0A860024
:1019F80001308700403FAD00413FAE0001302E026C
:101A0800913003192D020318712D7B0A86000130CD
:101A18008700403FAD00413FAE0000302E02C83085
:101A280003192D02031C712D0130AD007B08053E02
:101A38008600013087002D0881077B08053E860057
:101A48000130870002300102031C772D7B08053E18
:101A5800860001308700810100309B3178238C316A
:101A6800772D7B0A860001308700403F2000AD00BB
:101A7800413FAE0001302E02903003192D020318A9
:101A8800542D7B0A860001308700403FAD00413F5E
:101A9800AE0000302E02D33003192D020318712D29
:101AA8000130AD007B08053E8600013087002D0817
:101AB80081077B08053E860001308700023001025D
:101AC800031C772D7B08053E8600013087008101C5
:101AD80001309B3178238C31772D7B08053E8600B9
:101AE8000130870081017B0886000130870081185A
:101AF800822D7B0886000130870001157B0A86004D
:101B0800013087000030C03FC13F08007D088600D3
:101B180001308700011C08007D088600013087001D
:101B28000119D62D7D0A8600013087000130810712
:101B380041310318810A7D0A860001308700403F41
:101B48002000AD00413FAE0001302E02F4300319F1
:101B58002D02031C0800A331F6238D31003A031926
:101B6800CD2DA33180238D31003A0319CD2D7D0A67
:101B78008600013087000030C03FC13F7D088600E5
:101B88000130870001157D088600013087000112A9
:101B980008007D0A860001308700E830C03F033026
:101BA800C13F08007D0A86000130870001308107A7
:101BB80041310318810A7D0A860001308700403FC1
:101BC8002000AD00413FAE0000302E020430031962
:101BD8002D02031C08007D0A8600013087000030B2
:101BE800C03FC13F7D0886000130870001117D0894
:101BF800083E8600013087007D08043E84000130DD
:101C08008500403F803F413F813F7D08860001308D
:101C18008700811C3C2E7D08043E86000130870029
:101C2800403FAD00413FAE0002302E021C30031988
:101C38002D02031C6A2E0130AD007D08033E86008C
:101C4800013087002D0881077D08033E860001309A
:101C5800870003300102031C702E7D08033E8600B6
:101C680001308700810100309B3105238D31702EB2
:101C78007D08043E860001308700403F2000AD000B
:101C8800413FAE0001302E02DC3003192D0203184B
:101C98006A2E0130AD007D08033E860001308700C2
:101CA8002D0881077D08033E860001308700033038
:101CB8000102031C702E7D08033E86000130870058
:101CC800810101309B3105238D31702E7D08033E43
:101CD80086000130870081017D0886000130870079
:101CE80081187B2E7D0886000130870001167D084B
:101CF800043E860001308700403F2000AD00413F90
:101D0800AE002E08AF006F08183E8600013087002D
:101D18002F0881007D08043E8600013087000108F5
:101D2800AD006F08193E8600013087002D0881003C
:101D38007D08063E8600013087000030C03FC13F65
:101D48007D08083E8600013087000030C03FC13F53
:101D580008002000AE006D08860001308700011CD5
:101D680008002E08A53168258E3120002E08013A7A
:101D7800031DCA2EAC01AC0A0C1C8D18C42EAC0174
:101D88006D088600013087002C08D92E2E08023AEB
:101D9800031DDC2EAD01AD0A0C1F0C1AD42EAD01AB
:101DA8006D088600013087002D088110031D8114FD
:101DB8006D08860001308700811CAB2F6D088600F6
:101DC800013087000119122F0130AA006D08023E68
:101DD8008600013087002A0881076D08023E8600C8
:101DE8000130870005300102031C08006D08023E1F
:101DF80086000130870081016D0886000130870068
:101E080001156430A6000030A700013093315E232D
:101E18008E3120002E089E310A26080020006D0809
:101E28008600013087008119442F6D08033E860023
:101E3800013087000130810741310318810A6D089C
:101E4800033E860001308700403FAA00413FAB00B7
:101E580000302B02963003192A02031C08006D0873
:101E6800033E8600013087000030C03FC13F6D0847
:101E780086000130870081152E089831A1200800BE
:101E880020006D08860001308700011A782F6D0840
:101E9800053E860001308700013081074131031873
:101EA800810A6D08053E860001308700403FAA0080
:101EB800413FAB0000302B02963003192A02031C65
:101EC80008006D08053E8600013087000030C03FDD
:101ED800C13F6D088600013087000116A201A20AE1
:101EE8000130A4319624080020006D0886000130D6
:101EF8008700811A08006D08073E860001308700B8
:101F08000130810741310318810A6D08073E8600B8
:101F180001308700403FAA00413FAB0001302B024F
:101F28002C3003192A02031C08006D08073E86009E
:101F3800013087000030C03FC13F6D088600013086
:101F480087008116A2010130A431962408002000E0
:101F58006D08860001308700011D08000130AA00C5
:101F68006D08023E8600013087002A0881076D0847
:101F7800023E86000130870005300102031C08007C
:101F88006D08023E86000130870081016D088600D9
:101F98000130870001116D08033E8600013087007B
:101FA8000030C03FC13F6D088600013087008111B5
:101FB8006D08053E8600013087000030C03FC13FF4
:101FC8006D0886000130870001126D08073E860003
:101FD800013087000030C03FC13F6D0886000130E6
:101FE80087008112A2010130A43196248E3120008D
:101FF8002E089231782208002000E0006008A53100
:102008005525903120006C088600013087000115A5
:102018006C0886000130870081146F08093E86002D
:102028000130870001089F31A5272000DF006C08D8
:10203800053E8600013087005F0881000800200007
:10204800A3002308A731972790312000A208031D79
:102058003F282308013A031D33288E170800230858
:10206800023A031D39288C1508002308633A031D1A
:1020780008008D1608002208013A031D5528230878
:10208800013A031D49288E1308002308023A031D4C
:102098004F288C1108002308633A031D08008D128D
:1020A800080022080A3A031D772821003B08860009
:1020B800870181103B0A860087010030C03FC13F7D
:1020C80020002308013A031D6B288E1708002308F7
:1020D800023A031D71288C1508002308633A031D72
:1020E80008008D16080022080B3A031D080021007D
:1020F8003B08860087018114080020002308031983
:102108008A28220821042004031D9B280030A000EF
:102118000030A1000030A20008000130A500250809
:10212800A3070130A236A10CA00C890B9628FE301B
:1021380022050319B42891280130A5002508A30712
:102148000130A007003003180130A1070030031840
:102158000130A2070130A236A10CA00C890BAF28D0
:10216800FF3022050319C128A0280130A30201303D
:10217800A035A10DA20D890BBC28A11FB9282318D1
:10218800CB28FF30A0057F30A105FF30A205031042
:10219800A30C2308A500A601A7011030A535A60D9C
:1021A800A70D890BD2282508A0042608A104270812
:1021B800A204240803190800A21708002000E00060
:1021C8006008A5315525903120005D080319F728CE
:1021D8006C0886000130870081156C088600013084
:1021E8008700811408006C08860001308700811D73
:1021F80008006C0886000130870081106C08860092
:10220800013087008111A001A00A00309A3105220F
:10221800903120006C08043E8600013087000108D8
:10222800DE006C08053E8600013087005E088100EC
:10223800A001A00A60089F314A27903101309931E6
:102248004821903121006808223E8600023087002C
:10225800011420006C08053E860001308700010843
:102268009D317C252000DE006008143E6F07DF00EA
:102278005F088600013087005E08810008002000A2
:102288000D180D1845293B30A631C426913121007F
:1022980043080319992920000E12FF30A4002408CE
:1022A8002100BF0020000E195629A6312B26913196
:1022B800A631FB26913121003F082000A400240804
:1022C8002100BE002000A50121003E0820002502B3
:1022D80003188029A631FB26913121003F082000F0
:1022E800A4002508A03E860087012408810001304B
:1022F800A4002408A5076829A631FB2691312100EE
:102308003F082000A40024082100BD00A631FB26B8
:10231800913121003F082000A40024082100B700C3
:1023280020000E162100B71B70153630A431C224C8
:1023380091313A30A431C22491312000A2010130F8
:10234800A431882408002000AA002A08013A031DA5
:10235800BD29A53143259131003A0319D5292C30DF
:102368002000A6000130A7000A3093315E23913186
:10237800D52920002A08023A031DD0292C30A600AE
:102388000130A700053093315E2391312100390ACD
:10239800860087010108DA2920002A08033A031D6C
:1023A800DD2901309E31F326913102309E31F3262A
:1023B80091312000A20101309831F12091312000A3
:1023C800A20102309831F120913121006908033EC1
:1023D8008600013087000118080069080E3E860053
:1023E80001308700011069080E3E86000130870021
:1023F800811069080E3E86000130870001156908C2
:10240800083E8600013087000030C03FC13F080009
:102418002000A8007D08860001308700011D080003
:10242800F030A4002408A0002808A531E625923140
:102438007D080A3E86000130870020002008C03F42
:102448002108C13F7D080A3E860001308700403FD1
:10245800A400413FA5007D08063E860001308700A4
:10246800403FA600413FA70025082702031D3E2A3A
:102478002408260203184F2A7D080A3E86000130E8
:1024880087007D08063E840001308500403F803F7C
:10249800413F813F08007D080A3E860001308700E1
:1024A800403FA400413FA5007D08083E860001305A
:1024B8008700403FA600413FA70025082702031DCB
:1024C800672A24082602031808007D080A3E8600A9
:1024D800013087007D08083E840001308500403FB8
:1024E800803F413F813F08002000A9006D08860019
:1024F80001308700811F08006D08860001308700C1
:1025080081136D08860001308700011FC42A6D0AF7
:10251800860001308700011C08006D0A8600013022
:1025280087000110A201A20A2908883100209231EF
:102538002000A2012908A53122259231200029086E
:102548001A3E6F07A7002708860001308700010898
:10255800A8006F08113E8600013087002808810016
:102568006D088600013087000030011B0130A00093
:1025780029089F314A2792310130993148210800B2
:102588002000A201A20A2908A431E22492312000E5
:10259800A2012908A431D224923120006D088600B6
:1025A800013087000030011B0130A00029089F314D
:1025B8004A2792312000A301A40129089B31B223A4
:1025C800923101309931482108002000A6012030BD
:1025D80026020318082B2608A6315D269231200012
:1025E800A4002608210068072000A5002508860009
:1025F80002308700240881000130A4002408A607BF
:1026080020302602031CEF2A6F080C3E860001309A
:1026180087000108A40021006808860002308700AE
:102628002000240881006F080D3E860001308700D5
:102638000108A4002100680A8600023087002000F3
:10264800240881006F080E3E8600013087000108CB
:10265800A40021006808023E86000230870020009E
:102668002408810021006808223E86000230870085
:10267800011D562B6808223E860002308700011192
:10268800690886000130870081126908033E8600C8
:1026980001308700811068081E3E860002308700DE
:1026A8008101810A8B13A431302492319A31362268
:1026B8008B1708002000A9001430A0000030A100EA
:1026C8002708A301A3072608A201A207A7311827F4
:1026D800933120002108A701A7072008A601A60713
:1026E8007808860001308700011C080078088600F9
:1026F800013087008118992B7808860001308700FF
:1027080081142908A8007808033E86000130870054
:10271800280881007808063E8600013087002608D0
:10272800C03F2708C13F8D15080078088600013092
:1027380087008119B72B780886000130870081153A
:102748002908A8007808043E860001308700280878
:1027580081007808083E8600013087002608C03FBF
:102768002708C13F08007808860001308700011A51
:102778000800780886000130870001162908A8009B
:102788007808053E8600013087002808810078080F
:102798000A3E8600013087002608C03F2708C13F4F
:1027A80008002000AC002C08A531FC25933121003D
:1027B800380886008701811C08003808023E860018
:1027C80087010130810741310318810A3808023E28
:1027D80086008701403F2000AA00413FAB0015302A
:1027E8002B02183003192A02031C0800210038089C
:1027F800023E860087010030C03FC13F0130200003
:10280800AA0021003808043E8600870120002A0813
:10281800810721003808043E86008701380A8400B1
:10282800850100080102031C08003808043E8600E0
:102838008701810138088600870181102000A201E4
:102848002C08A431B32493312000A2012C08A43110
:10285800A42493312000A0012C089F314A279331EA
:102868002000A201A20A2C08A431E22493312000FE
:10287800A2012C08A431D224933101309931482186
:10288800933164302000A6000030A7000130933156
:102898005E2308002000A6002608A531552594319E
:1028A80020002608A5002100390A8600870120009B
:1028B80025088100240803199E2C6C088600013025
:1028C80087008116A2012608903123209431003018
:1028D80098316620943120006C088600013087000A
:1028E80081140330A5006C08023E86000130870081
:1028F800250881006C08860001308700011B08004C
:102908006C088600013087000117A001A00A26087C
:102918009A31672220006C08053E86000130870046
:102928000108A5006C08043E8600013087002508D0
:10293800810008006C0886000130870081126C084D
:10294800063E8600013087000108A5006C08043E99
:10295800860001308700250881006C088600013058
:10296800870081146C0886000130870081116C088B
:1029780086000130870001120330A5006C08023E72
:1029880086000130870025088100080021006908B9
:102998008600013087000118152D690A860001306C
:1029A80087000130810741310318810A690A8600CE
:1029B80001308700403F963A031DE42C413F003A1E
:1029C800031D0800690A8600013087000030C03FF7
:1029D800C13F690886000130870001140130A33126
:1029E800EB2394310130A531022594313230200097
:1029F800A6000030A700033093315E2394312100F4
:102A08006908033E86000130870001140130A631B1
:102A1800DF2694312000A401A40A01309B313E2313
:102A2800080021006908063E860001308700013051
:102A3800810741310318810A6908063E8600013082
:102A48008700403F643A031D2B2D413F003A031D88
:102A580008006908063E8600013087000030C03F44
:102A6800C13F01309931482194312100690886001D
:102A78000130870081190800690886000130870045
:102A8800811508002000EA006A08A331CA2395319D
:102A98007C0886008701011C08002000EB010C1C43
:102AA8008D185A2D0C1B5A2D0C1E612D7C08860082
:102AB8008701011B612DEB01EB0A7C088600870169
:102AC8006B088113031D81177C0886008701811F0D
:102AD800712D013099311C2108007C08860087017E
:102AE800811C812D7C08860087018110913143214A
:102AF800953101309E31A12608007C0886008701A7
:102B0800011DB22D013099311C2195317C088600B8
:102B18008701811AA72D01302000E9007C0A860070
:102B28008701690881077C0A860087010108193A2C
:102B3800031D08007C0A8600870181017C08860045
:102B48008701811608007C088600870181127C08AD
:102B58008600870101119D31382508007C08860010
:102B68008701811908007C088600870181153630A5
:102B7800A431C22495313430A431C22495310130B6
:102B8800A331A123080020004B08CF004C08D00037
:102B98004D08D1000310500D510DD2005208D80035
:102BA800D808031DE02D0030CE000030CD000030E5
:102BB800CC000030CB0008004B08CF004C08D000F8
:102BC8004D08D1001730D136D00CCF0C890BE72D2A
:102BD8004F08D2005208D300CC17FF30CB05FF3086
:102BE800CC050030CD054B08D4004C08D5004D0865
:102BF800D600D7018E30D802D81F1E2E5808803A2A
:102C08008F3E0318102E0030CE000030CD0000306B
:102C1800CC000030CB0008000130D736D60CD50CDC
:102C2800D40C890B112E0130CF004F08D807031997
:102C3800372E102E18305802031C342E0030CE00C8
:102C48000030CD000030CC000030CB00080001304F
:102C5800D435D50DD60DD70D890B2C2E0130D802C1
:102C6800D808031D2B2E53080319452ED409D5095E
:102C7800D609D709D40A0319D50A0319D60A03199C
:102C8800D70A5708CE005608CD005508CC0054087E
:102C9800CB0008002000E200E101E10A6208A5314A
:102CA8005525963120006C08093E860001308700C2
:102CB800811C9E2E6208013A031D642E7A08692E33
:102CC8006208023A031D6F2E79080C3E8600013017
:102CD8008700011CE1016108031908006C08093E1E
:102CE800860001308700011C8C2E6C08093E860086
:102CF800013087008110A401A40A620894314E248F
:102D080020006C080C3E8600013087000110080086
:102D18006C08093E8600013087008110A401620812
:102D280094314E2420006C080C3E86000130870048
:102D3800011008006C08093E860001308700811DDB
:102D48000800A5317C25963100380319AD2E2000E6
:102D5800080020006208A5315525963120006C082E
:102D6800093E86000130870081116C08093E860003
:102D780001308700011DD02EDD01DD0A6208903187
:102D8800E220963164302000A6000030A700013010
:102D980093315E23200008002000DD016208903195
:102DA800E220200008002000E7006708A331CA23BA
:102DB80096312100AF08031D2A2F2000A4010130FD
:102DC80094314E2496312000A2010130A431A4246C
:102DD80096312000A2010130A431B324963120009D
:102DE800A401023094314E2496312000A201023011
:102DF800A431A42496312000A2010230A431B324C6
:102E0800963120006F08093E860001308700810155
:102E18006F080B3E86000130870081016F080F3E66
:102E280086000130870081016F08113E860001305D
:102E3800870081016430A6000030A700013093317B
:102E48005E239631013099314821080021002F086E
:102E5800203A031D462F20006F08093E86000130E6
:102E6800870081016F080B3E8600013087008101D1
:102E78006F08113E860001308700810101309931C9
:102E88004821080021002F08013A031D4F2F013067
:102E980088311020080021002F08113A031D582FEF
:102EA80001309C313124080021002F08023A031D0B
:102EB800612F023088311020080021002F08213AA4
:102EC800031D080002309C31312408002000A900AD
:102ED800AB01AA016E08860002308700011E0800B7
:102EE800C030A4002408A0002908A531E6259731A0
:102EF80020006E08323E8600023087002008C03F5E
:102F08002108C13FAB0105302B020318C42F6E08FE
:102F1800323E860002308700403FA400413FA500B2
:102F28002B35083E6E07A60026088600023087006B
:102F3800403FA700413FA80025082802031DA62FEF
:102F4800240827020318BC2F6E08323E8600023080
:102F580087002B35083E6E07A40024088400023041
:102F68008500403F803F413F813FAA01AA0AC42F04
:102F78000130A4002408AB0705302B02031C8B2F5B
:102F8800AA08031D0800AB0105302B02031808002E
:102F98002B351A3E6E07A4002408860002308700ED
:102FA800403FA500413FA6006E08323E8600023031
:102FB8008700403FA700413FA80026082802031DBC
:102FC800E72F250827020318FB2F6E08323E8600DC
:102FD800023087002B351A3E6E07A40024088400AF
:102FE80002308500403F803F413F813F080001306B
:102FF800A4002408AB07C82F0334163417341E3432
:103008001F3420342A342B340B340C340D340E3452
:103018000F34103411341234133414340A34153480
:1030280021342234183419341A341B341C341D3416
:10303800233424342534263429342C342D342E34A6
:1030480000340134023407340834093406340434B3
:1030580005342734283407340734303487346B3444
:10306800F8347F343F34093400345C34A734623494
:103078008634833403342234F83400344434B63488
:10308800103418341D341C34C7340034B234EA34D4
:103098000A34003411345934883431340B342F3421
:1030A8002E3406340434053400343034D3349134A7
:1030B80041340034FE34FE34FE34FE34FE34FE3433
:1030C800FE34FE342000A1002108A0006E083A3E1C
:1030D800860002308700200881002108A0006E08C1
:1030E800423E860002308700200881000800013037
:1030F8002000A2000030A30021082302031D862817
:103108002008220203180800A401A50100302502A6
:1031180002300319240203189C280130A407003048
:10312800A53D00302502023003192402031C912812
:103138000130A2070030A33D80282000A4006D08BC
:10314800860001308700811F08006D0A8600013063
:10315800870001146D088600013087000117A2015D
:10316800A20A2408A431A42498312000A201A20AAA
:1031780024088831002098312000A201A20A2408DE
:10318800A531222508002000A8012F3028020318A5
:1031980008002808003E840098300318013E850086
:1031A8000008A5002508A60028082F3E84009830AE
:1031B8000318013E85000008A5002508A700270878
:1031C800A5002508A2002608A6314426983101301A
:1031D8002000A5002508A807C9282000A300230867
:1031E800A531552520006C08093E8600013087006E
:1031F80022088110031D81146C08093E86000130E5
:10320800870022080110031D01146C08093E86007E
:103218000130870022088111031D81156C08093EC1
:1032280086000130870022080111031D01150800DE
:103238002000A4002408A331CA2399317C08860001
:10324800870181192C297C0886008701811C0800C8
:103258007C088600870181117C088600870181101F
:103268007C0A8600870181017C088600870181121B
:103278003630A431C22499313A30A431C22499316C
:103288000030A331A12308002000A4002408A331A2
:10329800CA2399317C0886008701011C08007C0834
:1032A80086008701011908007C088600870101153E
:1032B8002000A501153025020318080025086F070E
:1032C800A20022088600013087000108A300250813
:1032D800A03E86008701230881000130A200220851
:1032E800A5075E292000A2000530A0002008A10043
:1032F8002208053A031D822905309F292208103A21
:10330800031D88290A309F292208153A031D8E2992
:103318000F309F292208203A031D942914309F2931
:103328002208253A031D9A2919309F292208303A84
:10333800031DA2291E30A0002008A10021080800B2
:1033480020008E100E100E160A30A0000030A100CA
:1033580098317B20993120000E120A30A0000030ED
:10336800A10098317B20993120000E162830A0004A
:103378000030A10098317B20993120000E123030A6
:10338800A60026082100BF0020000E19C829A63172
:103398002B26993120000E19CE290E100E16080082
:1033A800F20020006E08463E860002308700710851
:1033B8008110031D81146E08423E8600023087008A
:1033C800023081027208013A031DF0296E08433E5B
:1033D80086000230870081017208023A031DFA292B
:1033E8006E08443E86000230870081017208033A65
:1033F800031D08006E08453E8600023087008101E3
:1034080008002000A1006E08463E860002308700B2
:1034180020088110031D81146E08423E8600023088
:103428008700023081022108013A031D212A6E0813
:10343800433E86000230870081012108023A031DBD
:103448002B2A6E08443E860002308700810121083D
:10345800033A031D08006E08453E860002308700C7
:1034680081010800230015133030920094011512D1
:10347800951615152000A101203021020318602A95
:10348800210823009100200021082100680720005E
:10349800A00020088600023087000108230093005E
:1034A800A33198239A3101302000A0002008A107F9
:1034B80020302102031C442A23009512A3319823AB
:1034C8002300151108002000A1006E0886000230B4
:1034D800870081146E08463E860002308700200867
:1034E8000110031D01142108013A031D822A6E08E8
:1034F800433E8600023087008101810A2108023A92
:10350800031D8D2A6E08443E860002308700810123
:10351800810A2108033A031D08006E08453E86000B
:10352800023087008101810A08002000E30065302D
:1035380021002902031CA62A64302000E10061084A
:103548002100A90029082000E1006F08093E860033
:1035580001308700610881006308E1006F080B3EB5
:10356800860001308700610881006F08093E8600E7
:10357800013087000108E1006308143E6F07E2008C
:103588006208860001308700610881006308903175
:10359800002008002000A501A60121082004031925
:1035A800FE2AA701A70AA11BE32A0130A035A10D15
:1035B800890BDA2A0130A4002408A707D72A01308A
:1035C800A535A60D890BE42A21082302031DEE2A3E
:1035D80020082202031CF52A2008A2022108A33B86
:1035E80025140130A136A00C890BF62A0130A70258
:1035F800031DE32A2608A101A1072508A001A007A9
:1036080008002000AC002C0803190F2B0130913161
:10361800A7219B3120007D0886000130870020000B
:103628002C088110031D81142C080A3EAB002B08BE
:10363800A2006330903123209B3120002C090139EE
:10364800AB007D08860001308700AB0E01082B0611
:10365800EF392B0681002C090139A631DF269B3171
:1036680020002C090139AB002B08A40001309B3144
:103678003E2308002000A5002508A331CA239B315A
:103688007C0886008701200024080110031D01140E
:10369800A408031D08007C08860087010113701226
:1036A8003630A431C2249B313B30A431C2249B3133
:1036B8007C088600870181117C08860087018110BB
:1036C8007C0A8600870181017C08860087018112B7
:1036D8003630A431C2249B313A30A431C2249B3104
:1036E8000030A331A12308002000AC002C08013AC7
:1036F800031D822B03309131A7219B317B08860063
:103708000130870020002C088110031D81142C082B
:103718000A3EAB002B08A2006330903123209B3176
:1037280020002C090139AB007B0886000130870096
:10373800AB0DAB0D01082B06FB392B0681002C09BC
:103748000139A631DF269B3120002C090139AB0055
:103758002B08A40001309B313E2308002000A6005E
:103768002608A531FC259B312100380886008701F1
:10377800011C0800380886008701200023088110F2
:10378800031D811423080319D72B240899317621A6
:103798009B312000A5002100380A860087012000FF
:1037A80025088100E32BA308031DE32B26081A3EF6
:1037B8006F07A500250886000130870081012100D8
:1037C8003808023E860087010030C03FC13F3808F4
:1037D800043E86008701810108002000A400240817
:1037E800A73197279B3121003B0886008701811C60
:1037F80008003B0A86008701013081074131031820
:10380800810A3B0A86008701403F2000A200413F11
:10381800A30000302302323003192202031C0800DF
:1038280021003B0A860087010030C03FC13F2000CD
:103838002408013A031D232C80308E060800240832
:10384800023A031D2A2C08308C0608002408633A23
:10385800031D080020308D0608002000E6006608D9
:10386800A531BA259C3121003C0886008701011C3E
:10387800492C6808223E8600023087000114200087
:1038880066089A3199229C315B2C20006608143E08
:103898006F07E40064088600013087000108E5002E
:1038A8006F08093E86000130870065088100200006
:1038B80066081A3E6F07E400640886000130870036
:1038C8000108E5006F08113E860001308700650891
:1038D800810001309931482108002000A8007B08A8
:1038E800860001308700811D0800F030A4002408FC
:1038F800A0002808A531E6259C317B08033E8600F8
:103908000130870020002008C03F2108C13F7B0804
:10391800033E860001308700403FA400413FA500D8
:103928007B0A860001308700403FA600413FA70080
:1039380025082702031DA22C2408260203180800C4
:103948007B08033E8600013087007B0A8400013033
:103958008500403F803F413F813F08002000E10053
:103968006108A53155259C313C302000DF006C08EA
:10397800053E8600013087005F0881007830DF004F
:103988006C08063E8600013087005F0881006C08DD
:103998000C3E86000130870001146C08063E860044
:1039A800013087000108DF006C08043E8600013002
:1039B80087005F0881006108143E6F07DF005F0819
:1039C80086000130870001089F31A5272000E0000C
:1039D8006C08053E860001308700600881000800F9
:1039E8002000AC006E088600023087002C08811287
:1039F800031D81162C08AB006E08053E86000230B8
:103A080087002B0881002C080A3EAB002B08A20077
:103A18006330903123209C3120002C080319192D84
:103A280002309131A7219C31200020002C09013956
:103A3800AB006E08860002308700AB0DAB0DAB0DF6
:103A480001082B06F7392B0681002C090139A6310C
:103A5800DF269C3120002C090139AB002B08A4007B
:103A680001309B313E23080020000E127F30A40055
:103A780024082100BF0020000E193F2DA6312B2657
:103A88009D31210040082000A40024082100BF0027
:103A9800A6312B269D312000A501210040082000D9
:103AA80025020318692D2508A03E86008701010814
:103AB800A40024082100BF00A6312B269D31013027
:103AC8002000A4002408A507512D0E163530A43176
:103AD800C2249D3120000D1C6E2D0D18712D36301D
:103AE800A431C2249D313B30A431C224F016080011
:103AF8002000D9000030DA007030DB004230DC00F2
:103B08000030AE00C830AF004230B0005A08B100F3
:103B18005B08B2005C08B300893151219D31200057
:103B28002E08DA002F08DB003008DC005908C43EF4
:103B3800A800FF3003180030A900A73175279D3170
:103B480020002808B1002908B2002A08B3005A0842
:103B5800AE005B08AF005C08B000893151219D318F
:103B680020002E08CB002F08CC003008CD0095315E
:103B7800C72520004B03FF3A643E08002000AB0035
:103B88002B08A331CA239D3121002C082000AA004C
:103B98006F080C3E8600013087002A08810021004A
:103BA8002D082000AA006F080D3E8600013087000E
:103BB8002A08810021002E082000AA006F080E3E66
:103BC8008600013087002A0881006430A600003092
:103BD800A700013093315E239D317C088600870160
:103BE800011321006908033E860001308700811C0B
:103BF800032E6808223E86000230870001156808F7
:103C0800223E860002308700011408002000A6002A
:103C18006D0886000130870081176D088600013025
:103C28008700011B412E6D088600013087000117AF
:103C3800A201A20A2608A431A4249E312000A201D0
:103C4800A20A2608A431E2249E312000A201A20A79
:103C58002608A431D2249E3120006D088600013048
:103C680087000030011B0130A00026089F314A2739
:103C78009E31013099314821080020006D088600E6
:103C88000130870001136D0886000130870000307D
:103C9800011B0130A2002608A431A4240800210039
:103CA8006808223E860002308700811C08006808E8
:103CB800223E860002308700011C992E6808233EA8
:103CC8008600023087000130810741310318810ADC
:103CD8006808233E860002308700403F193A031DDA
:103CE800772E413F003A031D08006808233E8600EE
:103CF800023087000030C03FC13F6808223E86007E
:103D08000230870001106808223E860002308700D2
:103D180081109231E9229E3120008D1E962E2000BE
:103D28008D16080020008D12080021006808223E28
:103D3800860002308700811008002000E80068082B
:103D4800A331CA239E317C0886008701011FB82E43
:103D58002100A008031D08002108643A031D08007B
:103D680001309D31C22508002100A008031D08006C
:103D78002108023A031D08002C08FF3A031DCE2E25
:103D88002D08FF3A031DCE2E2E08FF3A031DCE2E16
:103D98000000080020006F080C3E860001308700F4
:103DA80021002C080106031D080020006F080D3EA5
:103DB80086000130870021002D080106031D080038
:103DC80020006F080E3E86000130870021002E0873
:103DD8000106031D080001309631D726080020008F
:103DE800A5002508A53155259E3120006C088600C0
:103DF80001308700811E08006C08860001308700AA
:103E080081106C0886000130870081116C088600DB
:103E18000130870001126C08860001308700011309
:103E28000330A4006C08023E860001308700240895
:103E380081006C08063E8600013087000108A40056
:103E48006C08043E860001308700240881002100A8
:103E580039088600870101142000A001A00A25085E
:103E68009A3105229E312000A201A20A250890312C
:103E780023209E312000A2012508A431B3249E31BD
:103E88002000A2012508A431A42408002000A400D1
:103E9800A301A30A2408FF3E890A542F0310A30D87
:103EA800FF3E031D522F2408A1006F080B3E860019
:103EB80001308700210881002408143E6F07A10003
:103EC80021088600013087000108A2006F08093E1A
:103ED8008600013087002208810024081A3E6F07F7
:103EE800A10021088600013087000108A2006F08A0
:103EF800113E86000130870022088100200803193E
:103F0800952F6F080F3E86000130870001082304B3
:103F1800A1006F080F3E860001308700210881004C
:103F280008006F080F3E860001308700230901054D
:103F3800A1006F080F3E860001308700210881002C
:103F480008002000DB000030DC007030DD0042306B
:103F5800DE000030AE00C830AF004230B0005C0870
:103F6800B1005D08B2005E08B300893151219F316C
:103F780020002E08DC002F08DD003008DE005B087A
:103F8800D900DA01D909DA09D90A0319DA0A59086C
:103F9800643EA80000305A3DA900A73175279F311B
:103FA80020002808B1002908B2002A08B3005C08DC
:103FB800AE005D08AF005E08B0008931FA219F317C
:103FC80020002E08C1002F08C2003008C3000030AE
:103FD800BE007030BF004230C0008B3186239F3155
:103FE80020003E08CB003F08CC004008CD009531AA
:083FF800C72520004B0808005A
:10463C00A531122508008C317C240800A4310124FA
:10464C0008008D318A2508003A30A431C2240800B4
:10465C003B30A431C22408003630A431C2240800F7
:10466C000130A3316923080001309531462508003B
:10467C0024000D100B178B17080020008E1A080051
:10468C008E16432BFE0012001E00FE0B492B00342D
:10469C00640080010131890B4F2B0034E130200084
:1046AC00A00020082100B90008007D088600013018
:1046BC008700010E01390800F23021009E00C03045
:1046CC0022009700080015302000A00020082100CF
:1046DC00C00008000130A331BF23A3310230A33145
:1046EC00BF23080001309331D523A331023093311D
:1046FC00D52308007B08860001308700010C890C4B
:10470C00013908002000A400A201A20A240890315B
:10471C002320080001308E31AD26A33102308E31BA
:10472C00AD260800553023009600AA30960095144B
:10473C000000000008002000A0008B10201CA82BFB
:10474C000B1608000B120800F2007208013A031D48
:10475C000800E430F1007108FC000800483020002B
:10476C00A0002008F80078088600013087000114AA
:10477C0008002000A2002208A531FC2521003808E1
:10478C0086008701011408002000A1002108013ACD
:10479C00031D0800E430A0002008FC0008002000E5
:1047AC00A0006E0886000230870020088110031DCF
:1047BC0081140800013096314E26A3310230963117
:1047CC004E26A331A631A92608002000A0007D08A2
:1047DC0086000130870020080110031D0114080019
:1047EC0020006E08860002308700010CA000A00C8F
:1047FC00200C0139080020302000A0002008FD000A
:10480C007D0886000130870001160800F40074084A
:10481C00A331AA237C088600870173088110031D2D
:10482C00811408000B1E08008B1C08008B100B1247
:10483C00F301F30A0130A4310C2408003330A43105
:10484C00C224A431E8302000A0000330A10098312C
:10485C007B200800230015133030920091011516AF
:10486C001515A33198232300151108000130A5312B
:10487C003225A4310230A5313225A4316330A53163
:10488C003225080001309B31F123A43102309B31D9
:10489C00F123A43163309B31F1230800A0302000B8
:1048AC00A2002208EE006E088600023087008115F7
:1048BC00A731B927080024000D11043027009400FB
:1048CC000430950096018B150B100B178B170800F5
:1048DC00C4302000A00020082100EA009501A63079
:1048EC00200095008B168B170800A3314323A431AD
:1048FC0024008D100130A3318823A4310230A33160
:10490C00882308002000A3002308A331CA237C08B5
:10491C0086008701200022088111031D81150800E3
:10492C002000A3002308A331CA237C08860087013A
:10493C00200022080113031D011708002000A3000A
:10494C002308A531BA2521003C08860087012000E8
:10495C0022080110031D011408002000A3002308E5
:10496C00A531682520006D088600013087002208DB
:10497C000113031D011708002000A3000E122308C9
:10498C00A20022082100BF0020000E19CA2CA6315B
:10499C002B2620000E1608002000A3002308A531AA
:1049AC00552520006C08093E86000130870022083E
:1049BC000110031D011408002000A3002308A531D9
:1049CC00552520006C08093E86000130870022081E
:1049DC008110031D811408002000A3002308A531B9
:1049EC00552520006C080C3E8600013087002208FB
:1049FC000110031D011408002000A0006E088600A1
:104A0C000230870020080110031D01146E08860077
:104A1C00023087008110080066302000A0002008BA
:104A2C00FB007B0886000130870001147B088600A0
:104A3C0001308700011508002000A3002308A531D0
:104A4C00552520006C08093E86000130870022089D
:104A5C000111031D011508002000A4002408A73132
:104A6C009727A53121003B088600870101142000FF
:104A7C00A20124089031232008002000A00179080D
:104A8C00860001308700011B512D7A088600013009
:104A9C008700011F532DA001A00A20080800200048
:104AAC00A1002108013A031D5F2D2E30A000200823
:104ABC00EC002108023A031D08003B30A00020083E
:104ACC00EC0008002000A1002108013A031D732D01
:104ADC005430A0002008ED0008002108023A031D04
:104AEC0008005D30A0002008ED0008002000A001A7
:104AFC007908093E86000130870081188C2D7A08D0
:104B0C00093E860001308700811C8E2DA001A00A71
:104B1C00200808009931A421A5319831C720A5316E
:104B2C00A7313627A531A3312E23A531A3312A2352
:104B3C00A531A4312424A531A331322308002E3011
:104B4C002000E2006208F90001309C31B224A5314A
:104B5C003B302000E2006208FA0002309C31B224A3
:104B6C00A531A331542308002000A1002108013AEB
:104B7C00031DC52DE630A00020082100BC0020003C
:104B8C002108023A031D0800E730A000200821008C
:104B9C00BC000800A0302000A0002008EF00C030AE
:104BAC00A00020082100E900690886000130870078
:104BBC0081166908033E86000130870081140800C5
:104BCC002000A300230821009D00200020082100C4
:104BDC009E009D149D18F02D1C082000A101A1071A
:104BEC0021001B082000A001A00708002000A10044
:104BFC002108013A031D082ECB30A000200821000B
:104C0C00B800080020002108023A031D0800D0302B
:104C1C00A00020082100B80008007830210099007D
:104C2C00A6317626A631A4316E24A631A331622397
:104C3C00A631A3313E23A631A431612420302000BB
:104C4C00A10021082100E80008002000A101083083
:104C5C002102031808002100BF1F372E20000E145C
:104C6C00392E20000E108E1403102100BF0D2000D1
:104C7C008E100130A0002008A1072D2E2000A400CA
:104C8C000E122408A30023082100BF0020000E19D7
:104C9C004C2EA6312B26A63120002208A300230877
:104CAC002100BF00A6312B2620000E160800200084
:104CBC00A200A30130302300920020002208230020
:104CCC0091001513151414082000A0002008A10051
:104CDC00230013082000A0002008A30023080800CC
:104CEC00773021008C0007308D000C308E002200B4
:104CFC008C0102308D008E01223023008C008D013E
:104D0C008E01773020008C0007308D000C308E0027
:104D1C000800FF30200095007908860001308700DC
:104D2C0001189D2E790886000130870001147A083D
:104D3C00860001308700011808007A0886000130CF
:104D4C008700011408002100390886008701011C26
:104D5C0008003908860087010110A5314325A631CA
:104D6C000038031D08000030A331D523210068084A
:104D7C00223E860002308700811408002000A30028
:104D8C000E122308C03EA20022082100BF00200002
:104D9C000E19CD2EA6312B26A631A631FB262000CE
:104DAC000E1621003F082000A20022082100C3009B
:104DBC0008002000A2000130A5316825A631200092
:104DCC006D0886000130870022080110031D0114B4
:104DDC000230A531682520006D088600013087005F
:104DEC0022080110031D011408002000A101083045
:104DFC002102031808008E1403102100BF0D20009F
:104E0C000E1D0B2F21003F14112FFE302000A0008F
:104E1C0020082100BF0520008E100130A0002008C2
:104E2C00A107FD2E2000A401A501201C212F220882
:104E3C00A4072308A53D0130A235A30D890B222F11
:104E4C000130A136A00C890B272F21082004031D4B
:104E5C001B2F2508A101A1072408A001A007080009
:104E6C002000A701083027020318080027085E3E1F
:104E7C00840098300318013E85000008A500250821
:104E8C00A6002608A5002508A2003E30A63144261F
:104E9C00A73101302000A5002508A707382F63345F
:104EAC000234003400340034003400340034003454
:104EBC00003400340034FF34FF34FF340034003449
:104ECC000034003400340234003400340034003434
:104EDC00003400340034003400340034003420003A
:104EEC00AD01A91F802FA809A909A80A0319A90AAD
:104EFC00AD01AD0A2808A0002908A100A2018E303E
:104F0C00AB002B08A3002D08AC002C08A40090319A
:104F1C00812020002008A8002108A9002208AA004E
:104F2C0008002000A1002108013A031DA32FD9304D
:104F3C00A00020082100BB00080020002108023A34
:104F4C00031DAE2FDD30A00020082100BB0008009F
:104F5C0020002108633A031D0800D530A00020086A
:104F6C002100BB0008002000A1010530210203181C
:104F7C0008002135083E6E07A0002008860002308C
:104F8C0087000030C03FC13F21351A3E6E07A0009C
:104F9C002008860002308700FF30C03FFF30C13F41
:104FAC000130A0002008A107BB2F8B1D0800270093
:104FBC00161D080016110B1021006908860001301F
:104FCC008700011C0800A6318F26A73120000D1D7B
:104FDC00F62F21003908023E860087018101080066
:104FEC000830F10021003908023E86008701710863
:044FFC008100080028
:020000040001F9
:04000E00E4F9FEFF14
:00000001FF
